:02000004901159
:1053000037C30257130383042320030093021000C2
:1053100037C3025713030311232053006F004000CB
:1053200097F2F26F9382023C7390523073500030C8
:105330007350403097E1EE8F9381015217B1EE8F99
:105340001301412C97D2EE8F9382C2AB1703060054
:10535000130343C70B30030097C3EE6F938383F0AF
:10536000638003020B0083FF130303020B3003006F
:105370000B9082FF93820202938303FEE34470FE4C
:1053800097C2F26F9382025A173300001303830F00
:105390000B3003009723EF6F9383C34A63800302AC
:1053A0000B0083FF130303020B3003000B9082FFFB
:1053B00093820202938303FEE34470FE97B2F26F7E
:1053C000938242C4170300001303C3230B3003006E
:1053D00093030041638003020B0083FF1303030266
:1053E0000B3003000B9082FF93820202938303FE33
:1053F000E34470FE97C2F26F9382421A17C3F26FB2
:105400001303C351638A62009303000023A0720058
:1054100093824200E3CC62FE97B2F26F938282FFE6
:1054200017B3F26F13038310638A620093030000C3
:1054300023A0720093824200E3CC62FE9742F36F96
:10544000938242D41773F36F1303C3E4638A620039
:105450009303000023A0720093824200E3CC62FE1B
:1054600097B2F26F9382820C170300001303435D1F
:1054700097C3EE6F938303C0E38E03F6032E0300FE
:1054800023A0C20193824200130343009383C3FF0E
:10549000E34670FEB762000073A002307310300064
:1054A00097B200009382A2CD678002000000000046
:1054B00000000000CAFED00D020000000000000045
:1054C0004253325820312E302E313100000000007E
:1054D00000000000000000000000000000000000CC
:1054E00000000000000000000000000000000000BC
:1054F000756E6B6E6F776E0000000000000000009C
:085500000000000000000000A3
:10560000000000000000000000000000000000009A
:10561000000000000000000000000000000000008A
:10562000000000000000000000000000000000007A
:105A1000E20212904C821190267811903478119005
:105A200054031290686F11905E0312902C7F1190B6
:0C5A30002E751190027D1190A4021290BE
:105A3C006F303044000000006F30D0580000000080
:105A4C006F30F047000000006F3070500000000015
:105A5C0017730D906700038317F310906700C3B49E
:105A6C0017F31090670043B317F31090670043B41B
:105A7C0017F31090670083B317F31090670043B2CD
:105A8C0017F31090670083B117930E90670023F102
:105A9C0017930E906700031F17930E906700431B1C
:105AAC006F80C0650000000017930E906700231AEA
:105ABC006F80806C0000000017B30E906700C3531A
:105ACC0017B30E906700035017E310906700C335AF
:105ADC0017A30E906700A3BF17B30E906700C3D92E
:105AEC00174311906700C31917E3109067006331D7
:105AFC0017E310906700233217E3109067002332EE
:105B0C00174311906700830817E310906700A32CCC
:105B1C0017E310906700832B174311906700A3F0D5
:105B2C00174311906700E3EF17431190670003FED2
:105B3C0017431190670083F6174311906700C30A4F
:105B4C0017B30E906700C35517B30E906700A3529E
:105B5C0017B30E906700035B17B30E906700E35703
:105B6C00174311906700C3F217730E90670023ADB3
:105B7C0017431190670043EB174311906700E3EC58
:105B8C00174311906700A3E817930F906700C35A4F
:105B9C0017930F906700435917930F906700435961
:105BAC0017930F906700635717930F906700033C90
:105BBC0017930F906700033C17930F906700433ABD
:105BCC0017930F906700033C17930F906700233FC8
:105BDC0017A30F906700E39F17A30F906700439DD7
:105BEC0017A30F906700639F17930F906700236BA9
:105BFC0017930F906700E36D6F8040490000000021
:105C0C0017930E90670003AE17930E90670023AEA8
:105C1C006F804048000000006F8080400000000052
:105C2C006F80603E000000006F80C03900000000F3
:105C3C006F802031000000006F80003500000000F4
:105C4C006F804044000000006F8020420000000084
:105C5C006F80803D0000000017930E90670043B9E1
:105C6C006F80C0430000000017930E906700C3A81C
:105C7C0017930E906700039D17930E906700439E39
:105C8C0017930E90670023A017B30E906700037153
:105C9C0017B30E906700836E17431190670083D97A
:105CAC006F706047000000006F70403C0000000007
:105CBC0017930F906700432317930F906700A31D52
:105CCC006F70100D000000006F80001D00000000C0
:105CDC006F80200D000000006F60D04300000000BA
:105CEC006F60903A000000006F60B03F0000000051
:105CFC006F605040000000006F60F03A0000000040
:105D0C006F60903C000000006F60706C0000000041
:105D1C006F70C012000000006F6010630000000084
:105D2C006F60504C000000006F700003000000001A
:105D3C0017D30E906700C38017C30E906700837F44
:105D4C0017C30E906700837D17C30E906700C37D49
:105D5C0017C30E906700837F17D30E906700638084
:105D6C0017D30E906700038317D30E906700E3E000
:105D7C0017D30E906700E3D917D30E90670083D822
:105D8C0017D30E906700A30117D30E90670063DC46
:105D9C0017D30E906700C3D817D30E90670043DC5F
:105DAC0017D30E906700833117D30E906700A32290
:105DBC0017D30E906700632117D30E90670003135F
:105DCC0017C30E906700636217C30E906700635E83
:105DDC0017C30E906700C35F17C30E90670063571D
:105DEC0017C30E906700436517C30E906700A3534B
:105DFC0017C30E906700A34D17030F90670003FCA9
:105E0C0017030F906700632817F30E906700A3A188
:105E1C0017030F906700E32A17E30E906700C32265
:105E2C0017030F906700638517030F906700830BB0
:105E3C0017F30E906700639A17F30E906700A39DFB
:105E4C0017030F906700E30517E30E9067006316C6
:105E5C0017F30E90670043A317F30E906700437C73
:105E6C0017F30E906700C3F917E30E906700C31E7B
:105E7C0017E30E906700E315174311906700A3BC5E
:105E8C0017131090670003E117131090670003DBE2
:105E9C0017131090670043F6171310906700C38C0C
:105EAC00171310906700A3AD171310906700E3AAA7
:105EBC00171310906700638A17E310906700032A8A
:105ECC0017E310906700636717E310906700E328EF
:105EDC0017E310906700A32817E310906700634B3B
:105EEC0017E310906700C32717E310906700632730
:105EFC0017E310906700E36617E310906700835474
:105F0C0017E310906700434A17E310906700235281
:105F1C0017E310906700034817E310906700E34FF6
:105F2C0017E310906700836317E310906700035A20
:105F3C0017E310906700236317E31090670063501A
:105F4C0017E310906700232217E310906700C3211A
:105F5C0017E310906700032117E310906700436369
:105F6C0017E310906700036117E31090670003625A
:105F7C0017E310906700236117E310906700A37478
:105F8C0017E310906700036117E310906700636FCD
:105F9C0017E310906700A37017E31090670043623B
:105FAC0017E310906700036217E31090670003611A
:105FBC0017E310906700436017E3109067000375B8
:105FCC0017E310906700435B17E310906700C35F03
:105FDC0017E310906700035E17E310906700835C73
:105FEC0017E310906700635A17E31090670003598A
:105FFC0017E310906700E35817E3109067002358DD
:10600C0017E310906700435617E310906700435650
:10601C0017E310906700231217E310906700231208
:10602C0017E310906700A31217E310906700631139
:10603C0017E310906700631117E310906700A3112A
:10604C0017E310906700A37817E310906700A3780C
:10605C0017F31090670003A217F31090670003A2C8
:10606C0017D310906700C30F17C310906700A3EAF3
:10607C0017D310906700236517D3109067006356F1
:10608C0017D310906700636217D310906700C36E2C
:10609C0017C30E906700C38517C30E90670043802B
:1060AC0017B30E906700237E17B31090670083031D
:1060BC0017D310906700E3FD17D31090670043F7D8
:1060CC0017D310906700430117D31090670083FF1C
:1060DC0017A31090670003A617A310906700C33C8A
:1060EC0017E310906700238517A31090670003E552
:1060FC0017D310906700C30817D310906700230BB9
:10610C0017D310906700C37117D310906700C36F3B
:10611C0017D310906700633E17D310906700434964
:10612C0017A310906700E3A117B30E906700A37933
:10613C0017D310906700A36617B310906700036B1A
:10614C0017B310906700A3FE17B31090670063C9D4
:10615C0017B310906700A3BF17D310906700A378F4
:10616C0017B31090670083CE17B3109067004328C5
:10617C0017B31090670083CA17B310906700031B06
:10618C0017D310906700C33B17D310906700433AA6
:10619C0017D310906700433E17D310906700033C51
:1061AC0017D310906700033F17D31090670083F448
:1061BC0017D31090670003F917C3109067002327BB
:1061CC0017C310906700232717A3109067006396DE
:1061DC0017B30E906700832117B30E9067006320EE
:1061EC0017B30E906700C32117B30E90670083207E
:1061FC0017B30E906700432217B30E90670003216C
:10620C0017B30E906700631D17B30E906700431C05
:10621C0017131090670043996F70706D00000000A9
:10622C0017E310906700435C17E310906700036658
:10623C0017E310906700036517E310906700836500
:10624C0017E310906700C35C17E31090670083613D
:10625C0017E310906700836217E310906700035BED
:10626C0017E310906700A35A17E3109067000360C0
:10627C0017E310906700036017E310906700035E4C
:10628C0017E310906700835C17E310906700835B43
:10629C0017E310906700835A17E310906700E357D9
:1062AC0017E310906700635317E310906700035FC8
:1062BC0017E310906700035F17E3109067006355B6
:1062CC0017E310906700235517E310906700C35431
:1062DC0017E310906700835417E310906700835402
:1062EC0017E310906700E36417E310906700035402
:1062FC0017E310906700C36017E310906700035B0F
:10630C0017E310906700035B17C310906700A3831B
:10631C0017C310906700C3B717C310906700E3A9A9
:10632C0017C310906700A3BC17C3109067006335A8
:10633C0017D31090670003C817C310906700034B66
:10634C0017C310906700635517C310906700436C18
:10635C0017C310906700A37817D310906700E387DA
:10636C0017D3109067004392173311906700236D79
:10637C0017D310906700838017930F906700036FFB
:10638C0017A30F90670063C217930F906700436DBC
:10639C0017930F906700836A17930F906700C3677A
:1063AC0017930F906700C36817930F90670083676C
:1063BC0017930F906700C36417930F9067000365E2
:1063CC0017A30F90670023C417930F90670083687F
:1063DC0017930F906700637F17930F906700A37F4D
:1063EC0017930F906700E37F17A30F906700C3C14B
:1063FC0017930F906700436517A30F906700C303B3
:10640C0017A30F906700630117A30F906700230079
:10641C0017A30F906700230117A30F906700634029
:10642C0017A30F906700630C17A30F906700A306C8
:10643C0017A30F906700630517031090670023BD27
:10644C0017031090670083C3170310906700C3D61F
:10645C0017031090670023F717031090670043BBD6
:10646C0017B30F906700E33817D30F90670003D86A
:10647C0017B30F906700234517B30F906700C347FE
:10648C0017D30F906700E3C117B30F90670083FE1B
:10649C0017B30F906700631F17B30F906700E328C3
:1064AC0017B30F906700A32E17D30F90670003C686
:1064BC0017D30F90670023BE17B30F90670083ADFF
:1064CC0017B30F906700A3E817D30F906700C3C4EE
:1064DC0017D30F906700A3B517630E906700A3E066
:1064EC0017630E906700C3E217630E90670023E5F5
:1064FC0017630E906700C3E717630E906700A3EA5B
:10650C0017630E906700C3ED17630E9067002304AA
:10651C006F20B04C000000006F4070650000000060
:10652C006F20904D000000006F50800F00000000A5
:10653C006F009016000000006F00B010000000000B
:10654C0017630E906700A39C17A30E906700E34E91
:10655C0017A30E906700835A17A30E906700A35AD7
:10656C0017A30E906700C35117A30E906700434CFE
:10657C0017A30E906700C35717A30E90670083569E
:10658C0017A30E906700635517A30E906700435432
:10659C0017A30E906700035917A30E906700C35BF7
:1065AC00171310906700838917A30E906700E36C94
:1065BC0017A30E9067006361173311906700C34CEB
:1065CC0017D310906700E32917131090670043C688
:1065DC00171310906700C3CC17131090670003BDFE
:1065EC0017E310906700634A17E310906700634944
:1065FC0017E310906700034917E310906700A34856
:10660C0017E310906700C3476F50000B00000000A9
:10661C006F20505100000000170310906700A31B5F
:10662C00170310906700632C1703109067008321E9
:10663C00170310906700232D6F20503200000000CC
:10664C0017A30E906700A354173311906700C3442F
:10665C00173311906700A3421733119067008343DF
:10666C002C0107000700170005020200FFFF0000C5
:10667C0001000000010000000100A00F900F10109D
:10668C00B00F1000B80A380AB0111010080090268C
:10669C00301D2805383304010808182B0401B011EB
:1066AC000800701E04011000701B10007809100007
:1066BC00D809380B1000380BB80A0800D028050090
:1066CC004C380401004006010A00000503000A00D2
:1066DC000A00000500FC100732FC064C08000A00FA
:1066EC00020002000A00000060EA00001400000032
:1066FC00409C00000A00010001009700080A0000FD
:10670C0000000000C06D1190FFFFFFFF00000000B3
:10671C00286E696C29000000286E756C6C290000CD
:10672C00280000006E000000750000006C000000E6
:10673C006C000000290000000000000000000000B8
:10674C00C83E0300F63D0300763103003AF0149086
:10675C0034F01490CA1E0300421F0300E82C0300FF
:10676C0040F0149052F0149044F014904AF01490AD
:10677C00010000000000000000000000000000000C
:08678C0000000087000000007E
:106794000001000044941290010200005A941290E7
:1067A4000203000068941290030200006A9412909D
:1067B400020400007096129004050000489612909E
:1067C400050400004A961290040200000000000034
:1067D40002000000749412901C2500009411000023
:1067E40000000000000000000000000000000000A5
:1067F4000000000000000000000000000000000095
:106804000000000000000000000000000000000084
:1068140000000000000000001E90040000000000C2
:106824000000000000000000000000000000000064
:106834000000000000000000000000000000000054
:106844000000000000008000000000087A0C000036
:10685400EEEF332B1D1CA2000D0000000001000010
:10686400A27C0100AD7C010001010000A27C0100BA
:10687400AD7C0100FFFFFF000000000000000000ED
:10688400FFFFFF000000000000000000D4000080B3
:1068940000500000CC000000030303003CA00100F2
:1068A40040A0010044A001007EA00100F6A0010068
:1068B40010A10100569F01005A9F01005E9F010034
:1068C400909F010008A0010022A0010038B204003A
:1068D4002CB2040030BC1290C6BC129028BD129099
:1068E400F4BD129000180400F4170400A2A10100E2
:1068F4001AA20100000000000000000000000000D7
:106904000000000000000000000000000000000083
:1069140000000000101804000418040014A301006F
:10692400C0A3010024A40100B8A40100FFFFFFFFDD
:10693400FFFFFFFF060000001E00282300000000E8
:106944000000000000000000000000000000000043
:106954000000000000000000000000000000000033
:106964000000000000000000000000000000000023
:1069740000000000B012020000000000000000004F
:106984000000000000000000000000000000000003
:106994000000000000000000AE1202000000000031
:1069A4000500640002056400000000002D01DD0103
:1069B4005A02BB020A034D038703BA03E803110416
:1069C40037045A047A049804B404CE04E704FF0498
:1069D40015052A053E0552056405760587059705C4
:1069E400A705B605C505D305E105EF05FB050806B2
:1069F400140620062C06370642064D065706610685
:106A04006B0675067F06880691069A06A306AC06F1
:106A1400B406BC06C406CC06D406DC06E306EB06C4
:106A2400F206F906000707070E0715071C072207D9
:106A340029072F0735073B07410747074D0753072A
:106A440059075E0764076A076F0774077A077F07A9
:106A5400840789078E07940798079D07A207A7074D
:106A6400AC07B007B507BA07BE07C307C707CC070B
:106A7400D007D407D907DD07E107E507E907ED07E4
:106A8400F107F507F907FD070108050809080D08CE
:106A94001008140818081C081F08230826082A08C8
:086AA4002D0831083408380800
:106AAC0000000000288136C45800B286A19D014622
:106ABC002A842AC202C62123228597E0F26FE7803E
:106ACC00C0022481588019E17D55548000416DFC31
:106ADC00B7A90400AA8403A50983B14597F0F26F06
:106AEC00E780400288C06DD1F1262A8909C98C4003
:106AFC0003A5098397F0F26FE780000980C04A85EF
:106B0C00E9B7388015C12A840841E52EB7A70400DF
:106B1C00AA840C4003A5078397F0F26FE780C006A8
:106B2C0026852320040034807D55F5BF188199C932
:106B3C0036863AC4AE8632C65800014699452AC2FA
:106B4C00BD2914817D55F5BF81450DABB1AB6DAD44
:106B5C006F00607915C11C41139707014183BB7607
:106B6C000714B796040083A6C6775B97E6147827BC
:106B7C00BB11070191E3BDAB7D558280288011C507
:106B8C002A840841E923232004002480AE8709C904
:106B9C003BF40502AA851395070141816F00700C27
:106BAC007D558280788201E5814426857482B7AA5E
:106BBC0004002A8403A50A83AE8991453689328A5A
:106BCC0097F0F26FE78000F4AA8479DD23170100B7
:106BDC0052CC9307F07FCA8663E527019F06000815
:106BEC000000A9472316F1002C0093070010480061
:106BFC0036CA3ECE22C44EC802C2EF10C00E09C91E
:106C0C0003A50A83A68597F0F26FE780E0F769BFCA
:106C1C0092479CC059BF05C12880B7A7040000410A
:106C2C00AA8503A5078397F0F26FE780E0F522852C
:106C3C0020806F00507E8280288005C95C4195C7FA
:106C4C001C4185E72A84484597F0F26FE78040C9DC
:106C5C0009CD484497F0F26FE78080C81844504043
:106C6C00A286894520806F00B01A7D55248001C50D
:0C6C7C000A216F0010337D55828000005B
:106C8800188037C702578357070981460146A19FD5
:106C9800F99BA19F2318F7089F05CE2904000147F7
:106CA8001305F00471359F07803B040083C5F70482
:106CB8001305F004713D1305F00497B0F26FE780F7
:106CC800E0D6B7D7025723A00794054723A0E79437
:106CD80023A6E794148058803B712508C1C12E89EA
:106CE800AA8997B0F26FE780E0D51F07E01F002060
:106CF8000043AA84631EE402268597B0F26FE780FA
:106D080020D58145714597B0F26FE780A0C3AA846A
:106D180031C92304350131051D2897B0F26FE7808A
:106D280060D25C4089CF44C080C0DCC084C301A865
:106D38001C24639C37011305C4001128268597B0CD
:106D4800F26FE780E0D001455480004065B7C14646
:106D58004A86B6851773F26F670023CF1F050100B7
:106D68000080DDB71F0505000080F9BF00000000A6
:106D7800AA8798233B070720930677FF3BE506057C
:106D88003B05072BBB1B072D85468507014509A831
:106D98008507C5B78146D5BF5B15A00A8507198D3C
:106DA8009823130707FDBB6CF70A99E23305A04047
:106DB80082808146E1BF0000000102020303030351
:106DC8000404040404040404050505050505050573
:106DD8000505050505050505060606060606060653
:106DE800060606060606060606060606060606063B
:106DF8000606060606060606070707070707070723
:106E0800070707070707070707070707070707070A
:106E180007070707070707070707070707070707FA
:106E280007070707070707070707070707070707EA
:106E380007070707070707070808080808080808D2
:106E480008080808080808080808080808080808BA
:106E580008080808080808080808080808080808AA
:106E6800080808080808080808080808080808089A
:106E7800080808080808080808080808080808088A
:106E8800080808080808080808080808080808087A
:106E9800080808080808080808080808080808086A
:106EA800080808080808080808080808080808085A
:106EB80008080808080808083881B724002083A7AC
:106EC80084E02A843EC61DC9280097E0F26FE78057
:106ED800C09E224593074400232004001CC45CC0C4
:106EE80097F0F26FE780E0500145B24703A784E0CE
:106EF800638AE70097E0F26FE780C0B51F05061CBC
:106F08000002E5B734813881B724002083A784E0E4
:106F18002A843EC629C1280097E0F26FE780E099ED
:106F28001C44130744006394E7022320040001442F
:106F3800224597F0F26FE780C04BB24703A784E081
:106F48002285638EE70097E0F26FE780A0B01F0408
:106F5800081C0002F1BF1F04061C0002F9BF34819F
:106F68001880EF10E0280145148048802A842E8973
:106F780097F0F26FE78060464C4023200400AA8413
:106F880089C9B7A7040003A5078397F0F26FE780C4
:106F9800E0BF81475CC01CC49F07749704009C43F2
:106FA800DC4791E711281F050109000244804A8542
:106FB800829719200145DDBF268517F3F26F670018
:106FC80043438880AA8ACDC21F0A74970400832786
:106FD8000A00D9CBDC4FC9CBBA89368432892E8BCB
:106FE8008297AA8451C54209135909416346090881
:106FF80097F0F26FE780603E9C402A898DEF80C051
:1070080063800904B7A7040003A50783B14597F077
:10701800F26FE78060AF2A8419C53146CE8597A004
:10702800F26FE780A0FEC0C001EC15281F04030919
:107038000002228584802D201F0404090002D5BF88
:10704800392883270A0001449C4BE5D7DA85568501
:1070580082972A8479DDD6852685013FD9BF4A855E
:1070680017F3F26F6700E3381F0401090002D1B774
:107078001F040009000275BF1F040909000255BF5B
:1070880028809F07749704009C432A8481CBDC4F97
:1070980091C7829701C9A2852080C1BD1F0501093A
:1070A800000224801F0500090002E5BF9F077497AE
:1070B80004009C4381C79C4B91C382871F0501092B
:1070C800000282809F077C97040098439F06809760
:1070D8000400D4C294C28145230707009C420CCB0C
:1070E8008505D0431CC350C3D04318C2D8C3510729
:1070F8003B9AF51401458280288021C92A8497F09B
:10710800F26FE780802D1F07809704005C43639A25
:10711800E70097F0F26FE780C02D1F05031D0002FE
:107128002480D443984398C2984354C30147854662
:10713800DAA7F4A798C7DCC39CC39C4B1CC097F084
:10714800F26FE780002B0145E1BF1F05021D000219
:10715800C1BF488093140501C180BBFB14149F076D
:107168007C97040080432A8997F0F26FE780E02635
:107178005B1494141C486311F9047C2495CF5C407B
:107188006310F4045E248DEF7CA49F0780970400AD
:107198009C431357090105071BA7E42018C8D843C7
:1071A8001CC058C0D84300C3C0C3014497F0F26F55
:1071B800E7802024228544801F04011D0002FDB7BA
:1071C8001F04091D0002DDB71F04011D0002DDB701
:1071D8009F07C097040098439F06B8970400D4C23D
:1071E80094C2130707028145230207FE9C42232607
:1071F800B7FE8505D0431CC350C3D04318C2D8C3BB
:10720800130707033B99F50A01458280788055CE1C
:10721800E9C161C393064700B3B7D502DDEFAE8479
:10722800B385D502B7AA040003A54A83BA8932896F
:1072380097F0F26FE780408D2A8A45C597F0F26F84
:10724800E780A0199F07B8970400C0436311F402B0
:1072580097F0F26FE780E01903A54A83D28597F08B
:10726800F26FE780A0921F050406000274801C409C
:1072780054409CC21C40D4C385472302F4FE9307A4
:1072880084FF232EF4FE232CF4FE930784005CC4B1
:107298001CC4231394FE231434FF232044FFA302A9
:1072A80004FE231A04FE231B94FE231804FE23194C
:1072B80004FE40C000C097F0F26FE7808013832778
:1072C800C4FE01452320F90055B71F050C0600022E
:1072D80071BF1F050D06000251BF1F0503060002FE
:1072E80071B71F050206000251B758801314050133
:1072F8004180BB7E240A9F07C09704009C43AA8450
:107308005B94873097F0F26FE780200D5C44AA8980
:107318006392F4085C20BDCF5C4C13078401639F23
:10732800E7065C5093040402639AF4065C5413075E
:1073380084026395E7067A285E28BA977A206393D1
:10734800E7065C30014999EBB7A704000C4003A598
:10735800478397F0F26FE78060832A895C4401478E
:1073680058A093D607018506A19F9BA7D7205CC488
:107378009F07B89704009C4318C0D8431CD058D026
:10738800D84304C3C4C34E8597F0F26FE780600604
:107398004A8554801F090A060002F5B71F09080626
:1073A8000002D5B71F090B060002F1BF1F09050629
:1073B8000002F9BF488029CE32842E89AA8497F02A
:1073C800F26FE78080011F07C89704005C43639A47
:1073D800E70097F0F26FE780C0011F05030700027E
:1073E80044809843D44398C2984354C30547238C98
:1073F800E7FEA38C27FF239D97FEDCC39CC383A7CE
:10740800C7FF1CC097F0F26FE780A0FE0145C9BF17
:107418001F0502070002E9B79F07C49704009843B5
:107428009F06C8970400D4C294C221078145230C43
:1074380007FE9C42232EB7FE8505D0431CC350C3CC
:10744800D04318C2D8C34107BB99F50A01458280C9
:10745800C167FD172E866304F5008145A1BF1F058E
:107468000807000282802E863B720502854599B77F
:107478001F05080700028280488093140501C18017
:107488003BFC140A9F07C497040080432A8997F09D
:10749800F26FE78080F41B0494081C20B1C35840A5
:1074A8006310E904584493068400639FE6029357E7
:1074B800090185079BA7F420230004005CC09F07EF
:1074C800C89704009C43D8431CC458C4D8430144FB
:1074D80014C3D4C397F0F26FE780A0F122854480EB
:1074E8001F0401070002FDB71F0409070002DDB7EA
:1074F8001F0401070002DDB71E291F07DFFF000078
:107508006361F702C1071EA99F07DC9704009C432B
:10751800D8431CC158C1D84308C3C8C323060500B3
:107528008280BD8BCDB7488237290020832789E028
:107538009F06DC970400D4C23ECE9F07D89704006C
:107548009C4394C20146984292AB05064C4398C3AB
:10755800219ECCC34C439CC15CC3938747023B1A12
:10756800F61081473EC49F07A25404003EC2930709
:1075780000603EC81F04889704009F077FDC1690B0
:1075880001483ECA50C8930700104C000A8542C6FD
:107598003ECCA12FAA8421E1379704008247032714
:1075A800877F9F05E49704001CD4DB17F75C984796
:1075B800130584001367270098C797E0F26FE780E8
:1075C80040DCF247032789E02685638AE70097D0E5
:1075D800F26FE78020489F040C030002DDB7448265
:1075E80028807C252A848DE75C3589C7F917819F17
:1075F8003BF807021C4C379504001CC4A2851305F0
:10760800057997E0F26FE78040D88D475CA4248025
:107618005C48D5B788803DC93BFF150341C2D9C234
:10762800BA8A368AB2892E8B2A8997F0F26FE78058
:10763800C0DA9F07DC970400C043631AF40097F090
:10764800F26FE78000DB1F050403000284804440DA
:107658001C409CC01C40C4C3814444C004C097F073
:10766800F26FE78000D989475CA41E2823203403E1
:10767800A306640164A4232A2401232C2401232EB5
:10768800540104C42310FA000145C9B71F050103BA
:1076980000026DBF1F05020300024DBF1F05000356
:1076A80000026DB71F05030300024DB748802A8406
:1076B800AE8497F0F26FE78040D22A89228597E05E
:1076C800F26FE780A0EC2A8419E515201F04050352
:1076D8000002228544805C25BB8E07023BE117022D
:1076E8003B8607031F040E0300021120DDB74A85FD
:1076F80017F3F26F6700E3CFAA85379504001305E7
:10770800057997E0F26FE780E0CB89475CA423070F
:10771800040099C044C804CC2285D9350144F1B786
:107728001F0406030002D1B70146814541B73880DE
:107738002A8497F0F26FE78040CAAA84228597E0EE
:10774800F26FE780A0E42A8419E535201F040503B9
:107758000002228534805C253B850702BBE01702C6
:107768003B8807031F040E03000221A01F040D031A
:1077780000021120F9BF268517F3F26F670063C76F
:10778800AA85379504001305057997E0F26FE7801D
:1077980060C389475CA4230704000144D9BF1F04C0
:1077A80006030002F9B748802A8497F0F26FE78051
:1077B800C0C22A89228597E0F26FE78020DD2A84FB
:1077C80019E515209F0405030002268544805C25E1
:1077D800BB8D0702BBE017023B8607039F040E031D
:1077E80000021120DDB74A8517F3F26F670063C006
:1077F800AA85379504001305057997E0F26FE780AD
:1078080060BC2307040085475CA47C348144F1FBF9
:107818002285DD31F9B79F0406030002D9B79F0717
:10782800FC97040023A007000145828028809F0759
:10783800049804009CC3DCC39F07F897040098438E
:107848009F06F0970400D4C294C21307C7020144EC
:107858008547231CF7FC9C42232487FE0504D0435C
:107868001CC350C3D04318C2D8C31307C705BB18DD
:10787800F40FEF00D0079F05109804001F058897A4
:10788800040097E0F26FE780C0AF9F0700980400FC
:1078980080C30145248028801C452A8463CB0700C7
:1078A800B7A704000C4903A5478397E0F26FE78068
:1078B800E02D9F07F0970400D44323280400130702
:1078C800C40214D85CD498C2D8C324803881B724A1
:1078D800002083A784E028003EC697D0F26FE78097
:1078E800C0FD9F0704980400C0436310F4022245BA
:1078F80097F0F26FE780E0AFB24703A784E0638FA9
:10790800E70097D0F26FE780E014228597E0F26FE6
:10791800E78080C9130544FDBD3FE1B73481788114
:10792800B72A002083A78AE0AA892E843EC6630569
:107938000516638705169C49638807169C41638969
:107948000716DE213BFD5720B7A7040003AA47838B
:10795800DC4589E79F0700080000DCC544445285E0
:1079680097E0F26FE780A026636C95144844952849
:1079780048C4AA8413050020AD2063E7A4145C441E
:107988001307F0106372F71495201F09F09704008D
:1079980083244900638A240F938744FDF5CB268509
:1079A80097E0F26FE78040C005284C445285414675
:1079B80097E0F26FE780E0192A8A15ED05288327FA
:1079C800490023A024011F0400020003DCC084C373
:1079D80023229900112079A8224517F3F26F670036
:1079E80043A1C14517D3F26F6700E314280017D3EA
:1079F800F26F670083EC2A864C4403A584FEEF00EF
:107A0800B0201C44184023AAA4FC23ACF4FE5C4418
:107A180023A244FF23A804FE23A0F4FE5E2023A68D
:107A2800E4FE13878401D8CC98CC1848239DF4FC35
:107A38008147DCD4DCC89CD09CD4854723AEF4FCB9
:107A480023AA04FE23AEE4FE9307000081CFB7A764
:107A5800040083A7079503A584FECC4B970000007C
:107A6800E70000008947239CF4FC83A784FE0144B7
:107A780023A0F900B24703A78AE02285638AE704B6
:107A880097D0F26FE78000FD1F041102000299B73A
:107A98001F04010200023DBF1F0407020002D9BFF4
:107AA8001F0401020002F9B71F0405020002D9B73A
:107AB8001F04040200027DBF1F04030200025DBF11
:107AC8001F04200200027DB71F04060200025DB7F2
:107AD800748148819F04F89704003729002080406A
:107AE800832789E05B14A45C3EC61C44898B6391A0
:107AF8000712280097D0F26FE78020DCCD2813F713
:107B080017006313071013F7070115C39F0788971A
:107B18000400985329C70547D8D71F040B02000350
:107B280011205DA0224517F3F26F6700838C13F7CD
:107B380047004DC71305C40297E0F26FE780A00D18
:107B48007D20ED9B5EA0652093F7070A91C72285EB
:107B580097E0F26FE78040A95928F59B5EA041287D
:107B680013E617007D5752A038C023260404C18BA2
:107B7800D1C71C4463CE07009F07049804009C43A8
:107B88001307C402D4435CD414D8D44398C2D8C3CE
:107B98009F070098040098409C43DB17F75C5848FF
:107BA800D2A3D8CB184898CB185498D785475EA04D
:107BB80097D0F26FE78000EB0DCD9F078897040000
:107BC8000947D8D785370144B247032789E022857A
:107BD8006384E70497D0F26FE780C0E7A18BA5D74D
:107BE8001305C40297E0F26FE780009CA9BF5E20EE
:107BF800828097E0F26FE780400BE9B785475EA087
:107C080022855139014429BF1F040A02000209BF15
:107C18001F04140200024DBF44819F07009804000E
:107C28009C436374F50081456DB51F05070200028A
:107C38008280488137290020832789E03EC69F0734
:107C4800009804009C43637DF5089F07F89704009B
:107C580080435B14A45C280097D0F26FE780E0C5EE
:107C68005E20A24413F7170025E713F727002DC756
:107C780013F7D7FF93F78702219F91CB5AA00144AE
:107C880011202DA8268517E3F26F670083766E20F2
:107C9800136747005AA005461305C40297E0F26F20
:107CA800E78080F3C5379F070C9804009C43014484
:107CB800858B89C797D0F26FE780E0C0B24703276A
:107CC80089E022856382E70297D0F26FE78080D847
:107CD8001F040A0200026DB71F04090200024DB713
:107CE8001F0407020002D9BF448128802A8405396D
:107CF80001E50840208035BF2480288237240020F1
:107D0800832784E023270100232B01003ECE9F0711
:107D18001A5704003EC2930700403EC83795040036
:107D28009F0788DC16903ECA4C00FD471305457A2C
:107D380023250100231D01002314F1007D3719EDCF
:107D48009F07889704001F07F89704001843DC4F23
:107D5800DB17F75C98471367270098C7F247032794
:107D680084E06386E70097D0F26FE780A0CE248294
:107D78005881B729002083A789E0AE843EC63BF628
:107D880025209F07009804009C43637AF5089F0705
:107D9800F897040080435B14A45C1C44898BC1E7FA
:107DA800280097D0F26FE78040B15E2013F71700E4
:107DB80031EF13F7470031C71309C4024A8597E02A
:107DC800F26FE78040E5054666A0A6854A8597E0FC
:107DD800F26FE78060E005448144224597E0F26F46
:107DE800E780206109C497D0F26FE780C0ADB24741
:107DF80003A789E02685638CE70297D0F26FE780B6
:107E080060C5918366A013F41700F9B701449F0475
:107E18000A020002D9B79F0403020002C9BF9F04E7
:107E280007020002E9B79F0414020002C9B754818F
:107E38005881B729002083A789E02A892E843EC665
:107E4800E9C99F07009804009C436378F50C9F07D5
:107E5800F89704008443DB94A45C280097D0F26F61
:107E6800E780A0A5DE2013F7170011CF71281F05A2
:107E78000A020002B24703A789E06384E70A97D0A1
:107E8800F26FE78020BDC18BADEB9C407CC4DE2047
:107E98003146938504045EB0FE20130504037EB0CA
:107EA800DC443CC09C487CC09790F26FE780001689
:107EB800FC449054FD465CDCDC4C930500022285B2
:107EC8001CD49C50232024035CD49760F26FE78075
:107ED800E07ADC4488486C40130644053E957C44AF
:107EE800419928C4B307F5403CC897D0F26FE780A2
:107EF800A05328CC11280145B5BF97D0F26FE78071
:107F080060B641F58A8759B7224517E3F26F6700D3
:107F1800434E1F0501020002B1BF1F050702000200
:107F280091BF548118809F07189804009C43130739
:107F3800703E6378F70097C0F26FE78020BF014575
:107F480014801F0500040002E5BF38802A8415CD7F
:107F5800AE842E8681459790F26FE780200C130738
:107F6800C400938744FF18C058C018481CC49385A0
:107F7800C4FE9D579BC5F5CAB7070080F98FCD8F02
:107F8800232604001CC8054534800145F5BF41116E
:107F98002A8722C626C4054505C79DC15C430148FA
:107FA80081440144B1468DE31C47054563EAD70087
:107FB800958F94C180C5DCC123A6050184C90145FC
:107FC8003244A24441018280D043370500407D15E8
:107FD80093181600718D63D70800A106AA960508A4
:107FE8009C43D1B76373A4002A848504D5BF488114
:107FF80037290020832789E0AA842E843EC60545B8
:108008009DCC3BEF0515B3E7B4008D8B89CF1F05D9
:1080180040DD169097A0F26FE780C09B930534006F
:10802800F1991384C5FF280097D0F26FE780E088A4
:10803800A2852685193FA24701ED31280545B2479B
:10804800032789E0638EE70097D0F26FE78080A06E
:1080580019200145EDB73E8517E3F26F67006339D4
:108068004481054669B728801F04349804009F0599
:10807800A0CE000008C0F5371C401F073098040048
:108088001CC324805882B729002083A789E02A8945
:108098002E843ECE854415C18DC1480097D0F26F1D
:1080A800E780A0812C004A85DD35AA84124585C069
:1080B80097E0F26FE780E0338544F24703A789E051
:1080C80026856385E70297D0F26FE780A098A247DC
:1080D8001CC0B2475CC0C2471CC4D2475CC4E2475C
:1080E8001CC897E0F26FE780C030C1BF54829F0779
:1080F8003C9804000147DCC39CC30507A1073B1E4D
:10810800F72082801F052082119082801880AA871C
:108118003B74355A3BF535070145BBE3171A9917E8
:10812800939627001D478D830D8FFD171376F70F44
:108138003BF707073E8513F7C601BD4797E0F26F87
:10814800E780C01F26364452606E7C00F32700BCCF
:108158003D473317D7001347F7FFF98F3317D6007A
:108168005D8FBA82739002BC1480F32610BC852000
:10817800BE82739012BC0145C5BFF32620BC81287E
:10818800BE82739022BCC5BFF32630BC8920BE8254
:10819800739032BCCDB7F32640BC1528BE827390CD
:1081A80042BCD1BFF32650BC1D20BE82739052BC86
:1081B800D9B7F32660BC2128BE82739062BC65BF24
:1081C800F32670BC2920BE82739072BC6DB7B3973A
:1081D800E70093C7F7FFF58F3317E600D98F828042
:1081E8001F050009000249B71F0505090002ADBFB8
:1081F8009F0734930400694723AC071223AE071284
:108208000507B1073B1DF75AB79704001F072882D7
:10821800119023AAE7768280504C49430000000061
:108228000000000026630400D6620400A262040075
:1082380014811190866204000C8111908E620400F2
:108248000A6304000145828028802A8497E0F26F3F
:10825800E780A0189F070C1E002080C397E0F26FEC
:10826800E78020190145248048811F043C990400B7
:108278005E242A89AE843BE327028D471EA0FD5762
:108288001CC49C442311240104C85CC097D0F26F1D
:10829800E78000401E205A2436201044AA851F0576
:1082A800548311909790F26FE780C0720848114488
:1082B8008328C508032845011C49584514455041E1
:1082C8000C4193040501484D2AC01F05888311906D
:1082D8009790F26FE78000709F07E8831190A2974C
:1082E80083C7C7FFA2851F05DB8311909B87F40412
:1082F800904305049790F26FE780C06D3B17F42018
:108308004481B7A7040083A7C780858BA5DB97C0E6
:10831800F26FE780207519C189478DB785471EA080
:1083280097D0F26FE780603508C4A1BF28802A84FF
:1083380097E0F26FE780600A9F07101E002080C355
:1083480097E0F26FE780E00A014524807461736B5F
:108358003A25730A746872645069643A30782578EB
:108368000A747970653A307825780A6E65737443B3
:108378006E743A25750A70686173653A25750A0046
:108388006363617573653A307825780A6D63617542
:1083980073653A307825780A6D7476616C3A30786E
:1083A80025780A67703A307825780A6D7374617495
:1083B80075733A307825780A6D6570633A30782598
:1083C800780A72613A307825780A73703A307825DD
:1083D800780A0058252D3032753A307825780A0009
:1083E800021E1D1C0F0E1B1A1918171615140D0C3A
:1083F8000B0A09080706050413121110188097E0E4
:10840800F26FE78080FD01A0488032842E892E8695
:10841800AA849F05CACACACA22859790F26FE780C4
:10842800E0BF9F07CCCCCCCC130509EF22951CC02C
:108438009F07020202021CC5130785009306C51098
:108448001C431F06010101011107B2971CC3E31960
:10845800D7FE9F07807800001CC19F072A57040099
:108468005CC19F07048411902320051064D57CDD2E
:08847800448000000000000038
:1084800028802A8411C9EFF02FFE19C5228520808B
:1084900017130E906700C3362480B7A70400AA857F
:1084A00003A507836F40801C3880B7A70400AA8506
:1084B000AA8403A50783EF40601B2A8411C5A68602
:1084C0000146A685EFB09F87228534803880B7A704
:1084D0000400AA85AA8403A50783EF40C01D2A844F
:1084E00011C5A6860146A685EFB05F85228534803A
:1084F000B7A70400AA8503A507836F40601FB7A72D
:108500000400AA8503A507836F4040163880B7A7EB
:108510000400AA85AA8403A50783EF4020152A84B6
:1085200011C5A6860146A685EFB05F8122853480FD
:10853000C1B70F00F00F8280397106CE2ED232D42F
:1085400036D63AD83EDA42DC46DE09C54C102EC695
:10855000EF30C04FF2402161828001C508416F3089
:10856000A0037D55828048802A84AE843285368976
:1085700001CC3B0206FFEF30306DAA8608404A86E8
:10858000A68540806F2030747D5544806F30C003D5
:108590001880EF30000C0F00F00F14801880EF30BF
:1085A000C00C0F00F00F14801880EF4050190F001E
:1085B000F00F14801880EF40101A0F00F00F148095
:1085C0001880EF30000C19E10F00F00F14806F30AD
:1085D000E0676F30606309C50841FD556F30601971
:1085E0007D55828028802A8411C9BB8205FF2E8593
:1085F0007128AA85084020806F30A0177D552480FF
:1086000001C508416F30402B828028802A8419C917
:108610003B8305FF2E85EF303063AA85084020801C
:108620006F30E0767D55248001C508416F30D00160
:10863000828019C50841A19D17630D906700032A28
:108640007D5582806F30B0576F30F0581880EF3012
:10865000A0050145148011C50A2117630D9067001C
:1086600063C37D558280188011CD0A2197600D90DB
:10867000E780A0C29F070D0300026307F50001E534
:10868000054511A07D5514800145F5BF6F30D05BC5
:108690005C459B85B70498411C49937677001B86FF
:1086A000C7041C42BB9B06019D8B3B9A07019F0799
:1086B0001CA80400D8C31842D8C7584998CB5841C1
:1086C00098C31845BB65070298A7184D0145D8CB3C
:1086D00082801F054613008082801F054913008099
:1086E00082809F0734A804009C2399CF9F071CA871
:1086F00004009C433307B50063ECE700637AE500B0
:108700006368B700014582801F05401300808280A6
:108710001F0501000080828078819F0434A8040036
:108720009C20BDEF2A84EF0070106800FD2949E508
:10873000B24A0349040083491400EF00B0012A8AB9
:10874000EF00D001AA86D2870147639DE604EF00BF
:108750003001054681452D3F25E11F0735A804005E
:1087600085471CA34C40B707109063EAF5041F052A
:108770001CA804001C44104163F3C7003E86938785
:10878000F5FFB2973707809063FBE70210C1E92934
:1087900005E585479CA09F0735A804009C2385E735
:1087A000014519A83E85F10703A647FE6397CA0055
:1087B0004E86CA85F13D5DD57481050779B71F05E1
:1087C00042130080D5BF1F0541130080F5B7888193
:1087D000AE8AB285AA89B284293749E9EF00100729
:1087E00013F939002A8B630209049147B3872741A3
:1087F000B389294113FAF70F63F4F40013FAF40F65
:1088000002C611466C00A5202A8429ED7C00D28680
:1088100033862701D285952009C51F0404000080F6
:1088200091A09109D29AB384444113F9C4FF630B18
:1088300009004A86D68525282A840DE5CA9ACA9950
:10884000B3842441014499CC9F071CA8040002C6AC
:10885000D44311466C0005202A84A6867000A685A4
:10886000292845FD5A85EF00B000228584819F07A5
:108870001CA80400D4434E859DA156856FB03FD3FC
:1088800098812E8BB2852A8AB284A13D2A8445E143
:10889000EF00C07B93793A00AA8B638E090491475D
:1088A000B3873741330A3A4193FAF70F63F4F40080
:1088B00093FAF40F1F091CA8040083264900952889
:1088C0002A8409ED7C00D6865A86D6853385370101
:1088D000EFB0FFCD09C91F0404000080112081A85A
:1088E0005E856F00E0788326C9009D202A84110AE6
:1088F000569BB384544193F9C4FF6DF0638E090015
:108900009F071CA80400D4474E86DA85A1204E9B01
:108910004E9AB38434411DE9F1D01F041CA8040011
:108920005440012819C96D3F1F04040000802285AE
:10893000948111466C0052855DA6A6865A869145A3
:108940006800EFB0DFC665F1544419202A8479B776
:1089500011466C00528531A98880AA842E84513337
:1089600015E92694FD7713174401B3F9F40051C7B4
:10897000E18F0567BA971F0501000080639C3401F1
:10898000631AF400330434418144814A014A25E0EA
:1089900001494A8584809C4B9B87D704844393DAA2
:1089A000E400568A636754019387FAFFB3F73701EF
:1089B00091CB85069F071CA804009827E3EDE6FCF1
:1089C0006389E60261259167FD17FD8C9BA4541D08
:1089D0002A8B0146A6854E85CD2E2A895A85EF0021
:1089E0002069E31809FA33044441D2994DB785460A
:1089F000D1B71F094713008069BFE38534F91F050C
:108A00000100008041BF1880FD26014514809F07AA
:108A10001CA80400C84B19A1B707009013870710C2
:108A20009F063CA9040098C2138707209F0630A91F
:108A3000040098C2138707249F062CA9040098C23B
:108A4000138707309F0638A9040098C29387074010
:108A50001F0734A904001CC301458280B7B7040076
:108A600003A787939D561B45D5CA5C47B70600C030
:108A7000F58FC98F5CC782804881792BAA845523E2
:108A800092470D572A8993F7778093E787029BC710
:108A9000E7EE3EC285473EC402C601444800E926CF
:108AA000854501462E85F52E2521B7B7040083A7FD
:108AB00047939C43858B91CF4A85EF00206D9307A8
:108AC0001400636694001F054413008044813E84B3
:108AD000F1B70145E5BF48819C212A892E848E0784
:108AE00093E717003EC29307F5FF3EC402C66937FD
:108AF000AA840DE548008D2E054702C06362270356
:108B0000B7B7040003A7479382479335290001466E
:108B10001CC393C51500014569265D2E2685448139
:108B20001C08B386E700B307E4009C230507A3876E
:108B3000F6FEE9B758812A8419E001450DA004200A
:108B40003B88040181C80145BB8504021F0545130C
:108B5000008031A0083093052400B53F1DCD54811D
:108B60003C2003493400834944008E0793E71700F3
:108B70003EC226C402C609374800FD240146A68528
:108B800026850526B126B7B7040083A747939C43E3
:108B9000B3D72701858BE39B37FB190471BF18817D
:108BA000E13D99476C0005452306F1002D3711E1A1
:108BB000E135148158852A89AE89B2843684C53757
:108BC000AA8739E522C24800398026C422C6692C0A
:108BD0004A856935A6864E86930500040808EFB0DD
:108BE0001F9DFD5715E513F634003336C0001B06F4
:108BF0009644219E1808814593970501C18363EB34
:108C0000C7000546B2850145692CD924B535AA8728
:108C10003E855485B7B6040083A646931C431107CE
:108C20009B86B6049CC28505C1BF28812A84ED338A
:108C3000A13515E931469F05FC2204004800EFE00C
:108C40003FF348001524854501462E85992C49247B
:108C5000B7B7040083A74793130700F09C439BC753
:108C6000E7D01CC0113D24815880C1676365F606BA
:108C70002A844849B284AE89753D2A8921E9B7B76B
:108C8000040083A7079393D9090113D6F400984FE2
:108C90008146219F1B27372198CF137716000DCBD4
:108CA000984B0556BD8A1B47C7F21B27D71098CB98
:108CB00048403D2448449377857F91C38524B7B7C6
:108CC000040083A7C793054798CB7D334A8554801A
:108CD00005828506D9B71F0901000080C5BF7885C8
:108CE000AA892E8A328436899304000419E001454A
:108CF000A5A0935AE900493325E163739400A28447
:108D00009167FD17B377F9009BA7571D48003EC236
:108D100026C456C6912A4E8591330546B2853285C2
:108D200049227D2213F73400B7B704003337E0003F
:108D300003A547931B0797441408219F8145368656
:108D400093970501C18363EAE700A686A68552854D
:108D5000EFB0FF8519C97D5574859B07B5049C4309
:108D60008505910623AEF6FEE1BFA699269A058CED
:108D7000B5BF78809377F50313070004B304F74079
:108D8000AA892E8A3284B68A63739600B2842686B4
:108D90004E853D202A891DE1058C0DC0269ACE9472
:108DA000A2893B620441930900044E862685092866
:108DB00019E9330434414E9ACE947DF04A8574808B
:108DC000D686D285C5BB2A89D5BF488197F00D903C
:108DD000E780000DE93319ED480026C202C402C63F
:108DE00061202285A5391346190081450145552882
:108DF000C52059314481B7B7040083A707931F07E3
:108E000040A904000145944314C3D44354C3944B74
:108E100014C7D44B9C4F54C71CCB82802880193B6D
:108E20009F0740A9040037B60400984383260693A1
:108E30002A8498C203270693D44354C3944714CB7F
:108E4000D4479C4B54CB1CCFB7B7040083A7C79320
:108E5000054798CB1531228524800000F9040000D5
:108E60000300000000000000B7B7040003A68793CA
:108E70001C41144613D737009375F70F13F706F00C
:108E80004D8F14454C41AD839D8B9D8AC607FD15C2
:108E900093F5F5039BA7D7089BA7B71218C61CC26A
:108EA0008280B7B7040003A78793058985891C438F
:108EB000058A93F7F7EF9BA7A71093F7F7F79BA502
:108EC000B70EDD999BA5C50613E6350010C3828059
:108ED000B7B7040003A787931C43858BF5FF8280F7
:108EE000B7B7040003A6079337070080930600F086
:108EF0001C42D98F13573500019F9BC7D7F09BA702
:108F0000E7109356B5009D8A2D8193F707FC1377E0
:108F1000850333E5D700598D08C28280B7B70400B6
:108F200003A60793930600F0935735001842819FDC
:108F30001B47D7D41B27F72C9357B50013F57700A1
:108F40008D579B47F7E49BA7A72037070040D98F91
:108F50001CC282801F058024040082800545828017
:108F60001F059C240400828039C6FFFFC106004013
:108F700001010004020000000000000019000000D0
:108F8000010000001100000039C6FFFFC1060040CB
:108F90009102002001010004190000005940000066
:108FA000D9490000D9550000596B000059F700005D
:108FB000010000001100000000400000004000001F
:108FC000912900000040000000010600000001039C
:108FD0000500000000030100020002000000000084
:108FE000C8601300000008000400000038240400DA
:108FF000502404002824040068240400FFFFFF001C
:1090000000000800030000001C24040020240400C9
:1090100008240400142404009F070C1F0020884328
:1090200082809F07081F00208843828028801F04B9
:1090300068A904001C2091EB1F0564A90400974057
:109040000D90E780206885471CA0248018809F072A
:1090500068A904009C2399CBEFF04FD301E9FD559B
:109060001F0564A9040010806FF0CFD7014514805C
:1090700018809F0768A904009C2391CBEFF00FD1C3
:1090800019E51F0564A9040010806FF06FD71480E4
:109090004880EFF06FD11F0460A604001C202A89CD
:1090A00091C7EFF02FD18144268544809522AA8470
:1090B00009C54A85EFF00FD0C5BF85471CA0D5BFB5
:1090C0004880EFF06FCE1F0460A604001C202A89A0
:1090D00091E7EFF02FCE8144268544808522AA8433
:1090E0004A8523000400EFF0EFCCFDB74880EFF095
:1090F000AFCB9F0760A604009C232A8991E7EFF07D
:109100006FCB014581454480352A2A844A85AE8447
:10911000EFF04FCA9F0768A604008843DC432295FE
:1091200033348500B385F400A295F1BF18807D3FEC
:109130002166130606D08146EFD01FF614801880F2
:10914000753715811B25B5369581148038809F07AA
:1091500060A604009C238DCB2A84493F1F07007D15
:109160000000B307E4023334E402B384A700B3B7CA
:10917000F4002E943E949D3FE3EF85FE6314B4000B
:10918000E36B95FE014534807D55F5BF38809F0720
:1091900060A604009C238DC72A84893F931754003E
:1091A000B384A700B3B7F4001B8485763E943D3F9B
:1091B000E3EF85FE6314B400E36B95FE0145348054
:1091C0007D55F5BF28802A8415379F0770A60400B7
:1091D00088C3CCC319C008C04CC001452480188086
:1091E00058411C411F0670A6040014421607504245
:1091F0001B27F7769607BE96B3B7F60032979F0502
:1092000068A60400BA9794C1DCC15D3D108049B5E1
:109210001880B92805E1B7B6040003A7868E1C4361
:1092200093E747001CC303A7868E1C4393E72700E0
:109230001CC314801F0580110080E5BF1880B92071
:1092400001451480B7B6040003A7868E1C4393E73C
:1092500017001CC37D5783A7868E9C439183858B03
:10926000BB8307017D1765FB0145814582802DA0E9
:109270001880912001C981209F07E8A8040088C3B5
:10928000014514801F0580110080E5BF9F07E8A8F5
:10929000040023A0070082809F07E8A804009C43E5
:1092A0008C4BD8478847DC43219F9B25B720A19F43
:1092B0001BA5A72082801F050002005782803880EE
:1092C000EFF08FAE1F044DA604001C20AA8481C7B6
:1092D00030806FF02FAEA12285471CA02685CDBF20
:1092E0003880EFF06FAC1F044DA604001C20AA8448
:1092F00081E730806FF00FAC252226852300040023
:10930000CDBF3880EFF04FAA9F074DA604009C23E5
:10931000AA8481EBEFF00FAA1F0460110080228560
:10932000348001222A842685EFF0CFA8CDBF488063
:10933000EFF08FA79F074DA604009C232A8991E791
:10934000EFF04FA701458145448029222A844A85B0
:10935000AE84EFF02FA69F0750A604008843DC439D
:10936000229533348500B385F400A295F1BF1880AF
:109370007D3F1307803EB307E5023335E502B38531
:10938000E502AA9513D5F7001B25B522BD811480EF
:109390001880713F1F0740420F00B307E5023335C5
:1093A000E502B385E502AA9513D5F7001B25B52282
:1093B000BD81148048802A899D3F2A84AE84EFF0C5
:1093C000AF9E9F0758A6040080C3C4C3EFF08F9ED2
:1093D0006306090023208900232299000145448067
:1093E0004880004103294500E53DD13D193FAA844D
:1093F0000DE5EFF06F9B1F0758A604001C43504378
:109400009F0650A6040033878700B337F7004A96BB
:10941000B29798C2DCC2EFF0EF992685448025A868
:1094200091A0B7B6040003A7468E1C4393E727001C
:109430001CC341677D1783A7468E9C439183858B10
:109440003B8407017D1765FB1F0561110080828049
:109450000145828031A8188091209F07E4A804006C
:1094600088C314809F07E4A8040023A0070082801B
:109470009F06E4A804009C4298431367170098C312
:109480009C42799B8C4BD4478847D043A19E98C37C
:10949000219E1B25A6209BA5B62082801F0530C3D8
:1094A00002578280B7170057239007A0B7070052D2
:1094B00023980718239A0718B7170052239607A274
:1094C000239807A2239A07A211472392E7BA239869
:1094D00007BA239A07BA3D47239CE7BA828011C195
:1094E000D1B7B7170057130730332390E7A0B7075A
:1094F000005205472398E718239AE7189306703718
:10950000B71700522396D7A21D472398E7A2239AA4
:10951000D7A22390E7BA2392E7BA9306F0032398E1
:10952000D7BA239AE7BA3D47239CE7BA82802880BE
:10953000EFF08F872A841305F004EFF06F882285FF
:10954000EFF04F879F07BAAA04002380070024800A
:109550009307803E3A053355F50237F7025723103B
:1095600007C2231207C2231407C2231607C2937728
:10957000F50F2318F7C093578500819F231AF7C072
:109580004181231CA7C0231E07C082801F07BAAADF
:1095900004001C2399E785471CA3B7F7025783A74C
:1095A00047C0B7F6025783A506C003A746C083A7E6
:1095B00086C022079B07F720BE9533B7E700B3B7F5
:1095C000F5003E9783A7C6C0E207BE95B3B7F50086
:1095D000BA978607139515009BA5B77E8280014533
:1095E00082801880EF307011EF30B0120945EF30F3
:1095F000500C0145EF30F00E0145EF30100D0145E4
:109600001480188097000E90E780402C85452E85A9
:10961000EF102014014597F00D90E78080840145FC
:1096200014801880014597E00D90E780206719E5C8
:109630000545108017E30D906700436614809F076F
:109640009431040001469F06004200576F03000258
:10965000BB1DF6119F07B831040001469F06004369
:1096600000576F03A000BB1DF608828098230506F3
:109670008907BA9603C7F7FF9AA20283B747005734
:109680001D472390E7242392E7247D572398E72062
:10969000239AE720B7C702575D472392E71E054785
:1096A0002396E71C2398E71C7D472396E71E239803
:1096B000E71E828017430D90670043139F07B8ABE6
:1096C00004008146014794C3D8C36F0050732880BB
:1096D0001304F5FFEF005073553D9F07B8AB04002E
:1096E0009843DC439306803E3307E5403335E5007D
:1096F0009D8D898DB307D702B385D5023337D70245
:10970000BA951F07C0AA0400084354432322070048
:109710003E95B337F500B695BE953D81A1671B25F3
:10972000B522FD17E98FBD811CC399E16373A400C5
:10973000228597E00D90E7800089B7470057239274
:109740000724374700579D472310F7248357872462
:10975000A19FE5FB231A0720B74700577D572398A1
:10976000E72083D78721A19FE5FBB7C7025723983E
:10977000071C37C7025785472316F71C8357871CDA
:10978000A19FE5FB2318071EB7C702577D47239605
:10979000E71E83D7871EA19FE5FB2480188097D002
:1097A0000D90E780407EB7D6025783D706937D574A
:1097B000A19F99CB83D7869313F737009F078431F6
:1097C00004009B87E7049843AA876373A700BA87BE
:1097D00009453BE207031385E7FF148001C937D72A
:1097E00002571E23A19FF19BA19F1EA39317050162
:1097F000C183374700572310F72049ED1F07C0AB3F
:1098000004001C231F0604AC04009F0500AC0400E8
:1098100099EFB796025783D7C683A183FD8B1CC2ED
:1098200083D746838583FD8B9CC185471CA3B7D70F
:1098300002579A33931607011842C18293F616FC19
:1098400006071377E703558F9AB3904196371F07A2
:10985000001F00001B47C7101F06FFE0FFFFF18E2F
:10986000558F219F9AB79A23856693850670136753
:1098700037009AA39A3393860610219F137717FC1B
:10988000219F9AB39A37718F4D8F9AB79A37718FFC
:10989000558F9AB782800F00F00F730050100F00A1
:1098A000F00F0100010001000100828055B1188015
:1098B000F133B74700571D472392E70EB7C702574A
:1098C0000547239AE7122394E7122392E71023987F
:1098D000E710239E070E23980712239AE71023947C
:1098E000E710DA3313672700DAB3148037C702575B
:1098F0005E33A19FF59BA19F5EB38280B74700575F
:10990000239207227D572390E722B7C70257239C53
:10991000071E7D472392E71EAD46239CD71E239842
:10992000071C85462396D71C2398D71C2398071E0F
:109930002396E71E2398E71E828038800933B747B5
:10994000005737C402572392070E231A0412231418
:10995000041223120410231804108544231E940EAD
:1099600023189412231A941023140410013B970017
:109970000E90E780008DB7D70257239097845E3012
:1099800093E727005EB03480188037C702575E33F4
:10999000A19FF59BA19F5EB397000E90E7808090FA
:1099A000B7D7025723900784108017030E906700E3
:1099B0004391188037070052835707049F06D0ABA6
:1099C0000400B71500529EA2835747049F06D2ABEE
:1099D0000400370600579EA2835747059F06D6AB63
:1099E000040005459EA283D705A49F06CEAB0400C4
:1099F0009EA2835787549F06CCAB04009EA2835738
:109A000007549F06CAAB04009EA28357C60F9F0649
:109A1000D8AB04009EA28357C7079F06E6AB04009D
:109A20009EA2B787005783D707419F06E8AB040083
:109A30009EA2835747579F06DCAB04009EA2835724
:109A400047559F06DAAB04009EA2835787559F06B1
:109A5000E0AB04009EA28357C7559F06DEAB04000F
:109A60009EA28357073E9F06E2AB04009EA2835747
:109A7000473E9F06E4AB04009EA2835706069F065E
:109A8000C6AB04009EA2835746069F06C8AB0400DF
:109A90009EA28357860A9F06C4AB04009EA28357EA
:109AA000C7041F07D4AB04001EA383D705F91F0703
:109AB000C2AB04001EA3B717005983D7C7801F0786
:109AC000C8AA04001EA3EFE01FF40145E5300145DC
:109AD000EFF04FEF9F07F8AB04008146014794C3B6
:109AE000D8C3B7C6025703A7060F83A7460F9BA785
:109AF000E7201F07CCAA04001CC39F07F432040010
:109B000013D707012398E60EA19F239AF60E108023
:109B100021AC38819F07CCAA0400BA23B7C60257EC
:109B20002398E60E5D2A239AF60E9F07D0AB040019
:109B30006D22B70600522390F6049F07D2AB0400B3
:109B4000692A2392F6049F07D6AB04007922239A50
:109B5000F6049F07CEAB04004922B71500522390AC
:109B6000F5A49F07CAAB04008D2A2390F6549F07E3
:109B7000D8AB04009D2237060057231EF60E8547FA
:109B8000130730112310F610231CE60E1F07E6AB57
:109B90000400B122239EE6061F07E8AB04008122E1
:109BA000378500572318E540239406541F07DCAB84
:109BB00004003522239AE6561F07DAAB040005227B
:109BC000239AE6541F07E0AB0400112A239CE654B5
:109BD0001F07DEAB04002122239EE6541F07CCABF7
:109BE0000400F5282394E6541F07E2AB0400C528BF
:109BF0002390E63E1F07E4AB0400D5202392E63E07
:109C00001F07C6AB0400E1282310E6061F07C8ABF8
:109C10000400F1202312E6061F07C4AB0400C12094
:109C20002314E60A1F07D4AB040055282396E60444
:109C30000D47231CE60A1F07C2AB04004D202398E2
:109C4000E5F81F07C8AA04001623371700597D56E8
:109C50002316D780B7364059239806042398C604A4
:109C60001EAB0545AD381D321F04F8AB04001C4087
:109C700058409F04F0AB0400B307F54088C0CCC047
:109C80003335F500998D898D0A852EC23EC0EFF0DF
:109C90002FF5904018405440DC403307E6403336FF
:109CA000E600958F918F1F0640420F00B306C70252
:109CB00028003337C702B387C702BA9713D7F60015
:109CC0001B27F722BD833AC43EC6EFF04FD10545AE
:109CD000EFE0FFD3EF30C04634819E2382801A2309
:109CE0008280000028230000A08C000040190100A1
:109CF00080320200A003A403A803AC02B003B403A3
:109D0000B803C403C802D002D402D802DC02E802BD
:109D1000EC02F802FC0200000002040208020C023D
:109D20001001140118011C0117850000130585900E
:109D30002320150023222500232435002326450057
:109D400000C944C9232C2501232E350123204503B6
:109D50002322550323246503232675032328850323
:109D6000232A9503232CA503232EB50313050504ED
:109D7000F32880BC732870BCF32760BC732750BCE9
:109D8000F32640BC7326807DF325907DF3220030BE
:109D90000B11F58713050502F32800BC732810BCCE
:109DA000F32720BC732730BCF32600BE732610BEF9
:109DB000F325E0BFF322007C0B11F58713050502A4
:109DC000F328103073284030F327503073270034C5
:109DD000F326103473262034F325003BF322103B86
:109DE0000B11F58713050502F328203B7328303B40
:109DF000F327403B7327503BF326603B7326703BB1
:109E0000F325803BF322903B0B11F58713050502E8
:109E1000F328A03B7328B03BF327C03B7327D03B0C
:109E2000F326E03B7326F03BF325003AF322103A89
:109E30000B11F587130505027326203AF325303AF6
:109E40000B1035802105130585F597050000A10548
:109E50002CC98280177500001305C57D1305050404
:109E60000B01F587739088BC731078BC739067BC46
:109E7000731057BC739046BC7310867D7390957DAC
:109E800073900230130505020B01F587739008BC2F
:109E9000731018BC739027BC731037BC739006BE48
:109EA000731016BE7390E5BF7390027C1305050214
:109EB0000B01F5877390183073104830739057304A
:109EC0007310073473901634731026347390053B67
:109ED0007390123B130505020B01F5877390283B25
:109EE0007310383B7390473B7310573B7390663B3E
:109EF0007310763B7390853B7390923B130505027C
:109F00000B01F5877390A83B7310B83B7390C73B68
:109F10007310D73B7390E63B7310F63B7390053A92
:109F20007390123A130505020B0035807310263A20
:109F30007390353A177500001305C56F832005002F
:109F400003214500832185000322C50000494449BF
:109F5000032985018329C501032A0502832A4502B5
:109F6000032B8502832BC502032C0503832C450399
:109F7000032D8503832DC5037315153402851881C0
:109F800085473EC69F0718AC04008843FD56700005
:109F90002C00EFE00FE47DF5834781003BFAF704E6
:109FA0001545C92C034781009F0708AC04000145F3
:109FB0009B87E7049C438297834781003BF207021B
:109FC0001545F524834581001F056B350400EFE03E
:109FD000AFD64DBF28801F0418AC0400054781464A
:109FE000228695451F05FA34040097300D90E780CE
:109FF000006D19C51F050735040020806FE0CFD321
:10A00000930600601F062935040081451F051E3494
:10A01000040097300D90E780E06F11E90840973019
:10A020000D90E780E0691F0530350400F9B7F14570
:10A03000EFE02FE015453D2C0945952CB7A704000E
:10A0400003A7078283A747829F0620AC040098C21B
:10A05000DCC21F05543504004DB7706D5F73797312
:10A060005F7175657565005B706D5F7379735D20F9
:10A07000706D5F73797320637265617465206D61C3
:10A08000696C206661696C0A00706D5F737973009A
:10A090005B706D5F7379735D20706D5F7379732092
:10A0A00063726561746520746872656164206661BD
:10A0B000696C0A005B706D5F7379735D706D5F73BF
:10A0C00079735F656E7472792E0A005B706D5F73D1
:10A0D00079735D6D61696C2E73746174652073773B
:10A0E000697463683A2025640A0038809F04E01F81
:10A0F0000020804063149400014501A85C4499E36A
:10A100000040CDBF0848829765DD348038809F04C9
:10A11000E01F0020C04063149400014501A85C4882
:10A1200099E34040CDBF084C829765DD348068805C
:10A13000BB723503BBF1350769C21C46DDCF3284E3
:10A140002E8AAA891F09E81F0020EFE0EFC58327A8
:10A150000900AA84C11713870701631FE902268536
:10A16000EFE04FC56145B128AA841DC12300350128
:10A17000A3004501B14622861105AD289C44A9CF14
:10A18000484005053D28C8C021E12685EFD0DF9F66
:10A190001F05050000801DA0982363123703983324
:10A1A000631F47015840C84398C71844D8C7544054
:10A1B000104089202685EFE0EFBF014564809C4B6D
:10A1C00051BF81456FD0DF9C544010402520D840BE
:10A1D0005C40BA9723800700EFE00FBD832749005A
:10A1E000F9DB138704012322E90023A82401DCC83A
:10A1F00098C3D1B7B6856FA08FBB1F050100008043
:10A2000075BF4880BB731503BBF215072E89AA845E
:10A21000EFE08FB91F07E81F0020004341149307A8
:10A2200004016314F700014401A81C206391970204
:10A230001C30639E27011104EFE0CFB77D5519C490
:10A240001C4489C74C40084082970145448000481F
:10A25000F1B71F0501000080D5BF28801F0438AF6B
:10A260000400E1460146B6852285EF903FADA14747
:10A270003EA4248038800684BB7B0508AA84EFE0D6
:10A28000AFB29F0738AF040033879700143381EAD9
:10A290009423C0C7A6A7850694A3854614B3EFE010
:10A2A0006FB1014534801F0501000080E5BF2880A3
:10A2B000BB7A05082A84EFE02FAF9F0638AF040071
:10A2C000338786001C3391C79C22A3000700FD172B
:10A2D0009CA2EFE02FAE014524801F050100008005
:10A2E000E5BF38809F0738AF0400982311EFC44BB7
:10A2F000804BEFE0BFE363E995006394B4006365CE
:10A30000850030806FF0EFB1054534809F0750AF76
:10A3100004009C4B91C3828782809F0750AF04004A
:10A32000DC5391C3828782809F0750AF0400DC57C3
:10A3300091C38287828005CD18419F0750AF0400EA
:10A3400098C35841D8C3184598C75845D8C7184925
:10A3500098CB5849D8CB184D98CF584DD8CF1851D5
:10A3600098D35851D8D3185598D75855D8D78280F4
:10A370005880EFE06FA3AA89AD3711C59D284E859F
:10A3800050806FE02FA31F0450AF04001C44FDD782
:10A3900082972A893B6AF5061C4091C385205C445C
:10A3A00091C33128BB77090B5C4891C38128912068
:10A3B0005C4C91C3A1205C40F9D31120C9B74A85F8
:10A3C0008287253385479F0480AF04009CA01C4CE6
:10A3D00091C32D201C5491C3152088203B160501E4
:10A3E00089479CA02537312001450D37353F393B42
:10A3F00021A025B73B0DF5021C5065BF82879F0742
:10A400006C3A04001B85A70418416F038005F99B73
:10A41000A19F1EA3BB8015046F03A0048605B98904
:10A42000C59BCD8F1EA36F03C003BD9BA19F1EA321
:10A430003B6A06026F03E00216061376061E93F7C8
:10A44000F7E1D18F1EA31E2393E707011EA31E234E
:10A4500093E717001EA382806F03A000BD9BA19FFE
:10A46000F5B71E23A19F0283370700528357C70702
:10A47000A19FBD9BA19F231EF7068357C707A19FDE
:10A48000C19BC98F231EF7068357C70793E70701B0
:10A49000231EF706828078803B7E35079F0494AAAE
:10A4A0000400131A1500B387440198236315B700FD
:10A4B0009C33638FC70CB2892E892A84EFE0CF8E3C
:10A4C000AA8A31E8A120A19FF99BA19F2310F71030
:10A4D00001455128B7170052BB1A0902239007A45F
:10A4E0004A855937252093E717002310F710B387C3
:10A4F000440123802701A3803701568570806FE0D7
:10A500006F8B05472390E7A40545E1BF3707005748
:10A510008357071082803B0214043B7B04050547E8
:10A520003B0C040122858120BB01F9043B03140488
:10A530003B7F040505473B1EE4019920D18FA19F75
:10A540002394F6546DB73B0704051D473B16F406EC
:10A55000052893C7F7FFF18F2394F654E1B7154709
:10A56000C5BF2D47F5B74E86CA8551BD3B040405CE
:10A570001D473B02F406A5BF1547C1B72D4775BF60
:10A58000B7060052854703D68654B397E70082800A
:10A5900074809F0794AA04001B85A7021C21183110
:10A5A00001453BF407049F065C3A04009B87F604D0
:10A5B00088433B6207023355E502828080D19D01CA
:10A5C0000048E8010090D00300800000FC00005724
:10A5D00054050052580500525C050052880500528F
:10A5E00008060052740500521880B727005205472C
:10A5F00023AAE7401D45E12810806F10B061B727FE
:10A60000005223A807408280B72700521F07007D11
:10A61000000023A0E7400D4723A8E7408280388050
:10A62000EFD09FF80147814601469F05883A040014
:10A63000AA841D4597300D90E78040062A849945ED
:10A640001D4597300D90E78060071D45EFD05FF402
:10A6500001CCA286130690079F05603B04001F05EE
:10A66000403B0400EFD05FEDB727005223A807401E
:10A670001F07007D000023A0E7400D4723A8E74007
:10A6800097F00D90E780E03A268530806FD09FF2FA
:10A69000B7A704001F070048E80123ACE7808280C9
:10A6A00025732025643A206F616C5F696E745F6367
:10A6B0007265617465207265743A307825780A0095
:10A6C00048616C436C6F636B5374617274000F006C
:10A6D000F00FAA82739002BF0F00F00F828000007B
:10A6E0000707070607070707070707060007070703
:10A6F00007070707070707070707060605060606F1
:10A700000606030300000606060406060606040005
:10A7100000060606060505050606060606060606E2
:10A7200001010106060206060606060606060606DC
:10A730000606060606060006030018809F072893F3
:10A7400004009843DC432A863A85BE855523058953
:10A7500014803880AA842E84EFD01FE5370700527A
:10A76000835607708547B39797000DC0D58FA19F7B
:10A770002310F770B707005283D707701F07309375
:10A780000400A19F1EA330806FD0DFE293C7F7FFC4
:10A79000F58FF9BFB707005203D587708280B707DE
:10A7A000005283D747701F0732930400A19F1EA356
:10A7B0000A2382809307F5FB3BF2071A1365050213
:10A7C00082809B37A5BE1B95A7BE8280819D937713
:10A7D000350095C315C21C21639CB7001C21639FE3
:10A7E000B7002A96630AC5001C216392B7048280D1
:10A7F00005057D16E9BF7DF2014582809F060101B6
:10A800000101B386D5023B67F6041C4133C7F6004D
:10A810009F07FFFEFEFEBA971347F7FFF98F1F074A
:10A8200080808080F98FD5FF11057116E9BF05057D
:10A8300055BF2A96630CC5001C2198216385E7004B
:10A840003385E740828005058505EDB701458280A7
:10A850002A88AE86B2876302B504F958B308160396
:10A860003387A540118F63E4E8006FD06FB033C722
:10A87000A5000D8B6374B5042A860DC7B297630DCE
:10A88000F6006F036000E5BF850603C7F6FF050607
:10A89000A30FE6FE028381E7C286368582806FF3CE
:10A8A000BFFEFD17137736007DF7BBE4F70498422F
:10A8B000F1171106232EE6FE9106C5BF19EBB3056D
:10A8C000C500369613F73500B307D64001EFBBF944
:10A8D0000704F9D3FD173387F60018233306F80071
:10A8E00018A2C5BFFD15E389C6FA8347F6FF7D169A
:10A8F0009CA1C9BFF1173387F60018433306F8004F
:10A9000018C2F1B728802E8439201C21019C638352
:10A910008700014524802880819D2A8499E9EFD011
:10A92000AFB42A94228524801C20EDDFE38CB7FE8F
:10A93000050493773400EDFB9F0701010101338586
:10A94000F50214401F07FFFEFEFE33C6A600B387C4
:10A95000E60093C6F6FFF58F32979346F6FF758FA4
:10A96000D98F1F0780808080F98F99C71C20DDDB7D
:10A97000E38AB7FA0504DDBF1104E1B72A879377AC
:10A98000370095E314439F07FFFEFEFEB69793C67C
:10A99000F6FFF58F9F0680808080F58F81CF1C2386
:10A9A00089C70507EDBF1C2381E73305A7408280D7
:10A9B0000507F1B71107F9B71DC2930615002A96CE
:10A9C00003C7F6FF9C2119C791C76385C60085069A
:10A9D0006305F7003305F74082808505D5B701454B
:10A9E0008280C89F372D002083278DE0130101DC72
:10A9F0002A8B2E8A13060002814568002326F14225
:10AA00000149EFD0EF97B3072A019C23638B07120C
:10AA100033072B017D2A19EB81498327C142032784
:10AA20008DE04E856389E71AEF00103913D6570081
:10AA3000130701431B06C7048326C6BD054733170A
:10AA4000F700558F232EE6BC1307014305099B072A
:10AA5000F70423AE27BF45BFB307AA00B697330755
:10AA6000CA00BD226394E70C6394B600854619A022
:10AA70008506228632843306D400E36F26FD054422
:10AA8000A2860148FD543306D8006361260D9387E2
:10AA90001400130715006364F700AA842E84938BB7
:10AAA00014005E86B3058A005285EFD0EF8B330C1D
:10AAB000894011C99307F9FF858F63F39700A68733
:10AAC00013841700014CDA89814AB3073B4163FEC6
:10AAD0002701936CF903668681455A85C5395DC1A6
:10AAE000B3073541E3EA27F32A8B338629018346EE
:10AAF000F6FF9307014313D756001B87E70403278C
:10AB0000C7BD8547B397D700F98FBDCF93070143E2
:10AB10009B86D70483A7C6BFB307F940A5CB63F3D1
:10AB2000FA00BE8AD6998147BE8A45B76375F70099
:10AB3000B305A64025BF8545130614002285AE86C1
:10AB400015BF8545AE8601447D5535B7B3079A00DC
:10AB5000B6979C233307CA00AD28639AE700639435
:10AB60008600854619A085064286328829BF63F58E
:10AB7000E70033049640F5B7054413061800C28475
:10AB8000A286E5B7669B95B7B28979BFDE8563F388
:10AB90005B01D6853306BA00CE951822B30646412E
:10ABA00011CB882105068505E309A7FE338796406A
:10ABB000BA999DBFDE86E3F2DAE6FD16B307DA0046
:10ABC0003387D9003120E388E7FEA299E287A9BF45
:10ABD0009C231823828013010143C48038802E8473
:10ABE0008C21AA87E9C1393BAA8755CD0C30C5CD48
:10ABF0001431CDCA30201DE2102018211BA6C5102B
:10AC00004928930715005128D1CE6314E600FD179B
:10AC100059A885079423B528219FF5B7382159C332
:10AC200003483400631A0802220622071B26B620B6
:10AC30001B27D7200C201421930725001B26B63094
:10AC40001B27D7309928B9CE6314E600F917A1A8BD
:10AC5000A120558F2207FDB72431A9C483484400A1
:10AC6000639F080208201B28A8309B25B8201BA63C
:10AC7000C5108C239BA4B4309BA6D42019288D0723
:10AC800029288DC26314E600F51731A83120112060
:10AC9000C5BF1BA7E6108280850794238280A2850A
:10ACA000308081B381473E853480AA8511C51F0558
:10ACB000603000206F10D0238280AA8511C51F0547
:10ACC000603000206F10901A82809377060289EF1F
:10ACD000935715001347F6FFB3D7E700B395C500A8
:10ACE000DD8D3315C5008280B315C5000145828016
:10ACF0009377060289EF939715001347F6FFB397F2
:10AD0000E7003355C5005D8DB3D5C500828033D5CE
:10AD1000C50081458280B367D60081E73285B6855C
:10AD200082800547814763C0060286069BA6C67ED1
:10AD300086079BA7E77E06060607E3D806FE33686C
:10AD4000F700630F0804B288368801468146135322
:10AD5000170013DE180063E70503B30E15413297A1
:10AD6000B332D501B3830541B33FC700338FF6003B
:10AD70006314B800636815017685B38553403A863D
:10AD8000B386EF011B27F33E85833363F7009B28CF
:10AD90000E3F13581800E31C03FA3285B6858280F3
:10ADA0003A86BE86A5BFB367D60081E74685C285D1
:10ADB00082800547814763C0060286069BA6C67E41
:10ADC00086079BA7E77E06060607E3D806FE3368DC
:10ADD000F70063020804AA882E8805831B27F73E24
:10ADE000858313551600B365F700636FD80033836E
:10ADF000C84033BE6800B30ED8406394060163E5D3
:10AE0000C8009A883388CE411B26D53E8582F1F54D
:10AE10004685C2858280AA882E8849BF6357B008BC
:10AE2000AA882E87634BD00081CAB367D60001453C
:10AE30008145639D071082806DDA0548814786064B
:10AE40009BA6C67E86079BA7077F06060608E3D853
:10AE500006FEB365F8000145638F051E8145135357
:10AE60001800135E16006367D702B38EC8402A9895
:10AE7000B3B2D801B303D740B33FA800338FF50076
:10AE80006394E60063E8C800F68833875340428540
:10AE9000B385EF011B28F33E85833363F8001B263F
:10AEA000DE3E8582E31D03FA828091E135F9B30825
:10AEB000A040B33710013307B0401D8F634FD0104F
:10AEC000638B0610B367D60001458145ADD73306C5
:10AED000C040B337C000B306D0409D8E05488147BF
:10AEE00086069BA6C67E86079BA7077F06060608E2
:10AEF000E3D806FEB365F8000145638E051481456D
:10AF000013531800135E16006367D702B38EC84050
:10AF10002A98B3B2D801B303D740B33FA800338F08
:10AF2000F5006394E60063E8C800F6883387534071
:10AF30004285B385EF011B28F33E85833363F80018
:10AF40001B26DE3E8582E31D03FA82803306C04065
:10AF5000B337C000B306D0409D8E054881478606B2
:10AF60009BA6C67E86079BA7077F06060608E3D832
:10AF700006FEB365F8000145F9CD8145135318006D
:10AF8000135E16006367D702B38EC8402A98B3B227
:10AF9000D801B303D740B33FA800338FF5006394C3
:10AFA000E60063E8C800F688338753404285B385DE
:10AFB000EF011B28F33E85833363F8001B26DE3E3A
:10AFC0008582E31D03FA3305A040B337A000B30523
:10AFD000B0409D8D8280E30706EE85458147860659
:10AFE0009BA6C67E86079BA7B77E06068605E3D886
:10AFF00006FE33E5F50035C10145014813D31500C0
:10B00000135E16006367D702B38EC840AA95B3B229
:10B01000D801B303D740B3BFA500330FF800639442
:10B02000E60063E8C800F688338753402E853388EE
:10B03000EF019B25F33E858333E3F5001B26DE3EBF
:10B040008582E31D03FA3305A040B337A000B305A2
:10B0500000419D8D828081458280014581458280AD
:10B06000B307A0407D8DC1676373F5029307F00FAE
:10B07000B3B7A7008E073355F50017D7FFFF032797
:10B0800027CE3A9503450500FD173E958280370788
:10B090000001C147E361E5FEE147F1BF930280088B
:10B0A00073B302306D7113738300136303181203BB
:10B0B0007320033073901034930201010B96E27FEA
:10B0C0009302010827A0B20127A2A20127A492019E
:10B0D00027A6820127A8720127AA620127AC520184
:10B0E00027AE420127A0320327A2220327A49202FF
:10B0F00027A6820293020110F323300023A07200DE
:10B10000F322003016C0F322103416C223A025000B
:10B1100003210500924273901234824273900230F0
:10B1200083220110739032009302010887AD020060
:10B1300007AD420087AC820007ACC20087AB0201BA
:10B1400007AB420187AA820107AAC20187A90202AE
:10B1500007A9420287A4820207A4C20287AF0203A2
:10B1600007AF420387AE820307AEC20387A802047B
:10B1700007A8420487A7820407A7C20487A602057E
:10B1800007A6420587A5820507A5C20587A3020673
:10B1900007A3420687A2820607A2C20687A102076A
:10B1A00007A1420787A0820707A0C20793020101F7
:10B1B0000B86E27F21618B0FF1FF69617300203004
:10B1C000930201010B96E27F9302010827A0B201CE
:10B1D00027A2A20127A4920127A6820127A8720113
:10B1E00027AA620127AC520127AE420127A03203F1
:10B1F00027A2220327A4920227A682024111732AC2
:10B2000020FC52C0F32920344EC2732930344AC482
:10B210000EC6F324003026C87324103422CA12CC80
:10B220000ACE7310013491C119A06F10706017D14C
:10B23000FB1F130121B36F10B0520000000000008B
:10B2400041115D717EE07AE276E472E646E842EA18
:10B250003EEC3AEE36F032F22EF42AF61EF81AFAE6
:10B2600016FC12FE8EE08AE286E482E659718B1F9C
:10B27000F1FF3971F323300023207110732520343E
:10B28000B7050080370600807D16E98D718D6394C7
:10B2900005006FF0FFF231466314C5006FF05FF2F6
:10B2A000F322003016C0F322103416C2F325E0BF9B
:10B2B00091C139A07310013417C1FB1F1301816ABA
:10B2C00041112EC0F325D07E7390E5BF9755000045
:10B2D000938545A183A2050016C27323203423A0C1
:10B2E00065009D45630EB5009302000873B00230FF
:10B2F0009705000093850501739015347300203085
:10B300008126175500001305E59D92427390223463
:10B310002320550002457310E5BF410131C192421F
:10B320007390123482427390023021618B0FF1FFCF
:10B330006561826F126FA26E326EC2685268E267F8
:10B34000726782761276A2753275C2735273E27298
:10B35000727286611661A6603660256173002030C6
:10B3600073210034EF1040529242739012348242A3
:10B370007390023021618B0FF1FF6561826F126F54
:10B38000A26E326EC2685268E26772678276127687
:10B39000A2753275C2735273E2727272866116615F
:10B3A000A660366025617300203019C58547B397C4
:10B3B000B7000C41DD8D0CC1828009C98547B3956A
:10B3C000B70093C7F5FF0C41FD8D0CC1828019C5F4
:10B3D000931705607D451D8D219D82801305000218
:10B3E0008280188001C5AD39219D148013050002AB
:10B3F000EDBF9377260091C71C41ED8F89EB3E8509
:10B400008280F5DD18416D8FE31BB7FEBA87058A90
:10B410007DD6144113C7F7FF758F18C1CDB72880AB
:10B420002A84EF10D03108C024801880712A11C9F5
:10B430009F0788970400D8573B0207020547D8D7D3
:10B44000148010806F1040418881B72A002083A7A4
:10B450008AE02A842800AE843EC6328BC9371C405D
:10B460000844130A4400C58F1CC08149630FAA0217
:10B47000130545FD9307C5026309FA021C593849B3
:10B48000138947FD9377270081C77C45E58F81EBC2
:10B49000118B09CB78451C40F98F6315F700EF102D
:10B4A000204485494A85BB13FB012245EF10B02A91
:10B4B000BB9109019D3FB24703A78AE00145638321
:10B4C000E700DD2884818881372B002083278BE0EB
:10B4D0002A8AAE843EC6B289B68A35C5ADC993976D
:10B4E000650063CA0706937766003B8D17061377DE
:10B4F00086FF35E7ADC7C9283DE528000D37B7A75A
:10B50000040003A4079525282A8909ED638C0A0005
:10B510009F0788970400985339CB0547D8D71F0950
:10B52000051C00022245EF101023B24703278BE0D1
:10B530004A856382E706492019202A89E5B74E86A5
:10B54000A68552857DB51F09061C0002F9BF1F099B
:10B55000021C0002D9BF1F09001C0002F9B71F0915
:10B56000041C0002D9B71F09031C00027DBF64C47C
:10B5700023283405568693054A002285EF10603350
:10B580005E2013F707044DDB93F7F7FB5EA01F095E
:10B59000011C000241BF848119C5139765006348EF
:10B5A0000700014655B51F05061C000282801F05D5
:10B5B000001C000282808280188086851F05D3DBF4
:10B5C000169010806FC05FF72880EF1050179F070C
:10B5D000789704008043EF1010182285248058804B
:10B5E0001F097897040083270900AA892E848507FC
:10B5F0002320F9003B020507EF1030159F046C97DC
:10B6000004009C4091C31D281C44584085071CC45D
:10B610001C4015C381C74C4308438297DC4091C34B
:10B6200031283B820907EF10901183270900FD178D
:10B630002320F9005480FDD38297CDB74E858287B1
:10B640009F07749704009C4381C79C5391C38287D2
:10B6500082809F07749704009C4381C79C4791C3D5
:10B6600082871F050109000282809F0774970400EA
:10B670009C4381C7DC4791C382871F0501090002F3
:10B6800082809F07749704009C4381C7DC4391C369
:10B6900082871F050109000282809387F5FF3E958E
:10B6A000B305B0406D8D82801880AA8701C9EF0074
:10B6B000B059AA873B0205FF930715003E8510800D
:10B6C0006F00D04858802A8484452E870CD0CC4106
:10B6D000B2896304B702938745FD91C703D6A5FDE0
:10B6E000762163ECC6001443138646FD25C203D6BB
:10B6F000A6FD7620BA8563EBC6044E862285EF1040
:10B70000401B5E20014913F7070419C793F7F7FBA5
:10B710005EA01F09071D0002BB8809FFFE207A20DA
:10B72000A84C63EFE70275392A843B040520AA85FB
:10B730003528A2852685EF10201F4A855480F623E0
:10B74000722063FBC6009C5B938747FD9385C7020D
:10B75000E317B7FE814555B7E361D6FA8C5B71BF3D
:10B76000BD316E20E30BB5FC1120C1BF13858405EC
:10B77000A9B168801314050141803B7224149F070E
:10B780007C9704009C432E89AA895B948714B7A7F1
:10B79000040083A40795EF10807A1C482A8A6396D8
:10B7A000F9047C24B9C30D3529E508445E24631AE5
:10B7B000950085075EA40144112035A052856F10C5
:10B7C000807989E785475EA404C4F5B76307090259
:10B7D0009F078897040098530DCB0547D8D7F93FAA
:10B7E0001F04061D0002228564801F04011D000243
:10B7F000E1B71F04051D0002C1B71F04041D0002AC
:10B8000065BF1F04011D0002F9BF6E21FE2063F910
:10B81000B70013058505513EEE200844EF10C01017
:10B82000A2854A862685793D2A8479B7888003AA2D
:10B8300045006396450123A40500094584802A89B3
:10B840000357AAFD835769002E8493094AFD284DAA
:10B8500063F5E702AD3E8355AAFD6305B500130508
:10B860008905912885475EA4232434014E85232A27
:10B870000AFEEF10E0060545D1B76DD5893E44407C
:10B880002A8B938444FD9387C402930A8905631D20
:10B89000F40003258905B136AA84AA852128084425
:10B8A000A685EF1060087DBFEE206303BB00192062
:10B8B0008458C1BF568511B64880131405014180D4
:10B8C0003B7224149F077C9704008C43AA845B94EA
:10B8D0008514EF10C0661C482A89639BF4047C24FD
:10B8E000A1CBDD3131ED5E24A1C737A704000844A8
:10B8F00003270795631EE502FD17A19F5EA48144FF
:10B900009DEBA28525372A840D28BB0204018144C2
:10B9100026854480553911C99F0788970400D85758
:10B92000BB0BF7020547D8D7DDB7EF00F072CDB7F4
:10B930009F04011D00021120E1BF4A856F10A06124
:10B940009F04051D0002C5BF9F04011D0002C9B769
:10B95000288037E41690130564C0EFC0EFB0AA85C5
:10B960000546130564C020806FC09FB18891B72A37
:10B97000002083A78AE013040010AA892E8A328B44
:10B980008145228668002326F110EFC06F9FA285B3
:10B990005287CE861306F00F6800EF909FB2AA85FB
:10B9A0003B1D15FF8347C100B5E75D3725A8930709
:10B9B000001037A904006383F4008128032509835C
:10B9C0008604A685EF00904A2A8405E537E41690A0
:10B9D000130524C3EFC04FA9AA850546130524C348
:10B9E000EFC01FAA8327C11003A78AE0638FE70473
:10B9F000E136A6855287CE861386F4FFEF907FACA2
:10BA00001C20AA8599EB11204DB703250983A28537
:10BA10006F00104E9304001060003B85E5FFB307F4
:10BA2000B400238007000546BB110B0301462285A5
:10BA3000EFC01FA593070010E386F4FAB7A7040030
:10BA4000A28503A50783E93771BF8491094639BFF1
:10BA500098809F07C09704009C4313140501418000
:10BA60005B9487302A89AE84328BB68A3A8AEF108B
:10BA7000004D5C44AA8B6317F9145C20638407149F
:10BA800013F9140003A70A001E2463180900637841
:10BA9000F7001F041F0600020DA063E9E7129B06D2
:10BAA0002403DE2A85EF631F0A00B7070002138410
:10BAB0006761631409001384D7611120ADA05E850E
:10BAC0006F1060499F0788970400945363840610A1
:10BAD0000547D8D71F0406060002C5B7FD17DEAA22
:10BAE0003B842401B9C0BB87240393C4F4FF858839
:10BAF000938724009B07F406C847938734009B076D
:10BB0000F406630AF50A130545FDEF00705D453F35
:10BB1000653C51CD9F0788970400D85701443B02EC
:10BB200007020547D8D7228594801E28AD206305DB
:10BB3000E60093160601C18216A810400E246A2062
:10BB40009B06F604B387B70203A70A009B87A704E6
:10BB50003305F6006316090403A906002A86BA8590
:10BB6000CA865A85EF80BFA449F123A02A01B5BF38
:10BB70001E287A2091E79307F7FFA19F1EA875BFA3
:10BB8000FD17E5BF3E2801286305E6009316060170
:10BB9000C18236A85DB7138617007A20814682805D
:10BBA00098C283A60A005A86EF807FA03DBFEF00AF
:10BBB000B04A01448DBF1B0494025E2885075EA82D
:10BBC0000144E5BD1F040A060002C5BD1F04150699
:10BBD0000002E5B5B7A7040083A9079593053900CE
:10BBE00052869B05B4064E85EF00B04C83D74900C2
:10BBF00013F70704E30607EE93F7F7FB2392F90028
:10BC00001F040706000255BD588093170501C18324
:10BC10003BFB070A85C91DC63689B2842E84AA89D2
:10BC200081EA4A87A686228681454E8550800DB5D9
:10BC3000613A65D91F051806000254801F050E06DB
:10BC40000002E5BF1F050F060002C5BF488193171C
:10BC5000050132C6C183BBFA070A9DC515CAB68461
:10BC60002E842A8981EA2687740022868D454A859A
:10BC7000C5334481913A65D91F0509060002D5BF35
:10BC80001F050E060002F5B71F0512060002D5B704
:10BC90001F0513060002F1BF5880F5C1931405017A
:10BCA000C1803BF9340A2E841306800281452A891B
:10BCB0002285EFB0FFEC9F07C09704009C43DB9404
:10BCC0009730EF10C027DC44AA896316F90ADC20FC
:10BCD000DDC3FE202320240103A9C4015EA09E240D
:10BCE0007EA09E281EA4BE283EA4DE287EA4FE2898
:10BCF0005EA4AD28138784016396E70203A944027A
:10BD0000B520138704026399E70203A9C402B92886
:10BD100013878402639CE70201444E85EF10A02341
:10BD20002285548035281C48032909035D8D5C4811
:10BD300008C8DD8D4CC875BF25201C4C032909039C
:10BD40005D8D5C4C08CCDD8D4CCC5DBF11281C504A
:10BD5000032909035D8D5C5008D0DD8D4CD045BFB3
:10BD600003264901054581456FB00FB2130949FD0E
:10BD70009307C90282801F040A06000279BF1F04CC
:10BD80001706000271BF1F040E06000251BF788023
:10BD9000931A050193DA0A013BF62A0A9F07C49712
:10BDA0000400AE892A8A8043053059E5B7A704000C
:10BDB00083A40795EF10A0189F078897040003A994
:10BDC0000702630409000547D8D7EF10C0186319AC
:10BDD00009061B045409EF1080161C20AA8AA9C367
:10BDE0005C40631FFA023E2081CBFD173EA05685C2
:10BDF000EF1060164A85748063880902C0CC4E86B5
:10BE0000930584002685EF00D02ADE2013F707046F
:10BE100079DF93F7F7FBDEA01F0907070002C1BF18
:10BE20001F0901070002E1B71F0904070002C1B79B
:10BE30001F09010700027DBF1F09050700025DBF42
:10BE40001F09060700027DB74880131705014183CB
:10BE5000BB73270A9F07C49704008043AA841B046E
:10BE6000E408EF10C00D1C202A89B5C35C40639024
:10BE7000F4061C304167791791C305473E2063FCE7
:10BE8000E704484413078400631AE50085073EA0D1
:10BE9000014411203DA04A856F10E00B232805FEC8
:10BEA000130545FDEF00D023FD37EFF0EFF101CD95
:10BEB0009F0788970400D85701443B0207020547B3
:10BEC000D8D722854480EF0030190144DDBF1F041C
:10BED000010700027DBF1F04080700025DBF1F04A9
:10BEE00001070002F9BF0CC1CCC18CC182809C4506
:10BEF0003B9207FFF9579CC510415C42639AC7000B
:10BF00009C43D8439CC1D8C1D8430CC3CCC38280C6
:10BF1000944798456366D700158F98C5DC43F9BFF1
:10BF20003387E64098C7E9BF388004419C412E849E
:10BF30006313F402EFF02FE85C40638697009847A4
:10BF40001444369798C7184098C318405CC381477B
:10BF50005CC01CC03480E381F4FE9C43D1BF1C4113
:10BF6000C8436393A700014582801880CD3F19C163
:10BF7000084514807D55F5BF09C99441D8426386B0
:10BF8000E6001C47898F85071CC782809C411F07DC
:10BF9000CCCCCCCC6393E702910563E7A5000D8D73
:10BFA00019E908C2014582809C411F07CACACACA52
:10BFB000E384E7FEEDB71105EDB7FD571CC205455B
:10BFC000828048809F07D09704009C4395CB1F0731
:10BFD000D497040004438DC43E8401491C4094431B
:10BFE0009F07CCCCCCCC6389F600104481451F055B
:10BFF0004DDC1690EFC04FD405093104E31099FED3
:10C0000044804880EF00B0732A89B7A7040003A5D5
:10C010000795EF0070131F04889704005C483B8B62
:10C02000F7101A281C4C4A859B87E7048443EF00CD
:10C0300090729C5099C3C84C8297EF0050701E2894
:10C040001F07FF0000FF2A898507BD8B1EA85C48DB
:10C0500085075CC8FC34FD17FCB4DC44F98F3B9EBB
:10C06000E701268597200D90E780C0FF6DB74880D7
:10C070009F048897040003A9840083274900630D67
:10C08000F90498477D1798C79C47B9E703244900EE
:10C090001840544098C2184054C35CC01CC0DC48CF
:10C0A00085C77C3485077CB4BE28984C1B07F704F1
:10C0B000850700C3BD8BBEA8DC488854FD17DCC8CB
:10C0C00097200D90E780A06D5C3481EB85475CA4E0
:10C0D00083274900E31AF9FA44803B8DF7027C2458
:10C0E000228585077CA497200D90E7802006CDB798
:10C0F0001F07D897040018439377F500DB17F72440
:10C100009A2B6303A70081473E8582801C415841DA
:10C110001CC31C41D8C381475CC11CC182802880DC
:10C12000EF00F0619F0788970400985313341700BD
:10C1300019C30547D8D7EF001062228524804CDD53
:10C14000930545031F058897040055B393054503E0
:10C150001F0588970400C9BB58809F078897040073
:10C160008443C040638C84061C448149FD171CC471
:10C170001C44A9EB2285593F035904FD9377F9F735
:10C18000992893778900A1C7937779F793E70704F4
:10C190009920130584FF9D3F232404FE232604FEDB
:10C1A0009377290089EF835704FD93E74700252003
:10C1B000835524FD0546130584FF49238549C04066
:10C1C000E39884FA3B96090150806FF00FA69377AD
:10C1D000F9F51120F1B72318F4FC82805480B7A739
:10C1E000040083A7079599C3C84B82801F050702E7
:10C1F00000028280B7A7040083A70795014591C379
:10C200008857828038801C491F07CCCCCCCCAA84AC
:10C210009C432E846389E70050490C551F0594DC2C
:10C220001690EFC06FB1144018486376D7005C4495
:10C23000BA9763F9D70050480C541F05BCDC169020
:10C24000EFC08FAF9F076254040091C39D3B9F07CF
:10C25000FC9704009C4389C74C48C84830808287BB
:10C2600034809F07EC97040088C382809F07EC9777
:10C2700004009C4391C382878280188097200D9090
:10C28000E780801BE537DDBF828038802A84EF009D
:10C29000D04B9F07F89704009C435B94875C1C4C31
:10C2A00048508297AA84EF0090499F07889704001E
:10C2B00023A00702EF00304A4848A68530801723A4
:10C2C0000D906700C3373881B724002083A784E02E
:10C2D0003EC6EFF06FAF35E1993525C5B7A704002D
:10C2E00003A407951F070098040018435C4863F2F5
:10C2F000E7042800EFF0AF926A207D291DE55E205B
:10C300006E201305C40293E747005EA005463D2159
:10C310000144F5292245EF001044B24703A784E009
:10C3200022856384E702EFF02FA91F0410020002A8
:10C33000D5B71F0407020002CDB71F042402000274
:10C34000E9BF1F040F020002C9BF348148813729A9
:10C350000020832789E0AA843EC6EFF0EFA639E1EA
:10C36000B7A7040003A407951C44898BA1E3453BB0
:10C3700031C189E8893FB247032789E06380E70438
:10C38000EFF08FA32800EFF08F89A6852285453B2B
:10C390005E2093E707025EA09D292245EF00B03B97
:10C3A0000145D1BF1F050D020003F1B71F0514029F
:10C3B0000002D1B71F050E02000275BF448118802C
:10C3C000EF00F0371F07889704001C5385071CD324
:10C3D00010806F0050381880EF0070361F07889764
:10C3E00004001C532A869DC3FD171CD385E35457B4
:10C3F0003B9706019F060C9804009442858A99C6D3
:10C400005CD7EF00503510806FF02F82328510809E
:10C410006F0070341880EF0090329F052098040060
:10C4200003A3050083A345001308130033366800F7
:10C43000B307760023A00501DCC1EF00D031293B12
:10C44000108035B16FE0AF9D18803B0905FF930563
:10C45000803EB307B5021306803E8146B335B50270
:10C460001385773EB337F500BE95EFA0FFC2148069
:10C470003880AE842A8491452685EFF00FA211CC36
:10C48000715781476363970A584011EB9DEFAA8566
:10C490001F05FEDC1690EFC02F8A814779A0544318
:10C4A0001396160063410602370600409305F6FF17
:10C4B000ED8E63EAA60089C7D0436D8E63F5C60092
:10C4C000BA87638AA6041843C9B7D843FD55898142
:10C4D0006D8F098FBB60170993868700AA96D0429B
:10C4E00061176D8FB70500806D8E598ED0C29CC2CA
:10C4F0005040638EC7026387C6001386860032975A
:10C5000011C314C3D8439D55B70600C01B45B5CA17
:10C51000758F598DC8C3D843BD56A1071B47D7CACD
:10C52000B7060040558F23AEE7FE3E85348054C0E9
:10C53000D1BF3880AE8719E101453480F5DDBB6E8F
:10C54000F6041304F6FF3377C4007DF79305C6FFA6
:10C55000BE95E3E3F5FEB284213FAA8771DD229503
:10C5600033069040718DE38AA7FCB307F540370787
:10C570000080D98F232EF5FEC9B73880AA8719E12C
:10C58000054505A8F5DD03A7C5FF63560700BD56A1
:10C590001B47D7CA998D944363E7D500C04313085E
:10C5A00084006379B8001F052BDD1690EFB0DFF82B
:10C5B0000145348003A5C5FF37060040718D75D94C
:10C5C000138785FF6385E60283A485FF0145E3E2C7
:10C5D000D4FEE36098FE814663089400D4407D1643
:10C5E00013858400F18EAA960145E394E6FC83A6A8
:10C5F000C5FF3D569BC6C6CC23AED5FE144391C69F
:10C60000D0429315160063D40502D443E30AD7F64B
:10C6100054431D56930487009BC6C6CAA696ADD246
:10C62000C042131614006356060098C291BF3687A5
:10C63000F1B74C43370600407D1633F5C5002105A0
:10C64000718C2A943375C400370600C06D8E498EF4
:10C6500050C3D0436393C600D8C3D443E302D7F298
:10C660009D561B44D4CAB386840055BF48813729E0
:10C670000020832789E02A84AE843EC615C18DC977
:10C680009F072C9804009C4391C382972800EFE0F9
:10C690001FD92285A685E93B2A842245EF00B00BED
:10C6A000B247032789E022856386E700EFE0DFF0E9
:10C6B0000144FDB74481588137240020832784E05A
:10C6C000AA8428003EC62E89B289EFE05FD54E8647
:10C6D000CA852685B93DAA842245EF00D007B24716
:10C6E000032784E026856384E700EFE0FFEC5481B4
:10C6F0003882B724002083A784E02A8405453ECEF3
:10C700000DC02EC699CD2808EFE07FD1B245228515
:10C71000AD352A846245EF0010041305F4FF33356C
:10C72000A000F24703A784E06384E700EFE0DFE8BE
:10C73000348219C1084582807D5582809F063898D1
:10C7400004009842B7070080B3D7B700D98F9CC2C6
:10C750009F073C9804009B85B70601EADC410CC1A9
:10C760005CC1DC4188C3C8C182809C41D8431CC1E4
:10C7700058C1D84308C3C8C3828058411C410356DE
:10C78000A5FD1CC31C41D8C381471F073C9804006A
:10C790005CC11B07C70654431CC1639EE6009F068D
:10C7A000389804009842B7070080B3D7C70093C7F2
:10C7B000F7FFF98F9CC28280B707008033D5A700AE
:10C7C0009F07389804009C437D8D133515008280A7
:10C7D00028809F07389804009C43014491CF93968A
:10C7E00007601F073C9804001B07D7064843130443
:10C7F00045FD6305E50051372285248093C6F6FF89
:10C8000005473317D7001347F7FFF98FC1BF48809B
:10C810009F0788970400985301C70547D8D74480DD
:10C8200037A904008324099565375E212A84ED9B8E
:10C830005EA1E386A4FEDE20A2852685BD9BDEA048
:10C840005E2093E707015EA0753AA68523288994A8
:10C85000228540806FE09F842880D1300DC5C5259A
:10C86000B7A704002A8403A5079501465E216E211F
:10C870001305C50293E74700231CF5FCC135413F72
:10C8800022852080C9AD24801880FD3A49380DC129
:10C890009F0788970400D8573B13070123A6070278
:10C8A00010805DBF3B13070223A60702108085B7E7
:10C8B0001480388046219306C50213E784005AA1EC
:10C8C0009841404358D500D9404314C054C3BB03DA
:10C8D00006FF93E48408B28546A19530308005BFF9
:10C8E00028801C5958552A8498C358555CC38147E1
:10C8F0001CD95CD55E2113F777FF5AA193F707087F
:10C9000091C7A9305E2093F7F7F75EA05E2013F77A
:10C91000270011EB6E2093E747005EA00546130544
:10C92000C402208021BD248048805E212A84AE84F8
:10C93000918B89CB1309C5024A8581350546A685A9
:10C940004A85ED3B66A0448058802A84CD2B5E202A
:10C95000AA8913F7170021EB13F7270029EB13F728
:10C96000070105C79F048897040003A90402630414
:10C9700009048547DCD41F09150200034E85E12B0D
:10C980004A8554808947DCD4D5BF918B99C713055C
:10C99000C402E5335E20ED9B5EA05E20014993E773
:10C9A00027005EA0E1BF1F090A020002C1BF1F09E4
:10C9B00008020002E1B793E727005EA0EFE0DFC0C6
:10C9C00071F1B13565BF3308C5008D47AA8263FE9A
:10C9D000C70AB3C755008D8BD9E713F7320029EF8B
:10C9E000930608FE9307C8FF63EA5606930608FC01
:10C9F00063E7560213870502938702020B8605FE42
:10CA00000B9602FE93850504938202040B0607FE33
:10CA10000B9607FEE3F056FE3308C500D1B70B8630
:10CA200005FE0B9602FE93850502938202023308EF
:10CA3000C5009307C8FF1DA0982185028505A38F17
:10CA4000E2FE63FA022313F732007DF751BF9841EB
:10CA50009102910523AEE2FEE3FB57FE63FD022146
:10CA6000E3EC57FCEDB76378052193F83500638A52
:10CA70000800982185028505A38FE2FE63FD021F51
:10CA8000EDB793884202637A180163F6021F98217A
:10CA900085028505A38FE2FECDBF93F8320089475A
:10CAA0006388F8008547638EF8088D476388F8121D
:10CAB00003AF050091052390E201938F02028902E2
:10CAC000135F0F010B86C59D938F0504939F0E0185
:10CAD000336FFF0193DE0E01931F0E01B3EEFE01D3
:10CAE000135E0E01939F0801336EFE0193D8080177
:10CAF000939F0701B3E8F801C183931F0701B3E7D0
:10CB0000F7014183939F06013367F701C182939F29
:10CB10000301B3E6F60193D30301931F0301B3E3CB
:10CB2000F30193850502938F22040B94C2BD938277
:10CB30000202135F0301E377F8F92390E20189020F
:10CB4000A9B703AF050091052380E201135F8F00B1
:10CB5000A390E201135F0F01938F02028D020B86F7
:10CB6000C59D938F0504939F8E00336FFF0193DE65
:10CB70008E01931F8E00B3EEFE01135E8E01939F14
:10CB80008800336EFE0193D88801939F8700B3E835
:10CB9000F801E183931F8700B3E7F7016183939F57
:10CBA00086003367F701E182939F8300B3E6F601C5
:10CBB00093D38301931F8300B3E3F30193850502AD
:10CBC000938F12040B94C2BD93820202135F830100
:10CBD000E377F8F92380E201850245BD03AF050044
:10CBE00091052380E201938F02028502135F8F007B
:10CBF0000B86C59D938F0504939F8E01336FFF01B4
:10CC000093DE8E00931F8E01B3EEFE01135E8E0045
:10CC1000939F8801336EFE0193D88800939F87010C
:10CC2000B3E8F801A183931F8701B3E7F7012183DC
:10CC3000939F86013367F701A182939F8301B3E637
:10CC4000F60193D38300931F8301B3E3F30193852C
:10CC50000502938F32040B94C2BD93820202135FCC
:10CC60008300E377F8F92390E201135F0F0123813A
:10CC7000E2018D0219BD8280AA823DC693060002A0
:10CC8000636DD604B30750408D8BA5E31377C6FFC1
:10CC9000B388E20093F7F50F13988700B367F800A5
:10CCA00013980701B367F8003367D70231EB23A06D
:10CCB000F20023A2F20023A4F20023A6F20023A88C
:10CCC000F20023AAF20023ACF20023AEF20093821A
:10CCD0000202E3EE12FD0D8A01CA3388C2002380EE
:10CCE000B2008502E3ED02FF82803388F2002380E8
:10CCF000B2008502E3ED02FF1D8EE360D6FE79B738
:10CD00003388E2002380B2008502E3ED02FF45B7DD
:10CD10009372350013F33500639902086319030A0F
:10CD200037887F7F1308F8F7FD5F8322050003A390
:10CD30000500B3F3020133EE0201C293B3E3C30172
:10CD40006392F3076395620011059105F9BF93F7AC
:10CD5000F20F1377F30F6395E7080505850593D761
:10CD600082001357830093F7F70F1377F70F639938
:10CD7000E7060505850593D702011357030193F7CD
:10CD8000F70F1377F70F639DE7040505850593D724
:10CD900082011357830193F7F70F1377F70F63910E
:10CDA000E7042DA86395620215A86383620005A0BD
:10CDB0009143338E5340B306C5011C2198210505CC
:10CDC000850599CF639EE700E369D5FE91BF1C21DD
:10CDD0009821050585056395E700F5FB01458280EF
:10CDE0003385E740828073252034019D82803B7427
:10CDF000055A9F07349304005B95A70C8280014578
:10CE000082803B7B055A8547B397A70015813B0479
:10CE100005013B050502F3B7473001458280BE821C
:10CE200073B002BEDDBFBE8273B012BEFDB71F0578
:10CE30000009000282803B7B055A8547B397A70013
:10CE400015813B0405013B050502F3A74730014569
:10CE50008280BE8273A002BEDDBFBE8273A012BEFE
:10CE6000FDB71F0500090002828073252034137569
:10CE7000F50FBB74055A9F0534930400DB95A50C90
:10CE80006FE0EFF58280BB74055AAA82739002BFEF
:10CE90000F00F00F014582801F050009000282800B
:10CEA00041112EC08685AA958C21AE908245410104
:10CEB0008280937795FF81EB13651500AA827390AA
:10CEC000027C0145828005458280937795FF81EB46
:10CED00013651500AA827390127C01458280054576
:10CEE00082803B750508060513651500AA827390BC
:10CEF000627C014582800545828091427390227C4C
:10CF00000F00F00F8280B1427390327C0F00F00F5F
:10CF1000828091427390327C0F00F00F8280A14298
:10CF200073B00230173300001303C3582320A3004B
:10CF30006FE00F9E9302800873B0023082807325E9
:10CF40000030A14273B00230828073250030A142CC
:10CF500073A00230828073100530828000000000D0
:10CF60007325003497C2FB1F9382C2A083A20200E4
:10CF700082927321003489629382028073A002300E
:10CF800083220111739032009302010987AD0200E0
:10CF900007AD420087AC820007ACC20087AB02013C
:10CFA00007AB420187AA820107AAC20187A9020230
:10CFB00007A9420287A4820207A4C20287AF020324
:10CFC00007AF420387AE820307AEC20387A80204FD
:10CFD00007A8420487A7820407A7C20487A6020500
:10CFE00007A6420587A5820507A5C20587A30206F5
:10CFF00007A3420687A2820607A2C20687A10207EC
:10D0000007A1420787A0820707A0C207C242739008
:10D010000230D2427390123405610B06E17F456104
:10D020008B0FF1FF2161730020301300000001001D
:10D03000973200009382C2460393C2006316030036
:10D0400017B1FB1F130101B20503239662003703DA
:10D050000040B3736A0063840300C14231A8370300
:10D060000080B3736A0063840300C54231A0B70235
:10D070000080FD12B3F259001685F32500349702A3
:10D08000000093824201829201A017230D90670055
:10D0900063D418809F073C990400DE27BB940701E6
:10D0A0009F070C1E00209C4391C3829701A09720EC
:10D0B0000D90E78020D2DDBF0F00F00FB717020000
:10D0C00023AC07C08280388044412A841F058665CE
:10D0D0000400EFB06FC6CD37A285268597200D904E
:10D0E000E78040CF01A04F6F70733A4E4D490A0060
:10D0F000370700E01C4393E717001CC31C43F59B54
:10D100001CC31C259DCB1C4393E747001CC3014651
:10D110001C41370700E0B306C700B297DC47110691
:10D120009CCA93070020E315F6FE5C415CC31C43D8
:10D1300093E727001CC36FB0CFBF1C43ED9BF9B72B
:10D1400018819F07000204003EC248009F070000AC
:10D1500004003EC423060100613F148158812A84E3
:10D16000EFA08F928347340599E78547A309F4041C
:10D17000EFA00F925481228597700E90E78000BA3D
:10D180008347F406BB930702228597700E90E780D1
:10D1900080CF8357E4050355440683452405FD5994
:10D1A0001D8D7C40219D93D959003305F5023C4CDF
:10D1B0000359C405AA97B3F43701EF907FF513061E
:10D1C00005018355040468400606EF508DDB835744
:10D1D0000404930610273E95219D13571500B3575D
:10D1E000D7029D8CB377D702B3F434016379F90089
:10D1F0003699FD144209B3F4340113590901330976
:10D20000F9401C541305A5022311A4049847D44BDC
:10D21000420933F7E402135909016387E600D8CBCA
:10D220005C5C93E727005CDC1C400A8526C43EC09A
:10D230007C40231621013EC2835744062317F10088
:10D24000EFA00F948347F4063B9AC7020840EFA073
:10D250002F91A307040629BF6880371A04000357DB
:10D260006A185B19B0488547B3062701370641594C
:10D270003384C6002300F50E3E20AA84AE8913F73E
:10D28000170011C713F5F90F60806F300DAA13074F
:10D2900026003697162311661307F6B7758F137796
:10D2A000F7FB29E3A30A05065E281307F6FF7D8F27
:10D2B0003E281BA7E720FD5795839BC7E7421CD953
:10D2C0004A35EF508DF601C9CE852685EF509DC9B0
:10D2D0002395040664803E2093F70704C5F7238056
:10D2E000040E4DB7C18B89CB1F052084802AEF9097
:10D2F0003FEDCA34EF506DA483576A181F07020030
:10D3000041591F067F3B0000BA97CA979E23C1462A
:10D31000938554077D8E13858407EFA0EF9113F555
:10D32000F90FEF308DA083D7840685072394F40688
:10D3300055B738805C452A849823BB130701EF302A
:10D340004DE781442685348081443B170702884796
:10D3500019C59C33858B81E7EF306DCB85442285E1
:10D36000EF300DEDC5B7BB17F703DDBF88802A8A04
:10D370002E8B7920930A4A0D7120A52081446302E7
:10D380000902B717040003D4071AB7094159B307B4
:10D390003401035449005B94871C3E2493F707082B
:10D3A00081EBA5C403250A00A68580806F50ADAB34
:10D3B00081285685EFF0DC8C2D208327C9009C2323
:10D3C0003B9A07015E205A85CE978E23819DEF50B0
:10D3D0006DA53D204A85B13FAA94A19C252011202E
:10D3E00079BF2A896F90DFEABB9AF7035E20CE9758
:10D3F000238A070083472A0EFD172301FA0ED1BFA7
:10D400006F909FE856856FF09C80848058808329B8
:10D410000500AA842E89139509014181EF60CD9AF8
:10D420008356890003260900939509012A84C18146
:10D430001F0533E3802AEF90BFD8EF90FFE4FC3064
:10D440004A3483554406A1C7FD15A19DEFF0EC8336
:10D450008357440685072312F40683270900854570
:10D4600022853CD0EF500DD28347E402BB920701E6
:10D470002285EF502DB4228597700E90E78000BF73
:10D48000EF901FE12285EF502DBF01455480938717
:10D4900015002312F406EFE05CFFC1B73B6206A063
:10D4A00070CD39A09547B307F60263CDF5007CCD6A
:10D4B00083470503BB9307017C4D3BE20715D1472A
:10D4C0007CCD82802E960586E1BF3881AE84230212
:10D4D000010023040100EF60FD872A842685EF60A8
:10D4E0007D878347A40AAA8495CBEF90FFDD8567EB
:10D4F000FD177D8D8357840A7D77219DF98FC98F14
:10D500002314F40A83D7840AF98F5D8D2394A40A27
:10D510002305040A2385040A230B040A340050005F
:10D52000A6852285EF905FEC4C002285EF808DBFB1
:10D5300022853000A685EF804DC80355E40AEF70C0
:10D540001DAC19CD8355E40A03C59407700023066A
:10D550000100EF80AD827000A6852285EF808DCD21
:10D560003481388089472A84230BF508231C050859
:10D570000325C5099306E00BAE840146B685EF602E
:10D58000EFFBB430685C13864400A30CD40693050B
:10D59000E00BEF70CF8105E10355C40A8544230CED
:10D5A00094062305940AEF60EDFA2305950A230BF0
:10D5B000950A014534804945F5BF1880930600025D
:10D5C0000146B6851F0550180400EF602FF7EF00E5
:10D5D000CEE61F053020002A10806F907FBE588154
:10D5E000AE849305A1002A8902C6EF601DEE70008B
:10D5F0009305B1004A85B7190400EF60DDEF03D44D
:10D600006919B70741593E945B1424C1EF00ADF787
:10D610007E240589DD9B9BA7A7067EA40345A10068
:10D62000ED9B7915133525009BA7A70413F7C700B9
:10D630003337E000F99BD98F13F7D7FF7AA4858B96
:10D6400099CFB2450345B100EF000DF8219D31C9D6
:10D650007E246AB093E727007EA4EF006DF3930762
:10D66000F00F638FF40283D56919B7074159BE954E
:10D670007E24DB9595C013F78700FE25DD9B0528EA
:10D680007A24ED9B118B25207824F99B058B0520AE
:10D690007A24F59B098B2128898B99C37E30FEB1B2
:10D6A00054814A8597700E90E78040E67DB7D98F08
:10D6B000FEA5828088833284AE89AA84EF90DFBC85
:10D6C0002685EF606DD2AA8A2685EF608DCA2A8BE7
:10D6D000EF901FBC1306400281456800EFA04FCABF
:10D6E00085462286A6856800EFB0FD8D6800EF9024
:10D6F0003FC5E2475A28C16613990701FD16135921
:10D7000009016304D708B14613064401B6850A85AA
:10D71000EF60FFE98A84014A9E2041677D17638F8D
:10D72000E702362883D589035A865685EFB0FD82F5
:10D730009E202A86CA858607A19F3E85EFB09D83DD
:10D740002AD20589A305A1026800EF907FBE1DE5DE
:10D750001C181B8A470383570AFD5EA8FD571359FF
:10D7600019002316240123172401230804007EA88E
:10D770001EAC3EAC5EAC7EAC01458483231A040033
:10D78000050A89043B15EA06D1BFF98FB3F7FA02FF
:10D790002319640168003ED2858BA305F102EF9046
:10D7A000BFBA11E9035541025686CA85EFB08DFD17
:10D7B00005814AA865B7231A04004DB798833284BF
:10D7C000AE84AA8AEF905FAC5685EF60EDC12A8BDC
:10D7D0005685EF600DBAAA8BEF909FAB13064002FF
:10D7E00081456800EFA0CFB981462286D6856800C2
:10D7F000EFB06DFD6800EF90BFB4E2475A28C166F4
:10D8000013990701FD1683D9840313590901630E87
:10D81000D706035A24015E86CE85D2865A85EFB09C
:10D82000CDF35E282A86CA858607A19F3E85EFB084
:10D830006DF42AD20589A305A1026800EF905FAFBD
:10D8400019C9BD2809C94E281F05217DC02BEF909D
:10D850003F97231A0400462881455685EFE0BCCA4D
:10D86000AA8A4A872A86CE86D2852685EFB0ADF26F
:10D8700085470581135919002AB02300F4022312A9
:10D8800024032313540301459483F98FB377FB02D8
:10D890003ED2858BA305F102252019C51F052087DF
:10D8A000C02BEF90FF9102D2035541025A86CA85E0
:10D8B000EFB04DED058193140501C1805E8A69BF0B
:10D8C00068006F907FA81881AA87D853DC4302C2F2
:10D8D00002C63EC485472302F1003E232E854C003C
:10D8E0002313F1009F07744702003EC6EFE07CB6A9
:10D8F000148118312389E5025A21FAB93E21DEB993
:10D9000083C7850381E72E856F202E828280488120
:10D91000B717040003D46719B70741592A893E9401
:10D920002E8532C65B14B4C02EC4EF20CE9F324683
:10D9300083444503A2451C221832342228329DEC30
:10D940000358840A9F04000C0000B3F4040193847C
:10D9500004809DEC8344640BA58F1CA28347740B49
:10D960003D8F18B28347840BBD8E34A28347940B3E
:10D970003D8D28B24A8540816F303D9F3B95040123
:10D980000358A4099964B3F404011168E38404FD05
:10D990006420A58F1CA27C303D8F18B21C24BD8E44
:10D9A00034A21C34F1B738802A84EF90FF8D7C209C
:10D9B0009D8BBB9907014844814404C401C5EF1005
:10D9C0000DB544C4EF90DFE9AA84EF90FFE84E2044
:10D9D0009B85B408EFF06CA630806F907F8B4880F9
:10D9E000B717040083A7C73786842A89A18B95CBF4
:10D9F0008685EF100D8B2A841DE19F0738B6040041
:10DA000084C397A00D90E780008281457145EFA007
:10DA1000AF98CA851F051123402FEF906FFA22851A
:10DA200044808145EFA0CF96F9B748808145868430
:10DA30002A89EFA0EF952A841DE19F0738B60400DC
:10DA400084C397900D90E780007E81457145EFA0DB
:10DA5000AF94CA851F05112F402FEF906FF62285D6
:10DA600044803880B717040083D5271F930405012D
:10DA70002685EF40BFAB2A842685EF90FFD301CDEA
:10DA80005C4991CB373700209C230347B78663F46A
:10DA9000E700136444009377240099C713740408C3
:10DAA000154511E0214534801375440001E9B7C7DD
:10DAB000040083C7B7C6E5DB1945F5B71D45E5B7D3
:10DAC000B8832A8CAE84B28B368B02C402C6231371
:10DAD0000100EF90EFDDBB0F150233899B40420937
:10DAE000135909018149BB63090383C924009C3090
:10DAF0009BA937111307610014085A86DE85268515
:10DB0000EF802EED835761003B94070465194209AD
:10DB100013590901938B74006317050E83CA4400DF
:10DB2000BC309BAA571163EB3A0F6389090E6387D8
:10DB30000A0EB727040083A7078C294A9C43804715
:10DB400019E863130A0C835661005A862C0062851B
:10DB5000EF804ECEB4831E2063E4370163F5FA00F4
:10DB6000032484FFF1BF3B170B041145EF405FFC1A
:10DB70002A8AAA852800EF409FDC23208A00014AD8
:10DB8000C5B70C08352829C9BB18FB069520630CBE
:10DB900025039385540009460810EF60FE920C108F
:10DBA00005205DDDB120A128219DE39BACFAA120D9
:10DBB000B9202A86DE856685EF901FFB55F175B783
:10DBC00022856F80CEDDE30209FA35204A86DE85A4
:10DBD000EF909FF959D975BFBB0EEB063B11EB08CF
:10DBE000B7C7040083C747C63B9ED7025A8A8DBF7A
:10DBF00022856F70CE92A28562856F70AE90AA8CDE
:10DC000008086F608EFB2A8A939789009BA567316D
:10DC1000B3E545016285EF706ED32DBF054AEDB7C0
:10DC20005880B727040083A7078CAA899C438047A4
:10DC300011E054805C20BB9C07015C4C83A487FFEF
:10DC400085C49C2403C73903B98F858B8DE3138961
:10DC50000902A6854A85EF903FFC11C9A1464A8674
:10DC6000B6852685EF60BF94032484FFD1B783A4D3
:10DC700084FFF9B728802A8413068501814513059E
:10DC80000503144295E62106E31DA6FE832704083A
:10DC90001307004093F707406371B7049DE3854580
:10DCA0003D288327040893E707402320F4083DA07C
:10DCB000984283A686FF1E233A23998FA19FBE9583
:10DCC000D1B79F07FF13000063EAB7008145012821
:10DCD0008327040893F7F7BFC9BFEDFB2480228593
:10DCE0006FF02EF478802A8AAE8463020510B72A7A
:10DCF000040003A74A8DD2851C4323AE070A0843BC
:10DD00002105EF40DFCD03248A0005475C448329C9
:10DD1000440003A947011C5093F7070491C32D4702
:10DD20002303E40226869F05CBAA06151F057E0164
:10DD3000B300EF907FE0A5E88144639C0906834728
:10DD400004021CD0638709004E85EF906FC3232225
:10DD500004001C4489C713058400EF90FFF189E497
:10DD6000D2852285EF203FE1A6855285EF302FB581
:10DD700013058AFFEF90CFC09307000F6389F40665
:10DD800083A74A8DA2858843EF407FBA2DC11C50DE
:10DD900071777D17F98F1CD02285EF30EF9B21C55D
:10DDA00070806F301FF80145EF204FB6BB94E4053B
:10DDB00061B7E30609F883441900D1D01C5093F7EA
:10DDC000072099E78347090093E707042300F90038
:10DDD0002285EF30CFB383470900814493F7F7FBE7
:10DDE0002300F900A9BF228570806F203FE0748076
:10DDF0001880EF104FE9EF402FEC10806F80FE8B02
:10DE00001880EF90EFB1ED3710806F902EF21880F0
:10DE100097900D90E78080793335A0001480000042
:10DE200058801F049C040400EF900FC6930944041B
:10DE3000BD280149AA8489EC3E20F99B3EA0EF90C1
:10DE40002FC513050402AD202A842DE4014554801A
:10DE5000DC408C488843EF408DE901E5DC40FC3331
:10DE600081C788402689F9B7631609024E85EFE01D
:10DE70003CE1AA849C44054726859C579C47A38384
:10DE8000E704EF40EDDAEF90AFC0EF90EFBF052071
:10DE90008144C9BF98402320E9009CC08327090022
:10DEA00099E3232424057C44FD177CC4E1B74E8507
:10DEB0006FE0FCD51C44B82F3B09070203C7770469
:10DEC00011CFDA3B01EF5840783309EBA383070405
:10DED0002285EF10A02419E1EF404DC40040B5B7F2
:10DEE000288013050003EF00BDDD2A8419C59306C1
:10DEF00000030146B685EF507FE4228524803880F8
:10DF00001F049C0404005104AA84AA852285EFE022
:10DF10003CD911E5A685228530806FE01CD2348083
:10DF200028802A84AA851F059C0404005105EFE07F
:10DF30007CDB228520806F009DDD28802A84EF40D5
:10DF40002D9D2285EF30DDC90145248038802A844B
:10DF5000EF30FDE6AA8409C9144850440C401F055F
:10DF600023748029EF90CFA5268534806F30FDEC97
:10DF700068821C412A849F049C0404003EC4EF90E4
:10DF8000AFB0482C6D69EF90AFB8A247BB16050241
:10DF90003EC670001385840741282A8415E9EF9056
:10DFA0002FAF01456482938904023EC810084E8554
:10DFB000A5282A846DD54E85224AEFE0DCC51A2CAF
:10DFC00054442A86D2851F0534CB8029EF904F9F79
:10DFD00002CA02CC02CE34001306A95D4C08138598
:10DFE000C402992813858403A12013854404892041
:10DFF000EF900FAA4808EF903D8B0844EF003DD109
:10E000002285EF00DDD0EF406DB1EF40AD8013858C
:10E010000402EFE05CC03B73E503814505459720B2
:10E020000E90E780E01DB5BF9305A95D6FE09CE011
:10E0300034001306A95D4C086FE01CD92880EF90CE
:10E04000AFA41F049C04040013054404EFE0BCBC0F
:10E0500005C13E2013F7170001EF93E717000146B3
:10E060009F05C0720400130510063EA0EF008DF559
:10E0700020806F90EFA158812A89C82DAE848041FD
:10E08000EF900FA9BB0725022685EF406D969147BB
:10E0900059C59F099C0404009389090270009F05DB
:10E0A000DAB501004E8522C6EFE03CD78D4725E961
:10E0B000EF402D8F232225012A84EF40CD8C08C408
:10E0C000A6852285EF40CD931C4403C734029F06EA
:10E0D000204E0000238DE702D8441C4463F3E60081
:10E0E0003687D8D34E851F06EAB50100A285EFE03A
:10E0F000DCC64E85EFE03CB23B64050385452E85CA
:10E1000097200E90E780C00F2285EF102001EF408E
:10E11000EDA02D37EF301DF0EF301DBB81473E8560
:10E1200054819947EDBF3880EF000DF8AA841F0491
:10E130009C040400EF904F959305C402B928930501
:10E140008403A128EF90CF94EF003079EF00CDF554
:10E15000544058447D5615823387E640718D718F47
:10E16000B307E540F18FB705000463F6F500B30788
:10E17000A740F18F91EF8157B306D5409BC6F6CAF1
:10E18000B707000463E4D70091C248C0EF00D07E17
:10E19000EF40CD9865350145348026856F104008E5
:10E1A0001880EF40AD9701469F05C6750400130522
:10E1B000000610806F000DE13880AA8448411307E3
:10E1C000A0087C216384E7003B94174097600E9081
:10E1D000E780403231E18044EF900F8F1377F500F4
:10E1E000343C930710273307F7023B92060293074C
:10E1F000D0073355F702DC44AA973B9806027D57B7
:10E200000983F98FDCC41C58383CAA973B150702D8
:10E210007D570983F98F1CD834807D571583D5B776
:10E220007D571583C5BF28812AC61F059C0404009D
:10E2300070009F05DAB5010013050502EFE0FCBD93
:10E240002A8409CD1C4591CBDE3B81EBB537228575
:10E25000EF00D06C19E1EF406D8CCD3324819881B3
:10E26000AA84C82D2E89328A83A90500EF904F8A8F
:10E270001944BB1E25024A85EF309DF711445DC548
:10E280001F0B9C040400EF902F80930B8B077000F2
:10E290009F05DAB501005E854EC6EFE01CB8AA8A7C
:10E2A0000D44EF80FFFE63930A08EF309DEF44C1F9
:10E2B0002A84EF305DEDCA8508C42285EF305DF415
:10E2C0001C4403473902238DE702EF80FFFB1F0642
:10E2D000EAB50100A2855E85EFE03CA82285EF004B
:10E2E00040752285EF309DEEAA84BB1A0A01930582
:10E2F0008B03EF00904F2A8405C9F82CD444528632
:10E30000CE851F0524AE8129EF809FEB2685EF0087
:10E310001DA019A89305CB02EF00305A2A8471FD85
:10E3200063140A00EF309DFFEF809FF622859481F1
:10E330003881AA840041482DEF809FFD3B021502E1
:10E340001F059C04040070009F05DAB50100130549
:10E35000050222C6EFE07CAC2A84894715C12685D8
:10E36000EF301DE9914709CDA6852285EF307DF676
:10E370001C4403C73402238DE702EF30BDC9814737
:10E380003E8534819947EDBF28812AC61F059C042C
:10E3900004002E8470009F05DAB501001305050204
:10E3A000EFE0BCA701C502AD014524810945F5BFD9
:10E3B0007882832905009F0A9C040400035AE50023
:10E3C000444100450359C50070089F05DAB50100B6
:10E3D00013850A024ECEEFE05CA45DC9162D2167BD
:10E3E000791733864641219E1C45637DC70005474A
:10E3F0002383E704239C4703C4DFA0C3239227059C
:10E400000145748263974601C4C340C5231D25019D
:10E41000C5BFF23B33064641219E6372C706DC430B
:10E42000639897045C457D561582B386874037070D
:10E430000004F18E6377D700B307F440F18FB30681
:10E44000F040B3E796028DE72AC6EF80FFE332453E
:10E45000231D25011385CA02392013854A04212072
:10E46000EF801FE371BFD2864A86CE856F00706150
:10E470005287CA862286A685EF00106451B71F0511
:10E48000135382295286CE85EF809FD31D4595BFB9
:10E49000094585BF78812AC62A841F059C0404008B
:10E4A000AE89B28A9F05DAB5010070001305050236
:10E4B000EFE0BC962A8901E9A2851F052161822926
:10E4C000EF801FD0748100454C400440034AB401E2
:10E4D000AE947D563B133A020982F18CFD57338787
:10E4E000344195837D8FB706000463F1E6063387D8
:10E4F00099407D8F21CF3387B400F98FBB120A0278
:10E500009D579B47F7CA37060008B3863741130764
:10E51000F6FFF98E370500046366D508C1C6B387D8
:10E52000B40004C07D8FBB120A021D571BC7E7CA87
:10E530001C44B38499405CD4BB112A029D579BC7ED
:10E54000F4CA930AD007B38AFA02BA84585463FE15
:10E55000EA063307574158D44A85552650441307D5
:10E5600010273B120A021307D007B356E6027D5765
:10E57000B387A4401583B7050004F98F63F7F5004E
:10E58000B3079540F98FB307F04013970601418315
:10E5900063C0E7045C5463EDC7022326A9001DB7DE
:10E5A000158225BF3387B7003B140A02FD568982C6
:10E5B000758FBE84BA8781BF9306F6FFD5BF81579A
:10E5C0009BC7F4CA930A1027BDBF2326040269B76C
:10E5D0002686A2854A85D523F5B568822AC62E8966
:10E5E000EF809FCAB2479F099C0404006D6A10081F
:10E5F0009305AA5D138509023EC8EFE01C822A84B8
:10E6000011E5EF80FFC8094422856482044502CAEF
:10E6100002CC02CE1385C90289201385490435280E
:10E62000F24791CB983C162CA19F11E30547B38785
:10E63000E7029D8E16AC239A04022326240122852C
:10E64000EF00D02D2A8419E1EF305DCDEF805FC45B
:10E650004808EF906DA5DD3245BF74001306AA5D32
:10E660004C086FE06CF648829F049C0404006D69BE
:10E670002AC62AC810089305A95D1385040202CA98
:10E6800002CC02CEEFE06CF92A8415C5EF80DFBF23
:10E690001385C40215204808EFE0ECD71C44DA3B90
:10E6A0003305A740CABB138544043920EF805FBE01
:10E6B0004808EF906D9F448274001306A95D4C08D2
:10E6C0006FE08CF04880B7174059372904003B1A97
:10E6D00005FF98471377F7FD98C713070002D8CBBB
:10E6E00083A6872093F6F6FD23A4D72023AAE7204C
:10E6F0002300098244802A84B7140400BB8F0502DA
:10E70000B843B70600F8758F498FB8C3984715838B
:10E71000058B01EB13070002D8CB9847136707025C
:10E7200098C7EF004D93B717040023AE8740854785
:10E7300023A0A4422300F98275BF03A70724B706CC
:10E7400000C0758F498F23A0E72403A78720158376
:10E75000058B19EB1307000223AAE72003A78720E4
:10E760001367070223A4E720EF000D946DBFC88054
:10E77000AE8C2A8D328BB68B3A8CEFE04CC99D570C
:10E7800013892C001B49F9CA95473359F9027D5466
:10E79000814A014AA2843309F90281571B49F9CA07
:10E7A00001E53B9824FFC4801C45504503CAB701CE
:10E7B000B727002003C4C7603B0C1A029547B35526
:10E7C000F4027D5415804A87B305B640B3F4850042
:10E7D000B387F4027D8CFD56B307E4409582F58F34
:10E7E000B7050004835AA50163FCF504B30787400D
:10E7F000F58FB307F0409F099C04040083A609012C
:10E800007D5813585800B3858640B3F50501B70805
:10E81000000463F2B806B306D440B3F6060195C20D
:10E82000A9EFC0806F30AD887D57330486401583D3
:10E830009D5593871C009B44B4CA798C7D8F61BF22
:10E84000DDDB83270B00BB8607FF83A70B00015787
:10E85000818F9BC7E7CA37070004E366F7F4A1D7A7
:10E8600023209B0023A08B0023004C01B7B704009A
:10E870002398574B0DBFCDF5E9B75C41162D1F0509
:10E880002486C0298C43EF80BF9303A70901B79961
:10E89000C029E6862286A68513854983EF805F928C
:10E8A000B717040083A6C741B717040003A60742A1
:10E8B000B727040083C50782138539A3EF805F90D3
:10E8C0006A85EFE0ECBB1C45DA3B19C37D17DABB68
:10E8D000EF30DDB16A85EFE08CB3D9B5BB0206023B
:10E8E00009EA05057999BB840502FD5795837D8D5D
:10E8F000828013651500C5BFFD578983CDBF488051
:10E900000045B7240020372900203C3C3B8A070201
:10E91000EFF09CF03D201547B3C7E7023E95FD5749
:10E9200095837D8D5C3C85C77C2895E370382C3CB5
:10E9300040806DB7EFF05CF729203E95FD57898345
:10E94000CDB783C7C4600347D960BA97828044803B
:10E950001880370504001305854CEFE04CAB0DCD56
:10E96000EFF07CEF9547B307F5029F069C04040087
:10E97000984A7D561582B7060004F18FB307F74019
:10E98000F18F014763E2F60285C337B704000357EE
:10E99000074B5B57F77C09A8370504001305454D65
:10E9A000EFE0ECA67D574DFD3A85148018803705C1
:10E9B00004001305854CEFE08CA521CDEFF0DCEED3
:10E9C0007D561582372700209F069C040400B377EC
:10E9D000C5000345C760984A9306D007B7050020D5
:10E9E0003A9537B704000357074B3357D702FD5604
:10E9F00089823A953377C5003305F7403376D500E1
:10EA000063E3C502B727002083C7A760B327F500DB
:10EA100009A8370504001305454DEFE04C9F8147D9
:10EA200051FD3E8514803385E740758D3305A04048
:10EA3000D1BF18455C45362D383F3B05070213060C
:10EA4000D00733D7C602B3F6C602DB57F704015727
:10EA50009BC7E7CA1CC956AD82801C45411122C61E
:10EA600003C7A703943FA03F122D05078DEA219FFE
:10EA70003297219F1AADB42FADEE83C6670481C6CD
:10EA8000963F638BE602D43FD843BB960601BA9506
:10EA9000BB1804027D570983F98D4CC525A833079F
:10EAA000D702F1B783C5A7038505B385E5025845AD
:10EAB000F9BF7D571583CDB7B84323830704C166DB
:10EAC00058C503D74704FD166313D7003A2D3AAD56
:10EAD000D85FD8C3D83FBB150702DA2B5445369709
:10EAE0003B111402FD568982758F98DB3244410137
:10EAF00089B73B9AE60198437D56B386E540158277
:10EB0000F18E370800046363D80099E258C5D9B77D
:10EB1000D443BA9633F7C6003B18F4021D571BC7FF
:10EB2000E6CAD9BFFD569582C1B74880AA842E890E
:10EB3000EF30CDE99C442A84983F8C2FB43F9C4B06
:10EB4000B355B702BA2CB305B902B387F5023E97A5
:10EB50001E2DBE950EADD0443B9D06029307D007F7
:10EB60000D200982F18F5CC49307D0073B82060217
:10EB7000930710273377F70222853AAC5D3D228553
:10EB80004480B357F702B2977D56828093071027CF
:10EB9000CD3F1582C1BF2880514433548502EF8098
:10EBA000AFF2AA871375F5033B74043F13F57700A2
:10EBB0003B62040813F5F701248058809C45AA891C
:10EBC000C84103C9B501DCD5B2842E84E937269546
:10EBD000BB140902FD5789837D8D08C023A6A900B7
:10EBE0005480FD579583CDBF9F07102600205BD52D
:10EBF000A7028280411122C626C418459C45642D77
:10EC000003C8E5015447C04763E50401DC3F91C3F5
:10EC10005453DE2D4A2D130730F81D8DB307D50050
:10EC2000635BF0029386F7FF33C7E6023297014534
:10EC3000634FE00033858740930730F86352A002AA
:10EC40007D153345F502329513251500050532442F
:10EC5000A2444101828033C7E70232970507C1BF52
:10EC60003345F50232950505C5B7411122C626C4C4
:10EC700018459C45E42D0348E5015447C04763E52A
:10EC80000401583F11C3C053DE2D4A2D1307D0078E
:10EC9000898FA297635BF0029385F7FF33C7E50284
:10ECA000329705071545635EE000958F130530F830
:10ECB0006351F002FD1733C5A702329513251500E5
:10ECC0000D053244A2444101828033C7E7023297E6
:10ECD000D1BFB3C7A7023385C7000505C5B79C4997
:10ECE0001849FD5695823386E740758E3708000433
:10ECF0006379C800B307F740F58F3306F04099C336
:10ED0000ADB711E65E2DDA2DE3FCE7FE0146DDB579
:10ED100018801C458145D83F3B141702B43FD847A3
:10ED20001306D0073B820602130610273357C7028B
:10ED3000945B5045FD559581B387C6403708000464
:10ED4000ED8F6377F800B307D640ED8FB307F0403F
:10ED5000219F814563DAE7005C411F0533AF4029FD
:10ED60008C43EF80EFC585452E851480388004459F
:10ED70002A845045BC3CBB970702FD57898363FE3C
:10ED8000C7005C401F0532BA40298C43EF804FC357
:10ED900001453480FD579583DDB722858D3650447B
:10EDA000FD5595813307A6406D8FB7070004AA86ED
:10EDB00063F3E702B307C540ED8F91CFDC3C89EBED
:10EDC0005C401F0533C440298C43EF806FBFC9B737
:10EDD00048C42285B9392285253F13451500019D78
:10EDE0004DBF38801C452A84AE849C5799CB9847E8
:10EDF000F42F783F3697BA86019FBB610720FD4606
:10EE0000F4AF5C40782C162C8C4350441F0534DA48
:10EE10004029EF80EFBAA2852685EFD0BCEC1C44D8
:10EE2000DA3B19C37D17DABB228530806F300DDCE9
:10EE300068802A84AE89B6843A8A99CA11CA03299D
:10EE400006003285FD14D285693F819C4A86E5F82B
:10EE50001C44B42F3B970601D45754C803C727025C
:10EE60003B140701D453DC5763F3F600B6875CC844
:10EE70002285C1365285638709002286CE8560804F
:10EE80006FD05CE3A28560806FD0DCD914459045DB
:10EE9000682DDC42B43E5842EC2D3B820602DB5723
:10EEA000F004343E3B8206025B57E00495C70DC771
:10EEB00095466376F702B3D7E702B3D7D7023E870A
:10EEC000819FBBE107040D473A959377F50F13F542
:10EED000F70FBBE107207D4533B5A5008280B3570E
:10EEE000F702B3D7D7023E87819FBBE107040D47E6
:10EEF000BA9593F7F50F93F5F70FBBE7F720FD45AC
:10EF0000E1BF288098491C497D5415803306F7409D
:10EF1000B7060004618E63F6C600998FE18F330651
:10EF2000F0409C45F42D602DD84763E78600D4530C
:10EF3000D85763F3E60036871308D007B3070603F4
:10EF4000D62DBA96BE968147635ED0021C45C29606
:10EF50004045B03F2E2D3B0F0602130810272D20F1
:10EF60001582B3F60603718F63E8D50258C5F82BF6
:10EF70002A8411E7F03BAC3F48458D3248C42285D6
:10EF80004D3C85473E85248033D706037D56229726
:10EF90008280DD3F0982F1B70507718FC1BF3880DC
:10EFA000AA84370504001305C54EEFD09CC62A84F9
:10EFB0001DC9DC4093062008F8236317D700584189
:10EFC0009C4318436301F702A2852685093B3B0653
:10EFD00005059C440545DC3F81CBA2852685153778
:10EFE0002685308035B3014534809880032985001B
:10EFF000AA892E85AE8BEFD09CC12A848144014B17
:10F00000814A1DC0B128E1392A8A19CD3B03150573
:10F010008128AD3D15C191E0228B8504819C5286EB
:10F020008120EF201DF621C14E855E87A6865A8677
:10F03000D685FD3B01452DA88347D9018DCB0D20F9
:10F04000C93501C91C44D853DC576373F700BA872C
:10F050005CC84E85753901EDA28A8144014B31A00F
:10F06000A2854E85828091E0A28A004059BF054565
:10F07000948028801C45BC2F3B9F07012A843705BC
:10F0800004001305C54BEFD09CB809E51C4423814F
:10F0900007020DA05C4058419C431843638DE70074
:10F0A0001C45D83FBB1407011C442381E7021C45C3
:10F0B0002381E70224800841C9BF38802A84AE84B6
:10F0C000753111C9228575372285D13D11E5A68597
:10F0D0002285308019BF054534803880EFF0ACF7C9
:10F0E0009F049C0404009C2069811374150099C737
:10F0F00011E413854401EFD09CB119E180A0348064
:10F1000014455849B387E600370700083377D7021C
:10F11000998FB3F7D7025CC90841C5B748802A84E4
:10F12000EF808F96228531322285EF302D8AB70508
:10F1300004009385854CAA844937CC442A892285CA
:10F14000293A631D09001C44B82FBB020702DA3BB1
:10F150000507DABBEF80CF934A8544802685EF30E0
:10F16000EDA81C44782CFC3FBA97819F3BF2072006
:10F170007CACCDB7FD47EDBF48809F049C040400E4
:10F18000DC40984413850402BA9701579BC7E7CA2D
:10F19000DCC0EFD0DCA72A84014911E144801C4483
:10F1A000BC2FB5E7DC4018487D561582B386E74092
:10F1B000F18EB705000463F6D500B307F740F18F71
:10F1C000B9E7B717040083A7C73793F7074099CB70
:10F1D0005C40782C162C50448C431F053404422983
:10F1E000EF701FFE22851D3FD8401C487D561582BA
:10F1F000B306F740F18E37050004B335D0006376CF
:10F20000D500998FF18FB335F00091C12E89004060
:10F2100059F4E30509F8370504001305C54B95BFFC
:10F2200038802A84AE842685EFD07C9E11E134801C
:10F230001C49FD5695823387874037060004758F39
:10F240006377E600B307F440F58F3307F040B72744
:10F25000002083C7C760E35CF7FC5C415045A28691
:10F260008C431F05131F4229EF709FF52685EFD0B1
:10F270003CA11C45DA3B19C37D17DABBEF300D9773
:10F280005DB758802E89B284B689EFD05C982A8405
:10F2900011E054805C409C43639E27011E2C216733
:10F2A0007917B3873741A19F6366F70026AC2285A3
:10F2B000EFF02FF80040E9BF78825C4102C602C837
:10F2C00002CA02CC02CE9C432A84B68AAE84B2899A
:10F2D0003A8A3EC62318E100EF701FFB3705040091
:10F2E00074006D691305854C9D204808EFD0BC92D1
:10F2F0001C447400DA3B3305A740CABB3705040041
:10F300001305054EA9201306A1009F05F8B50100BD
:10F31000480823154101EFD0FCB12A8915CDAA85F3
:10F320002285EF20DDE91C442285C4C32326340155
:10F33000231D5401E53319E1EF205DFE4A85EFF00E
:10F340001C9DEF70FFF44808EF800DD67482130601
:10F3500069604C086FD05CA75C401A2CD2868C4345
:10F360004E861F0524544229EF709FE5D9BF9F06A2
:10F3700074B504009C221F07B4B404005B17F70C9B
:10F380008507BD8B08C34CC310C79CA282809880A0
:10F390002A892E8BB28BB68A3A8A814483278900C8
:10F3A0009C2F63E4F4008149B9A0A6854A85EFF05B
:10F3B000CFF7AA852A845685EF302D824C40568699
:10F3C00015459C458297AA8905E55E86DA852285E2
:10F3D000EF20CDB483470A008504819CFD172300EC
:10F3E000FA00EFF06CCC5C4050448C4349377DB759
:10F3F0002285EFF0DC914E8594808882AA892E8543
:10F400002E8AB28A36843A8BEF20ADC0A309A100C0
:10F410000DC81C48FD5695823387374137060004D6
:10F42000758F6377E600B387F940F58F3307F040B7
:10F43000B727002083C7B76063C5E7008347310162
:10F4400091E384825685EFD0BC832A84EF20DDF4DB
:10F450001C440C4803C997015C408843EF30CD85BC
:10F4600009C52285EF209DF89DA81C4422859C5744
:10F47000984702CA02CC782F02CEF8AF1C44E63B74
:10F48000EF203DF4BB69090231464C080A85EF8044
:10F490002FEE130731018A865286DA852285C53D13
:10F4A0003B1215011C44E6BB6DBFA2854808EF2046
:10F4B000DDF24C40500815459C45829775F1528607
:10F4C000DA852285EF208DA583473101FD17A30939
:10F4D000F100EFF06CBD5C4050448C43493D5685D3
:10F4E000EFD0ECF22A842DB72285EFF05C82C5BF05
:10F4F00058811C412A84AE89139777006341070421
:10F50000370904001309C94E1C30ED652307F100CB
:10F5100005CEA120EFD01C92AA8405E1A920EFD04E
:10F520007C91AA8419E90346F1008345E100CE8667
:10F530001F051392C028EF70BFC826855481370974
:10F54000040013090950C9B70928EFD01C8DAA84FB
:10F550006DF51128EFD07C8CE9B71306E100938597
:10F56000E5D94A8582803C201306F1009F058EADC7
:10F570000100A307F1004A85828018809F070CB123
:10F5800004009C4382970145148018809F070CB1AA
:10F590000400DC43829701451480F3270030737721
:10F5A00004309F0608B104009A22219F09EB8D8345
:10F5B00093C71700858B1F0704B104001CC39E224C
:10F5C0008507A19F9EA29E22A19F91E781451305D9
:10F5D00030066F806FDC0F00F00F0F00F00F82809D
:10F5E0001F0708B104001E23A19F91E78145130561
:10F5F000F0066F806FDA1E23FD17A19F1EA31E2346
:10F60000A19F81EF9F0704B104009C4399E3F36736
:10F6100004300F00F00F0F00F00F828018809F075A
:10F620000CB1040088C30147814601469F051A8A30
:10F6300004001305100497E00C90E78020069F0754
:10F64000803B040083C517041305100497E00C9059
:10F65000E780C0061305100410806F807FF31880C8
:10F6600013051004EF809FF38145130510041080EB
:10F6700017E30C9067004304130510046F805FF4D8
:10F6800018809F070CB10400C8C30147814601469A
:10F690009F052A8A04001305200497E00C90E78058
:10F6A000E0FF9F07803B040083C527041305200467
:10F6B00097E00C90E78080001305200410806F8095
:10F6C0003FED188013052004EF805FED81451305A1
:10F6D0002004108017E30C90670003FE130520043C
:10F6E0006F801FEE1305A0046F809FED1305F002DD
:10F6F0006F801FED9F0708B10400239007009F074C
:10F7000004B1040023A0070082809F070CB104000D
:10F710001B85A7040CC18280188085450145971080
:10F720000E90E780E0AD1F05868D040097000E90D7
:10F73000E780605E9F05BC8D04000D45EFC07CF244
:10F7400010806F70FFB1B717040003D5875A3335A7
:10F75000A000828028809F07002D31011CC12A84CF
:10F76000EFF00F9F1C406373F50008C097300E90B8
:10F77000E78000621C406373F50008C02480188095
:10F78000B717405998479F0630B6040098C203A7A0
:10F7900087209F0634B6040098C223A4070023A440
:10F7A00007207D5723AAE720D8CBEF70FFAE10804B
:10F7B0006F701FAC1F07ECB504001C239F06F0B54B
:10F7C0000400BE96850793F7F70388A21CA38280E6
:10F7D00068802A8997000E90E780C0582A8401E546
:10F7E0001F04581B000093071027371704009B07BE
:10F7F000F4FC4A852324F72CB7190400EFC0CCFF92
:10F800002388A95AEF705F8EAA8497100E90E78024
:10F81000E0ABEFF00C87371A04002312AA5AEFF07E
:10F820008C83B717040023AEA75897000E90E7808B
:10F83000A0532A8719E11307004B83564A5A371AF7
:10F84000040083479A5913061027CA963386C702C5
:10F850003385C640198DEFC0BC8383C9095B3B9BD0
:10F8600019019305007D97100E90E780C0A78D28A1
:10F87000393797100E90E78040A303479A59854780
:10F880001145998F130710273359E90237170400E0
:10F89000CA972320F75AEFC04CED1545EFC0ECECAA
:10F8A000B1C0EF707F842A86B387A44063F4A400BC
:10F8B000B30795401307803E6376F702A6851F05C0
:10F8C0001291802C60806F70BF8FBB960902A28559
:10F8D00097100E90E78020A12120EF70FF9749BF7D
:10F8E0004E85C9BD6480188097100E90E780C0B522
:10F8F000EF701F97EFC0CCE6BB060505EFC04CE6E6
:10F90000AA851F0531AC802CEF709F8B1D451080A0
:10F9100055B51145EFC06CE52145D5BF6880B737B7
:10F9200040593704405923A407208327C41F93E775
:10F930001700232EF41E084CEFC08CEF93071027FE
:10F940003377F5021450AA8993F606C0B357F5022F
:10F95000558F18D037174059094586075CD01C4889
:10F9600093E787001CC89F0730B604009C430544FA
:10F970001CC79F0734B604009C432324F720EFC024
:10F98000CCDEEFF0AF8211E597300E90E780E044D7
:10F990002A84B727002083C7A760B714040003C9CF
:10F9A000E41B238FF41AEF109DF081450145238F4E
:10F9B000241BEFD00C8097100E90E780A0A0B71703
:10F9C0000400A383075A9F04E8B50400EFE0BCE8F5
:10F9D00088C037190400EFD00CA097000E90E78084
:10F9E000406F15E88347695A99EFEF70EFEFB7174B
:10F9F000040003A7C7598C40AA864E861F0534E72A
:10FA0000802CEF70EFFB8347695A25458507230358
:10FA1000F95A608045B3EF702FEDB717040083D615
:10FA2000475AB717040003A6075AB717040083A55F
:10FA3000C75937FA802C2A8713054AE3EF704FF82D
:10FA40008040EFE01CE4AA864E8613053A11A28599
:10FA5000EF700FF729452303095A65BF2880371730
:10FA600004008357875A2A84C98F2314F75AEFC09A
:10FA70002CCFBB190504EFC01C85137404033B167F
:10FA80000430EFE05CDDB717040023A6A75AB717D0
:10FA900004002383075A2480EFC08CCCBB17F505E4
:10FAA000D9BF188097300E90E780809EEFC04CCB76
:10FAB0003B120502EF709DD297000E90E780203C2C
:10FAC00019E1EFC02CF797400E90E780C082F9BF94
:10FAD0004880B7174059C047C0CBEF706FF9EFE0CF
:10FAE000BCDC2A89EFC07CC8AA8401CC01C51C41BA
:10FAF00063C907009377040289C7CA850145EF10DF
:10FB00003DD891E8C1652286ED15212040806FF037
:10FB10002CA24A85A9B89040E35606FEC165E915B6
:10FB2000CD3F9C401F07D0120400DD8393F7C70F21
:10FB3000BA979C4381C7CA85268582979C403D57CA
:10FB40009BC7E7CA9CC0371704008344875CB7177C
:10FB5000040083C7975C8504B3E7F4022304F75CD1
:10FB6000371704008324475C9B84F406EFE0DCD362
:10FB70002A8941BF9F05708F0400014579B64880EE
:10FB800037044059B717405944445054944FA68500
:10FB90001F0513478031EF70AFE2EFE0FCD02A89F8
:10FBA000EFE0BCD3CA85375980312A8613052991E5
:10FBB000EF700FE193F7044089CF1C403D571305C8
:10FBC00009C39BC7E7D837070001D98F1CC0EF7066
:10FBD0002FDF9397840063D20702B707405983A5AC
:10FBE000872503A6872683A6472703A787271F0500
:10FBF0003452803140806F70AFDC44804880B7174A
:10FC0000405983A4C72023AA9720EF70EFE8EFE0C4
:10FC1000BCC92A89EF806DAC2A8481CC01C51C4106
:10FC200063C9070093F7040289C7CA850145EF102D
:10FC30003DC519E8C1652686F515212040806FF085
:10FC40002C8F4A856FF0AFF21040E35506FEC16578
:10FC5000F115C53F1C401F072C140400DD8393F7EA
:10FC6000C70FBA979C4381C7CA85228582971C40DB
:10FC70003D579BC7E7CA1CC0372704000344C7840D
:10FC8000B727040083C7D7840504B367F4022306AB
:10FC9000F78437270400032487841B04F406EFE06D
:10FCA000BCC02A8979B79F059C9004000545B1BC6A
:10FCB0000000000000000000000000000000000044
:10FCC0001880AA851F05B7DA16909720F26FE78093
:10FCD000E0D010806F804475034826001E223687CE
:10FCE0002E86AA869F05CBDA16901F05DDDA1690C0
:10FCF0001723F26F670083CE1C3218229F05CBDAE0
:10FD000016902A861F056FD916901723F26F670089
:10FD1000E3CC2880835806001C3E58423284368843
:10FD20002A86AE861F055FD816909F05CBDA1690FF
:10FD30009720F26FE78080CA1E201F07F891040009
:10FD4000230107001EA324803880328436872A8648
:10FD5000AE86B7E416901F05EFD816900D285820F0
:10FD6000362012201F0529D9169015201E201F05A8
:10FD7000B8910400C5461EA13E2013064400B68576
:10FD80003EA11105308017E3F16F670083CC9385A6
:10FD9000B4AC1723F26F670063C4488232842E89A3
:10FDA0002A86B7E416901F05F5D716902D28562001
:10FDB00010401F0531D816903D206146814528002E
:10FDC0009710F26FE78000268D472304F1008547E6
:10FDD0002315F1003000FD57CA8501452316F100B7
:10FDE000EFA0447B44829385B4AC1723F26F670085
:10FDF000E3BE19C99F05CBDA16901F0540DA1690AD
:10FE00001723F26F670083BD82802881FC21D831DF
:10FE1000943132849F05CBDA16902A861F05CED9FD
:10FE200016909720F26FE78060BB0DE0930780206B
:10FE30003EC485472316F1009F07949104008E234A
:10FE40003000014523170100EFA0142324812880EE
:10FE50002A8601CD9F05CBDA16901F0501DA169090
:10FE600020801723F26F670063B71F04D09104004E
:10FE70002285EF607474228520806F60B43A2880F8
:10FE800050492A849F05CBDA16901F0579DA16901F
:10FE90009720F26FE78080B448489F0595DA169066
:10FEA0009740F26FE780C01D19CD9D4613061400E0
:10FEB000B6851F05D091040097E0F16FE78060B927
:10FEC00020806F80844124809F07949104008A23BE
:10FED00082801F05F89104008280188202C602C841
:10FEE000854702CA02CCA307F1002308F10068008D
:10FEF00093074006231AF100231DF10002CEEF8084
:10FF0000042AEF80443114825880B7E416902A897D
:10FF10009385B4AC32841F0545D716903A86B689CE
:10FF20009720F26FE78080AB9F07949104002390A5
:10FF300027019385B4AC3B1D04011F056ED71690B5
:10FF40009720F26FE78080A9BB9309011F05D0912C
:10FF50000400EF60345C9385B4AC1F058BD716901A
:10FF600050801723F26F670063A709E41F05ABD722
:10FF70001690FDB73B1804021F05C3D716909720B3
:10FF8000F26FE780A0A51F05D0910400EF60D46256
:10FF90005080A1B71F05E3D71690D9B718801F0569
:10FFA000889104009F07C0FC11901CC19F07380076
:10FFB00012905CC1EF80244310806F80E44638804B
:10FFC0002A849F07F2FD11901F05D89104001CC9D7
:10FFD0009F077EFE11901CCD9F074EFE1190AE84B0
:10FFE0005CC9EF8044421F05989104009F0708FFF9
:10FFF00011901CC19F070AFE11901CC9EF70443F6D
:02000004901258
:100000001F05049204009F079AFD11901CCD9F07C5
:1000100048FD11901CC19F0712FD11905CC19F0704
:10002000F8FC11901CC59F07D8FC11905CC940CD0D
:1000300004D130806FA0E47C1880AA851F05A5DA62
:1000400016909720F26FE78060999F0578011290D3
:100050001F053C011290A537108041B518808545D9
:100060000145EF20007F39E11F055CDB16909720EA
:10007000F26FE780A0969720F26FE780E0A6393F05
:10008000930600601F0686DB169081451F05D2008F
:100090001290EF60FFB111C5F1459720F26FE78034
:1000A00080A310801723F26F670043A41F0571DB44
:1000B000169075BF48802E89AA84213D2A8429354F
:1000C000AA852312240104C42286014540806FA022
:1000D00064641881C5454D45CD25C1455145F12D77
:1000E0009F0700C2010002C63EC48D472306F100EF
:1000F0009F0750D516909C4301453EC2EF00105318
:10010000814630004C001F07001E00200145EF0013
:1001100050400145EF1040069F06B400129005467E
:1001200095450145EF00B05601C91F053FDB16900C
:100130009720F26FE780808A014514813880B724C8
:1001400017901385F4A632849720F26FE780008918
:100150001F0598DB16909720F26FE78020885220C9
:100160000C4481460145EF00705E1385F4A6308093
:100170001723F26F67008386D1B76F30E061B7A7AE
:10018000040083A7C78089EBB7A7040003A54795A0
:100190007D151335150082809F07889704008853CA
:1001A0003335A000090582802880F1570DC12A84CB
:1001B0009750F26FE780808BE95711E922859750BD
:1001C000F26FE780E0623335A000B307A0403E85C0
:1001D0002480488137290020832789E002C4AA842B
:1001E0003EC62E84637CB5000145B247032789E0F3
:1001F0006384E7049750F26FE7804086C167F91780
:10020000E3E4A7FE9750F26FE780408671FD131577
:10021000040141812C003B970401EF704FA569F563
:10022000B79704000357810003A5477C1B05E50829
:100230006DBFEF706FA2E5B7448128812EC62A8476
:100240009750F26FE7808082B24501C599C1715520
:10025000248175DC48409750F26FE78080FDAA87C3
:100260000145FDD73707000293061770E381D7FEDB
:10027000130777707955E38DE7FC7555D1BF18806A
:1002800019E17155148048419750F26FE7800006DC
:10029000AA870145E5DB1F0701070002E383E7FEAC
:1002A0007555CDB738809F07589904009F04609911
:1002B0000400DCC39CC326859F0764990400DCC34B
:1002C0009CC3EF60FFE32A8419E91F056C990400C1
:1002D000EF601FE32A8401C58840EF601FE8228594
:1002E0003480B79704001F075CA0040023ACE77EAE
:1002F000B79704001F07009B040023A0E77CB79773
:1003000004001F077099040023AEE776B797040036
:100310001F07E09C040023A2E77CB79704001F0797
:100320001C9E040023ACE77C9F07889704001F07EE
:10033000809D040098CFB7A704001307803E23A434
:10034000E782B7A704001F070048E80123ACE78055
:10035000014582801F05603000206F705FD11880DA
:10036000EF700F8C19E5EF607FD601E510806F60AC
:10037000BFE614801F05C09D040082809F07C09DBA
:1003800004003D47D8CB1F0701002000D8C31F073A
:100390008EDD169098D7828028809750F26FE78084
:1003A000A0549760F26FE780E08C2A8481451F0596
:1003B00095DD16909710F26FE780406237A7040032
:1003C0008327C780228593E717002326F780C1473C
:1003D0005EA020801763F26F6700A3FE38809F0441
:1003E000105A11909F073C5A119063E5F4000144A4
:1003F000228534809C4082972A8419E19104DDB7DC
:10040000AA851F0579DD16909710F26FE780005DD1
:10041000C5B71880A537B93FB7A7040023A8A7948C
:10042000148038809760F26FE780A0FBAA841F05D4
:10043000889704009750F26FE78060FD2A84379513
:100440000400130505799750F26FE78040FC637351
:1004500085002A8426859760F26FE78000FA22855E
:10046000348038802A849760F26FE78080F79F0598
:100470002098040003A8050083A84500AA84330639
:1004800004013335860090C1B3071501DCC19F0517
:10049000889704002128B7950400938505793920B1
:1004A000268530801763F26F670023F52285175386
:1004B000F26F6700A3F69F061CA60400984211EB9A
:1004C0009F0720A60400DCC39CC398C7D8C78547F4
:1004D0009CC28280488137290020832789E02EC46E
:1004E0002A843EC6B28411ED1F0418060002B247EA
:1004F000032789E022856380E7049740F26FE78055
:10050000E055FDD19740F26FE780405611C1E9FCFC
:1005100012244844A6862C009750F26FE78040BD15
:100520002A8471D5AA851F0522DE16909710F26FD6
:10053000E780C04A6DBF448148809F0420A6040024
:10054000C0402A89630E940008444146CA859740FA
:10055000F26FE780A09019E1484444804040DDB745
:100560000145E5BF5881B729002083A789E02A8982
:1005700002C43EC6D137AA8405E111478146300046
:1005800093058002EF601FC915C11F05B0DD1690ED
:100590009710F26FE7808044B24703A789E0268571
:1005A0006389E7069740F26FE780404BA2451F053D
:1005B000DBDD16909710F26FE7804042B79704009A
:1005C0000354810083A7077CC1451F0560300020CC
:1005D0005B9487309750F26FE780805309ED224596
:1005E000EF603FD1C1451F05F7DD16909710F26F00
:1005F000E780C03E55B79F0720A60400D8431CC122
:1006000040C558C1D84323242501A28408C3C8C3C8
:1006100061B754813883B724002083A784E02A84FB
:100620001306800281450A853ED69710F26FE78057
:10063000609F19E80145B25703A784E06380E70291
:100640009740F26FE780804148448A859750F26F67
:10065000E780C0AE65F10355E100F1BF3483288126
:100660009F0748A6040090C39F0744A6040094C3B4
:100670002A842EC632C436C2EF6020428967B5078D
:10068000630FF50285471F0730A604001CA39F07D0
:1006900040A604009C2392462246B24589EF9F075C
:1006A00038A604008CA39F073CA6040090C39F07B4
:1006B00034A6040094C3228520816F007070014528
:1006C00024810F00F00F6F00B05828801F040060D5
:1006D00000529306C03FB6850146228597D0F16F40
:1006E000E78000B085459306C43F22862E85208092
:1006F000BDB76F0050639F0730A604009C2391C7CD
:100700001F0740A6040085471CA30145828028805E
:100710001F0440A604001C208DC39F0734A60400BC
:1007200094439F073CA6040090439F0738A604000B
:100730008C23019D2D372300040001452480D6879A
:100740005287CE864A86A6852285828028801F040D
:100750004CA604001C2089E7EF10E01485471CA07C
:10076000248048809F074CA604009C2385CB371427
:100770000080BBF905022E84AA849710F26FE780EF
:10078000E02C2A89A2852685EF1000152A844A8547
:100790009710F26FE780402C228544801F040110DF
:1007A0000080DDBF9F074CA604009C2399C36F10F7
:1007B0000018014582806F10907D5880AA842E8990
:1007C0003B7F05203BFE057EEF10107C05CDEF1032
:1007D000A02E2A8405CD1C4195CB9710F26FE7809F
:1007E000E0261C40AA89CA85268582972A844E85E0
:1007F0009710F26FE7804026228554801F049011E5
:100800000080DDBF1F0491110080FDB71F0492110D
:100810000080DDB75880BB7E0520BBFD05042E8916
:10082000AA84EF1060292A8405C91C4595C7971032
:10083000F26FE780A0211C44AA89CA852685829789
:100840002A844E859710F26FE7800021228554801C
:100850001F0490110080DDBF1F0492110080FDB7BE
:100860005880BB7E0520BBFD05032E89AA84EF10AE
:10087000A0242A8405C91C4995C79710F26FE78008
:10088000E01C1C48AA89CA85268582972A844E8541
:100890009710F26FE780401C228554801F0490114E
:1008A0000080DDBF1F0492110080FDB75880BB7E21
:1008B0000520BBFD05022E89AA84EF10E01F2A84C3
:1008C00005C91C4D95C79710F26FE78020181C4C86
:1008D000AA89CA85268582972A844E859710F26F49
:1008E000E7808017228554801F0490110080DDBFAF
:1008F0001F0492110080FDB701458280014582806E
:1009000068812A842E8AEF206019EF10203A2A8904
:100910008149639649010F00F00F014564815440FD
:100920005834104004445C2468246C3413D82600E6
:10093000BB030701FD169B86964213D8260083460B
:10094000D1009D8B0D8B93F6060ED58F1BA7E70666
:100950001377F7071B27A70E32C242C42306B10044
:10096000A306E100832709004800410482975DF552
:10097000850945B718800295EF20C0130145EF2087
:10098000C0190145EF202014014510806F20001A86
:10099000788411E59F043112008026857484FDD986
:1009A0002A8A0545AE89EF2040170545EF20A011A2
:1009B0000545EF20A017EF20200FEF20E00F79D999
:1009C0001C418297AA8471F9EF20000F85470445E6
:1009D0003ED6C1473EDC8567FD1751466C102A8420
:1009E0000A853EDE02D802DA9700F26FE780806265
:1009F0000A858294CE8A33093A01330959415C440D
:100A00006810BBF60A118297AA841DE92528D686AC
:100A1000312841D59F040400008041B78297AA8401
:100A200005E1C146212011E9C11AF1B77010D68540
:100A30004A8517D3F16F6700C3019F04040000804B
:100A40001120A1BF48403DB7A1B79305C004B3062C
:100A5000B5029F072CA704003386D7001842B106C1
:100A6000BE96410713880604637C070118C233054C
:100A7000B5023E951E2523150500FD171EA5828093
:100A800014C2F5B738801F042CA704005B14A44CD3
:100A900004403E2405468C40BE95EF1020572A2482
:100AA0000505219D2AA4DC443335F50013451500C6
:100AB000348038812A8423070100A307010013062C
:100AC000F100A545EF1080568347F1009F04D4A69E
:100AD000040089CF5B9484184E2881C91C4091C7BB
:100AE000484405468297231A04003481054693053D
:100AF000E1002285EF108052DB978418DA2BD4476F
:100B00000346E100369710A3CE2B9A2B8505A19DB5
:100B1000CEAB63EBE500984301C7C8470546029793
:100B2000DB948418239A0400228551BF5881FD1557
:100B3000819D2A893BF26505B7E71690938747E5C3
:100B40009B85B7049C41828751201F042CA7040079
:100B5000DB17244D9E2799E7014689454A85492898
:100B6000014554819D4551208347F100F5FB4A859D
:100B7000113F6DD9DB17244D84434A85F9359C44D8
:100B8000E1DBD040CC4488408297D9B71306F1000E
:100B90002528A545B12881498344F1001F04D4A626
:100BA000040085C8DB172419CE2BDDD9F82B098B5F
:100BB00045DBBA2BE3E6E9FA984311C3E5205B1461
:100BC0002419231A040069BF23070100A3070100A9
:100BD000828071285B1424191C408509C20993D9AD
:100BE000090189EBA545112045BF4A851306F1008F
:100BF0006F10C0435E2858448346E100BA9794A31F
:100C00004E281E288505A19D4EA8E3EDF5FC1C404D
:100C10004844612846A8F9B7A5457D37C13F01443E
:100C20008347F1009F04D4A604009DC75B97241955
:100C30004E2B9DD57C2B93F6170091E6898B8DD397
:100C40003E2BE36FF4F05B9724191C4399C348478C
:100C5000A9285B942419B5B71928DB972419984360
:100C60000504219C19EB4A85A545493755BF054622
:100C70009305E1004A856F10603AD62BD8470346AA
:100C8000E100369710A3CE2B9A2B8505A19DCEAB04
:100C9000E3EBE5FC984311C33120DB942419239A3C
:100CA0000400D1B7C8470146028701468287212840
:100CB000DC4381C78145014582974A85DD3B4DB5BF
:100CC00019209C47FDB79F07D4A60400DB97A718FF
:100CD000828028812A84A30701001306F1009D4524
:100CE000EF10C0348347F10095E32285613B05C1D5
:100CF0009F072CA70400DB97874C9C43984709C7A4
:100D0000D043CC47884302972285813324812285B2
:100D1000E9B798803B724503638205109C31BBFFA5
:100D200037209C213BFE3720630A060E5C22BBFB6A
:100D300037047C223BFA37035C32BBF837021F0AC8
:100D4000C4A60400B307AA009C230144DDEF9F075B
:100D500028A70400AA979C233A89B68B3284AE84D4
:100D6000AA898DEF131B25001F05C8A604002E8637
:100D700091465A957928939A390022861F0578A6BC
:100D8000040071201F05B8A604005E8691465A959E
:100D900049204A861F0590A6040095284E85854562
:100DA000EF10D0764E85EF101062630D0906832791
:100DB0000900ADCB0327490035C79306C004B386AD
:100DC000D9021F07D4A604005B1737195CC7832715
:100DD000490026869F052C0B12901EAB1F072CA7DF
:100DE00004004E859387C600BA9736971CC35CC330
:100DF000A2861147EF10201D2A8401E933073A012A
:100E000085474E851CA3EF10705E22859480A14615
:100E10005695B68517D3F16F6700A3C31F04010071
:100E20000080E5B71F0444100080C5B74880AA843D
:100E3000BB7515031F04C4A604002A941C20014995
:100E400085CBEF10A01B2A892685EF10B05DE14607
:100E50009F07D4A6040039289306C0049F072CA737
:100E60000400092881452685EF10506A23000400FC
:100E70004A8544803385D4020146B6853E9517C322
:100E8000F16F6700E3351F0901000080D5B7488284
:100E900032C436C2A307B1003B7B2503C5C69F07FA
:100EA00028A70400AA979C23AA848DEB85461F05DA
:100EB000B4A604001306F100B6852695A528139460
:100EC0002400914630001F051CA704009520914680
:100ED0003306D1001F05A8A6040099282685EF1027
:100EE000D06112471F04D4A60400DB17941898C3DE
:100EF0000347F10002CE2A89F8AB7008D54581205E
:100F0000F247224763F3E7003E87DB1794183AC4A1
:100F1000BAAB8D452520994515209545052091456D
:100F200031282A84CA852685EF10B05D2285448247
:100F3000B685229517D3F16F6700A3B105462685C4
:100F40006F10C00E1F0401000080CDB77881A30789
:100F500001002A893B761503B1C929CA9F07C4A697
:100F60000400AA979C23B9C7AE843284EF10F058CE
:100F7000AA8A2694A689338A99404A85639789006C
:100F8000D685EF101058528574811306F1009D45E7
:100F9000EF10C0098347F100EDF3CE85138A1900E5
:100FA00005464A85EF108006D289F1B71F0A010075
:100FB0000080D1BF1F0A40100080F1B7A8802A8BA3
:100FC0003B741503B1C529C69F07C4A60400AA97A0
:100FD0009C23A1C7BA8A368AB2892E899F042CA77E
:100FE0000400EF109051DB97644D9E27814B2A8CB3
:100FF00091C369201306C0043306CB02B387C40033
:101000008E273BE80504AD209F0B4510008021A0F2
:101010009F0B010000805E85A4809F0B4010008024
:10102000DDBFC0439306C600A696232024012322D9
:1010300044012326340123245401D8431386060493
:101040004107637BC702D8C35B94644D1224050635
:1010500093140601C18006A43B95040105201E24BB
:1010600091C7268689455A85EF00507C112065B7C7
:10107000E2855A856F10F048D4C3F9B75A8591B903
:101080009F07C4A60400982311C79F0628A7040041
:10109000054798A2983311C71F0728A70400854663
:1010A00014B3BC2391C79F0728A704000547B8A322
:1010B0000145828078801F0428A70400814981446B
:1010C0001C20ADC793FAF90F56858D33139A29006A
:1010D0009F0778A60400139639001F0790A6040006
:1010E0009F06B8A604009F05C8A604002A89329767
:1010F000D2963E96D295568529399F07A8A6040018
:10110000D29794433365A900C98C99CE9F071CA739
:1011100004003E9A9F07B4A60400CE9703260A0057
:101120008C235685AD33C98C230004008509050442
:101130003B94E9032685748028812A843B7E05033D
:101140009F07C4A60400AA979C239DC31306F10021
:10115000C545A3070100EF00706D1F052CA7040013
:101160005B15854C1A25854719E38347F100858B6C
:101170003E8524818147EDBF488123070100AA8471
:10118000BB741503EF1070379F07D4A60400DB97DC
:10119000971823A007002A898D452D2899451D28D9
:1011A00095450D2891453D20130400041306E100E8
:1011B000A54515208347E10089EB05469305F1001D
:1011C00026857D14EF00906575F0CA852685EF10A1
:1011D00050334481014626856F0050655880AA84AB
:1011E000EF103037EF1090379710F26FE7800086DE
:1011F000AA89EF10E0301C411F0910A80400232029
:10120000A90082972A8401C52D20228554809F073A
:1012100018A8040084C38327090026859C47829769
:101220002A8401287DF01F0715A8040085471CA308
:10123000E9BF4E851713F26F6700038238809F075E
:1012400015A804009C232A847D5595CFBB7E0402FB
:101250009F07141E002080A39700F26FE780007F95
:101260009F0710A804009C43AA8422859C4B829768
:1012700026859700F26FE780207E1F0714A80400E0
:1012800085471CA30145348028809F0715A80400CA
:101290009C237D559DC79700F26FE780207B9F07B9
:1012A00010A804009C432A84DC4B82972285970077
:1012B000F26FE780607A9F0714A80400238007007C
:1012C0000145248028809F0714A804009C237D5595
:1012D00085C79700F26FE78060772A84EF1010329D
:1012E0009F0710A804009C439C4F8297228597007B
:1012F000F26FE78060760145248001458280388066
:101300009F0715A804009C23014485C79F0410A8CB
:1013100004009C401F0718A8040008439C478297BC
:101320002A8401E99C401F07141E002008239C4BBF
:10133000829722853480BE8A3A8AB6893289AE8401
:101340002A8482801880EF102034D5241C4110801C
:10135000828788807D5415CEBBFE0580B387C5008B
:10136000BBFC07811DC5B284AE8A2A89C924AA891B
:101370009700F26FE780806D2A8B014A83A70901ED
:10138000B305490133854A0182972A8409C5092892
:101390007D5422858480050AE3629AFE1120D5BF20
:1013A0005A851703F26F6700236B9F0768DE16905C
:1013B0005B95A71C5C491841930640063E971E2387
:1013C00093E727001EA31C4393F7071099C71E231A
:1013D000A19FF59BA19F1EA38280FD16EDF6828042
:1013E0009F0768DE16905B95A71C1841144D504965
:1013F000BA969E22329793E727009EA21E2393E778
:1014000017001EA30F00F00F130640061C4393F7AE
:1014100007109DC31E23A19FF99BA19F1EA31E23FE
:1014200093E727001EA31E236F0300021EA305459A
:101430006F0360019EA282807D1669FA01456F03E9
:1014400080009EA282809E22A19FF59BA19F028385
:10145000B747005223920720239407109F0736A80E
:10146000040023800700828037470052835707100B
:10147000A19FF99BA19F2310F7109307F01F23163C
:10148000F710828037470052835747200D89A19F6C
:10149000F19BC98F2312F72082802A8663E3A50877
:1014A000B367B5008D8B0145B5EF3387C540B147B4
:1014B000B377F702A5EB93180601B746005293D80D
:1014C0000801239816211353060113950501239A49
:1014D00066204181239CA6209357270013D805013D
:1014E000A19F239E062149832394F6202396E6207C
:1014F000B76700523687636FF600B787005263EB19
:10150000B70083D74610A19FF99BA19F2392F610A5
:10151000054582808357471093E717002312F71081
:10152000C5BF014582807880A5CD3DCAB5CA368940
:10153000B2842E842A8A894A3B7A1A0252854D3512
:10154000AA8939CD9F0768DE1690DB97471D944323
:10155000D0478C4BD8439C47232009003697B69739
:101560001A239E233696AE969B27F7201CC01E2278
:101570009A229BA7E7209CC03B160A013707005719
:101580008357873B0357C73B9BA7E7202320F900DE
:101590005285213D1C4091E79C4081E7BB920A01A6
:1015A00081494E857480854A41BF37470052835731
:1015B0004720A19F93F7F7DFA19F2312F720828096
:1015C00048802E84B2843689CD37793D22855D3DB1
:1015D000CA852685D93521C1B747005203D7472090
:1015E000136707202392E72003D7472013670710CC
:1015F0002392E72003D78710136717002394E7107F
:1016000003D78710136727002394E7101F0736A816
:10161000040085471CA3448019C59F0738A804000F
:1016200088C3014582801F050100008082809F07DA
:1016300038A80400884382809F073CA804002380C8
:101640000700828038802A84EF10C004AA84228593
:10165000EF10A0040581931705011F05F81E002057
:101660001B0595040841C1831B05F50434801880CF
:101670000145E922B7B7040003A747849F06181E57
:10168000002094225C43014593F707F0D58F5CC39B
:101690001F073CA8040085471CA3148048809F07AF
:1016A0003CA804009C232A84A9C33B721580B1C1C5
:1016B000AE84493F2A892285EF00D07D9F0744A848
:1016C00004001B85A7041841C176137514001C4340
:1016D000F58F9F065A5A0000D58F1CC38327090037
:1016E00011C1A1839CA0014544801F059113008076
:1016F000E5BF1F0501000080C5BF48809F073CA8CB
:1017000004009C23AA842E89014499EB1F059113A0
:1017100000804480B38584002285493711E50504A3
:10172000E36A24FF0145F5B77D55E5B778819F074A
:101730003CA804009C232A8ADDC73B7D25802E849B
:101740009305F100A3070100913F8347F10093C780
:10175000F7FFE18FB5CFB7BA040003A78A84C1743D
:101760001F09A5A500001C43E58FB3E727011CC393
:10177000AD208D209F0944A804001B85A9041841B1
:101780001C43E58FB3E727011CC3A9201B85A904CF
:101790001C4113054006D84713671700D8C781209E
:1017A00052854D3593771A0091C3220400C11D2044
:1017B0001B85A9041841130540065C47F99B5CC7CB
:1017C0003928212883A68A8441779C42F98F9CC2BC
:1017D0000145748152856F00F06B1305800C17135F
:1017E000F26F6700E3E41F0591130080DDB71F056A
:1017F00001000080F9BF58809F073CA804009C238B
:1018000095C7B289AE842A892E84B307944063E4D5
:101810003701014554800C20B30799403385870078
:1018200001462937050475D17D55EDB71F05911384
:101830000080CDB71F051C1E00208280634FA002D0
:101840000A059F07F01E00201F0744A804002A97DE
:101850003E951C4101451CC3B727002083A747EFD5
:101860001F0740A804001CC3B727002083A7C7EFA9
:101870001F0748A804001CC382807D558280188001
:101880000145EF00D0649F074CA8040088C3148072
:101890001880E520930600080146B685108017C31E
:1018A000F16F6700E3932880D93F0144D5371520B5
:1018B0001C45636BF40031280C450145EF00D05FF7
:1018C00009284845208075A8A285014549280504B6
:1018D000F9BF01456F00D05C28813BF315022E84CF
:1018E000740030004C00752005E91247B2469F078E
:1018F0004CA804009B87E7040547B316D70022478E
:101900009C4313C6F6FF1A07BA9701E89853558F00
:1019100098D3D843558FD8C324819453F18E94D350
:10192000D843718FCDBF1F0501000080F5B7188126
:10193000740030004C00B1280DE112479F074CA8FD
:1019400004009B87E7049C4322479B87E70C88435E
:10195000B2473355F500058914810145F5BF9F074E
:101960004CA804001B85A7041C419B85B70C23A62B
:101970000500FD579CC9DCD582801F0550A80400D6
:1019800082800147814601469F05121A12906F50CE
:10199000AF9A78802A89AE8AB289368AA9281C41F2
:1019A0002A846376F9001F05010000807480584185
:1019B000BA97E37AF9FE8147814429A82D285C492A
:1019C000DB97970C98436366E900D44336976376B8
:1019D000270185041844E3E3E4FE1844E3F5E4FC3E
:1019E00023A00A0023A099009C430145B307F940B6
:1019F0002320FA0065BF01456F00904A38802E848D
:101A0000B284EF00F0494C49DB95850C884126955E
:101A100034807880AA849700F26FE780A004BD2804
:101A20005C452A84639EF400814901A8CE85014566
:101A3000EF00D0471C4199E785091C44E3E8F9FE13
:101A400001457480B14AB38A5903B7B7040083A72C
:101A5000C7847D57014A9B87370D8457D8D75C4888
:101A6000D697DC43E37AFAFCE1D893F7140085C7F4
:101A700035205C491F0750A80400CE85D6979C47A7
:101A800052860145D2979B07F70403A90700BD378B
:101A90008145019D02998580050AD1B701456F00F6
:101AA000304019C59F07D0A8040088C30145828033
:101AB0001F050100008082809F07D0A80400884392
:101AC000828005479F07841E0020B316A7002A8640
:101AD000984385C193C6F6FF758F98C39F07881EEC
:101AE000002094237D55636BD60298336375C7023B
:101AF0008280558FDDB7158E3356E602D44393F5B9
:101B0000F50701459B86C6049E22A19F93F707F81F
:101B1000CD8F9EA2828098477D5571FF82809F075E
:101B2000681E002098236365E500943363F4A600E3
:101B30007D558280198DD843D6278D471B05A70474
:101B40001A21B397D70093C7F7FF8D89F98FB39503
:101B5000D500DD8DA19D0EA1014582809F07941EB9
:101B6000002098236365E500943363F4A6007D5557
:101B70008280198DD84396278D471B05A7041A210B
:101B8000B397D70093C7F7FF8D89F98FB395D50029
:101B9000DD8DA19D0EA1014582809F07781E00204A
:101BA00098236365E500943363F4A6007D55828035
:101BB000198DD843962785471B05A7041A21B3978B
:101BC000D70093C7F7FF8589F98FB395D500DD8DD1
:101BD000A19D0EA1014582809F07781E00209823B9
:101BE0006365E500943363F4A60009458280198D8E
:101BF000D8439C471B05A7040A213355F5400589A6
:101C000082809F07681E002098236365E500943357
:101C100063F4A60011458280198DD843DC471B056B
:101C2000A7040A213355F5400D8982809F07941E31
:101C3000002098236365E500943363F4A6000D4506
:101C40008280198DD8439C471B05A7040A21335570
:101C5000F5400D8982809F07881E002094232A86E4
:101C60006365D5009833637FA7001305E007828082
:101C7000158E3356E602D8431B06C7040A22137595
:101C8000F507828098471305E0077DF382801F05E2
:101C9000481E0020828019C59F07D4A8040088C36D
:101CA000014582801F050100008082809F07D4A823
:101CB0000400884382804880032905003B70191086
:101CC0004C4104252A844A859120A6854A85F1281D
:101CD0000C44A18193F47500A68539281C4493D542
:101CE0008700E189A18393F70708C58DDD8D292041
:101CF0000F00F00F014544804A85FDA81F05010033
:101D00000080D5BF1F05A01E0020828001E57390D2
:101D1000053B8280BB1205017390153B8280BB128C
:101D200005027390253B8280BB1205037390353BFF
:101D30008280BB1205047390453B8280BB1205056F
:101D40007390553B8280BB1205067390653B828081
:101D5000BB1205077390753B8280BB120508739018
:101D6000853B8280BB1205097390953B8280BB1234
:101D7000050A7390A53B8280BB12050B7390B53B9F
:101D80008280BB12050C7390C53B8280BB12050D8F
:101D90007390D53B8280BB12050E7390E53B828029
:101DA0003B12050F7390F53B82809377F50FBB795B
:101DB0000508F326807D8A07819F3D473317F7008A
:101DC0001347F7FF758FB397F5005D8FBA82739055
:101DD000827D82807327907DE1178A07819FBD46AF
:101DE000B396F60093C6F6FFF98EB397F500DD8E35
:101DF000B6827390927D8280935725004111BB88F3
:101E0000070199C7BB8A07023B8D07034101828006
:101E1000F327003A3EC66F0380037390073AFDB77D
:101E2000F327103A6F0360027390173AC5B7F32790
:101E3000203A6F0380017390273AC9BFF327303AE5
:101E40006F03A0007390373AD1B73EC60D891C08C6
:101E50003E95230EB5FEB24702833747005783579E
:101E60000760A19FF99BA19F2310F76082801880D3
:101E70009700F26FE78080BDEF40903C0145EF0096
:101E8000F005E13F01A0B70700571307F00FDABFD5
:101E9000374700578357073793E717002318F7365C
:101EA00082809F07D8A804008A23828019C59F07D3
:101EB000DCA8040088C3014582801F050100008062
:101EC00082809F07DCA8040023A0070001458280D0
:101ED0009F07DCA8040088438280C9A018804D2099
:101EE00001C51F0530120080148048802A84971095
:101EF000F26FE7800092AA842E89B7B6040003A788
:101F0000068E83274710858B8DC7832747108583CF
:101F1000858B85C321281CC003A7068E01285CC0C1
:101F200031201CC421205CC4014544808327071054
:101F300082809710F26FE780C08DB30795403335EC
:101F4000F500B38525416394A5003BECE7041F052C
:101F500032120080D9BFB7B7040083A7078ED853C9
:101F600013671700D8D3D85313672700D8D3D85393
:101F700013674700D8D382801F05A41E00208280EB
:101F80001880EF00B033FD5701C9EF0030339F07D1
:101F9000E0A8040088C381473E8514809F07E0A81D
:101FA000040023A007008280BB75050389C99F0731
:101FB000ECA804001B85A7040CC1014582801F0505
:101FC0000100008082805881EFF04FB736C6BA8991
:101FD000EF00B03D9F07ECA804009B8787049C435B
:101FE00091CBB24681CA9C434E874A86A6852285FC
:101FF000508182871F054710008054819F07ECA8FD
:1020000004009B87A7049C43DC4382879F07ECA8BE
:1020100004009B87A7049C43DC4782879F07ECA8AA
:1020200004009B87A7049C439C4B82879F07ECA8D6
:1020300004009B87A7049C4399C39C4782871F0584
:1020400047100080828009C6FD571CC2014582806E
:102050001F050100008082809F0714A904003E959F
:1020600018219307E003BB7307039F07D8DE169080
:10207000BA979C231CC2014582809F07F8A80400E0
:102080001B85A70423200500014582809F0708A91E
:1020900004001B85A704184185891C47F99BCD8F37
:1020A0001CC782809F0708A904001B85A7041C4148
:1020B0000145FC43858B1CA282809F0708A9040070
:1020C0001B85A7041C410145FC438583858B1CA20D
:1020D00082809F0708A904001B85A7041C410145B5
:1020E000FC43819F858393C71700858B1CA2828048
:1020F0009F0708A904001B85A7041C410145FC4358
:102100008D83858B1CA2828019E2014582809F0706
:1021100008A904009B87A70498437C43858BEDF7AF
:10212000850583C7F5FF7D16219E5CC3F1BF8146FF
:1021300063C4C600368582809F0708A904009B8778
:10214000A70498437C43A18BF5F75C433387D50004
:1021500085061CA3F1BF9F07DCDE16909B87B704A2
:102160009C4391C382871F054710008082809F0790
:1021700008A904009B87A704984393F635005C5395
:10218000CD9B9BA7D704F19B93763600D58F93E721
:1021900007015CD39F0714A90400AA978CA39F078B
:1021A00018A904003E9510A182801880BB75060412
:1021B0009F0714A90400AA978C23019E4D3F014557
:1021C00014801F0501000080E5BF18803B760604DF
:1021D0009F0718A90400AA97B2859023819D413FCB
:1021E000014514801F0501000080E5BFB9C148808A
:1021F000939445003377960285452A893354960295
:102200001A07B354970259359F0708A904009B8702
:1022100027059C43131704019376F40F418394CB55
:102220002183D8C781454A8513F7F403D8CB408072
:10223000B1BD82809F0708A904001B85A70418412F
:102240008D891C47CD9B9BA5B7040CC782809F0737
:1022500008A904001B85A7041C41858998471377AA
:10226000F7F79B25B70E8CC782809F0708A904004B
:102270001B85A704184185895C57E99BCD8F9BA5D9
:10228000B7044CD782809F0708A904001B85A704C8
:1022900018411C4F3BF7050EB7E61690938606EAE9
:1022A0009B85B60494418286058ADD9B9BA7C70661
:1022B0001CCF8280058AED9B9BA7C704D5BF058AEA
:1022C000F99BD18FF5B7058AF59B9BA7C702CDB7C0
:1022D00018803336C000B5457D370145148018801D
:1022E0003336C000B1454537014514801880333678
:1022F000C0009145493F0145148018803336C00025
:1023000089455137014514809F0708A904001B85A2
:10231000A7041C41858998471377F7FD9B25B70AC9
:102320008CC782809F0708A904001B85A704184159
:1023300085891C47BD9B9BA5B7080CC78280288058
:102340002A843B87050181C5BB8205022480208049
:1023500065BF8545553F854522852080E1B76D37AE
:102360008145DDBF38804C223284AA84E1354C306F
:102370002685F13D6C202685D93700402685EF0063
:10238000D0032A86A28526859535014534809F078E
:1023900008A904001B85A704184185893C4BF99BBB
:1023A000CD8F3CCB828068803684931925009F06B0
:1023B00028E01690AE84B38536019C413A8A1F0707
:1023C00008A90400330637011CC29C422A891CC399
:1023D0004C201F0704A904002A9723000700993DF9
:1023E0004C304A85AD356C204A85913F81454A8500
:1023F000793F00404A85EF00407C2A86A2854A85C5
:10240000F53329459700F26FE78080220546B285B3
:102410004A85B13B9F07F8A80400CE9784C3854541
:10242000BB010A0381454A8589350145648058818D
:10243000AA84BB7B25031F0908A904009319250062
:10244000B30739019C439C433EC64920BB92070712
:10245000954541209D289D28BB92070485459528D8
:10246000A520AD201F0404A904003B840701B9285E
:10247000BB82070CB120898B91CB8D452685912895
:10248000A920330794001C23F59B1CA38120BB8249
:1024900007023D20858B89CB8945252835203307C8
:1024A00094001C23F99B1CA31520BB9D0706B307B2
:1024B00039019C439D45DC5B292826855081828714
:1024C000B30794009C23828026858287B247BD8B08
:1024D00082809F07F8A80400CE979C430146828023
:1024E00054811F05B41E0020828019C59F071CA9B6
:1024F000040088C3014582801F050100008082809E
:102500009F071CA9040088438280B727002083A767
:1025100007F199C71F0720A904001CC30145828049
:102520001F050012008082809F0720A9040023A0BD
:1025300007008280B7B7040083A707921F075A5A83
:102540005A5A98C782809F0728A90400884382802E
:102550009F0724A9040088C38280F9B77DB738801B
:10256000B7B4040083A704921304107D985713672F
:10257000170098D703A704921C578583858B8DC3BA
:10258000404BEF0030019307803E2A86B335F402BA
:1025900081463305F40297E0F16FE78020FA34803A
:1025A0007D1419C405459700F26FE7806008D9B71C
:1025B0000145F5B7B7B7040083A70792D84713675B
:1025C0001700D8C782801880F537B7B7040003A773
:1025D00007921C4BF99B1CCB148048802A84EF0087
:1025E000607B09E41F05010000804480B30485027C
:1025F00033D98402EF00007AE316A9FE3BEAF4FF28
:102600009F0728A9040037B9040080C383270992D3
:102610001F045A5A5A5A80C37D378327099213F5EB
:1026200004F0984B1367470098CB984B1377F7FB50
:1026300098CB984B1367870398CBD8431377F70F42
:10264000598DC8C380C701454DB738802A84B7B4B7
:102650000400953F01EC0D201377F7F798CB993FD5
:1026600021281367170098CB3080E9B5BB1CF40113
:10267000212013670708DDB783A70492984B828057
:102680001F05CC1E002082801880EFF0AF9A1080CA
:102690006FE09FF81D81019D82801375F507828090
:1026A0009F0744DF16905B95A71882801F0554A9E9
:1026B00004001B05B5048280939625000146B6856B
:1026C0001F0554A9040017B3F16F670063B19F079A
:1026D00044DF16905B95A718084982808280488065
:1026E000B7040157C04055281F0958A904001344D6
:1026F000F4FF618D2320A900804045209F075CA93D
:102700000400618D88C3B7D6025783D7468203275A
:10271000090003D60682D98F1B26E66003D786827E
:10272000A19F83D5C682498F2392F6822390C682C9
:10273000219F2394E6821BA5A5602396A682448050
:102740009F0758A904009C433707015793C7F7FF19
:102750005CC39F075CA904009C431CC38280B7D75D
:10276000025723A20782239007822394078223968D
:102770000782828009C981C9930700021CC19F0793
:102780005CDF16909CC1828013B5F50782801880AB
:10279000EFF0EFCF10806FF0CFB0B727002003A588
:1027A00047E88280688085472A89AE89328A3397D4
:1027B000A7001F04001F00204120BB9D1502D98FD8
:1027C0001CA09D288DCB9F04011F00209C203B8ACC
:1027D00007011D47B520792CD14519C18545114503
:1027E000B9289545A128130580079700F26FE78067
:1027F00020E485479CA05286CE854A859710F26FCB
:10280000E780A01315289DE31F04011F00202D2041
:102810003B97070191451D20B12CC14519C1814548
:102820001145312823000400194719280145648007
:102830001347F7FFF98F69B71C2082800D456DAAF9
:10284000B70700522390E75482801713F26F670096
:10285000831E48803B7755099307D5FF819FBBF5C1
:10286000070637E716901307C7FD9B07F704984341
:10287000854702872E84AA8495E50544B317A400F2
:102880002D229F0660A904009822F98F9CA299C36B
:10289000014544800145212019451120D5BF2286DC
:1028A000A28509B73B9BF5011F0960A904000347F6
:1028B000090009EB2E8601458945E5372286194531
:1028C0008945C53705473315970003470900498FE8
:1028D0002300E90075BF370700523BF5051003548C
:1028E0000704A120C18DA19D2310B70455B793966D
:1028F0000501C1823BF40520B120D18FA19F231295
:10290000F70479B7035687048920D18FA19F231438
:10291000F704BDBF37070052BBF605108356070406
:10292000292093C5F5FFF58DC1B78547B395B7004D
:10293000828093960501C182BBF605202120B52037
:10294000F18F75BF03564704C1168547B397D7006B
:10295000828003568704D53F8928F18F4DBF2928EF
:10296000F137D58DA19D2314B7541DB731202528EB
:10297000F58F2314F75429BF370700528356875425
:10298000828029286537D58DA19D2318B74009B7C6
:1029900031201128F58F2318F740DDBD3787005708
:1029A000835607418280B397B70093C7F7FF8280B1
:1029B0001F0501000080F1BD18803B730503EF0087
:1029C000304C054514800145F5BF1880AA87BB78B7
:1029D00005033E879F0708E016909B87E7049C430A
:1029E0002E85829713451500019D3305A040148064
:1029F0001F0501000080E5BF4880AA842E8497F05F
:102A0000F16FE780A0042A893BF0140537E51690A2
:102A1000130545FF1B0595041C4122858287EF00A5
:102A2000D03E4A8597F0F16FE7800003014515A07D
:102A3000EF00F03EFDB7EF007043E5B7EF00703FE9
:102A4000CDB7EF00B040F1BF97F0F16FE780C00065
:102A50007D554480B7C7025783D707111F0761A967
:102A60000400A183858B81C72300070082808547EE
:102A70001CA382809F0761A904008823828028808C
:102A80002A84CD3F3B05050101453B7304032285A4
:102A9000EF00F044054524800145F5BF1880EFF0B4
:102AA0006FA610806FF02F9F1880EFF0EFCC108092
:102AB0006FF0CFBF6FF0EFC06FF08FC19F07041FA3
:102AC0000020884382801DC5370700528357C70402
:102AD000A19FF99BA19F2316F7043C4393E717009E
:102AE0003CC337170052832707D893E717002320EA
:102AF000F7D8828037170052832707D8F99B232005
:102B0000F7D8370700523C43F99B3CC38357C704AF
:102B100093E717002316F7048280370700528327B4
:102B2000071593E747002328F714828037170052D0
:102B3000BB140501835707FA93E707022310F7FA3E
:102B40008280835707FAA19F93F7F7FDA19FFDB7F6
:102B500018800145E93813057002108017F3F16FF2
:102B6000670043F018800545D930130590021080A6
:102B700017F3F16F670003EF188009454D3813050F
:102B8000A002108017F3F16F6700C3ED9F076AA9D9
:102B900004009C232E8689CB9F0769A90400AA857F
:102BA000882381466FE08FBA828028802A84153A74
:102BB000AA85228520806FF02FBF3B1205010945B1
:102BC00069B10545F5BF38800A051F041CE0169061
:102BD0009F0410E016902A94AA942C208830EFD0FD
:102BE000DFBD0C20882030806FD03FBD28809F073C
:102BF00034E016901B85A70600214C410147814611
:102C000001462285EF305FF39F07803B0400A297C7
:102C10008C232285EF305FF42285208017F3F16F3B
:102C2000670043E19F0734E016901B85A706082143
:102C300017F3F16F6700C3E038821F0469A904002D
:102C4000FD472306F1002AC8930700020820A307C6
:102C5000F1002307F10079478D47A306E100231A0D
:102C6000F10038089F076CA90400930400021008C3
:102C70006C0081463ECC230B010026CEEFE06F892D
:102C800008209F068C2B129026869D45EFE02FA0F2
:102C90001F076AA9040085471CA33482397122CC1E
:102CA00006CE26CA2ED232D436D63AD83EDA42DC06
:102CB00046DE2A8415CD97E0F16FE78020450DC9E7
:102CC0009F048CA9040054102286930500102685C9
:102CD00036C697C0F16FE78000C32A86634A0500B5
:102CE0009F0769A9040088238146A685EFE00FA607
:102CF000F2406244D2442161828017F3F16F670091
:102D0000E3D42E8517F3F16F670003D518802A8668
:102D10008DE9BB0605010DC111453B0D060214806E
:102D2000B28509280D45A945108025B69145192081
:102D30001145D5BF0945BDB41145A545F5B70D45AC
:102D4000EDBFBB07F50165DDBB15F5020D45A145DE
:102D5000E1BF1880353210806FF02FF982809F0715
:102D6000181F002088C382803707005783278716E3
:102D70001305C00393E727002324F7161703F26F08
:102D80006700038B3707005783278716F59B23249B
:102D9000F71682809F07141F0020884382802880B6
:102DA0003B7615052A8497F0F16FE78020CA1F074C
:102DB0008CAA04001C2399C797F0F16FE780C0C963
:102DC0000145248037D60257834706939376340013
:102DD00093F7E70F2308F6928347869393F7C70F7D
:102DE000D58F230CF6928347069393E717002308A9
:102DF000F69285471CA3C9B77D55E1B718809F0798
:102E00008CAA04009C237D5585C397F0F16FE78061
:102E1000E0C3B7D70257130750FC238AE79297F015
:102E2000F16FE78060C3014514803880AA842E8446
:102E3000EFD03F899F0790AA04009C4381C7A285D9
:102E400026858297F32520FC1F054CE01690B935A6
:102E500005C8404C61201F0560E016909120814418
:102E600001CC14402286A6851F0583E016908504B8
:102E7000353511043B9BF41E1F05B9E016900D205B
:102E80001F05DAE0169029288144376400525B144C
:102E9000940C3B9404551F054FE116903080FDBB08
:102EA000F5BBA6851F0512E11690CD3B144450409A
:102EB0000C401F0526E116908504CD33F9B7188024
:102EC000EFE04FC010801713F26F6700A3941F0547
:102ED000BE2E12901733F26F6700E3822886B70781
:102EE00000529C4B3B85075A0144B7A7040083A7B7
:102EF000078085076363F40024864C002285EF4039
:102F0000BFF31DE183578102858B99EF9256C64826
:102F10006648964726475000B6851F0588E11690FB
:102F200097F0F16FE78080AB0504C1B71880B70751
:102F300000520D472390E73EA1450928A5453920B9
:102F400091452920A9451945108021B2194511B292
:102F50004881B70700521D472390E754B7C702576F
:102F600005472390E74C2398074A6F04A01B63751D
:102F7000F700D1226373F70A2314010037D70257F1
:102F80001E2FB7C60257A18393F7F7032315F1004D
:102F900083D7C65C93E707022396F65CBD2A93E7C6
:102FA00087002396F65C3786005783578613A19FC8
:102FB00093F7F7FBA19F231CF612852293E7E70006
:102FC0002396F65C16239F0700080000D58FA19F6B
:102FD0001EA337D702570E2F835781009396070100
:102FE000C1829F07003F0000138616009BC7D710C1
:102FF0009F06FFC0FFFFF58D219ECD8F2314C100DA
:10300000A19F1EAF6F040012637CF7122D2263692B
:10301000F712B7C702572396075C97F0F16FE78066
:10302000E0A22A891F04D8E11690814410300C20B8
:1030300026858504819C9710F26FE7800090090433
:103040003B9BF4074A8597F0F16FE780E0A0F93DDC
:103050009945292AD145192AFD45092A8145392250
:1030600089452922C5451922C9450922CD45FD2892
:10307000DD45ED28E145DD28A145CD28B79702576C
:1030800083D6C78303D64783B7D702579A339D8227
:1030900093F6E603219F137717FC558F9AB3963763
:1030A0008965138705F079751B47C70E1306F50F61
:1030B000F18E558F219F9AB79385957037C7025728
:1030C0002310B7281305151E8D662312A728938693
:1030D00006202314D728F5769386C6A02316D72872
:1030E0009A23856693850670136737009AA39A33EF
:1030F00093860610219F137717FC219F9AB39A3766
:10310000718F4D8F9AB79A37718F558F9AB7B707CE
:1031100000520D472396E704448183D7C65CA19FE4
:10312000819B828013050004A5282AC6B2471F0789
:10313000FF5C2F000284B2471F07004B32008280E1
:1031400083578100BBE3A74037D70257162F03569A
:10315000A1009F07003F00009BC7C7101F06FFC0CC
:10316000FFFFF18ED58FA19F1EAF65B511456FF0A2
:103170004FEE2881F9452A8405461305F100A3077F
:103180000100EFE00F9DAA8501C91F05E6E1169039
:1031900097F0F16FE78080848347F1001CA02481C1
:1031A00038802A84752AD92A2A869F041C1F002069
:1031B00009CD3725BCBEB335A40281463305A40230
:1031C00097D0F16FE780803788C08840348037D748
:1031D00002571E23A16637B60400A19FF19BA19F51
:1031E0001EA35E23B7B50400D58F5EA31E37A19F33
:1031F00093F707F05D8D0AB737B70400834707BC24
:1032000095E3B796025783D7C683A183FD8B23220C
:10321000F6C083D746838583FD8B23A0F5C0854701
:103220002300F7BCB7D702579A33832646C0219FA5
:10323000860693F6E603137717FC558F9AB303A619
:1032400005C096371F07001F00001B47C7101F0649
:10325000FFE0FFFFF18E558F219F9AB79A23856675
:1032600093850670136737009AA39A3393860610E6
:10327000219F137717FC219F9AB39A37718F4D8F37
:103280009AB79A37718F558F9AB782803881AA84FE
:10329000130500082317010097E0F16FE7806070C5
:1032A0002A8401E91F0504E2169097E0F16FE78098
:1032B000E07293050008A2861306E1003945EF404D
:1032C000E06CAA8509C91F051AE2169097E0F16F14
:1032D000E780C07039285C20BB9507014C301F0582
:1032E0003DE216908CA097E0F16FE780206F1120EF
:1032F0003481228517E3F16F6700C36D18811305D0
:10330000F100A307010059378347F10081E7130556
:10331000F10085350345F1005D3D14812880378437
:103320000057835784488583858B95EB83570448E2
:10333000A19FF99BA19F392897F0F16FE780402F5B
:103340008357044893E717003120208017F3F16F6B
:103350006700032E2310F448130540068280248062
:10336000B78700572392A7488280B787005703D5B5
:10337000C74883D707491B25F52082801880793FED
:10338000B787005783D78748858BFDDB1080F1BF57
:10339000288097E0F16FE780606B2A84B747005779
:1033A000892863500702994501459700F26FE7802D
:1033B000802FB747005705672390E7221D28E34A6F
:1033C00007FEFD7737470057FD172310F7220357F5
:1033D0008722FD77FD17F98FEDF71305F00297E0CF
:1033E000F16FE78020682285208017E3F16F670086
:1033F000A36683D78722139737018280288097E0BE
:10340000F16FE780A0642A84B7C702578920A18B97
:1034100099CB994501459700F26FE780C028214775
:103420001D20A18BEDFF5D473928DD8BEDFF1305D6
:10343000600597E0F16FE780E0622285208017E366
:10344000F16F67006361B7C702572392E71E83D706
:10345000071E8280888037C402573747005783276A
:10346000445003270732BA97F9E397E0F16FE780FA
:10347000E05DAA8A97F0F16FE78080152A8A2E8B8B
:10348000B747005703D4073283D4473203D9873470
:1034900083D90735219C4209C209A19C135909010E
:1034A00093D9090111E489E46314090063840906CE
:1034B00097F0F16FE780C01113078A3EB3374701D9
:1034C000DA9763E6B700639BF5026379A702CE87BC
:1034D0004A87A68622869F054406028E1F057E0126
:1034E000430097E0F16FE780E0B093050009130512
:1034F000300297E0F16FE78060B459B7B7470057E3
:103500001307F03F2394E7320D472396E734239ABD
:10351000E734BDB739205685808017E3F16F670027
:10352000A3531305E00417E3F16F6700A353D53FDE
:1035300085472314F404130700402318E4222310C2
:10354000F4202316F426294597F0F16FE780400E0A
:10355000B7D702571307F00F2392E79823900798E5
:10356000848028800147814601469F059033129050
:103570001305F00279201F04803B04008345F40208
:103580001305F00249201305F00297E0F16FE78080
:10359000604A9F05FC331290130560058520834522
:1035A00064051305600585201305600597E0F16F3C
:1035B000E7804048B74700571307F0072392E736E4
:1035C00037C702578357C7509F05543412901305CD
:1035D000E004A19FF19B93E727002316F750231CDB
:1035E000074029288345E4041305E004292813052E
:1035F000E004208017E3F16F6700C3430147814671
:1036000001466F306FD36F302FD537C702578327EE
:1036100007087D89819BC98F2320F708828037C7DF
:103620000257832787083D89C19BC98F2324F70848
:10363000828037C702578327870812051375F50F55
:1036400093F7F7F05D8D2324A7088280B7C6025751
:1036500003A706089F07001F00001BC5A71081577E
:103660009B47F7F0C98F23A0F608828037C702571F
:10367000832707223D89C19BC98F2320F72282809F
:10368000288037C40257BB130502A120A19FF99BD4
:10369000A19F25A03D2893E717003D28BB180501F1
:1036A0000D2893E707010D281305800797F0F16FA8
:1036B000E78000F8392893E707103928248011287B
:1036C000A19FBD9BA19F09282920A19F93F7F7EFF8
:1036D000C1B78357842082802314F42082802880FD
:1036E00037C40257BB130502A120A19FF99BA19FDC
:1036F00025A03D2893E717003D28BB1805010D289C
:1037000093E707010D281305800797F0F16FE78015
:1037100020F2392893E70710392824801128A19F27
:10372000BD9BA19F09282920A19F93F7F7EFC1B75F
:103730008357442082802312F420828018805945C8
:103740009700F26FE780A04939E5EFF0AFB037C7D7
:10375000025783570723A19F93F7F78FA19F231841
:10376000F722EFF02FB11DE1D145EFF0EFA8814531
:103770000545EFF08FA51305800797F0F16FE780FF
:1037800020EB95450D4510806FF00FA7854511453D
:10379000EFF08FA6CDB7148038889730F26FE780AE
:1037A00060E4EFF06FDC85452E859700F26FE780CF
:1037B000804413050002EFF08FDA13050002EFD00A
:1037C000FFA10545EFD09FA70545EFF04FDD1F0492
:1037D00054D5169013060007A285592A9D4508085E
:1037E000EFD00F929730F26FE78060BB9730F26FA7
:1037F000E780A0BB09459730F26FE780C0B501456F
:103800009730F26FE78020B801459730F26FE7807C
:1038100000B6EFC01FC0EFC07FBC631A05141F05C0
:10382000303B1290EF40DFA21F057E3A1290EF402E
:103830007FB097F0F16FE780E0CF31469305040742
:10384000052A080897E0F16FE780403797F0F16F9D
:10385000E78020F1EFD01FAF5534CD35EFF04FEFBB
:10386000EF30E018EFC03FF5EFC0FFF4EFC01FEE00
:103870006C00280002C60144EFE0DFEFA247636E50
:10388000F40EEF40A00CEF50C0671F0500C201000E
:10389000EFF08FBAB70508001F0562E2169097E0B7
:1038A000F16FE780A0139F057CE216901F0588E268
:1038B000169097E0F16FE780601237E41690292A9E
:1038C0001F05D0E21690192A1F050AE31690392227
:1038D00021226D227931EF008077EF00F04AEF303E
:1038E000B04FEF308041EF30E041EF307058EF30B3
:1038F000305D01261F05287012902D2C9F075A411C
:1039000004003EC808089F074A4104003ECA02CC92
:10391000EF500077EF50205FEF3020188967B50730
:103920006302F50CEFC07FDAEFC0FFB83717005223
:10393000835607F9F577FD17F58F2318F7F88357A6
:1039400007F9A19F93F7F7CF93E707102318F7F82C
:10395000835607F98D67D58F2318F7F8D128554579
:10396000EFC05FE419C1EF007007EFC0FFA201A034
:10397000080817D3F16F6700E36993142400A920A6
:103980008C233B831548BB9B054781451D288145FA
:103990002285EFC01FDD0D28AC23BB8205032285E5
:1039A000EFC01FEC1520BC338545BB990702050409
:1039B000019CE9B5392009288C332285EFC09FE5A9
:1039C000D9BF22856FC07FDFB247A697828081452D
:1039D0002285EFC0BFEDE1BF1305642917E3F16F46
:1039E0006700C3FFB74700521307F01F23A6E71075
:1039F00025BF1880EFE02FC9EF308016EF30601E32
:103A0000EF300075EF00102D1F05204E000097E0ED
:103A1000F16FE780E00D9F05C40001A71F057E013F
:103A2000430097D0F16FE780E05AEFD0BF89E9BF3C
:103A3000388097E0F16FE780200B1F04201F0020E3
:103A40008144144410404C404848EF306F9608C8F9
:103A500019E5A685654597D0F16FE780205E4C4457
:103A600008488504610497E0F16FE780C0063B9544
:103A7000F404308017E3F16F6700430782804880C9
:103A80005DC52A84EFC0FFC344401F05BEE3169006
:103A9000A685EFF0AFA09F070C0000806396F408A6
:103AA0001F05D1E31690EFF06F9F9700F26FE7804C
:103AB0004019AA851F05DFE31690EFF02F9E9700AF
:103AC000F26FE78060177915219D0969BB74051FA6
:103AD0009F0780E316901B85A702035905004A85BE
:103AE000EF00B027EFD04FFA5C4C2285C1075CCCC9
:103AF000EF300002EF20B07C4A85EF201079A285DC
:103B00002685EF40EFF6A2852685EFF00FB29F07DE
:103B1000A4AA04009C4381C7A28526858297CA85F2
:103B2000094540806F003024096911094DBF448068
:103B30002E85B1B709C59F07A4AA040088C3828057
:103B40005880AE89B28436841B09E6046314990058
:103B50000145548097E0F16FE78080ED19E1BB9457
:103B600009030E208840EF30903491040904F9BF16
:103B70000E208840EF303039CDBF18808545014593
:103B8000EF00305419C17D5514808545EF00705108
:103B90007DF99F05403B1290EF00B04F3335A000F8
:103BA0003305A040D5B718832AC6B28681E93245CD
:103BB000130600020C083128014514832E860808DC
:103BC0009305000297A0F16FE780A0E86DD17D55C5
:103BD000EDB718803B05050109C5BB040503014588
:103BE0001480EF00903BE5BFC120D5BFEF105062BD
:103BF000FDB71881EF10803DEF20A07B91451F0598
:103C000000E41690EF10203F0DE1EF10C013FD2CE3
:103C1000AD3701ED9F074C53129068003EC6EF0090
:103C20009018EF10B01DEF00D017148118801145C7
:103C3000EF10100BA9205166B70504001F0520E402
:103C4000169081202D284166B70500201F0525E428
:103C5000169005282D201306C03FB76500521F059A
:103C60002AE41690392821281166B70541591F0505
:103C700030E416903920114510806F1050086FF015
:103C8000EF976F10B00938809F04ACAA04008840F9
:103C900001449F07B4AA040080A311C597E0F16F07
:103CA000E78040D380C0348058819F04B4AA0400C8
:103CB0009C202E84B5EFDC413BE517089C419823FE
:103CC0003B13177E98333B151702B1289306904B90
:103CD00063EEE602C823DC331F09A8AA04001B25F3
:103CE000F5102320A90097E0F16FE78080CB1F0734
:103CF000ACAA040008C319C983250900B5205C409B
:103D00001F07B0AA04001CC385479CA0084097E089
:103D1000F16FE78020CC01455481BB1CF72921209D
:103D20009306D04B75B7D423D8331BA7E6108280F7
:103D30001F09B0AA04009F09A8AA040003270900CC
:103D400083A50900998DBB9B070199C59F07ACAA64
:103D5000040088433A950928032709005C40BA9774
:103D60002320F900894755B75440104017A3F16F3D
:103D7000670023CE9F04ACAA040091C5884054403C
:103D800010403A95E5379C409833BB1C07029827B2
:103D90008C3703A60900F4339B25B710F823B1072D
:103DA0004D163EC4B70702002316C1001B27D710CB
:103DB00030009546DD8D4545EF10405AE935B9B7DD
:103DC00088813389D50063060904B689B28AAE8436
:103DD0002A8AEF00506D15CD4A8597E0F16FE78094
:103DE00040BC2A841DC59DC4A6865286A68597A080
:103DF000F16FE78000C60DE9639E09003B7E09086C
:103E000021468146B305C100054522C44AC6613B2F
:103E100001ED8481CE865686CE853305940097A029
:103E2000F16FE78000C379D9228597E0F16FE780D1
:103E300060BAC5B71C20BB92F77E58205C309B2728
:103E4000F710E31FF9FAB307240183C7F7FFBB9C00
:103E5000E77E1C303B9A1701242418343C348D88AB
:103E60009B84E40438241424282009831B87E7104A
:103E70009F07000203053EC4100899472306F1007E
:103E80009B06D64C83CA86FF135A4500B7070080AD
:103E90009B874737D6979B8797229B84E706130B10
:103EA000C4004D1989284E87D6863000A6855285D4
:103EB0005AC423162101EF10604ABDB73B98071F73
:103EC0001E24B7041F0083596400DD8C130BC4004B
:103ED0000359A4000D28954A414AF1B73B9B0710AE
:103EE0003C20B7041000130B8400DD8C5D192120E9
:103EF000954A054A4DBF7C208349740042091359F5
:103F000009019BA9371141B3FD3F39BF28819F07A4
:103F1000020305063EC29F070104060B3EC48567E7
:103F2000A90785452316F1002E85C5472307F10013
:103F30000144EF0070511C08A29703C587FF854517
:103F40000504EF0070593B1CF40701441C08A297BC
:103F500003C547FF85450504EF0090553B1CF4045D
:103F60002481288109ED2E84130560024C00EF5056
:103F7000C000FD5719E1A247A2973E852481BB13DB
:103F8000050137957700B387A500C5BFFD573B1BDB
:103F9000F5023705F06FC5BF5880B289B684D137B6
:103FA0002A843B0B05FF97E0F16FE78020AA2A895E
:103FB0002686CE85228597E0F16FE78080CB11C100
:103FC00081444A8597E0F16FE78000A92684228525
:103FD00054805880B289B68469372A843B0B05FF28
:103FE00097E0F16FE78080A62A892686CE85228514
:103FF00097E0F16FE78000D311C181444A8597E0D3
:10400000F16FE78060A5268422855480488032893C
:10401000893FAA843B0405FF2A84B3872401636493
:10402000F400014544808565228597E0F16FE780C3
:10403000E0DC6DF985673E94CDB79F07B6AA040012
:104040008A2382809F07B8AA04008A23828018836B
:10405000130600039F05D0D516900A8597D0F16FFF
:10406000E78040FB0A8597F0F16FE780007797F0D3
:10407000F16FE780C06897F0F16FE780E0AD9F06D1
:10408000B8E4169001469E2237C702573E979F0715
:1040900018E51690C1203B1CF6309F0638E41690B8
:1040A00001469E2237C702573E979F078CE4169021
:1040B00055203B1CF6109F0658E4169001469E22A0
:1040C000374700573E979F079CE4169061203B1CA2
:1040D000F61997F0F16FE780208797F0F16FE7808E
:1040E00020CC37C7025723160708B7070052239280
:1040F000073EB7070057239007062392070693064B
:1041000020182394D70A231C07102318071013071D
:104110003011239CE70E9F05C01F00201D458920FC
:104120009F05B01F0020194525289F05A01F0020CE
:1041300015453D209F05901F0020114515209F0526
:10414000801F00200D452928094597F0F16FE78071
:10415000A05C1483B2979C23050689061EA3828067
:104160006F20FFB728800DC185C1130620034926A3
:104170002A8409C9AA851F0548E5169097E0F16FC2
:10418000E780C085228524801F0401000080DDBFF8
:104190005880EFD0AF9A97E0F16FE780208BAA8923
:1041A0002686CA85228597E0F16FE78080AC2A8455
:1041B0004E8597E0F16FE780208A22855480288120
:1041C0002A844C0013056002EF40305B19E532474A
:1041D000A247BA977D77BA971CC02481188013052F
:1041E000401F97E0F16FE780A0401F0540200000CE
:1041F000AD2610806FD0BFC737051090828037057D
:104200001000828071B7D8812A8CAE8C328D81EA01
:1042100066852D282A8461E1FD542685D481B30B5F
:10422000B50093974B01DE8491C7FD74B3F49B00F6
:104230008567BE941928AA8A65D101282A8B09E9C5
:104240001120D9BF56856F40705C05656F40905A4C
:104250007D7A337A4C0133094C414D28AA8D631184
:104260000904B3897441639A0904B38444417928E9
:104270002AC6A685528597E0F16FE78020B82A8488
:104280003245592805E463110904638109024E8609
:10429000DA855E85112035A817E3F16F670083A8E2
:1042A0005686CA855285BD202A8445DD6E85AD209F
:1042B000513F5A85493F29DC85B75A86CE855E85B0
:1042C00091282A8465F555B74A86D6855285E937FF
:1042D0004DDD2A84E1BF1D28AA846686EA856285B1
:1042E000653F09E52286E68562852D2026852D20FD
:1042F0006686EA85228597D0F16FE78020D1333535
:10430000A000B304A04022853D3F01BF17D3F16F49
:104310006700C373B5BDD9BF17D3F16F6700C3730F
:104320003705109082809F0728AC04001CC101450E
:1043300082808880937735002A892E8A328BB5CF88
:1043400013F4F70FB309B4001379C5FF13F739005D
:1043500009C79147998F819FBE9981454E8597D016
:10436000F16FE78020CDAA8421CD97D0F16FE7804F
:10437000E06D4E86A685AA8A4A8597E0F16FE780B0
:10438000408F2A89568597D0F16FE780E06C33869D
:104390008400D286D2855A859790F16FE780606B52
:1043A0007D5409E53334200133048040268597D0BD
:1043B000F16FE780A0C722858480AE89014479B778
:1043C0001F0405000080C5BF9880937735002A89B7
:1043D0002E8BB28BC1CB13F4F70FB309B400137952
:1043E000C5FF13F7390009C79147998F819FBE997F
:1043F00081454E8597D0F16FE780C0C3AA843DC93F
:1044000097D0F16FE78080642A8A4E86A6854A8518
:1044100097E0F16FE780E085FD5A0DEDB9205E86EB
:10442000CE85DA86338584009790F16FE7806062ED
:104430002A8497D0F16FE78060612A8A4E86A6852C
:104440004A8597E0F16FE780E08D09E5B33A800097
:10445000B30A50411928268597D0F16FE78000BD37
:1044600056859480AE890144ADBF528517D3F16F54
:104470006700835E9F0A05000080DDB738802A84CC
:1044800097D0F16FE780805CAA848565228597E0EC
:10449000F16FE780A0962A84268597D0F16FE78098
:1044A000A05B333580003305A04034802E9685E133
:1044B0008280850583C7F5FF1BB7A7509F0764E57A
:1044C00016909B87E7029E231BB5A710219DE392C0
:1044D000C5FE828028801F0448D516909F0750D5BE
:1044E00016906363F40024801C4011048297FDB78A
:1044F000688021C5B9C1AA841F0A28AC04003145CF
:10450000B2892E8903240A00892005CD04C1232203
:1045100025012324050011EC2320AA001F072CAC41
:1045200004001C43014563F43701232037016480F4
:104530003E841C44F5FF08C4D5B71F050100008068
:10454000FDB71F0505000080DDB79F0730AC0400F4
:104550009C4391C38287014582801880EF20E052FE
:1045600010806F20E04D28802E862E84AA851F059E
:1045700064E71690EFE08FF20145EF20C0522285EC
:10458000E93F20806FD0BF8E1880EF20805201C598
:104590003920EF20804F054510806F20C0506FD02C
:1045A0005F90014582801C411F0748AC04001CC37A
:1045B00082803880D146AE840146B6852A849790A1
:1045C000F16FE780E0C13C2893F53400F19BCD8F7B
:1045D0003CA834809B07B50490C39B05B502D6A5C3
:1045E0009377170089C73C2993E787003CA9098B7B
:1045F00009C73C2993E747003CA98280288050C521
:104600000CC1232205002A8401EB1F074CAC0400D7
:104610001443938716001CC314C497E0F16FE7801E
:1046200020FB1306803E814697C0F16FE78000F1C2
:104630009F07B88282653E9508C824809307F0FAE8
:104640001CA193D78500A30005003CB12CA182805A
:104650003E291307C50001468D8B01456343F600D3
:1046600082801623050609073695CDBF3C290146F1
:10467000ED9B3CA93E298D8B6346F6003C29F19BBE
:104680003CA98280F955B305B6021B07C5048146D3
:1046900014C305062E9756A7C5B778803C292A84EF
:1046A000A18BB1CF7537AA8A97D0F16FE780602FC1
:1046B000AA892DC99304C400014A01491C4813D793
:1046C00007010D8B636FEA0213D947018545D58336
:1046D000228593F43700F13D93960A010947C18280
:1046E0004E8681452285FD353C2813791900BD9BF6
:1046F0009BA7270993F7F7F99BA7970A3CA80145C1
:1047000074809B07440596209043B3852A413385E6
:1047100029019790F16FE780C0339E20050A890434
:104720003E9969BF1F0505000080D9BF3C29918BC8
:1047300099CB28802A84084197D0F16FE78080299F
:104740002285208025B7828038819F0450AC0400E8
:104750009C202A84638AA7020DC9B72703003EC4A0
:104760009F07000801013EC68A859F07701A1790AF
:1047700001453EC23EC0EF10B04511C59F0718323B
:1047800000806313F50080A03481EF10F05CE5BF7A
:104790009F0750AC040088238280188001E56121C6
:1047A000014514801F0502000080E5BF78802A843F
:1047B0008831012261C579C03C2813F737005DCFED
:1047C0000328050293F50701B335B000890593F777
:1047D0000706630B080089EB3A289306C40022867B
:1047E0000D8B014570800288BB8207207D54228595
:1047F00074803E288D8BBBEF17029D28AA8A97D024
:10480000F16FE780E01AAA8405CD1309C400014ABC
:1048100081493E288D8B6375FA0263E33A03835620
:104820000900A1C69B0744059043B3853A413385EF
:1048300034019790F16FE780C0210DC5392881447C
:104840000528AA8626865DD2D5D281450145EF107E
:1048500090282A84C9DC112059BF268517D3F16F0F
:104860006700431783570900BE99050A090955B720
:104870002285F9BB104056248144F1B71F04010082
:104880000080B5B709E51F0554AC040082800145DE
:10489000828011E59F0754AC04008CD382807D5543
:1048A000828011E59F0754AC04008CBF82807D5547
:1048B00082803B020501014582801F0554AC040043
:1048C0008280288019C17D5524801F0454AC0400C7
:1048D0001C40858BEDFB858991E9930700403EAC38
:1048E0009F07000800005CCC0145F9BF130500409C
:1048F00008C81CAC97D0F16FE780A00A08C471FD0E
:10490000D9B71C211397870193D677006187138548
:1049100046006359070099C598210D8B3B12070388
:104920001385560013F7C70085833337E000858B66
:10493000BA973E95828068811C2218429306F0FA4D
:10494000819F18B11397870114A16187AA893284C6
:104950006341070813092500F115A19D13D78500B0
:10496000A300E9002300B90013F72700814409C719
:10497000382085442301E900B18B99C33C309D2048
:104980005C2091C38520130A290016245044AD20D1
:104990001E24BE941C20A19C13F7170005C793F793
:1049A0000702A1CB1040CE851D82058A11062696EE
:1049B0000145ED3C2317A10089461306E1002D288F
:1049C0008904A19C1C20C18B81C7CA94E957BCA053
:1049D0006481044213093500ED15A1808D8824A15E
:1049E000ADBF79BF3307990085043CA3A19C8280A9
:1049F00059BF2686D2856DBFB68533059A001793B9
:104A0000F16F67000305A8839C212A8A2E84B9E3ED
:104A10006931AA8405ED5146D285680897C0F16FC7
:104A2000E780405F8547230CF1003C2061468146CA
:104A3000230DF1001C30B305C1000145A30CF100AA
:104A4000EFF06F96AA8419E152850D315285F9393C
:104A50002685A4839C3181C7913BAA84C5BF63038B
:104A6000051203290500630F09105A25630C07106E
:104A7000834709009306F00AFD54E399D7FC834667
:104A800019009309290013D67600B29983C519003D
:104A900083C7090011069BA7B710330CF600E36724
:104AA00087FB13F7060111C73E8791C30547998F0E
:104AB000A19F13F7160061C7BE84BBE107038944B9
:104AC000858F9394070193F60602C180CDC6269682
:104AD000CA850145E13AB387990003DB27008307C4
:104AE0001900AA8B63DB070603472900937437007C
:104AF000BB9A140102C48347810002C602C893E72F
:104B000017F82304F1008347910002CA93E73700A6
:104B1000A304F100B307AB40B337F00021452306EF
:104B2000F10097D0F16FE780C0E7AA8A1DC5300079
:104B3000A1451135A6852808AD3C2687A146568695
:104B400081452808413C3C20A28528081CB0B93981
:104B5000568597D0F16FE780E0E763197B031C303F
:104B600093150C01C181A380F9003C204A85238064
:104B7000F900E522DDB526869385290099BFFD540D
:104B8000F9FFE9B59F0401000080C9B59F04993180
:104B900000806DBD48822A843DCD042193F7C40076
:104BA000BDEF93051500B13B1624AA9613F514002A
:104BB000918085889B84A402B694A19C268597D079
:104BC000F16FE78000DE2A8939C12286A685A533E8
:104BD00085456800F93A0547A6864A8681456800FA
:104BE000D53A85472304F1003C202C00680013D7F8
:104BF0004700BD8BA304E1002305F10029352A8479
:104C00004A8597D0F16FE780E0DC228544821F045B
:104C100005000080DDBF1F0401000080FDB71F04F8
:104C20008D310080DDB718819C212E85110523066A
:104C3000F100BC212307F1009C316C00A306F100B8
:104C4000D9331481828082804880AA841F047CAC7E
:104C5000040029C185471CA02CA097E0F16FE780D4
:104C600020971306803E814697C0F16FE780008D44
:104C70009F07B88282653E9548C01F0498AC040027
:104C800001491C4099C326858297050911043B1DE3
:104C9000F9034480F1460146B68522859780F16F7D
:104CA000E7800054D9BF9F077CAC04008823828032
:104CB000BB79050885469F077CAC04003395A600A8
:104CC0009833019D89C5498F98B38833A5BF134593
:104CD000F5FF698FD5BF82809F067CAC04007D58AC
:104CE0000146B6879A266314A70089CD828001E722
:104CF000BB1108FF328805068906BB1AF60ABB13EA
:104D000008FF82809B87C7028EA78280FDD99B8780
:104D100007038AA782803B7A05081F077CAC040042
:104D20001C33B3D7A740858B014589CF8146B30794
:104D3000D7009E276387B70089063B9DF61401457F
:104D4000828005458280F1460146B6851F057CAC10
:104D500004001783F16F6700A3487880630E051283
:104D6000638C05121C3193DA174013D7274093FA4E
:104D70001A000D8B9B8AFA4E11C3850A1396870180
:104D800061866359060034218D8ABB920603850A29
:104D900093FAFA0F93F61700C5E6F115A19D6DEB96
:104DA000130A350063440600130A250003470A006E
:104DB0003B1A37011F09E0AC040003470900AA8928
:104DC0003B1127018355490083248900834719003B
:104DD000E115034729001394050141809CA098B078
:104DE00003470A00B8A003471A00E2A0B8B0014781
:104DF000D8A0D8B0138727FF019FBB6B27711397EB
:104E0000870161876342070ABB91077FB9471F0784
:104E1000A4AC04009B07F7049C43D9C7268582975E
:104E20002A8483278900639E9704B128B1460146EE
:104E3000B6854A859780F16FE780803A2285748035
:104E4000E915A9BF9187858B9D8DB3855541139435
:104E5000050141801305840097D0F16FE78060B4AD
:104E6000AA841DCD910AD699A2864E86A2852105D7
:104E70009790F16FE780E0BD83C7090003C7190071
:104E8000B1BF112065BF268517D3F16F670083B4CA
:104E90001F048D3100805DB71F040100008079BFC1
:104EA0001F040500008059BF1F049231008095BF88
:104EB000930725FF819F3BE9077193178501E187E0
:104EC00063CD0700BB11057F39459F07A4AC0400E3
:104ED0001B85A7040CC1014582801F0501000080CD
:104EE000828038812A8409E51F0501000080348111
:104EF0003E2102C002C2B334F0003C3102C402C6FB
:104F0000014581CB1385F7FF3335A0003305A04061
:104F1000019D8D3A71D95C2013F71700834701007A
:104F200093F7C70FD98F9BA797025830CD9B2300CB
:104F3000F10001CF93E707F82300F1008347110048
:104F4000F19B93E71700A300F10038203C30A30148
:104F50000100834601009B27F7082301F100024767
:104F6000930784002E2D3EC67E201356770013949F
:104F70008601058A230201002313B1002314F100E6
:104F800061841305460063590400034411000D8831
:104F90003B1204031305560013F6C6003336C00057
:104FA000B2941183AA94858A058BA6971B07D70212
:104FB000BA97A19F63F9F50083470100CD9B93E762
:104FC00047002300F1000A85F13615B79F07A4AC0E
:104FD00004001F07DC4F1290D8CB828018813C213F
:104FE0006C00A306010023070100A30701002306AC
:104FF000F100B92014813880AE842A8497D0F16FF3
:10500000E780C0A41F06ECAC0400B286814532875D
:105010001C4291EF9B06B7049B07B70280C286AB88
:10502000014497D0F16FE78020A3228534809E2A27
:10503000F5D38505110689063B96F5047D54D5B751
:10504000588172211C259309A5000835791613147F
:1050500006011F06ECAC04001B29F5104180014538
:105060003288B307A800962B814439A81C429B873D
:1050700097069A236369E900BA2363662701C4434C
:1050800091EC7D5505A8850493970401C183E3EF56
:10509000D7FC090511063B13F508E5B71146680072
:1050A00097C0F16FE78000F774002286CE854A85AD
:1050B00082940145548178828547A300F100894795
:1050C000230001002301F100AA8A3689032A060081
:1050D00040428349860081C59C21A300F100E1364E
:1050E000FD5721CDBBF5190393851900819D6800FB
:1050F000EFF02FCC630809008347E10193E7070134
:10510000230FF100994650008145812801498144CF
:10511000631739039385240093D78A00A19D480023
:105120002304F100A3045101EFF04FD185478A8594
:1051300068002300F100C13881473E85748205096B
:105140001379F90F162003260A00CA8539200E208C
:10515000110A0904AE94A19C65BF054768006FF071
:105160006FC738802A84AE843D3E09C5A285268556
:10517000308055B6EFF0CFE175F934806882AA89A6
:105180002E84328A3689BA84393E35C58547A300D4
:10519000F1008947230001002301F10001C41C2014
:1051A000A300F10089456800EFF0AFC005479946BC
:1051B000500081451D280547CA865286BA8535208C
:1051C0009305290093D78900A19D48002304F1008D
:1051D000A3043101EFF08FC681CC85472300F10095
:1051E0008A8568000D300145648268006FF08FBECB
:1051F00023000100F5B77D55C5BF48828547A30050
:10520000F1008947230001002301F100AA843289BB
:10521000368481C59C21A300F10089456800EFF028
:105220004FB905479946500081451D280547A2867C
:105230004A86BA8535209305240093D78400480018
:10524000A19D2304F100A3049100EFF02FBF854737
:105250008A8568002300F100EFF0EFFA01454482EF
:1052600068006FF02FB7188132C236C450008546EF
:105270002306E10089351481788444238547AE8A6A
:10528000A306F100A6858947AA89328A36893A841D
:10529000230601002307F100E93519E17D557484E7
:1052A0009F0704AD04009C43B5EB85450808EFF06B
:1052B0004FB0EFF0EFCD2DE9E9465010054781459D
:1052C0004120630109028357210203472102CA8654
:1052D0008507719B8D8BD98F2301F102054752867B
:1052E000BA85B92858301440930750E05686CE85C9
:1052F0001305A1022314F102EFF04FB093056901E9
:10530000A19D4810EFF08FB37C2095CF85472306F1
:10531000F1006C000808EFF00FEF51B7A68513F508
:10532000F90F829759F19DBF83472102D146130699
:10533000A10293F7F7F993E707022301F102BDBF3A
:1053400008086FF02FA923060100E1B7188102C6F3
:105350002306E100380002C4053714811881B287A2
:10536000DE231042231701002306D10085462307C0
:10537000D1003AC4A306D1003800BE86F53D1481A1
:10538000488393070050AA843684630AF500930784
:1053900010506303F5041F05020000802DA81309B7
:1053A00000034A8681450A8597C0F16FE78080C770
:1053B000930710F00C203EC2FD572314F100054561
:1053C00085472306F1002307F100BD38CA860A8607
:1053D000A28526851D3544838C220145B53065BFE5
:1053E0005880930700562E84636AF5009307305661
:1053F00063FAA700930740566303F5021F050200F6
:10540000008039A093542600014963649900014546
:1054100054802D280A20050911047D38FDB79354C6
:1054200026000149814963E599004A852938C5B7B5
:1054300031280820B5383C30BB9307011E20637427
:10544000F90013F9F70F11048509F1BF2C30B335BA
:10545000B0008280488080412A89B6843B1604FFD0
:10546000EFF00FB32A8405473DC4C5461F06C6E7C3
:10547000169005A03B79040205882285EFF0CFAC99
:10548000EFF00FB1E30185FE0547BD461F0682E739
:105490001690A6854A852DA8BB1504020145EF107C
:1054A00000150547C9461F0691E71690DDB7BB15E5
:1054B00004030145EF10E0160547C5461F06A3E7A4
:1054C0001690C1BF0547C9461F06B4E71690A685CA
:1054D000753101454480C9461F06D7E7169055BF70
:1054E00018813C002AC43EC605479147540070000D
:1054F0008145130580512312F100B53314811881C1
:105500003C002AC43EC605479147540070008145BF
:10551000130590512312F100B933148168861309E1
:105520000005AA842E8A328481454A86080897C0DD
:10553000F16FE78020AF268597C0F16FE78000BD4F
:10554000AA8626869305000408089790F16FE780E5
:10555000601305E51C0823122101D289A2C83EC4AC
:10556000014909EC1C083EC493078004D2CA2312E7
:10557000F10005471305405135206486EFD01F88A0
:105580008567A28463F38700BE844EC6231391000F
:10559000CACAA6CC0947130530512920A699058C03
:1055A0002699C1B754003000814575B918813C2156
:1055B000AA85722108351F07ECE716902306F10033
:1055C000A306010023070100A30701000148BA87D1
:1055D0001423639DA6009B870707DC4379160547C4
:1055E0007400219EA90582970145148105082107B1
:1055F0003B18F8061F0502000080C5BF1880BD21BA
:1056000019E59F05AC5512901945108055B01480CE
:105610001C31139787016187634607008907819FC3
:105620003E9582808947EDBF28812E8536843AC613
:10563000C5376E21BBF905088547B397B70093F5C9
:105640003705324699E593F7C70A81CBA2852081B9
:105650002DADA28520816F00F01E7D55248128810B
:105660002E8536843AC66D376E21BBF9050885470D
:10567000B397B70093F53705324699E593F7C70A14
:1056800081CBA285208149A5A28520816F00F022CF
:105690007D55248138802E853684BA84953F2686B0
:1056A000A28530806F00300438802E853684BA841D
:1056B00085372686A285308001A338802E853684E2
:1056C000BA84B9372686A285E9240145348038801A
:1056D0002E853684BA842D3F2686A285F52E014577
:1056E000348078809319060193D909012A8913859A
:1056F000A900219DAE8A328AB68497C0F16FE780F7
:10570000402A2A8431C5994709471CA1A3002501D5
:1057100038A19820D2861CA538B1054758A1138717
:1057200029007AA1A3020500A30425015686D2858B
:1057300029059780F16FE780C0312285EFF06FFA7D
:10574000AA84228597C0F16FE780C02826857480DF
:105750009F0405000080DDBF1880AA8581461146A0
:105760000D45EFE04FC41F0508AD04005C2199C74B
:105770005105108017C3F16F6700233814801F078D
:1057800008AD04001C575453858B89CB8147639522
:10579000A60099C2930747023E8582808147EDBFEC
:1057A00048801F0408AD04001C54858BB9E313091D
:1057B000440293060004AA840146B6854A85978070
:1057C000F16FE780E0A185E41C401387170018C043
:1057D0005CD01C544A8593E717001CD41397D7005C
:1057E0006346070037070400D98F1CD4448044D097
:1057F000CDB70145E5BF48802A84130516002E89E0
:10580000B28497C0F16FE780C01948D011E55C40C1
:1058100093E727005CC044804A86A686A6859780C9
:10582000F16FE78000235050269623000600E5B76D
:1058300028802A84485119C597C0F16FE7808019E4
:10584000232204025C401397D700635607003D579C
:105850009BC7E7E45CC05C40F99B5CC024805C4172
:10586000918B99E79F0708AD0400D8237D17D8A333
:105870005C4171777D17F98F5CC1828048802A84F2
:1058800097D0F16FE780C0D481461306803E97B071
:10589000F16FE780A0CA5C40A1769F04B882826560
:1058A00013F78700FD162A89AA94F58F39C35CC0C7
:1058B000A6852285EF00D0055C40918B95E71F05FA
:1058C000B98282654A9548D41F0508AD04005C2161
:1058D00004D844D88507819F5CA1BB93070151057B
:1058E00097C0F16FE78060215C401167D98F5CC081
:1058F00044802167D98F5CC0C1B728802A8485374E
:105900001C5499C3232404022285208015B73880B3
:105910001F0408AD04001C44AE8489EB130500602D
:1059200008C497C0F16FE780C00748C41C44014514
:1059300063F7F4005C3081E7484485475CB034800D
:1059400058802A842E890145B945B289B684C13769
:10595000AA8505C9930710F81CA19307C0F81CB1CC
:105960002321850023239500232505004E87CA8621
:1059700039461545BD339F0708AD0400A3820700D3
:1059800054801F0505000080E5BFA94655BFAD4600
:1059900045BF688003290500AA84AE894A85328AFA
:1059A000F93B2A84DC4001E9BB86070A5286CE8592
:1059B0004A856080D9BFBB83070A3BE2070A3BE305
:1059C000070D6480854560800DBF8945445D35378E
:1059D00050409377061C99E708403582058A930565
:1059E00084037537F9DC5C40A18BE1DF8145054517
:1059F000268360800283C546A1B79F0708AD0400D7
:105A0000A382070082809F0708AD0400884B828034
:105A1000188009C5BB03050301451480EFE0FFD7DB
:105A2000E5BF97D0F16FE780A0BA1306803E8146AC
:105A300097B0F16FE78080B01F0708AD04001C57D6
:105A40001166930646009F05B8828265FD8EAA9571
:105A5000E394C6FC344BE3F1B6FCC18B130547025B
:105A600099E30D2655BFEF00E06A7DB728801F043B
:105A700008AD04009F07585712901CCC9307803E36
:105A80001CD0232E040013054401EF10AF9BFD57DB
:105A900063450500C1471CC081473E8524801880AE
:105AA00097D0F16FE780C0B21306803E814697B071
:105AB000F16FE780A0A89F07B88282653E951480A9
:105AC0003880AA846D392A8409C58145493B2285DD
:105AD000853326853080E9B168802A890841AE89FE
:105AE000328A7139AA8419E5032509005286CE85C8
:105AF000608061BD91451135A9452685093D2A84FF
:105B00000DC9930720F81CA1930780F81CB18327C7
:105B10000900AA85232305002321F5005287CE869C
:105B2000294619457D3E2A89A2852685F9354A856B
:105B300064801F0905000080DDBF788026251E25B2
:105B40002A84AE8AB384F40281E49F040008000032
:105B5000C945228583294401032AC4004D3B2A8973
:105B600039C9B389494163F33401A689130710F891
:105B70002300E900130700F9A300E9001840854756
:105B80002323F9002321E900584423273901CA853A
:105B90002325E9005C445840232A5403CE973583DB
:105BA0001CC8058B9306840349460D451D3ECA85D6
:105BB0002285708099B574807880AA84AE89328AF3
:105BC000F93D2A898840653E2A8411E5884052863D
:105BD000CE8570805DBB2328250303A9440083A9DB
:105BE0008400032A850105355C44938AC400AA8495
:105BF0007D55631CF900484CCE865686CA85029AAC
:105C00006346A0001520C53B7D5574805C443E95DD
:105C10005C4848C46315F5020128953B8D452285F3
:105C2000E93991E80145D5B7504093058403084010
:105C30003582058A8280814505458294E5B71C48F6
:105C4000E312F5FEA93DAA852285C53DE1BF388056
:105C50002A84B1355C40AA842285898B81C7C93EDC
:105C60007D55348021395C4889EF504008409305C8
:105C700084033582058A213B8D452285BD39014546
:105C8000CDB7A6852285553DDDBF6880AA84084131
:105C90002E8A328935352A8435C55C41FA20F97956
:105CA0001386F91F9444F18F1F064461129010CDA2
:105CB0003D8B93F737E048CC9BA7E70A5CC12326CE
:105CC000050054C91146D2851305850397B0F16FBD
:105CD000E78040345C401387F9FF13791900F98F8E
:105CE0009BA7271B5CC0930700103EA4A1471EA4DE
:105CF000DC4491C79228938544012285ED3C22859E
:105D00006080B1B77D5564806880AA8408412E8A7E
:105D100032897D332A842DC55C41F620F9791386BA
:105D2000F91F9844F18F1F064461129010CDBD8A6F
:105D300093F737E048CC9BA7D70A5CC158C9232604
:105D400005001146D2851305850397B0F16FE780F2
:105D5000602C5C401387F9FF13791900F98F9BA71A
:105D6000271B5CC0FE243EA4DE241EA49C4891C7D1
:105D7000D228938584012285BD3C22856080C1BDE7
:105D80007D55648058812EC6032905032A84445911
:105D90009D39B2459307E901AA8963FCB7008145A3
:105DA0002285A13E63860902814501454E835081CB
:105DB00002835C406167F98F2167639BE70063F3AF
:105DC0002401268905096375B90022855081B5B380
:105DD00054813880AA8465322A8409C581454134BA
:105DE0002285B9342685308065BA5C4113F7F50009
:105DF00093F737E093E707019BA7E70A5CC13B8372
:105E000005043BF605053BF605025C4105579BC7BB
:105E1000E7F093E707205CC119A0BB8405069F0744
:105E2000246112901CCD48CD50C9828005579BC774
:105E3000E7F093E70740C5B738805C412A84898B37
:105E400081C7FD327D553480153C1C441F07080076
:105E50000001639CE704D945BD28AA8419E10145E6
:105E6000DDB7930710F81CA1D146930740F91CB188
:105E70000146B68509059770F16FE78060361C40D2
:105E800023A1F400FE20F99BFEA05C409583BD8B0E
:105E90009EA45C4823A5F40089205946A68509459F
:105EA0008930A6852285913E5DBFB9452D20AA8403
:105EB0005DD5930720F81CA19307C0F81CB11C40C6
:105EC0002321F5001E247EA13E24232505001EA5C6
:105ED00029203946E1B722851DBC5840930684032A
:105EE0003583058B8280D882AA8B32C22EC097C0A0
:105EF000F16FE780E06D1306803E814697A0F16F59
:105F0000E780C0631F04B88282652A9403A50B0052
:105F1000BD30AA8419E51246824503A50B00B534AD
:105F2000D4825C416167210700D940D97D8F3B1441
:105F3000070821777D17F98F2167D98F5CC1138CF2
:105F40008B00814C83A74B0063E4FC000145C9BF73
:105F500083270C0003DAA40003244C003EC463141E
:105F60000A00130A001093050A0126854D32AA89FA
:105F7000814D15E9850C210CF1B71307F00FB337EC
:105F8000F700850785A01247824632462320A900E4
:105F90002322690123245901CE851145EFF06FF4C6
:105FA00033045441D69D59C8D28A63534401A28A0E
:105FB0009387CA003ECE0149BBE307801309F00F67
:105FC0003339F9000509138DEA00B3072D013EC6E8
:105FD000930710F82380F900F2473BF8E78093E736
:105FE00007F8819FA380F900630B0900CA86700837
:105FF000CA85138529009780F16FE78080A509097C
:106000004E99130DC900D686D68501466A859770CC
:10601000F16FE780E01CA247C84CD686338BFD00A9
:106020009C4C6A86DA858297AA8A8840E34D50F5AF
:10603000D040938584033582058A753ACE852685BE
:106040006D3A0DBF5880AA840841AE893289513318
:106050002A8435C1EE203B8305043BF705053BF759
:10606000050290442285513392289385440122856C
:10607000EFF06FF819A0BB8D05061146CE8513050C
:10608000840397B0F16FE780E0F85C4079777D1783
:1060900013791900F98F9BA7271B5CC09307001089
:1060A0003EA4A1471EA42285508079B39044353B7D
:1060B0009C481CD0D9B77D55548058802A8408410B
:1060C000AE893289393339C110446E20AA841379DC
:1060D0001900213BCE8511461385840397B0F16FDB
:1060E000E78040F3DC4079777D17F98F9BA7271B6A
:1060F000DCC05228268593058401EFF0CFEF7E2483
:106100002685BEA45E249EA450803DB37D55548058
:106110004CD982801C59F90763F5B70081456FF0AF
:10612000CFFD82805C419583BD8BBB840703BB940C
:1061300007061C510945BE956FD01FE60145EDBF0E
:106140007D5582805C419583BD8B3B93070301475E
:1061500001456FD01FE87D55828028802A848547BD
:10616000A30AF4068D467D569D451305440197C04C
:10617000F16FE780808905897DD183474407E5D3A6
:10618000A30A04061305C4019D23D1BF28801F0460
:1061900070AD04003C5881CB85451305440197C080
:1061A000F16FE780C0852285208017C3F16F6700FB
:1061B000C3946880AA84804408412E8A3289098C5D
:1061C000636BC400B28635289780F16FE7806088E2
:1061D00015CD7D55648083A944003309864011E8BC
:1061E00023A00400CA8633068A00CE8513850401E5
:1061F000E1BFA28639209780F16FE78080856DD15D
:10620000C9BF41052E862695A28582809040014512
:106210004A9690C0C1B738801F0470AD040028585A
:10622000814464CC11C597B0F16FE78020E024D899
:106230009306C0050146B6851305C4013080177367
:10624000F16F6700E3F91F0570AD040082802880BC
:106250001E211F073C4B0000639DE7002A84AA858E
:1062600021460145EFE08FA41E24898F13B5170046
:1062700024800145F5BF288095679387C7B31EA288
:106280005C2DA9052EA25CA285475CB27C453284B8
:10629000A2857EA201452146EFE04FA10AA42480F9
:1062A000288089475CC1930700025CC55CC95CBD5E
:1062B0009F07DDCCBBAA18551CC1834705032A8460
:1062C00018C95CADAA85232C050079460145EFE08D
:1062D000EF9D6AAC2480888169E961CAF9C61F0B09
:1062E0006CAD04002A895A85B689328A1F0470ADC4
:1062F000040097B0F16FE78040788347B40485CB02
:1063000083474407D9CF8347A404814ABDCF24588B
:10631000CA8AA5CC930AC4015000CE855685A13FF8
:106320008347B404BB9207018357840489E79F0A1B
:106330000100008099A83854C166FD1685476303A3
:10634000D700BA973CD403A944009C4063F62705C4
:106350003309F9408357610063C427015685412EF4
:1063600029464C002D284E86D2851528DC44635DD5
:10637000F9008347C404854513054401B395F5002E
:1063800097B0F16FE780A067814A5A8597B0F16FA7
:10639000E78040715685848198443A9955BF2858C2
:1063A00009BD9F0A1A320080CDB79F0A0100008004
:1063B000D5B718801F056CAD04001C4181E7EF00C4
:1063C0002FFA19E1014514801F0515320080E5BF41
:1063D0007880631F0516638D05161F0470AD0400D9
:1063E0004146230604041305C40397B0F16FE78008
:1063F00060C29F0A6CAD0400568597B0F16FE780CC
:10640000C0677C4C634EF0128344A4043B9F44015C
:106410001305C40135262A89631C05108347C4046B
:1064200085077CCC8347A404E9CB3C5885E703551A
:1064300084041146A685410597B0F16FE78040536B
:1064400028D8630B050E835784041CC58357840426
:1064500089875CC51C48D5E3930944014E85EF004C
:106460002FE779E1130A84015285EF006FEFAA84C8
:1064700045E997B0F16FE7802067930600601F063B
:106480001CE81690A2851F055A611290EF004FF28A
:1064900008C805E997B0F16FE78040651F0917321A
:1064A00000805285EF004FEE4E85EF004FE6F1463B
:1064B0000146B68522859770F16FE78060D2A13BD7
:1064C00081A0E14597B0F16FE780E06097B0F16F90
:1064D000E780C0619F078C6112905CC09F07102706
:1064E000000004C45CC42285EF00CFF563410502BF
:1064F000228597B0F16FE78040608547230AF40654
:10650000568597B0F16FE780E0594A857480084856
:106510001F091632008051D58145EF008FF051B729
:106520001F091532008049B71F091432008041B796
:106530001F092032008061B71F090500008041B7A4
:106540001F09183200806DBF1F09010000804DBF78
:106550001F090100008055BF388039E59F046CADEC
:106560000400268597B0F16FE78020511F0470ADBD
:1065700004007C4C91CB8347A404230A0406BB8807
:10658000070151397C4C8DC7268597B0F16FE780A4
:10659000605101453480294597B0F16FE78040553F
:1065A00083475407EDDBF1BF1F0501000080DDB715
:1065B0001C48F9DB228597B0F16FE78000552285F2
:1065C000EF00AFEB08488145EF00AFE5130544014C
:1065D000EF00EFD313058401EF000FDBF146014616
:1065E000B68522859770F16FE78080BF71BF2880E4
:1065F0000DE51F046CAD0400228597B0F16FE780B4
:10660000C0479F0770AD04002285238A070697B014
:10661000F16FE7802049014524801F0501000080BB
:10662000E5BF288015E51F046CAD0400228597B0F6
:10663000F16FE78080449F0770AD04000547228515
:10664000238AE70697B0F16FE780C04501452480B3
:106650001F0501000080E5BF78801C55AE8A2C49DB
:106660002A84B2893389B74085679384F7FFED8C1C
:1066700099C0B3849740338A95008347040363EE3F
:106680003403054A91C3114A2C4863773905B3890D
:106690002941CA8681289306000222868145014746
:1066A000A120CE8633862A019305000201472D28BA
:1066B0009386090234C80145748018546313470156
:1066C000014A054591C31145D2850566EFD01F9457
:1066D00085673E9ABE9455B7CE8629202448CE942D
:1066E00024C8D1BF0147568652856FD09F8E6881DE
:1066F000604904404C406381950493090401CE95A0
:106700002EC62A898936130A8501528597B0F16F02
:10671000E780A0365C40B2453386F44063E79700DB
:1067200010441D8E21282686CE85092844C0528516
:1067300097B0F16FE7800037014564814A8529BF32
:1067400088812A841305000202C202C423160100B4
:1067500097B0F16FE780E024AA8421C9834704033E
:10676000054991C3114926861D28CD2022850D3E5D
:106770009C401F07DDCCBBAA6388E7020566152095
:10678000EFD0DF88014722861928EFD09F8475203B
:1067900093070002232604043CC801458481930624
:1067A000000281454A8582804928FD577CC49304B4
:1067B000000201493E8A814A1C5463F5F406A94649
:1067C0000146B68548009770F16FE78060A1834766
:1067D0000403054B91C3114B14549387A40050003C
:1067E000A68563F2F606B3899640CE86B928A946F7
:1067F0005C00B38636413386370193050002B12031
:1068000001475C00BA979C239306F00F6397D70C5F
:1068100005073B1CF70A930719006313090081471A
:106820007CC424C87C443B9DD7FFBB052AFF93074B
:106830001A007CC4232854058DB7268517B3F16F41
:10684000670043199DB7A9465DBF5A856FD0CFF445
:1068500085075400BE9683C6F6FF1306F00F6393B8
:10686000C602E397E7FE3B0CE70A9307F7FFBBF589
:1068700007098147630409009307190024C87CC4F1
:10688000BA941DBF4800E13219E1850435B70357BA
:10689000A1006302090293071900630EF70009E7DC
:1068A000C167FD176309F9007C443B9CB7FF3B12AD
:1068B0000AFF4A8AA68A835761003A89BE94EDBDD1
:1068C0006303090005091C542326240563E5F4002D
:1068D0009D8C9384040224C8C9B505679307F7FF0C
:1068E000E58F1D8F3B78E70B8147A5BF6889AA8498
:1068F0002E893284EF90FFDCA2864A86A6851F058A
:1069000025E81690EFC08FB99F09ECAD04001F0A6F
:10691000F0AD04004E869F06F4AD0400D28501451B
:10692000EF903FDD83A6090003260A0081451F057D
:106930004AE81690EFC08FB697B0F16FE78000116C
:106940001F07E8AD04001C23AA89C1E385471CA3E7
:10695000230A91024ADC97C0F16FE780A0ED2ADE9E
:106960004818A2C07922130600028145480802C2D5
:1069700002C402C602C897A0F16FE780A06A22D4C1
:10698000F32710343ED68A873EC097F0F16FE78038
:1069900040CF4C182A84EF102FCA0DE1F6570A8514
:1069A00022C43EC2B797040083A7877F3EC6B7A71D
:1069B000040083A7078085073EC88D2A4808412A1E
:1069C000FD2809650D05EFD05FB99F07F8AD0400FC
:1069D0009C4391C382970D2D89658D050945EFD0A4
:1069E0009FB84E8597B0F16FE780000764891F0557
:1069F000EC68129009A009C59F07D01F002088C32A
:106A0000828018819F07D01F00209C431386B0FF0F
:106A100099C3108182878547A307F1008347F1005E
:106A2000819FEDFF14819306C00F1F0600FF002019
:106A3000B6851F05FCAD04001773F16F6700630195
:106A40001F0600FF00208357860D09679306070481
:106A50006389D70263ECF6008DC705076383E702FD
:106A60009F07AFBEADDE2324F60E828021670507A7
:106A70006389E7001F07F0F000006384E7001167F7
:106A8000E9BF9F07ADDEADDEF9BF9F0700FF002025
:106A9000238D070C239CA70C79B79F0700FF0020CC
:106AA00003D5870D82809F0700FF0020238DA70C50
:106AB00082809F0700FF002003C5A70D82803880D9
:106AC00097C0F16FE780E0D42A84AE8485252295B3
:106AD00033348500A6951306803E8146A29597A083
:106AE000F16FE780A0A59F0700FF002023A4A70C5B
:106AF00034801880C1462A861F0500FF0020B68515
:106B00001305450A9770F16FE780A0F4108021BF4C
:106B10001880930600092A86B6851F0500FF00200D
:106B20009770F16FE780E0F21080F5BD05C1188025
:106B30002A86D1461F0500FF0020B68513050509EA
:106B40009770F16FE780E0F01080F1BD82805C49C2
:106B50001F0700FF00202326F7081C4D5CCBE1B582
:106B60009F0700FF002003A6C70E9F07FFFF5221CB
:106B70003307F600BB761708B7F716909387078799
:106B80009B87E7049C433705430082879F05C40821
:106B900007E01305E51717A3F16F6700A3439F05EF
:106BA000C40807E4FDB79F05C40807E8DDB79F05E3
:106BB000C40807EDF9BF9F05C40807F1D9BF9F05B9
:106BC000C40807F5F9B79F05C40807F9D9B79F05A9
:106BD000C40807FD1F057E01430017A3F16F67007E
:106BE000E33F38801F0400FF00208354840D0327F7
:106BF000440F8326040F26869F05C4080B09D52061
:106C000097A0F16FE780803E896791076386F40063
:106C1000A1679D07639BF400C9209F05C4080B0D65
:106C2000C92097A0F16FE780E03B89671387C70011
:106C3000636097021387870063FCE40813873700BB
:106C40006386E40663E5E400950763F39708348000
:106C500021679306870063E696029306770063F840
:106C6000D400B507638EF4040907E392E4FEB5206F
:106C70009F05C4080B22B520308017A3F16F670071
:106C800063362907E395E4FC9F0700FF002003A774
:106C9000070B83A6870A03C6470A9F05C4080B1380
:106CA0008920308017A3F16F670043340327040B5A
:106CB0008326840A0346440A9F05C4080B18CDB7EF
:106CC000814513054002308017A3F16F6700033739
:106CD00029209F05C4080B2D79BF8326C40850487E
:106CE00082801F057E01430082809F07FCAE040066
:106CF0008A23130715009AA3828018800145512327
:106D0000108025A68280588102C2A301010015C10E
:106D10008DC1AE842A8997C0F16FE780808C2AC428
:106D200097B0F16FE78080D2AA894800452B19C13E
:106D30008520548192471F0404AF040063F1F404DA
:106D4000938564002316B10013063100CA8528001C
:106D5000D5211C2081E7834731001CA01F07F8AE16
:106D600004001C4385071CC32520EF904FC13B1135
:106D7000F5021C20DDDF2929230004005DBF8547C3
:106D80001F0700AF04001CA01C4385071CC3F9B7F4
:106D90004E8517B3F16F670023CC9F07D41F0020E7
:106DA00088238280288018419377F703BBFA071065
:106DB000BB94070B935767008D8B81E7936707049C
:106DC0001CC10841198113743500C13F333585005A
:106DD0001345150024800145F5BF28822A846800E8
:106DE0002EC6C93719CD22C80937B24742051365E7
:106DF000D5002ACA3ECCB5459307E00708083ECE29
:106E00001937248238822A842800B2842EC4593F3C
:106E100005C122C6D93DA2474205136515012AC8FE
:106E20003ECAC5459307E007680026CC3ECEE13D4B
:106E3000348248822A844800B28436892EC29D3723
:106E40000DC122C45D3592474205136555012AC61E
:106E50003EC8D5459307E007280026CA4ACC3ECE57
:106E60005D35448258822A840A85B2843689BA897B
:106E70002EC00D3F15C122C28D3D824742051365CC
:106E800095012AC43EC6E5459307E007480026C899
:106E90004ACA4ECC3ECE853D548268832A8468001F
:106EA000B2843689BA893E8A2EC6ED3D1DC122C8FC
:106EB0002D3DB24742051365D5012ACA3ECCF545A2
:106EC0009307E007080826CE4AD04ED252D43ED6C9
:106ED0001D3D64831971930201058B962200AA84DB
:106EE00068003284B6D6BAD8BEDAC2DCC6DE2EC698
:106EF000553D39C92286BB61040D31461304360065
:106F00001379F60F26C80A04CD33930714001BA586
:106F1000A720B247F41018082ACA3ECC36C401464E
:106F20003A859375F60F93073600110763E425033E
:106F300005049808931504019B07F704C181130702
:106F4000E00723A0E7FCC133930201058B862200F2
:106F5000096182809C42050691061CC7D9B76885E5
:106F60002A842E8A3289B689BA84053D39CD0D45E9
:106F70003BF7193CA1CC33642401230381008967CA
:106F80001384D9009387E7F7219C2312F100A30310
:106F9000010023148100913B2315A100CE86268693
:106FA0009305C00308082316410123173101977088
:106FB000F16FE78000AA19E59C08BE999307E007E6
:106FC0002380F9FCA28548003D3B0145648518817A
:106FD00002C002C202C402C60148BBE60605148113
:106FE00009CB1C43930801019B88080523A8F8FEE0
:106FF0001107050893170801C183E3E3D7FE8A064A
:10700000A19E0A87A93FE1BF1880EFB0FFD5EFA08E
:10701000AFA7EFB03FD7EFC07FC11305007D108051
:1070200017B3F16F6700C35CC5B71F0528701290D6
:107030006FC05FB09F07D81F00209C4391C3828719
:107040008280397106D63AD83EDA42DC46DE02C882
:1070500002CA02CC02CE3BF5060518183AC6814892
:10706000639816011808A19EF137B2502161828001
:107070001C43130801011B0818052320F80085088C
:107080001107F9BF7883135445003D88AA842E8ADE
:107090002933636C850813F9F40093DA6401CA8913
:1070A000BB6109089D499F077E0113003EC2353927
:1070B00093863900939726008507A1801BA5A720FA
:1070C00013978401B7070300136717009BC7572165
:1070D000D98F3707FC009B4497141F0700FF00005F
:1070E0001B47570DC58FD98F131764001377F70F00
:1070F000D98F2AC43EC6630C09005C000149110AFD
:107100000327CAFF0509910798C7E36A39FF8A0672
:1071100085061C18939506011B892705C1819307D5
:10712000E00748002320F9FEF93E748301458145BC
:10713000828039712ED24C1006CE32D436D63AD84F
:107140003EDA42DC46DE2EC6353FF24021618280C7
:1071500038801F0490E816909304840114405C402A
:1071600033E7F6000D8B01E7958F8D8B89CB930567
:1071700020031305B00497A0F16FE78020EC2104F1
:10718000E31E94FC1F0705AF040085471CA3348051
:107190009F0708AF04009C4391C38287828009C582
:1071A0009F0708AF040088C3828088801F0914AF3E
:1071B0000400832709009F090CAF0400AE8AC04376
:1071C00083A509001F0A10AF04002A8B03250A00BB
:1071D000B384854022955A86A68563ED5403D686EE
:1071E0009770F16FE780E0860DE583A70900B3058E
:1071F00054010324090063EDF5009D8D63EAF50059
:107200009305A002254597A0F16FE78020E3814513
:107210004CC08480A6869770F16FE780808375F9F3
:1072200083270900B3869A4033069B008C430325CD
:107230000A007DB748802E8999452A84B284B537E3
:107240005C204C304A859BA5B710E915B93F9F07D4
:1072500014AF040098431C435843636EF700542056
:10726000B307F74058301BA7E610B337F70093C7B2
:1072700017009CA044809F060CAF040094423697F0
:10728000F9BF28812C002A844526A247B7F6FFDFE4
:10729000138706E03E971F06000C00006368E602B5
:1072A00032479386F6DFBA96BE966361D6029F0692
:1072B00010AF04009CC222859F070CAF040098C346
:1072C00069269F0714AF040088C324819305D01159
:1072D000254597A0F16FE78060D6C5BF9F0714AF23
:1072E000040098432A860D4514435C431F070CAFE6
:1072F0000400184363F6E60263F4E70263ECD70088
:107300007D173697B307F740BBF407072320060025
:10731000014582801387F6FFF5B7E9171CC2CDBF80
:10732000828028805C412E8463EDF5003384F54033
:107330006369F4009305D002254597A0F16FE780BB
:10734000E0CF2285248058809949B1C99F0724AF96
:1073500004009B87A7049C431F0918AF04005B1718
:10736000A90CDC435843A14963FBE70263EBC70266
:10737000918F95498DC7A149BBE9070663F1E702E3
:107380005B19A90CB2860326090093876600AE84B8
:1073900036962685636BF70099463D2081494E85D8
:1073A0005480B306C740B697E9B73304D740A286E6
:1073B000A2852128814965F59946818E0326090019
:1073C000338584001120E1BFB6851763F16F670034
