Archive member included to satisfy reference by file (symbol)

application/samples/libsamples.a(sle_uart_client.c.obj)
                              (--whole-archive)
application/samples/libsamples.a(sle_uart.c.obj)
                              (--whole-archive)
application/bs21/standard/libstandard_porting.a(startup.S.obj)
                              (--whole-archive)
application/bs21/standard/libstandard_porting.a(main.c.obj)
                              (--whole-archive)
../../../../kernel/non_os/non_os/libnon_os.a(non_os_utils.c.obj)
                              (--whole-archive)
../../../../kernel/non_os/non_os/libnon_os.a(non_os_nmi.c.obj)
                              (--whole-archive)
../../../../kernel/liteos/liteos_v208.6.0_b017/standard-bs21-n1100/libinterrupt.a(riscv_himideerv200_plic.c.obj)
                              (--whole-archive)
../../../../kernel/liteos/liteos_v208.6.0_b017/standard-bs21-n1100/libbase.a(los_bitmap.c.obj)
                              (--whole-archive)
../../../../kernel/liteos/liteos_v208.6.0_b017/standard-bs21-n1100/libbase.a(los_err.c.obj)
                              (--whole-archive)
../../../../kernel/liteos/liteos_v208.6.0_b017/standard-bs21-n1100/libbase.a(los_event.c.obj)
                              (--whole-archive)
../../../../kernel/liteos/liteos_v208.6.0_b017/standard-bs21-n1100/libbase.a(los_exc.c.obj)
                              (--whole-archive)
../../../../kernel/liteos/liteos_v208.6.0_b017/standard-bs21-n1100/libbase.a(los_hwi.c.obj)
                              (--whole-archive)
../../../../kernel/liteos/liteos_v208.6.0_b017/standard-bs21-n1100/libbase.a(los_misc.c.obj)
                              (--whole-archive)
../../../../kernel/liteos/liteos_v208.6.0_b017/standard-bs21-n1100/libbase.a(los_mp.c.obj)
                              (--whole-archive)
../../../../kernel/liteos/liteos_v208.6.0_b017/standard-bs21-n1100/libbase.a(los_mux.c.obj)
                              (--whole-archive)
../../../../kernel/liteos/liteos_v208.6.0_b017/standard-bs21-n1100/libbase.a(los_percpu.c.obj)
                              (--whole-archive)
../../../../kernel/liteos/liteos_v208.6.0_b017/standard-bs21-n1100/libbase.a(los_printf.c.obj)
                              (--whole-archive)
../../../../kernel/liteos/liteos_v208.6.0_b017/standard-bs21-n1100/libbase.a(los_queue.c.obj)
                              (--whole-archive)
../../../../kernel/liteos/liteos_v208.6.0_b017/standard-bs21-n1100/libbase.a(los_sem.c.obj)
                              (--whole-archive)
../../../../kernel/liteos/liteos_v208.6.0_b017/standard-bs21-n1100/libbase.a(los_sortlink.c.obj)
                              (--whole-archive)
../../../../kernel/liteos/liteos_v208.6.0_b017/standard-bs21-n1100/libbase.a(los_stackinfo.c.obj)
                              (--whole-archive)
../../../../kernel/liteos/liteos_v208.6.0_b017/standard-bs21-n1100/libbase.a(los_swtmr.c.obj)
                              (--whole-archive)
../../../../kernel/liteos/liteos_v208.6.0_b017/standard-bs21-n1100/libbase.a(los_task.c.obj)
                              (--whole-archive)
../../../../kernel/liteos/liteos_v208.6.0_b017/standard-bs21-n1100/libbase.a(los_tick.c.obj)
                              (--whole-archive)
../../../../kernel/liteos/liteos_v208.6.0_b017/standard-bs21-n1100/libbase.a(los_heap.c.obj)
                              (--whole-archive)
../../../../kernel/liteos/liteos_v208.6.0_b017/standard-bs21-n1100/libbase.a(los_memory.c.obj)
                              (--whole-archive)
../../../../kernel/liteos/liteos_v208.6.0_b017/standard-bs21-n1100/libbase.a(los_priqueue.c.obj)
                              (--whole-archive)
../../../../kernel/liteos/liteos_v208.6.0_b017/standard-bs21-n1100/libbase.a(los_sched.c.obj)
                              (--whole-archive)
../../../../kernel/liteos/liteos_v208.6.0_b017/standard-bs21-n1100/libriscv.a(cache.c.obj)
                              (--whole-archive)
../../../../kernel/liteos/liteos_v208.6.0_b017/standard-bs21-n1100/libriscv.a(canary.c.obj)
                              (--whole-archive)
../../../../kernel/liteos/liteos_v208.6.0_b017/standard-bs21-n1100/libriscv.a(dispatch.S.obj)
                              (--whole-archive)
../../../../kernel/liteos/liteos_v208.6.0_b017/standard-bs21-n1100/libriscv.a(exception.S.obj)
                              (--whole-archive)
../../../../kernel/liteos/liteos_v208.6.0_b017/standard-bs21-n1100/libriscv.a(fault.c.obj)
                              (--whole-archive)
../../../../kernel/liteos/liteos_v208.6.0_b017/standard-bs21-n1100/libriscv.a(runstop.S.obj)
                              (--whole-archive)
../../../../kernel/liteos/liteos_v208.6.0_b017/standard-bs21-n1100/libriscv.a(trap.S.obj)
                              (--whole-archive)
../../../../kernel/liteos/liteos_v208.6.0_b017/standard-bs21-n1100/libriscv.a(task.c.obj)
                              (--whole-archive)
../../../../kernel/liteos/liteos_v208.6.0_b017/standard-bs21-n1100/libcmsisuser.a(cmsis_v1_liteos_user.c.obj)
                              (--whole-archive)
../../../../kernel/liteos/liteos_v208.6.0_b017/standard-bs21-n1100/libcmsisuser.a(cmsis_v2_liteos_user.c.obj)
                              (--whole-archive)
../../../../kernel/liteos/liteos_v208.6.0_b017/standard-bs21-n1100/libcmsiskernel.a(cmsis_v1_liteos_kernel.c.obj)
                              (--whole-archive)
../../../../kernel/liteos/liteos_v208.6.0_b017/standard-bs21-n1100/libcmsiskernel.a(cmsis_v2_liteos_kernel.c.obj)
                              (--whole-archive)
../../../../kernel/liteos/liteos_v208.6.0_b017/standard-bs21-n1100/libdriverbase.a(los_device.c.obj)
                              (--whole-archive)
../../../../kernel/liteos/liteos_v208.6.0_b017/standard-bs21-n1100/libdriverbase.a(los_driver.c.obj)
                              (--whole-archive)
../../../../kernel/liteos/liteos_v208.6.0_b017/standard-bs21-n1100/libdriverbase.a(los_driver_pm.c.obj)
                              (--whole-archive)
../../../../kernel/liteos/liteos_v208.6.0_b017/standard-bs21-n1100/libinit.a(los_init.c.obj)
                              (--whole-archive)
../../../../kernel/liteos/liteos_v208.6.0_b017/standard-bs21-n1100/libcsysdeps.a(memcpy.S.obj)
                              (--whole-archive)
../../../../kernel/liteos/liteos_v208.6.0_b017/standard-bs21-n1100/libcsysdeps.a(memset.S.obj)
                              (--whole-archive)
../../../../kernel/liteos/liteos_v208.6.0_b017/standard-bs21-n1100/libcsysdeps.a(setjmp.S.obj)
                              (--whole-archive)
../../../../kernel/liteos/liteos_v208.6.0_b017/standard-bs21-n1100/libcsysdeps.a(strcmp.S.obj)
                              (--whole-archive)
../../../../kernel/liteos/liteos_v208.6.0_b017/standard-bs21-n1100/libtargets.a(board.c.obj)
                              (--whole-archive)
../../../../kernel/liteos/liteos_v208.6.0_b017/standard-bs21-n1100/libtargets.a(los_irmalloc.c.obj)
                              (--whole-archive)
../../../../kernel/liteos/liteos_v208.6.0_b017/standard-bs21-n1100/libtargets.a(msg_chl.c.obj)
                              (--whole-archive)
../../../../kernel/liteos/liteos_v208.6.0_b017/standard-bs21-n1100/libtargets.a(os_adapt.c.obj)
                              (--whole-archive)
../../../../kernel/liteos/liteos_v208.6.0_b017/standard-bs21-n1100/libtargets.a(uart.c.obj)
                              (--whole-archive)
../../../../kernel/liteos/liteos_v208.6.0_b017/standard-bs21-n1100/libtargets.a(los_mem_check.c.obj)
                              (--whole-archive)
../../../../kernel/osal/libosal.a(osal_debug_adapt.c.obj)
                              (--whole-archive)
../../../../kernel/osal/libosal.a(oal_onetrack.c.obj)
                              (--whole-archive)
../../../../kernel/osal/libosal.a(osal_cpp_adapt.c.obj)
                              (--whole-archive)
../../../../kernel/osal/libosal.a(osal_addr.c.obj)
                              (--whole-archive)
../../../../kernel/osal/libosal.a(osal_atomic.c.obj)
                              (--whole-archive)
../../../../kernel/osal/libosal.a(osal_barrier.c.obj)
                              (--whole-archive)
../../../../kernel/osal/libosal.a(osal_cache.c.obj)
                              (--whole-archive)
../../../../kernel/osal/libosal.a(osal_completion.c.obj)
                              (--whole-archive)
../../../../kernel/osal/libosal.a(osal_debug.c.obj)
                              (--whole-archive)
../../../../kernel/osal/libosal.a(osal_drvbox.c.obj)
                              (--whole-archive)
../../../../kernel/osal/libosal.a(osal_event.c.obj)
                              (--whole-archive)
../../../../kernel/osal/libosal.a(osal_fileops.c.obj)
                              (--whole-archive)
../../../../kernel/osal/libosal.a(osal_interrupt.c.obj)
                              (--whole-archive)
../../../../kernel/osal/libosal.a(osal_math.c.obj)
                              (--whole-archive)
../../../../kernel/osal/libosal.a(osal_msgqueue.c.obj)
                              (--whole-archive)
../../../../kernel/osal/libosal.a(osal_mutex.c.obj)
                              (--whole-archive)
../../../../kernel/osal/libosal.a(osal_semaphore.c.obj)
                              (--whole-archive)
../../../../kernel/osal/libosal.a(osal_spinlock.c.obj)
                              (--whole-archive)
../../../../kernel/osal/libosal.a(osal_string.c.obj)
                              (--whole-archive)
../../../../kernel/osal/libosal.a(osal_task.c.obj)
                              (--whole-archive)
../../../../kernel/osal/libosal.a(osal_timer.c.obj)
                              (--whole-archive)
../../../../kernel/osal/libosal.a(osal_wait.c.obj)
                              (--whole-archive)
../../../../kernel/osal/libosal.a(osal_workqueue.c.obj)
                              (--whole-archive)
../../../../drivers/drivers/driver/adc/libadc.a(adc.c.obj)
                              (--whole-archive)
../../../../drivers/drivers/driver/cpu_trace/libcpu_trace.a(cpu_trace.c.obj)
                              (--whole-archive)
../../../../drivers/drivers/driver/dma/libdma.a(dma.c.obj)
                              (--whole-archive)
../../../../drivers/drivers/driver/flash/libflash.a(flash.c.obj)
                              (--whole-archive)
../../../../drivers/drivers/driver/gpio/libgpio.a(gpio.c.obj)
                              (--whole-archive)
../../../../drivers/drivers/driver/i2c/libi2c.a(i2c.c.obj)
                              (--whole-archive)
../../../../drivers/drivers/driver/i2s/libi2s.a(i2s.c.obj)
                              (--whole-archive)
../../../../drivers/drivers/driver/ir/libir.a(ir_tx.c.obj)
                              (--whole-archive)
../../../../drivers/drivers/driver/keyscan/libkeyscan.a(keyscan.c.obj)
                              (--whole-archive)
../../../../drivers/drivers/driver/lpc/liblpc.a(lpc_core.c.obj)
                              (--whole-archive)
../../../../drivers/drivers/driver/lpc/liblpc.a(lpc.c.obj)
                              (--whole-archive)
../../../../drivers/drivers/driver/lpm/liblpm.a(lpm_dev_ops.c.obj)
                              (--whole-archive)
../../../../drivers/drivers/driver/memory_core/libmemory_core.a(memory_core.c.obj)
                              (--whole-archive)
../../../../drivers/drivers/driver/pinmux/libpinctrl.a(pinctrl.c.obj)
                              (--whole-archive)
../../../../drivers/drivers/driver/pmp/libpmp.a(pmp.c.obj)
                              (--whole-archive)
../../../../drivers/drivers/driver/pwm/libpwm.a(pwm.c.obj)
                              (--whole-archive)
../../../../drivers/drivers/driver/qdec/libqdec.a(qdec.c.obj)
                              (--whole-archive)
../../../../drivers/drivers/driver/security/trng/libtrng.a(drv_trng.c.obj)
                              (--whole-archive)
../../../../drivers/drivers/driver/security/trng/libtrng.a(trng.c.obj)
                              (--whole-archive)
../../../../drivers/drivers/driver/spi/libspi.a(spi.c.obj)
                              (--whole-archive)
../../../../drivers/drivers/driver/systick/libsystick.a(systick.c.obj)
                              (--whole-archive)
../../../../drivers/drivers/driver/tcxo/libtcxo.a(tcxo.c.obj)
                              (--whole-archive)
../../../../drivers/drivers/driver/timer/libdrv_timer.a(timer.c.obj)
                              (--whole-archive)
../../../../drivers/drivers/driver/uart/libuart.a(uart.c.obj)
                              (--whole-archive)
../../../../drivers/drivers/driver/ulp_aon/libulp_aon.a(ulp_aon_control.c.obj)
                              (--whole-archive)
../../../../drivers/drivers/driver/watchdog/libwatchdog.a(watchdog.c.obj)
                              (--whole-archive)
../../../../drivers/drivers/driver/pdm/libpdm.a(pdm.c.obj)
                              (--whole-archive)
../../../../drivers/drivers/driver/sfc/libsfc.a(sfc.c.obj)
                              (--whole-archive)
../../../../drivers/drivers/driver/pm/pm_pmu/libpm_pmu.a(pm_pmu.c.obj)
                              (--whole-archive)
../../../../drivers/drivers/driver/pm/pm_clock/libpm_clock.a(pm_clock.c.obj)
                              (--whole-archive)
../../../../drivers/drivers/driver/usb_unified/standard-bs21-n1100/libusb_unified.a(dwc_otg_pcd_intr.c.obj)
                              (--whole-archive)
../../../../drivers/drivers/driver/usb_unified/standard-bs21-n1100/libusb_unified.a(dwc_otg_pcd.c.obj)
                              (--whole-archive)
../../../../drivers/drivers/driver/usb_unified/standard-bs21-n1100/libusb_unified.a(udc.c.obj)
                              (--whole-archive)
../../../../drivers/drivers/driver/usb_unified/libusb_unified_open.a(usb_init.c.obj)
                              (--whole-archive)
../../../../drivers/drivers/driver/usb_unified/libusb_unified_open.a(usb_version.c.obj)
                              (--whole-archive)
../../../../drivers/drivers/driver/usb_unified/libusb_unified_open.a(_intr_ref.c.obj)
                              (--whole-archive)
../../../../drivers/drivers/driver/usb_unified/libusb_unified_open.a(usb_dma_cache.c.obj)
                              (--whole-archive)
../../../../drivers/drivers/driver/rtc_unified/librtc_unified.a(rtc.c.obj)
                              (--whole-archive)
../../../../drivers/drivers/driver/efuse/libefuse.a(efuse.c.obj)
                              (--whole-archive)
../../../../drivers/drivers/hal/adc/libhal_adc.a(hal_adc.c.obj)
                              (--whole-archive)
../../../../drivers/drivers/hal/adc/libhal_adc.a(hal_adc_v153.c.obj)
                              (--whole-archive)
../../../../drivers/drivers/hal/adc/libhal_adc.a(hal_adc_v153_regs_op.c.obj)
                              (--whole-archive)
../../../../drivers/drivers/hal/cpu_core/libhal_cpu_core.a(hal_cpu_core.c.obj)
                              (--whole-archive)
../../../../drivers/drivers/hal/cpu_trace/libhal_cpu_trace.a(hal_cpu_trace.c.obj)
                              (--whole-archive)
../../../../drivers/drivers/hal/dma/libhal_dma_v151.a(hal_dma.c.obj)
                              (--whole-archive)
../../../../drivers/drivers/hal/dma/libhal_dma_v151.a(hal_dma_mem.c.obj)
                              (--whole-archive)
../../../../drivers/drivers/hal/dma/libhal_dma_v151.a(hal_dmac_v151.c.obj)
                              (--whole-archive)
../../../../drivers/drivers/hal/dma/libhal_dma_v151.a(hal_dmac_v151_regs_op.c.obj)
                              (--whole-archive)
../../../../drivers/drivers/hal/efuse/libhal_efuse_v151.a(hal_efuse.c.obj)
                              (--whole-archive)
../../../../drivers/drivers/hal/efuse/libhal_efuse_v151.a(hal_efuse_v151.c.obj)
                              (--whole-archive)
../../../../drivers/drivers/hal/efuse/libhal_efuse_v151.a(hal_efuse_v151_reg_op.c.obj)
                              (--whole-archive)
../../../../drivers/drivers/hal/gpio/libhal_gpio_v150.a(hal_gpio.c.obj)
                              (--whole-archive)
../../../../drivers/drivers/hal/gpio/libhal_gpio_v150.a(hal_gpio_v150.c.obj)
                              (--whole-archive)
../../../../drivers/drivers/hal/gpio/libhal_gpio_v150.a(hal_gpio_v150_regs_op.c.obj)
                              (--whole-archive)
../../../../drivers/drivers/hal/gpio/libhal_gpio_v150.a(hal_gpio_v150_comm.c.obj)
                              (--whole-archive)
../../../../drivers/drivers/hal/i2c/libhal_i2c.a(hal_i2c.c.obj)
                              (--whole-archive)
../../../../drivers/drivers/hal/i2c/libhal_i2c.a(hal_i2c_v151_master.c.obj)
                              (--whole-archive)
../../../../drivers/drivers/hal/i2c/libhal_i2c.a(hal_i2c_v151_slave.c.obj)
                              (--whole-archive)
../../../../drivers/drivers/hal/i2c/libhal_i2c.a(hal_i2c_v151.c.obj)
                              (--whole-archive)
../../../../drivers/drivers/hal/i2c/libhal_i2c.a(hal_i2c_v151_comm.c.obj)
                              (--whole-archive)
../../../../drivers/drivers/hal/i2c/libhal_i2c.a(hal_i2c_v151_regs_op.c.obj)
                              (--whole-archive)
../../../../drivers/drivers/hal/keyscan/libhal_keyscan.a(hal_keyscan.c.obj)
                              (--whole-archive)
../../../../drivers/drivers/hal/keyscan/libhal_keyscan.a(hal_keyscan_v150.c.obj)
                              (--whole-archive)
../../../../drivers/drivers/hal/keyscan/libhal_keyscan.a(hal_keyscan_v150_regs_op.c.obj)
                              (--whole-archive)
../../../../drivers/drivers/hal/lpc/libhal_lpc.a(hal_lpc.c.obj)
                              (--whole-archive)
../../../../drivers/drivers/hal/mips/libhal_mips.a(hal_mips.c.obj)
                              (--whole-archive)
../../../../drivers/drivers/hal/pinmux/libhal_pinctrl.a(hal_pinctrl.c.obj)
                              (--whole-archive)
../../../../drivers/drivers/hal/pinmux/libhal_pinctrl.a(hal_pinctrl_bs2x.c.obj)
                              (--whole-archive)
../../../../drivers/drivers/hal/pmp/libhal_pmp.a(hal_pmp.c.obj)
                              (--whole-archive)
../../../../drivers/drivers/hal/pmp/libhal_pmp.a(hal_pmp_riscv31.c.obj)
                              (--whole-archive)
../../../../drivers/drivers/hal/pmp/libhal_pmp.a(hal_pmp_riscv31_regs_op.c.obj)
                              (--whole-archive)
../../../../drivers/drivers/hal/pwm/libhal_pwm.a(hal_pwm.c.obj)
                              (--whole-archive)
../../../../drivers/drivers/hal/pwm/libhal_pwm.a(hal_pwm_v151.c.obj)
                              (--whole-archive)
../../../../drivers/drivers/hal/pwm/libhal_pwm.a(hal_pwm_v151_regs_op.c.obj)
                              (--whole-archive)
../../../../drivers/drivers/hal/qdec/libhal_qdec.a(hal_qdec.c.obj)
                              (--whole-archive)
../../../../drivers/drivers/hal/qdec/libhal_qdec.a(hal_qdec_v150.c.obj)
                              (--whole-archive)
../../../../drivers/drivers/hal/qdec/libhal_qdec.a(hal_qdec_v150_regs_op.c.obj)
                              (--whole-archive)
../../../../drivers/drivers/hal/reboot/libhal_reboot.a(hal_reboot.c.obj)
                              (--whole-archive)
../../../../drivers/drivers/hal/reg_config/libhal_reg_config.a(hal_reg_config.c.obj)
                              (--whole-archive)
../../../../drivers/drivers/hal/security/trng/libhal_trng.a(hal_trng.c.obj)
                              (--whole-archive)
../../../../drivers/drivers/hal/security/trng/libhal_trng.a(hal_trng_v1.c.obj)
                              (--whole-archive)
../../../../drivers/drivers/hal/security/trng/libhal_trng.a(hal_trng_v1_regs_op.c.obj)
                              (--whole-archive)
../../../../drivers/drivers/hal/security/trng/libhal_trng.a(hal_trng_v2.c.obj)
                              (--whole-archive)
../../../../drivers/drivers/hal/security/trng/libhal_trng.a(hal_trng_v2_regs_op.c.obj)
                              (--whole-archive)
../../../../drivers/drivers/hal/spi/libhal_spi.a(hal_spi.c.obj)
                              (--whole-archive)
../../../../drivers/drivers/hal/spi/libhal_spi.a(hal_spi_v151.c.obj)
                              (--whole-archive)
../../../../drivers/drivers/hal/spi/libhal_spi.a(hal_spi_v151_regs_op.c.obj)
                              (--whole-archive)
../../../../drivers/drivers/hal/systick/libhal_systick.a(hal_systick.c.obj)
                              (--whole-archive)
../../../../drivers/drivers/hal/systick/libhal_systick.a(hal_systick_v150.c.obj)
                              (--whole-archive)
../../../../drivers/drivers/hal/systick/libhal_systick.a(hal_systick_v150_regs_op.c.obj)
                              (--whole-archive)
../../../../drivers/drivers/hal/tcxo/libhal_tcxo.a(hal_tcxo.c.obj)
                              (--whole-archive)
../../../../drivers/drivers/hal/tcxo/libhal_tcxo.a(hal_tcxo_v150.c.obj)
                              (--whole-archive)
../../../../drivers/drivers/hal/tcxo/libhal_tcxo.a(hal_tcxo_v150_regs_op.c.obj)
                              (--whole-archive)
../../../../drivers/drivers/hal/timer/libhal_timer.a(hal_drv_timer.c.obj)
                              (--whole-archive)
../../../../drivers/drivers/hal/timer/libhal_timer.a(hal_timer_v150.c.obj)
                              (--whole-archive)
../../../../drivers/drivers/hal/timer/libhal_timer.a(hal_timer_v150_regs_op.c.obj)
                              (--whole-archive)
../../../../drivers/drivers/hal/uart/libhal_uart.a(hal_uart.c.obj)
                              (--whole-archive)
../../../../drivers/drivers/hal/uart/libhal_uart.a(hal_uart_v151.c.obj)
                              (--whole-archive)
../../../../drivers/drivers/hal/uart/libhal_uart.a(hal_uart_v151_regs_op.c.obj)
                              (--whole-archive)
../../../../drivers/drivers/hal/watchdog/libhal_watchdog.a(hal_watchdog.c.obj)
                              (--whole-archive)
../../../../drivers/drivers/hal/watchdog/libhal_watchdog.a(hal_watchdog_v151.c.obj)
                              (--whole-archive)
../../../../drivers/drivers/hal/pdm/libhal_pdm.a(hal_pdm.c.obj)
                              (--whole-archive)
../../../../drivers/drivers/hal/pdm/libhal_pdm.a(hal_pdm_v150.c.obj)
                              (--whole-archive)
../../../../drivers/drivers/hal/pdm/libhal_pdm.a(hal_pdm_v150_regs_op.c.obj)
                              (--whole-archive)
../../../../drivers/drivers/hal/sfc/libhal_sfc.a(hal_sfc.c.obj)
                              (--whole-archive)
../../../../drivers/drivers/hal/sfc/libhal_sfc.a(hal_sfc_v150.c.obj)
                              (--whole-archive)
../../../../drivers/drivers/hal/sfc/libhal_sfc.a(hal_sfc_v150_regs_op.c.obj)
                              (--whole-archive)
../../../../drivers/drivers/hal/sio/libhal_sio.a(hal_sio.c.obj)
                              (--whole-archive)
../../../../drivers/drivers/hal/sio/libhal_sio.a(hal_sio_v151.c.obj)
                              (--whole-archive)
../../../../drivers/drivers/hal/sio/libhal_sio.a(hal_sio_v151_regs_op.c.obj)
                              (--whole-archive)
../../../../drivers/drivers/hal/rtc_unified/libhal_rtc_unified.a(hal_rtc.c.obj)
                              (--whole-archive)
../../../../drivers/drivers/hal/rtc_unified/libhal_rtc_unified.a(hal_rtc_v150.c.obj)
                              (--whole-archive)
../../../../drivers/drivers/hal/rtc_unified/libhal_rtc_unified.a(hal_rtc_v150_op.c.obj)
                              (--whole-archive)
../../../../drivers/chips/bs2x/porting/adc/libadc_port.a(adc_porting.c.obj)
                              (--whole-archive)
../../../../drivers/chips/bs2x/porting/dma/libdma_port.a(dma_porting.c.obj)
                              (--whole-archive)
../../../../drivers/chips/bs2x/porting/efuse/libefuse_port.a(efuse_porting.c.obj)
                              (--whole-archive)
../../../../drivers/chips/bs2x/porting/flash/libflash_porting.a(flash_porting.c.obj)
                              (--whole-archive)
../../../../drivers/chips/bs2x/porting/gpio/libgpio_port.a(gpio_porting.c.obj)
                              (--whole-archive)
../../../../drivers/chips/bs2x/porting/gpio/libgpio_port.a(ulp_gpio.c.obj)
                              (--whole-archive)
../../../../drivers/chips/bs2x/porting/i2c/libi2c_porting.a(i2c_porting.c.obj)
                              (--whole-archive)
../../../../drivers/chips/bs2x/porting/ir/libir_port.a(ir_porting.c.obj)
                              (--whole-archive)
../../../../drivers/chips/bs2x/porting/keyscan/libkeyscan_port.a(keyscan_porting.c.obj)
                              (--whole-archive)
../../../../drivers/chips/bs2x/porting/pdm/libpdm_porting.a(pdm_porting.c.obj)
                              (--whole-archive)
../../../../drivers/chips/bs2x/porting/pinctrl/libport_pinctrl.a(pinctrl_porting.c.obj)
                              (--whole-archive)
../../../../drivers/chips/bs2x/porting/pinctrl/libport_pinctrl.a(pinctrl_porting_bs21.c.obj)
                              (--whole-archive)
../../../../drivers/chips/bs2x/porting/pm/pm_clock/libpm_clock_porting.a(pm_clock_porting.c.obj)
                              (--whole-archive)
../../../../drivers/chips/bs2x/porting/pm/pm_pmu/libpm_pmu_porting.a(pm_pmu_porting.c.obj)
                              (--whole-archive)
../../../../drivers/chips/bs2x/porting/pmp/libpmp_port.a(pmp_porting.c.obj)
                              (--whole-archive)
../../../../drivers/chips/bs2x/porting/pwm/libpwm_port.a(pwm_porting.c.obj)
                              (--whole-archive)
../../../../drivers/chips/bs2x/porting/qdec/libqdec_port.a(qdec_porting.c.obj)
                              (--whole-archive)
../../../../drivers/chips/bs2x/porting/reboot/libreboot_port.a(reboot_porting.c.obj)
                              (--whole-archive)
../../../../drivers/chips/bs2x/porting/rtc_unified/librtc_unified_port.a(rtc_porting.c.obj)
                              (--whole-archive)
../../../../drivers/chips/bs2x/porting/security/trng/libtrng_port.a(trng_porting.c.obj)
                              (--whole-archive)
../../../../drivers/chips/bs2x/porting/sfc/libsfc_porting.a(sfc_config_info_porting.c.obj)
                              (--whole-archive)
../../../../drivers/chips/bs2x/porting/sfc/libsfc_porting.a(sfc_porting.c.obj)
                              (--whole-archive)
../../../../drivers/chips/bs2x/porting/sio/libsio_port.a(sio_porting.c.obj)
                              (--whole-archive)
../../../../drivers/chips/bs2x/porting/spi/libspi_porting.a(spi_porting.c.obj)
                              (--whole-archive)
../../../../drivers/chips/bs2x/porting/systick/libsystick_port.a(systick_porting.c.obj)
                              (--whole-archive)
../../../../drivers/chips/bs2x/porting/tcxo/libtcxo_port.a(tcxo_porting.c.obj)
                              (--whole-archive)
../../../../drivers/chips/bs2x/porting/timer/libtimer_port.a(timer_porting.c.obj)
                              (--whole-archive)
../../../../drivers/chips/bs2x/porting/uart/libuart_port.a(uart_porting.c.obj)
                              (--whole-archive)
../../../../drivers/chips/bs2x/porting/usb_unified/libusb_unified_port.a(usb_porting.c.obj)
                              (--whole-archive)
../../../../drivers/chips/bs2x/porting/usb_unified/libusb_unified_port.a(usb_phy.c.obj)
                              (--whole-archive)
../../../../drivers/chips/bs2x/porting/usb_unified/libusb_unified_port.a(usb2.0_phy_app.c.obj)
                              (--whole-archive)
../../../../drivers/chips/bs2x/porting/usb_unified/libusb_unified_port.a(usbd_hid_mouse.c.obj)
                              (--whole-archive)
../../../../drivers/chips/bs2x/porting/usb_unified/libusb_unified_port.a(usbd_hid.c.obj)
                              (--whole-archive)
../../../../drivers/chips/bs2x/porting/watchdog/libwatchdog_port.a(watchdog_porting.c.obj)
                              (--whole-archive)
../../../../drivers/chips/bs2x/rom/rom_info/standard-bs21-n1100/librom_callback.a(rom_callback.S.obj)
                              (--whole-archive)
../../../../drivers/chips/bs2x/rom/rom_info/standard-bs21-n1100/librom_callback.a(rom_callback_weak.c.obj)
                              (--whole-archive)
../../../../drivers/chips/bs2x/rom/rom_info/standard-bs21-n1100/librom_callback.a(rom_data.c.obj)
                              (--whole-archive)
../../../../drivers/chips/bs2x/libchip_porting.a(interrupt.c.obj)
                              (--whole-archive)
../../../../drivers/chips/bs2x/libchip_porting.a(interrupt_handler.c.obj)
                              (--whole-archive)
../../../../drivers/chips/bs2x/libchip_porting.a(mpu.c.obj)
                              (--whole-archive)
../../../../drivers/chips/bs2x/libchip_porting.a(vectors.s.obj)
                              (--whole-archive)
../../../../drivers/chips/bs2x/libchip_porting.a(patch.c.obj)
                              (--whole-archive)
../../../../drivers/chips/bs2x/libchip_porting.a(interrupt_adapter.c.obj)
                              (--whole-archive)
../../../../drivers/chips/bs2x/libchip_porting.a(vectors.c.obj)
                              (--whole-archive)
../../../../drivers/chips/bs2x/libchip_porting.a(oam_trace.c.obj)
                              (--whole-archive)
../../../../drivers/chips/bs2x/libchip_porting.a(interrupt_os_adapter.c.obj)
                              (--whole-archive)
../../../../drivers/chips/bs2x/libchip_porting.a(idle_config.c.obj)
                              (--whole-archive)
../../../../drivers/chips/bs2x/libchip_porting.a(tick_timer.c.obj)
                              (--whole-archive)
../../../../drivers/chips/bs2x/libchip_porting.a(memory_info.c.obj)
                              (--whole-archive)
../../../../drivers/chips/bs2x/libchip_porting.a(os_dfx.c.obj)
                              (--whole-archive)
../../../../drivers/chips/bs2x/libclocks_porting.a(clocks.c.obj)
                              (--whole-archive)
../../../../drivers/chips/bs2x/libclocks_porting.a(clock_calibration.c.obj)
                              (--whole-archive)
../../../../drivers/chips/bs2x/libclocks_porting.a(hal_32k_clock.c.obj)
                              (--whole-archive)
../../../../drivers/chips/bs2x/libclocks_porting.a(clocks_switch.c.obj)
                              (--whole-archive)
../../../../drivers/chips/bs2x/libpmu_porting.a(pmu_interrupt.c.obj)
                              (--whole-archive)
../../../../drivers/chips/bs2x/libpmu_porting.a(pmu_ldo.c.obj)
                              (--whole-archive)
../../../../drivers/chips/bs2x/libpmu_porting.a(pmu.c.obj)
                              (--whole-archive)
../../../../drivers/chips/bs2x/libmain_init_porting.a(main_init.c.obj)
                              (--whole-archive)
../../../../drivers/chips/bs2x/libmain_init_porting.a(app_os_init.c.obj)
                              (--whole-archive)
../../../../drivers/chips/bs2x/libmain_init_porting.a(main_test.c.obj)
                              (--whole-archive)
../../../../middleware/chips/bs21/image_info/libimage_info.a(image_info.c.o)
                              (--whole-archive)
../../../../middleware/chips/bs2x/exception/libdfx_exception.a(exception_riscv.s.obj)
                              (--whole-archive)
../../../../middleware/chips/bs2x/exception/libdfx_exception.a(exception_riscv.c.obj)
                              (--whole-archive)
../../../../middleware/chips/bs2x/dfx/libdfx_porting.a(dfx_channel.c.obj)
                              (--whole-archive)
../../../../middleware/chips/bs2x/dfx/libdfx_porting.a(dfx_system_init.c.obj)
                              (--whole-archive)
../../../../middleware/chips/bs2x/dfx/libdfx_porting.a(diag_adapt_cmd_mem.c.obj)
                              (--whole-archive)
../../../../middleware/chips/bs2x/dfx/libdfx_porting.a(last_dump_adapt.c.obj)
                              (--whole-archive)
../../../../middleware/chips/bs2x/dfx/libdfx_porting.a(sample_data_adapt.c.obj)
                              (--whole-archive)
../../../../middleware/chips/bs2x/dfx/libdfx_porting.a(diag_adapt_sdt.c.obj)
                              (--whole-archive)
../../../../middleware/chips/bs2x/dfx/libdfx_porting.a(diag_adapt_flash.c.obj)
                              (--whole-archive)
../../../../middleware/chips/bs2x/pm/libpm_porting.a(pm_porting.c.obj)
                              (--whole-archive)
../../../../middleware/chips/bs2x/pm/libpm_porting.a(ulp_rtc.c.obj)
                              (--whole-archive)
../../../../middleware/chips/bs2x/pm/pm_dev/libpm_dev_porting.a(pm_dev_porting.c.obj)
                              (--whole-archive)
../../../../middleware/chips/bs2x/pm/pm_fsm/libpm_fsm_porting.a(pm_fsm_porting.c.obj)
                              (--whole-archive)
../../../../middleware/chips/bs2x/pm/pm_veto/libpm_veto_porting.a(pm_veto_porting.c.obj)
                              (--whole-archive)
../../../../middleware/chips/bs2x/pm/pm_sleep/libpm_sleep_porting.a(pm_sleep_porting.c.obj)
                              (--whole-archive)
../../../../middleware/chips/bs2x/pm/pm_sleep/libpm_sleep_porting.a(lowpower.S.obj)
                              (--whole-archive)
../../../../middleware/chips/bs2x/pm/pm_sys/libpm_sys.a(pm_sys.c.obj)
                              (--whole-archive)
../../../../middleware/chips/bs2x/at/at_btc_cmd_table/libat_btc_cmd.a(at_btc_product.c.obj)
                              (--whole-archive)
../../../../middleware/chips/bs2x/at/at_btc_cmd_table/libat_btc_cmd.a(at_bt_cmd_table.c.obj)
                              (--whole-archive)
../../../../middleware/chips/bs2x/at/at_plt_cmd_table/libat_plt_cmd.a(at_table.c.obj)
                              (--whole-archive)
../../../../middleware/chips/bs2x/at/at_cmd_porting/libat_cmd_port.a(at_porting.c.obj)
                              (--whole-archive)
../../../../middleware/chips/bs2x/update/common/libupdate_common_porting.a(upg_common_porting.c.obj)
                              (--whole-archive)
../../../../middleware/chips/bs2x/update/storage/libupdate_storage_porting.a(upg_backup.c.obj)
                              (--whole-archive)
../../../../middleware/chips/bs2x/partition/libpartition_porting.a(partition_porting.c.obj)
                              (--whole-archive)
../../../../middleware/chips/bs2x/nv/nv_porting/libnv_porting.a(nv_flash.c.obj)
                              (--whole-archive)
../../../../middleware/chips/bs2x/nv/nv_porting/libnv_porting.a(nv_crypto.c.obj)
                              (--whole-archive)
../../../../middleware/utils/algorithm/libalgorithm.a(uapi_crc16.c.obj)
                              (--whole-archive)
../../../../middleware/utils/algorithm/libalgorithm.a(uapi_crc32.c.obj)
                              (--whole-archive)
../../../../middleware/utils/algorithm/libalgorithm.a(sha256.c.obj)
                              (--whole-archive)
../../../../middleware/utils/algorithm/libalgorithm.a(sec_random.c.obj)
                              (--whole-archive)
../../../../middleware/utils/algorithm/libalgorithm.a(cstl_hash.c.obj)
                              (--whole-archive)
../../../../middleware/utils/algorithm/libalgorithm.a(cstl_rawlist.c.obj)
                              (--whole-archive)
../../../../middleware/utils/algorithm/libalgorithm.a(cstl_public.c.obj)
                              (--whole-archive)
../../../../middleware/utils/app_init/libapp_init.a(app_init.c.obj)
                              (--whole-archive)
../../../../middleware/utils/app_version/libapp_version.a(application_version.c.obj)
                              (--whole-archive)
../../../../middleware/utils/at/at/libat.a(at_cmd.c.obj)
                              (--whole-archive)
../../../../middleware/utils/at/at/libat.a(at_msg.c.obj)
                              (--whole-archive)
../../../../middleware/utils/at/at/libat.a(at_parse.c.obj)
                              (--whole-archive)
../../../../middleware/utils/at/at/libat.a(at_channel.c.obj)
                              (--whole-archive)
../../../../middleware/utils/at/at/libat.a(at_process.c.obj)
                              (--whole-archive)
../../../../middleware/utils/at/at/libat.a(at_report.c.obj)
                              (--whole-archive)
../../../../middleware/utils/at/at/libat.a(at_base.c.obj)
                              (--whole-archive)
../../../../middleware/utils/at/at/libat.a(at_notify.c.obj)
                              (--whole-archive)
../../../../middleware/utils/at/at/libat.a(at_zdiag.c.obj)
                              (--whole-archive)
../../../../middleware/utils/build_version/libbuild_version.a(build_version.c.obj)
                              (--whole-archive)
../../../../middleware/utils/cpu_load/libcpu_load.a(cpu_load.c.obj)
                              (--whole-archive)
../../../../middleware/utils/dfx/dfx_reboot/cpu_utils/libcpu_utils.a(cpu_utils.c.obj)
                              (--whole-archive)
../../../../middleware/utils/dfx/dfx_reboot/reboot/libreboot.a(non_os_reboot.c.obj)
                              (--whole-archive)
../../../../middleware/utils/dfx/diag_dfx_cmd/libdiag_dfx_cmd.a(diag_dfx_cmd_init.c.obj)
                              (--whole-archive)
../../../../middleware/utils/dfx/file_operation/libdfx_file_operation.a(dfx_file_operation.c.obj)
                              (--whole-archive)
../../../../middleware/utils/dfx/libdfx_diag.a(diag_oam_log.c.obj)
                              (--whole-archive)
../../../../middleware/utils/dfx/libdfx_diag.a(diag_rom_api.c.obj)
                              (--whole-archive)
../../../../middleware/utils/dfx/libdfx_diag.a(diag_debug.c.obj)
                              (--whole-archive)
../../../../middleware/utils/dfx/libdfx_diag.a(diag_dfx.c.obj)
                              (--whole-archive)
../../../../middleware/utils/dfx/libdfx_diag.a(diag_pkt.c.obj)
                              (--whole-archive)
../../../../middleware/utils/dfx/libdfx_diag.a(diag_mem.c.obj)
                              (--whole-archive)
../../../../middleware/utils/dfx/libdfx_diag.a(diag_msg.c.obj)
                              (--whole-archive)
../../../../middleware/utils/dfx/libdfx_diag.a(diag_tx.c.obj)
                              (--whole-archive)
../../../../middleware/utils/dfx/libdfx_diag.a(diag_rx_api.c.obj)
                              (--whole-archive)
../../../../middleware/utils/dfx/libdfx_diag.a(diag_channel.c.obj)
                              (--whole-archive)
../../../../middleware/utils/dfx/libdfx_diag.a(diag_pkt_router.c.obj)
                              (--whole-archive)
../../../../middleware/utils/dfx/libdfx_diag.a(diag_stat.c.obj)
                              (--whole-archive)
../../../../middleware/utils/dfx/libdfx_diag.a(diag_filter.c.obj)
                              (--whole-archive)
../../../../middleware/utils/dfx/libdfx_diag.a(diag_service.c.obj)
                              (--whole-archive)
../../../../middleware/utils/dfx/libdfx_diag.a(diag_cmd_dispatch.c.obj)
                              (--whole-archive)
../../../../middleware/utils/dfx/libdfx_diag.a(diag_cmd_dst.c.obj)
                              (--whole-archive)
../../../../middleware/utils/dfx/libdfx_diag.a(diag_ind_src.c.obj)
                              (--whole-archive)
../../../../middleware/utils/dfx/libdfx_diag.a(diag_cmd_beat_heart.c.obj)
                              (--whole-archive)
../../../../middleware/utils/dfx/libdfx_diag.a(diag_cmd_connect.c.obj)
                              (--whole-archive)
../../../../middleware/utils/dfx/libdfx_diag.a(diag_cmd_dfx_case.c.obj)
                              (--whole-archive)
../../../../middleware/utils/dfx/libdfx_diag.a(diag_cmd_filter.c.obj)
                              (--whole-archive)
../../../../middleware/utils/dfx/libdfx_diag.a(diag_cmd_get_mem_info.c.obj)
                              (--whole-archive)
../../../../middleware/utils/dfx/libdfx_diag.a(diag_cmd_get_task_info.c.obj)
                              (--whole-archive)
../../../../middleware/utils/dfx/libdfx_diag.a(diag_cmd_get_res_info.c.obj)
                              (--whole-archive)
../../../../middleware/utils/dfx/libdfx_diag.a(diag_cmd_get_init_info.c.obj)
                              (--whole-archive)
../../../../middleware/utils/dfx/libdfx_diag.a(diag_cmd_get_cpup.c.obj)
                              (--whole-archive)
../../../../middleware/utils/dfx/libdfx_diag.a(diag_cmd_log_level.c.obj)
                              (--whole-archive)
../../../../middleware/utils/dfx/libdfx_diag.a(diag_cmd_mem_read_write.c.obj)
                              (--whole-archive)
../../../../middleware/utils/dfx/libdfx_diag.a(diag_cmd_offline_log.c.obj)
                              (--whole-archive)
../../../../middleware/utils/dfx/libdfx_diag.a(diag_cmd_password.c.obj)
                              (--whole-archive)
../../../../middleware/utils/dfx/libdfx_diag.a(diag_cmd_trace_info.c.obj)
                              (--whole-archive)
../../../../middleware/utils/dfx/libdfx_diag.a(diag_cmd_stat.c.obj)
                              (--whole-archive)
../../../../middleware/utils/dfx/libdfx_diag.a(diag_mocked_shell.c.obj)
                              (--whole-archive)
../../../../middleware/utils/dfx/libdfx_diag.a(last_dump.c.obj)
                              (--whole-archive)
../../../../middleware/utils/dfx/libdfx_diag.a(diag_bt_sample_data.c.obj)
                              (--whole-archive)
../../../../middleware/utils/dfx/libdfx_diag.a(transmit_cmd_ls.c.obj)
                              (--whole-archive)
../../../../middleware/utils/dfx/libdfx_diag.a(transmit_cmd_delete_file.c.obj)
                              (--whole-archive)
../../../../middleware/utils/dfx/libdfx_diag.a(transmit.c.obj)
                              (--whole-archive)
../../../../middleware/utils/dfx/libdfx_diag.a(transmit_send_recv_pkt.c.obj)
                              (--whole-archive)
../../../../middleware/utils/dfx/libdfx_diag.a(transmit_item.c.obj)
                              (--whole-archive)
../../../../middleware/utils/dfx/libdfx_diag.a(transmit_resume.c.obj)
                              (--whole-archive)
../../../../middleware/utils/dfx/libdfx_diag.a(transmit_dst.c.obj)
                              (--whole-archive)
../../../../middleware/utils/dfx/libdfx_diag.a(transmit_src.c.obj)
                              (--whole-archive)
../../../../middleware/utils/dfx/libdfx_diag.a(transmit_write_read.c.obj)
                              (--whole-archive)
../../../../middleware/utils/dfx/libdfx_diag.a(transmit_api.c.obj)
                              (--whole-archive)
../../../../middleware/utils/dfx/libdfx_diag.a(transmit_debug.c.obj)
                              (--whole-archive)
../../../../middleware/utils/dfx/libdfx_diag.a(dfx_mem.c.obj)
                              (--whole-archive)
../../../../middleware/utils/dfx/libdfx_diag.a(dfx_task.c.obj)
                              (--whole-archive)
../../../../middleware/utils/dfx/libdfx_diag.a(dfx_res.c.obj)
                              (--whole-archive)
../../../../middleware/utils/dfx/libdfx_diag.a(dfx_cpup.c.obj)
                              (--whole-archive)
../../../../middleware/utils/dfx/libdfx_diag.a(dfx_trace.c.obj)
                              (--whole-archive)
../../../../middleware/utils/dfx/libsoc_log.a(soc_log.c.obj)
                              (--whole-archive)
../../../../middleware/utils/dfx/libsoc_log.a(soc_log_uart_instance.c.obj)
                              (--whole-archive)
../../../../middleware/utils/dfx/liblog_file.a(log_file.c.obj)
                              (--whole-archive)
../../../../middleware/utils/dfx/liblog_file.a(log_file_file.c.obj)
                              (--whole-archive)
../../../../middleware/utils/dfx/liblog_file.a(log_file_flash.c.obj)
                              (--whole-archive)
../../../../middleware/utils/dfx/libdfx_panic.a(panic.c.obj)
                              (--whole-archive)
../../../../middleware/utils/dfx/libdfx_panic.a(panic_rom.c.obj)
                              (--whole-archive)
../../../../middleware/utils/dfx/libdfx_preserve.a(preserve.c.obj)
                              (--whole-archive)
../../../../middleware/utils/dfx/libdfx_preserve.a(crash_data.c.obj)
                              (--whole-archive)
../../../../middleware/utils/dfx/libdfx_log.a(log.c.obj)
                              (--whole-archive)
../../../../middleware/utils/dfx/libdfx_log.a(log_oam_logger.c.obj)
                              (--whole-archive)
../../../../middleware/utils/dfx/libdfx_log.a(log_oam_mem_query.c.obj)
                              (--whole-archive)
../../../../middleware/utils/dfx/libdfx_log.a(log_oam_ota.c.obj)
                              (--whole-archive)
../../../../middleware/utils/dfx/libdfx_log.a(log_oam_pcm.c.obj)
                              (--whole-archive)
../../../../middleware/utils/dfx/libdfx_log.a(log_oam_reg_query.c.obj)
                              (--whole-archive)
../../../../middleware/utils/dfx/libdfx_log.a(log_oam_status.c.obj)
                              (--whole-archive)
../../../../middleware/utils/dfx/libdfx_log.a(log_oam_dscr_cb.c.obj)
                              (--whole-archive)
../../../../middleware/utils/dfx/libdfx_log.a(log_oml_exception.c.obj)
                              (--whole-archive)
../../../../middleware/utils/dfx/libdfx_log.a(log_oml_ota_rom.c.obj)
                              (--whole-archive)
../../../../middleware/utils/dfx/libdfx_log.a(log_printf.c.obj)
                              (--whole-archive)
../../../../middleware/utils/dfx/libdfx_log.a(log_printf_rom.c.obj)
                              (--whole-archive)
../../../../middleware/utils/dfx/libdfx_log.a(log_reg_dump.c.obj)
                              (--whole-archive)
../../../../middleware/utils/dfx/libdfx_log.a(log_trigger.c.obj)
                              (--whole-archive)
../../../../middleware/utils/dfx/libdfx_log.a(log_oam_msg.c.obj)
                              (--whole-archive)
../../../../middleware/utils/dfx/libdfx_log.a(log_buffer.c.obj)
                              (--whole-archive)
../../../../middleware/utils/dfx/libdfx_log.a(log_buffer_reader.c.obj)
                              (--whole-archive)
../../../../middleware/utils/dfx/libdfx_log.a(log_memory_region.c.obj)
                              (--whole-archive)
../../../../middleware/utils/dfx/libdfx_log.a(log_memory_section.c.obj)
                              (--whole-archive)
../../../../middleware/utils/dfx/libdfx_log_reader.a(log_uart.c.obj)
                              (--whole-archive)
../../../../middleware/utils/dfx/libdfx_massdata.a(massdata_buffer.c.obj)
                              (--whole-archive)
../../../../middleware/utils/error_code/liberror_code.a(error_code.c.obj)
                              (--whole-archive)
../../../../middleware/utils/pm/pm_dev/libpm_dev.a(pm_dev.c.obj)
                              (--whole-archive)
../../../../middleware/utils/pm/pm_fsm/libpm_fsm.a(pm_fsm.c.obj)
                              (--whole-archive)
../../../../middleware/utils/pm/pm_veto/libpm_veto.a(pm_veto.c.obj)
                              (--whole-archive)
../../../../middleware/utils/pm/pm_sleep/libpm_sleep.a(pm_sleep.c.obj)
                              (--whole-archive)
../../../../middleware/utils/nv/libnv.a(soc_nv_storage_handle.c.obj)
                              (--whole-archive)
../../../../middleware/utils/nv/libnv.a(soc_nv_storage.c.obj)
                              (--whole-archive)
../../../../middleware/utils/nv/libnv.a(nv_key.c.obj)
                              (--whole-archive)
../../../../middleware/utils/nv/libnv.a(nv_notify.c.obj)
                              (--whole-archive)
../../../../middleware/utils/nv/libnv.a(nv_nvregion.c.obj)
                              (--whole-archive)
../../../../middleware/utils/nv/libnv.a(nv_page.c.obj)
                              (--whole-archive)
../../../../middleware/utils/nv/libnv.a(nv_reset.c.obj)
                              (--whole-archive)
../../../../middleware/utils/nv/libnv.a(nv_rpc.c.obj)
                              (--whole-archive)
../../../../middleware/utils/nv/libnv.a(nv_store.c.obj)
                              (--whole-archive)
../../../../middleware/utils/nv/libnv.a(nv_update.c.obj)
                              (--whole-archive)
../../../../middleware/utils/nv/libnv.a(nv_upg.c.obj)
                              (--whole-archive)
../../../../middleware/utils/nv/libnv.a(nv_debug.c.obj)
                              (--whole-archive)
../../../../middleware/utils/nv/libnv.a(nv_async_store.c.obj)
                              (--whole-archive)
../../../../middleware/utils/partition/libpartition.a(partition.c.obj)
                              (--whole-archive)
../../../../middleware/utils/update/common/libupdate_common.a(upg_alloc.c.obj)
                              (--whole-archive)
../../../../middleware/utils/update/common/libupdate_common.a(upg_common.c.obj)
                              (--whole-archive)
../../../../middleware/utils/update/common/libupdate_common.a(upg_verify.c.obj)
                              (--whole-archive)
../../../../middleware/utils/update/storage/libupdate_storage.a(upg_storage.c.obj)
                              (--whole-archive)
../../../../middleware/utils/update/local_update/libupdate_local.a(upg_encry.c.obj)
                              (--whole-archive)
../../../../middleware/utils/update/local_update/libupdate_local.a(upg_lzmadec.c.obj)
                              (--whole-archive)
../../../../middleware/utils/update/local_update/libupdate_local.a(upg_patch.c.obj)
                              (--whole-archive)
../../../../middleware/utils/update/local_update/libupdate_local.a(upg_process.c.obj)
                              (--whole-archive)
../../../../middleware/utils/update/local_update/libupdate_local.a(upg_resource.c.obj)
                              (--whole-archive)
../../../../middleware/utils/update/local_update/libupdate_local.a(upg_upgrade.c.obj)
                              (--whole-archive)
../../../../middleware/utils/update/ota/libota_upgrade.a(ota_upgrade.c.obj)
                              (--whole-archive)
../../../../middleware/utils/update/ota/libota_upgrade.a(ota_upgrade_handle.c.obj)
                              (--whole-archive)
../../../../middleware/utils/mips/libmips.a(mips.c.obj)
                              (--whole-archive)
../../../../middleware/utils/usb_class/standard-bs21-n1100/libusb_class.a(composite_adapter.c.obj)
                              (--whole-archive)
../../../../middleware/utils/usb_class/standard-bs21-n1100/libusb_class.a(usbd_acm.c.obj)
                              (--whole-archive)
../../../../middleware/utils/usb_class/standard-bs21-n1100/libusb_class.a(usbd_audio.c.obj)
                              (--whole-archive)
../../../../middleware/utils/usb_class/libusb_class_open.a(composite_open.c.obj)
                              (--whole-archive)
../../../../middleware/utils/usb_class/libusb_class_open.a(composite.c.obj)
                              (--whole-archive)
../../../../middleware/utils/usb_class/libusb_class_open.a(f_hid.c.obj)
                              (--whole-archive)
../../../../middleware/utils/usb_class/libusb_class_open.a(f_dfu.c.obj)
                              (--whole-archive)
../../../../middleware/utils/usb_class/libusb_class_open.a(f_uac.c.obj)
                              (--whole-archive)
../../../../middleware/utils/usb_class/libusb_class_open.a(f_uac_hid.c.obj)
                              (--whole-archive)
../../../../middleware/utils/usb_class/libusb_class_open.a(f_acm.c.obj)
                              (--whole-archive)
../../../../middleware/utils/usb_class/libusb_class_open.a(f_acm_hid.c.obj)
                              (--whole-archive)
../../../../middleware/utils/usb_class/libusb_class_open.a(usbd_hid.c.obj)
                              (--whole-archive)
../../../../middleware/utils/usb_class/libusb_class_open.a(f_usb_custom.c.obj)
                              (--whole-archive)
../../../../open_source/7-zip-lzma-sdk/liblzma_21.07.a(LzmaDec.c.obj)
                              (--whole-archive)
../../../../protocol/bt/controller/bgtp/standard-bs21-n1100/libbgtp.a(rom_data.c.obj)
                              (--whole-archive)
../../../../protocol/bt/controller/bgtp/standard-bs21-n1100/libbgtp.a(dts_crypto.c.obj)
                              (--whole-archive)
../../../../protocol/bt/controller/bgtp/standard-bs21-n1100/libbgtp.a(dts_mips.c.obj)
                              (--whole-archive)
../../../../protocol/bt/controller/bgtp/standard-bs21-n1100/libbgtp.a(dts_lowpower.c.obj)
                              (--whole-archive)
../../../../protocol/bt/controller/bgtp/standard-bs21-n1100/libbgtp.a(dts_chip_info.c.obj)
                              (--whole-archive)
../../../../protocol/bt/controller/bgtp/standard-bs21-n1100/libbgtp.a(dts_hci.c.obj)
                              (--whole-archive)
../../../../protocol/bt/controller/bgtp/standard-bs21-n1100/libbgtp.a(dts_coex.c.obj)
                              (--whole-archive)
../../../../protocol/bt/controller/bgtp/standard-bs21-n1100/libbgtp.a(dts_interrupt.c.obj)
                              (--whole-archive)
../../../../protocol/bt/controller/bgtp/standard-bs21-n1100/libbgtp.a(bgtp_pmu_hw.c.obj)
                              (--whole-archive)
../../../../protocol/bt/controller/bgtp/standard-bs21-n1100/libbgtp.a(bgtp_pmu_hw_ram.c.obj)
                              (--whole-archive)
../../../../protocol/bt/controller/bgtp/standard-bs21-n1100/libbgtp.a(bgtp_sleep_hw.c.obj)
                              (--whole-archive)
../../../../protocol/bt/controller/bgtp/standard-bs21-n1100/libbgtp.a(bgtp_sleep_hw_ram.c.obj)
                              (--whole-archive)
../../../../protocol/bt/controller/bgtp/standard-bs21-n1100/libbgtp.a(bgtp_clock_cali.c.obj)
                              (--whole-archive)
../../../../protocol/bt/controller/bgtp/standard-bs21-n1100/libbgtp.a(cali_bt_data.c.obj)
                              (--whole-archive)
../../../../protocol/bt/controller/bgtp/standard-bs21-n1100/libbgtp.a(cali_list.c.obj)
                              (--whole-archive)
../../../../protocol/bt/controller/bgtp/standard-bs21-n1100/libbgtp.a(cali_adpll.c.obj)
                              (--whole-archive)
../../../../protocol/bt/controller/bgtp/standard-bs21-n1100/libbgtp.a(cali_rx.c.obj)
                              (--whole-archive)
../../../../protocol/bt/controller/bgtp/standard-bs21-n1100/libbgtp.a(cali_tx.c.obj)
                              (--whole-archive)
../../../../protocol/bt/controller/bgtp/standard-bs21-n1100/libbgtp.a(cali_dll.c.obj)
                              (--whole-archive)
../../../../protocol/bt/controller/bgtp/standard-bs21-n1100/libbgtp.a(hal_bt_cali.c.obj)
                              (--whole-archive)
../../../../protocol/bt/controller/bgtp/standard-bs21-n1100/libbgtp.a(bt_hal_control.c.obj)
                              (--whole-archive)
../../../../protocol/bt/controller/bgtp/standard-bs21-n1100/libbgtp.a(bt_cbb_config.c.obj)
                              (--whole-archive)
../../../../protocol/bt/controller/bgtp/standard-bs21-n1100/libbgtp.a(bt_rf_config.c.obj)
                              (--whole-archive)
../../../../protocol/bt/controller/bgtp/standard-bs21-n1100/libbgtp.a(bt_rf_table.c.obj)
                              (--whole-archive)
../../../../protocol/bt/controller/bgtp/standard-bs21-n1100/libbgtp.a(mpw_poweron.c.obj)
                              (--whole-archive)
../../../../protocol/bt/controller/bgtp/standard-bs21-n1100/libbgtp.a(bt_customize.c.obj)
                              (--whole-archive)
../../../../protocol/bt/controller/bgtp/standard-bs21-n1100/libbgtp.a(bt_chr_handle.c.obj)
                              (--whole-archive)
../../../../protocol/bt/controller/bgtp/standard-bs21-n1100/libbgtp.a(bt_dbg.c.obj)
                              (--whole-archive)
../../../../protocol/bt/controller/bgtp/standard-bs21-n1100/libbgtp.a(bt_adpll.c.obj)
                              (--whole-archive)
../../../../protocol/bt/controller/bgtp/standard-bs21-n1100/libbgtp.a(bt_tsensor.c.obj)
                              (--whole-archive)
../../../../protocol/bt/controller/bgtp/standard-bs21-n1100/libbgtp.a(bt_path.c.obj)
                              (--whole-archive)
../../../../protocol/bt/controller/bgtp/standard-bs21-n1100/libbgtp.a(rf_accumulation.c.obj)
                              (--whole-archive)
../../../../protocol/bt/controller/bgtp/standard-bs21-n1100/libbgtp.a(bt_hal_interface.c.obj)
                              (--whole-archive)
../../../../protocol/bt/controller/bgtp/standard-bs21-n1100/libbgtp.a(em_map.c.obj)
                              (--whole-archive)
../../../../protocol/bt/controller/bgtp/standard-bs21-n1100/libbgtp.a(mac_reg.c.obj)
                              (--whole-archive)
../../../../protocol/bt/controller/bgtp/standard-bs21-n1100/libbgtp.a(pwr_ctrl_cfg.c.obj)
                              (--whole-archive)
../../../../protocol/bt/controller/bgtp/standard-bs21-n1100/libbgtp.a(rxpd_adapter.c.obj)
                              (--whole-archive)
../../../../protocol/bt/controller/bgtp/standard-bs21-n1100/libbgtp.a(txpd_adapter.c.obj)
                              (--whole-archive)
../../../../protocol/bt/controller/bgtp/standard-bs21-n1100/libbgtp.a(sed_adapter.c.obj)
                              (--whole-archive)
../../../../protocol/bt/controller/bgtp/standard-bs21-n1100/libbgtp.a(bt_main.c.obj)
                              (--whole-archive)
../../../../protocol/bt/controller/bgtp/standard-bs21-n1100/libbgtp.a(bt_main_ram.c.obj)
                              (--whole-archive)
../../../../protocol/bt/controller/bgtp/standard-bs21-n1100/libbgtp.a(bt_thread.c.obj)
                              (--whole-archive)
../../../../protocol/bt/controller/bgtp/standard-bs21-n1100/libbgtp.a(ble_sca.c.obj)
                              (--whole-archive)
../../../../protocol/bt/controller/bgtp/standard-bs21-n1100/libbgtp.a(gle_sca.c.obj)
                              (--whole-archive)
../../../../protocol/bt/controller/bgtp/standard-bs21-n1100/libbgtp.a(chnl_calc_util.c.obj)
                              (--whole-archive)
../../../../protocol/bt/controller/bgtp/standard-bs21-n1100/libbgtp.a(chnl_calc_ble.c.obj)
                              (--whole-archive)
../../../../protocol/bt/controller/bgtp/standard-bs21-n1100/libbgtp.a(chnl_calc_gle.c.obj)
                              (--whole-archive)
../../../../protocol/bt/controller/bgtp/standard-bs21-n1100/libbgtp.a(enc_kd_sm3.c.obj)
                              (--whole-archive)
../../../../protocol/bt/controller/bgtp/standard-bs21-n1100/libbgtp.a(em_tx_desc_ram.c.obj)
                              (--whole-archive)
../../../../protocol/bt/controller/bgtp/standard-bs21-n1100/libbgtp.a(em_tx_buff_ram.c.obj)
                              (--whole-archive)
../../../../protocol/bt/controller/bgtp/standard-bs21-n1100/libbgtp.a(em_mgr_ram.c.obj)
                              (--whole-archive)
../../../../protocol/bt/controller/bgtp/standard-bs21-n1100/libbgtp.a(cali_reg.c.obj)
                              (--whole-archive)
../../../../protocol/bt/controller/bgtp/standard-bs21-n1100/libbgtp.a(cali_state.c.obj)
                              (--whole-archive)
../../../../protocol/bt/controller/bgtp/standard-bs21-n1100/libbgtp.a(cali_entrance.c.obj)
                              (--whole-archive)
../../../../protocol/bt/controller/bgtp/standard-bs21-n1100/libbgtp.a(btc_timer_ram.c.obj)
                              (--whole-archive)
../../../../protocol/bt/controller/bgtp/standard-bs21-n1100/libbgtp.a(pub_if.c.obj)
                              (--whole-archive)
../../../../protocol/bt/controller/bgtp/standard-bs21-n1100/libbgtp.a(hci_if.c.obj)
                              (--whole-archive)
../../../../protocol/bt/controller/bgtp/standard-bs21-n1100/libbgtp.a(hci_if_ram.c.obj)
                              (--whole-archive)
../../../../protocol/bt/controller/bgtp/standard-bs21-n1100/libbgtp.a(hci_bt.c.obj)
                              (--whole-archive)
../../../../protocol/bt/controller/bgtp/standard-bs21-n1100/libbgtp.a(hci_gle.c.obj)
                              (--whole-archive)
../../../../protocol/bt/controller/bgtp/standard-bs21-n1100/libbgtp.a(ble_isr_ram.c.obj)
                              (--whole-archive)
../../../../protocol/bt/controller/bgtp/standard-bs21-n1100/libbgtp.a(gle_isr_ram.c.obj)
                              (--whole-archive)
../../../../protocol/bt/controller/bgtp/standard-bs21-n1100/libbgtp.a(evt_task_fsm.c.obj)
                              (--whole-archive)
../../../../protocol/bt/controller/bgtp/standard-bs21-n1100/libbgtp.a(evt_task_comm.c.obj)
                              (--whole-archive)
../../../../protocol/bt/controller/bgtp/standard-bs21-n1100/libbgtp.a(evt_task_ble_acl_fsm_tbl.c.obj)
                              (--whole-archive)
../../../../protocol/bt/controller/bgtp/standard-bs21-n1100/libbgtp.a(evt_task_ble_cs_fsm_tbl.c.obj)
                              (--whole-archive)
../../../../protocol/bt/controller/bgtp/standard-bs21-n1100/libbgtp.a(evt_task_ble_cs.c.obj)
                              (--whole-archive)
../../../../protocol/bt/controller/bgtp/standard-bs21-n1100/libbgtp.a(ble_acl_instant_ram.c.obj)
                              (--whole-archive)
../../../../protocol/bt/controller/bgtp/standard-bs21-n1100/libbgtp.a(evt_task_ble_acl_ram.c.obj)
                              (--whole-archive)
../../../../protocol/bt/controller/bgtp/standard-bs21-n1100/libbgtp.a(evt_task_ble_adv_fsm_tbl.c.obj)
                              (--whole-archive)
../../../../protocol/bt/controller/bgtp/standard-bs21-n1100/libbgtp.a(evt_task_ble_per_adv.c.obj)
                              (--whole-archive)
../../../../protocol/bt/controller/bgtp/standard-bs21-n1100/libbgtp.a(evt_task_ble_ext_adv_ram.c.obj)
                              (--whole-archive)
../../../../protocol/bt/controller/bgtp/standard-bs21-n1100/libbgtp.a(evt_task_ble_adv_ram.c.obj)
                              (--whole-archive)
../../../../protocol/bt/controller/bgtp/standard-bs21-n1100/libbgtp.a(evt_task_ble_scan_ram.c.obj)
                              (--whole-archive)
../../../../protocol/bt/controller/bgtp/standard-bs21-n1100/libbgtp.a(evt_task_ble_scan_fsm_tbl.c.obj)
                              (--whole-archive)
../../../../protocol/bt/controller/bgtp/standard-bs21-n1100/libbgtp.a(evt_task_ble_per_sync.c.obj)
                              (--whole-archive)
../../../../protocol/bt/controller/bgtp/standard-bs21-n1100/libbgtp.a(evt_task_ble_per_sync_fsm_tbl.c.obj)
                              (--whole-archive)
../../../../protocol/bt/controller/bgtp/standard-bs21-n1100/libbgtp.a(evt_task_ble_initiate_ram.c.obj)
                              (--whole-archive)
../../../../protocol/bt/controller/bgtp/standard-bs21-n1100/libbgtp.a(evt_task_ble_initiate_fsm_tbl.c.obj)
                              (--whole-archive)
../../../../protocol/bt/controller/bgtp/standard-bs21-n1100/libbgtp.a(evt_task_ble_test_mode.c.obj)
                              (--whole-archive)
../../../../protocol/bt/controller/bgtp/standard-bs21-n1100/libbgtp.a(evt_task_ble_test_mode_fsm_tbl.c.obj)
                              (--whole-archive)
../../../../protocol/bt/controller/bgtp/standard-bs21-n1100/libbgtp.a(evt_task_ble_test_mode_isr.c.obj)
                              (--whole-archive)
../../../../protocol/bt/controller/bgtp/standard-bs21-n1100/libbgtp.a(evt_task_ble_sniffer.c.obj)
                              (--whole-archive)
../../../../protocol/bt/controller/bgtp/standard-bs21-n1100/libbgtp.a(evt_task_ble_sniffer_list.c.obj)
                              (--whole-archive)
../../../../protocol/bt/controller/bgtp/standard-bs21-n1100/libbgtp.a(evt_task_gle_acb.c.obj)
                              (--whole-archive)
../../../../protocol/bt/controller/bgtp/standard-bs21-n1100/libbgtp.a(evt_task_gle_acb_fsm_tbl.c.obj)
                              (--whole-archive)
../../../../protocol/bt/controller/bgtp/standard-bs21-n1100/libbgtp.a(evt_task_gle_acb_instant.c.obj)
                              (--whole-archive)
../../../../protocol/bt/controller/bgtp/standard-bs21-n1100/libbgtp.a(evt_task_gle_acb_conn_record.c.obj)
                              (--whole-archive)
../../../../protocol/bt/controller/bgtp/standard-bs21-n1100/libbgtp.a(evt_task_gle_acb_retry.c.obj)
                              (--whole-archive)
../../../../protocol/bt/controller/bgtp/standard-bs21-n1100/libbgtp.a(evt_task_gle_acb_isr.c.obj)
                              (--whole-archive)
../../../../protocol/bt/controller/bgtp/standard-bs21-n1100/libbgtp.a(evt_task_gle_acb_low_latency.c.obj)
                              (--whole-archive)
../../../../protocol/bt/controller/bgtp/standard-bs21-n1100/libbgtp.a(evt_task_gle_cs_fsm_tbl.c.obj)
                              (--whole-archive)
../../../../protocol/bt/controller/bgtp/standard-bs21-n1100/libbgtp.a(evt_task_gle_cs.c.obj)
                              (--whole-archive)
../../../../protocol/bt/controller/bgtp/standard-bs21-n1100/libbgtp.a(evt_task_gle_scan.c.obj)
                              (--whole-archive)
../../../../protocol/bt/controller/bgtp/standard-bs21-n1100/libbgtp.a(evt_task_gle_scan_fsm_tbl.c.obj)
                              (--whole-archive)
../../../../protocol/bt/controller/bgtp/standard-bs21-n1100/libbgtp.a(evt_task_gle_scan_isr.c.obj)
                              (--whole-archive)
../../../../protocol/bt/controller/bgtp/standard-bs21-n1100/libbgtp.a(evt_task_gle_initiate.c.obj)
                              (--whole-archive)
../../../../protocol/bt/controller/bgtp/standard-bs21-n1100/libbgtp.a(evt_task_gle_initiate_fsm_tbl.c.obj)
                              (--whole-archive)
../../../../protocol/bt/controller/bgtp/standard-bs21-n1100/libbgtp.a(evt_task_gle_initiate_isr.c.obj)
                              (--whole-archive)
../../../../protocol/bt/controller/bgtp/standard-bs21-n1100/libbgtp.a(evt_task_gle_adv.c.obj)
                              (--whole-archive)
../../../../protocol/bt/controller/bgtp/standard-bs21-n1100/libbgtp.a(evt_task_gle_adv_fsm_tbl.c.obj)
                              (--whole-archive)
../../../../protocol/bt/controller/bgtp/standard-bs21-n1100/libbgtp.a(evt_task_gle_adv_isr.c.obj)
                              (--whole-archive)
../../../../protocol/bt/controller/bgtp/standard-bs21-n1100/libbgtp.a(evt_task_gle_iob.c.obj)
                              (--whole-archive)
../../../../protocol/bt/controller/bgtp/standard-bs21-n1100/libbgtp.a(evt_task_gle_iob_fsm_tbl.c.obj)
                              (--whole-archive)
../../../../protocol/bt/controller/bgtp/standard-bs21-n1100/libbgtp.a(evt_task_gle_test_mode.c.obj)
                              (--whole-archive)
../../../../protocol/bt/controller/bgtp/standard-bs21-n1100/libbgtp.a(evt_task_gle_test_mode_fsm_tbl.c.obj)
                              (--whole-archive)
../../../../protocol/bt/controller/bgtp/standard-bs21-n1100/libbgtp.a(evt_task_gle_test_mode_isr.c.obj)
                              (--whole-archive)
../../../../protocol/bt/controller/bgtp/standard-bs21-n1100/libbgtp.a(evt_task_gle_comm.c.obj)
                              (--whole-archive)
../../../../protocol/bt/controller/bgtp/standard-bs21-n1100/libbgtp.a(evt_task_gle_adv_scan_comm.c.obj)
                              (--whole-archive)
../../../../protocol/bt/controller/bgtp/standard-bs21-n1100/libbgtp.a(evt_task_gle_afl.c.obj)
                              (--whole-archive)
../../../../protocol/bt/controller/bgtp/standard-bs21-n1100/libbgtp.a(evt_task_gle_imb.c.obj)
                              (--whole-archive)
../../../../protocol/bt/controller/bgtp/standard-bs21-n1100/libbgtp.a(evt_task_gle_imb_fsm_tbl.c.obj)
                              (--whole-archive)
../../../../protocol/bt/controller/bgtp/standard-bs21-n1100/libbgtp.a(evt_task_gle_iob_low_latency.c.obj)
                              (--whole-archive)
../../../../protocol/bt/controller/bgtp/standard-bs21-n1100/libbgtp.a(evt_task_gle_iob_low_latency_isr.c.obj)
                              (--whole-archive)
../../../../protocol/bt/controller/bgtp/standard-bs21-n1100/libbgtp.a(evt_task_gle_iob_low_latency_fsm_tbl.c.obj)
                              (--whole-archive)
../../../../protocol/bt/controller/bgtp/standard-bs21-n1100/libbgtp.a(evt_task_chnl_scan.c.obj)
                              (--whole-archive)
../../../../protocol/bt/controller/bgtp/standard-bs21-n1100/libbgtp.a(evt_task_chnl_scan_fsm_tbl.c.obj)
                              (--whole-archive)
../../../../protocol/bt/controller/bgtp/standard-bs21-n1100/libbgtp.a(coex_scan_dutycycle.c.obj)
                              (--whole-archive)
../../../../protocol/bt/controller/bgtp/standard-bs21-n1100/libbgtp.a(coex_ble_acl_process.c.obj)
                              (--whole-archive)
../../../../protocol/bt/controller/bgtp/standard-bs21-n1100/libbgtp.a(evt_sched.c.obj)
                              (--whole-archive)
../../../../protocol/bt/controller/bgtp/standard-bs21-n1100/libbgtp.a(evt_sched_ram.c.obj)
                              (--whole-archive)
../../../../protocol/bt/controller/bgtp/standard-bs21-n1100/libbgtp.a(evt_sched_util_ram.c.obj)
                              (--whole-archive)
../../../../protocol/bt/controller/bgtp/standard-bs21-n1100/libbgtp.a(evt_sched_mgr_ram.c.obj)
                              (--whole-archive)
../../../../protocol/bt/controller/bgtp/standard-bs21-n1100/libbgtp.a(evt_prog_ram.c.obj)
                              (--whole-archive)
../../../../protocol/bt/controller/bgtp/standard-bs21-n1100/libbgtp.a(L2_comm.c.obj)
                              (--whole-archive)
../../../../protocol/bt/controller/bgtp/standard-bs21-n1100/libbgtp.a(dm_co_fsm_tbl.c.obj)
                              (--whole-archive)
../../../../protocol/bt/controller/bgtp/standard-bs21-n1100/libbgtp.a(dm_co_ram.c.obj)
                              (--whole-archive)
../../../../protocol/bt/controller/bgtp/standard-bs21-n1100/libbgtp.a(dm_ble_fsm_tbl.c.obj)
                              (--whole-archive)
../../../../protocol/bt/controller/bgtp/standard-bs21-n1100/libbgtp.a(dm_ble_cs.c.obj)
                              (--whole-archive)
../../../../protocol/bt/controller/bgtp/standard-bs21-n1100/libbgtp.a(dm_ble_rpa_ram.c.obj)
                              (--whole-archive)
../../../../protocol/bt/controller/bgtp/standard-bs21-n1100/libbgtp.a(dm_ble_ram.c.obj)
                              (--whole-archive)
../../../../protocol/bt/controller/bgtp/standard-bs21-n1100/libbgtp.a(dm_gle.c.obj)
                              (--whole-archive)
../../../../protocol/bt/controller/bgtp/standard-bs21-n1100/libbgtp.a(dm_gle_fsm.c.obj)
                              (--whole-archive)
../../../../protocol/bt/controller/bgtp/standard-bs21-n1100/libbgtp.a(dm_gle_fsm_tbl.c.obj)
                              (--whole-archive)
../../../../protocol/bt/controller/bgtp/standard-bs21-n1100/libbgtp.a(dm_gle_afl.c.obj)
                              (--whole-archive)
../../../../protocol/bt/controller/bgtp/standard-bs21-n1100/libbgtp.a(dm_gle_cs.c.obj)
                              (--whole-archive)
../../../../protocol/bt/controller/bgtp/standard-bs21-n1100/libbgtp.a(lm_ble.c.obj)
                              (--whole-archive)
../../../../protocol/bt/controller/bgtp/standard-bs21-n1100/libbgtp.a(lm_ble_acl_fsm_tbl.c.obj)
                              (--whole-archive)
../../../../protocol/bt/controller/bgtp/standard-bs21-n1100/libbgtp.a(lm_ble_acl_srv_feat_fsm_tbl.c.obj)
                              (--whole-archive)
../../../../protocol/bt/controller/bgtp/standard-bs21-n1100/libbgtp.a(lm_ble_acl_srv_ver_fsm_tbl.c.obj)
                              (--whole-archive)
../../../../protocol/bt/controller/bgtp/standard-bs21-n1100/libbgtp.a(lm_ble_acl_srv_map_fsm_tbl.c.obj)
                              (--whole-archive)
../../../../protocol/bt/controller/bgtp/standard-bs21-n1100/libbgtp.a(lm_ble_acl_srv_enc_fsm_tbl.c.obj)
                              (--whole-archive)
../../../../protocol/bt/controller/bgtp/standard-bs21-n1100/libbgtp.a(lm_ble_acl_srv_conn_update_fsm_tbl.c.obj)
                              (--whole-archive)
../../../../protocol/bt/controller/bgtp/standard-bs21-n1100/libbgtp.a(lm_ble_acl_srv_conn_update_ram.c.obj)
                              (--whole-archive)
../../../../protocol/bt/controller/bgtp/standard-bs21-n1100/libbgtp.a(lm_ble_acl_srv_phy_upd_fsm_tbl.c.obj)
                              (--whole-archive)
../../../../protocol/bt/controller/bgtp/standard-bs21-n1100/libbgtp.a(lm_ble_acl_srv_uhd_upd_fsm_tbl.c.obj)
                              (--whole-archive)
../../../../protocol/bt/controller/bgtp/standard-bs21-n1100/libbgtp.a(lm_ble_acl_srv_uhd_upd.c.obj)
                              (--whole-archive)
../../../../protocol/bt/controller/bgtp/standard-bs21-n1100/libbgtp.a(lm_ble_acl_srv_pwr_ctrl_fsm_tbl.c.obj)
                              (--whole-archive)
../../../../protocol/bt/controller/bgtp/standard-bs21-n1100/libbgtp.a(lm_ble_acl_srv_pwr_ctrl.c.obj)
                              (--whole-archive)
../../../../protocol/bt/controller/bgtp/standard-bs21-n1100/libbgtp.a(lm_ble_acl_srv_data_length_fsm_tbl.c.obj)
                              (--whole-archive)
../../../../protocol/bt/controller/bgtp/standard-bs21-n1100/libbgtp.a(lm_ble_acl_srv_priv_feat_fsm_tbl.c.obj)
                              (--whole-archive)
../../../../protocol/bt/controller/bgtp/standard-bs21-n1100/libbgtp.a(lm_ble_acl_srv_priv_feat.c.obj)
                              (--whole-archive)
../../../../protocol/bt/controller/bgtp/standard-bs21-n1100/libbgtp.a(lm_ble_acl_srv_cs_fsm_tbl.c.obj)
                              (--whole-archive)
../../../../protocol/bt/controller/bgtp/standard-bs21-n1100/libbgtp.a(lm_ble_acl_srv_cs.c.obj)
                              (--whole-archive)
../../../../protocol/bt/controller/bgtp/standard-bs21-n1100/libbgtp.a(lm_ble_acl_ram.c.obj)
                              (--whole-archive)
../../../../protocol/bt/controller/bgtp/standard-bs21-n1100/libbgtp.a(lm_ble_acl_srv_ping.c.obj)
                              (--whole-archive)
../../../../protocol/bt/controller/bgtp/standard-bs21-n1100/libbgtp.a(lm_ble_acl_srv_enc_ram.c.obj)
                              (--whole-archive)
../../../../protocol/bt/controller/bgtp/standard-bs21-n1100/libbgtp.a(lm_ble_adv_fsm_tbl.c.obj)
                              (--whole-archive)
../../../../protocol/bt/controller/bgtp/standard-bs21-n1100/libbgtp.a(lm_ble_per_adv_fsm_tbl.c.obj)
                              (--whole-archive)
../../../../protocol/bt/controller/bgtp/standard-bs21-n1100/libbgtp.a(lm_ble_per_adv.c.obj)
                              (--whole-archive)
../../../../protocol/bt/controller/bgtp/standard-bs21-n1100/libbgtp.a(lm_ble_per_adv_act.c.obj)
                              (--whole-archive)
../../../../protocol/bt/controller/bgtp/standard-bs21-n1100/libbgtp.a(lm_ble_per_adv_fsm.c.obj)
                              (--whole-archive)
../../../../protocol/bt/controller/bgtp/standard-bs21-n1100/libbgtp.a(lm_ble_adv_ram.c.obj)
                              (--whole-archive)
../../../../protocol/bt/controller/bgtp/standard-bs21-n1100/libbgtp.a(lm_ble_adv_ext_act_ram.c.obj)
                              (--whole-archive)
../../../../protocol/bt/controller/bgtp/standard-bs21-n1100/libbgtp.a(lm_ble_scan_fsm_tbl.c.obj)
                              (--whole-archive)
../../../../protocol/bt/controller/bgtp/standard-bs21-n1100/libbgtp.a(lm_ble_per_sync.c.obj)
                              (--whole-archive)
../../../../protocol/bt/controller/bgtp/standard-bs21-n1100/libbgtp.a(lm_ble_per_sync_fsm.c.obj)
                              (--whole-archive)
../../../../protocol/bt/controller/bgtp/standard-bs21-n1100/libbgtp.a(lm_ble_per_sync_fsm_tbl.c.obj)
                              (--whole-archive)
../../../../protocol/bt/controller/bgtp/standard-bs21-n1100/libbgtp.a(lm_ble_per_sync_act.c.obj)
                              (--whole-archive)
../../../../protocol/bt/controller/bgtp/standard-bs21-n1100/libbgtp.a(lm_ble_scan_filter.c.obj)
                              (--whole-archive)
../../../../protocol/bt/controller/bgtp/standard-bs21-n1100/libbgtp.a(lm_ble_scan_ram.c.obj)
                              (--whole-archive)
../../../../protocol/bt/controller/bgtp/standard-bs21-n1100/libbgtp.a(lm_ble_initiate_fsm_tbl.c.obj)
                              (--whole-archive)
../../../../protocol/bt/controller/bgtp/standard-bs21-n1100/libbgtp.a(lm_ble_ext_initiate_act.c.obj)
                              (--whole-archive)
../../../../protocol/bt/controller/bgtp/standard-bs21-n1100/libbgtp.a(lm_ble_test_mode.c.obj)
                              (--whole-archive)
../../../../protocol/bt/controller/bgtp/standard-bs21-n1100/libbgtp.a(lm_ble_test_mode_fsm.c.obj)
                              (--whole-archive)
../../../../protocol/bt/controller/bgtp/standard-bs21-n1100/libbgtp.a(lm_ble_test_mode_fsm_tbl.c.obj)
                              (--whole-archive)
../../../../protocol/bt/controller/bgtp/standard-bs21-n1100/libbgtp.a(lm_ble_test_mode_act.c.obj)
                              (--whole-archive)
../../../../protocol/bt/controller/bgtp/standard-bs21-n1100/libbgtp.a(lm_ble_sniffer.c.obj)
                              (--whole-archive)
../../../../protocol/bt/controller/bgtp/standard-bs21-n1100/libbgtp.a(lm_ble_sniffer_fsm.c.obj)
                              (--whole-archive)
../../../../protocol/bt/controller/bgtp/standard-bs21-n1100/libbgtp.a(lm_ble_sniffer_fsm_tbl.c.obj)
                              (--whole-archive)
../../../../protocol/bt/controller/bgtp/standard-bs21-n1100/libbgtp.a(lm_gle_acb.c.obj)
                              (--whole-archive)
../../../../protocol/bt/controller/bgtp/standard-bs21-n1100/libbgtp.a(lm_gle_acb_fsm.c.obj)
                              (--whole-archive)
../../../../protocol/bt/controller/bgtp/standard-bs21-n1100/libbgtp.a(lm_gle_acb_fsm_tbl.c.obj)
                              (--whole-archive)
../../../../protocol/bt/controller/bgtp/standard-bs21-n1100/libbgtp.a(lm_gle_acb_disc.c.obj)
                              (--whole-archive)
../../../../protocol/bt/controller/bgtp/standard-bs21-n1100/libbgtp.a(lm_gle_acb_srv_conn_update.c.obj)
                              (--whole-archive)
../../../../protocol/bt/controller/bgtp/standard-bs21-n1100/libbgtp.a(lm_gle_acb_srv_conn_update_fsm_tbl.c.obj)
                              (--whole-archive)
../../../../protocol/bt/controller/bgtp/standard-bs21-n1100/libbgtp.a(lm_gle_acb_srv_feat.c.obj)
                              (--whole-archive)
../../../../protocol/bt/controller/bgtp/standard-bs21-n1100/libbgtp.a(lm_gle_acb_srv_feat_fsm_tbl.c.obj)
                              (--whole-archive)
../../../../protocol/bt/controller/bgtp/standard-bs21-n1100/libbgtp.a(lm_gle_acb_srv_phy_update_fsm_tbl.c.obj)
                              (--whole-archive)
../../../../protocol/bt/controller/bgtp/standard-bs21-n1100/libbgtp.a(lm_gle_acb_srv_enc_fsm_tbl.c.obj)
                              (--whole-archive)
../../../../protocol/bt/controller/bgtp/standard-bs21-n1100/libbgtp.a(lm_gle_acb_srv_map_fsm_tbl.c.obj)
                              (--whole-archive)
../../../../protocol/bt/controller/bgtp/standard-bs21-n1100/libbgtp.a(lm_gle_acb_srv_ver_fsm_tbl.c.obj)
                              (--whole-archive)
../../../../protocol/bt/controller/bgtp/standard-bs21-n1100/libbgtp.a(lm_gle_acb_srv_data_length_ram.c.obj)
                              (--whole-archive)
../../../../protocol/bt/controller/bgtp/standard-bs21-n1100/libbgtp.a(lm_gle_acb_srv_data_length_fsm_tbl.c.obj)
                              (--whole-archive)
../../../../protocol/bt/controller/bgtp/standard-bs21-n1100/libbgtp.a(lm_gle_acb_srv_pwr_ctrl.c.obj)
                              (--whole-archive)
../../../../protocol/bt/controller/bgtp/standard-bs21-n1100/libbgtp.a(lm_gle_acb_srv_pwr_ctrl_fsm_tbl.c.obj)
                              (--whole-archive)
../../../../protocol/bt/controller/bgtp/standard-bs21-n1100/libbgtp.a(lm_gle_acb_srv_imb.c.obj)
                              (--whole-archive)
../../../../protocol/bt/controller/bgtp/standard-bs21-n1100/libbgtp.a(lm_gle_acb_srv_imb_fsm_tbl.c.obj)
                              (--whole-archive)
../../../../protocol/bt/controller/bgtp/standard-bs21-n1100/libbgtp.a(lm_gle_acb_srv_set_evt_param.c.obj)
                              (--whole-archive)
../../../../protocol/bt/controller/bgtp/standard-bs21-n1100/libbgtp.a(lm_gle_acb_srv_set_low_latency.c.obj)
                              (--whole-archive)
../../../../protocol/bt/controller/bgtp/standard-bs21-n1100/libbgtp.a(lm_gle_acb_srv_map_ram.c.obj)
                              (--whole-archive)
../../../../protocol/bt/controller/bgtp/standard-bs21-n1100/libbgtp.a(lm_gle_acb_srv_cs_fsm_tbl.c.obj)
                              (--whole-archive)
../../../../protocol/bt/controller/bgtp/standard-bs21-n1100/libbgtp.a(lm_gle_acb_srv_cs.c.obj)
                              (--whole-archive)
../../../../protocol/bt/controller/bgtp/standard-bs21-n1100/libbgtp.a(lm_gle_acb_srv_priv_feat.c.obj)
                              (--whole-archive)
../../../../protocol/bt/controller/bgtp/standard-bs21-n1100/libbgtp.a(lm_gle_comm.c.obj)
                              (--whole-archive)
../../../../protocol/bt/controller/bgtp/standard-bs21-n1100/libbgtp.a(lm_gle_scan.c.obj)
                              (--whole-archive)
../../../../protocol/bt/controller/bgtp/standard-bs21-n1100/libbgtp.a(lm_gle_scan_fsm.c.obj)
                              (--whole-archive)
../../../../protocol/bt/controller/bgtp/standard-bs21-n1100/libbgtp.a(lm_gle_scan_fsm_tbl.c.obj)
                              (--whole-archive)
../../../../protocol/bt/controller/bgtp/standard-bs21-n1100/libbgtp.a(lm_gle_scan_act.c.obj)
                              (--whole-archive)
../../../../protocol/bt/controller/bgtp/standard-bs21-n1100/libbgtp.a(lm_gle_scan_filter.c.obj)
                              (--whole-archive)
../../../../protocol/bt/controller/bgtp/standard-bs21-n1100/libbgtp.a(lm_gle_initiate.c.obj)
                              (--whole-archive)
../../../../protocol/bt/controller/bgtp/standard-bs21-n1100/libbgtp.a(lm_gle_initiate_fsm.c.obj)
                              (--whole-archive)
../../../../protocol/bt/controller/bgtp/standard-bs21-n1100/libbgtp.a(lm_gle_initiate_fsm_tbl.c.obj)
                              (--whole-archive)
../../../../protocol/bt/controller/bgtp/standard-bs21-n1100/libbgtp.a(lm_gle_initiate_act.c.obj)
                              (--whole-archive)
../../../../protocol/bt/controller/bgtp/standard-bs21-n1100/libbgtp.a(lm_gle_adv_act.c.obj)
                              (--whole-archive)
../../../../protocol/bt/controller/bgtp/standard-bs21-n1100/libbgtp.a(lm_gle_adv_fsm.c.obj)
                              (--whole-archive)
../../../../protocol/bt/controller/bgtp/standard-bs21-n1100/libbgtp.a(lm_gle_adv_fsm_tbl.c.obj)
                              (--whole-archive)
../../../../protocol/bt/controller/bgtp/standard-bs21-n1100/libbgtp.a(lm_gle_adv.c.obj)
                              (--whole-archive)
../../../../protocol/bt/controller/bgtp/standard-bs21-n1100/libbgtp.a(lm_gle_iob.c.obj)
                              (--whole-archive)
../../../../protocol/bt/controller/bgtp/standard-bs21-n1100/libbgtp.a(lm_gle_iob_fsm.c.obj)
                              (--whole-archive)
../../../../protocol/bt/controller/bgtp/standard-bs21-n1100/libbgtp.a(lm_gle_iob_fsm_tbl.c.obj)
                              (--whole-archive)
../../../../protocol/bt/controller/bgtp/standard-bs21-n1100/libbgtp.a(lm_gle_iob_disc.c.obj)
                              (--whole-archive)
../../../../protocol/bt/controller/bgtp/standard-bs21-n1100/libbgtp.a(lm_gle_test_mode.c.obj)
                              (--whole-archive)
../../../../protocol/bt/controller/bgtp/standard-bs21-n1100/libbgtp.a(lm_gle_test_mode_fsm.c.obj)
                              (--whole-archive)
../../../../protocol/bt/controller/bgtp/standard-bs21-n1100/libbgtp.a(lm_gle_test_mode_fsm_tbl.c.obj)
                              (--whole-archive)
../../../../protocol/bt/controller/bgtp/standard-bs21-n1100/libbgtp.a(lm_gle_test_mode_act.c.obj)
                              (--whole-archive)
../../../../protocol/bt/controller/bgtp/standard-bs21-n1100/libbgtp.a(lm_gle_imb.c.obj)
                              (--whole-archive)
../../../../protocol/bt/controller/bgtp/standard-bs21-n1100/libbgtp.a(lm_gle_img_fsm.c.obj)
                              (--whole-archive)
../../../../protocol/bt/controller/bgtp/standard-bs21-n1100/libbgtp.a(lm_gle_img_fsm_tbl.c.obj)
                              (--whole-archive)
../../../../protocol/bt/controller/bgtp/standard-bs21-n1100/libbgtp.a(lm_gle_iob_low_latency.c.obj)
                              (--whole-archive)
../../../../protocol/bt/controller/bgtp/standard-bs21-n1100/libbgtp.a(lm_gle_iob_low_latency_fsm.c.obj)
                              (--whole-archive)
../../../../protocol/bt/controller/bgtp/standard-bs21-n1100/libbgtp.a(lm_gle_iob_low_latency_fsm_tbl.c.obj)
                              (--whole-archive)
../../../../protocol/bt/controller/bgtp/standard-bs21-n1100/libbgtp.a(lm_chnl_scan.c.obj)
                              (--whole-archive)
../../../../protocol/bt/controller/bgtp/standard-bs21-n1100/libbgtp.a(lm_chnl_scan_ble.c.obj)
                              (--whole-archive)
../../../../protocol/bt/controller/bgtp/standard-bs21-n1100/libbgtp.a(lm_chnl_scan_gle.c.obj)
                              (--whole-archive)
../../../../protocol/bt/controller/bgtp/standard-bs21-n1100/libbgtp.a(btdfx_fn.c.obj)
                              (--whole-archive)
../../../../protocol/bt/controller/bgtp/standard-bs21-n1100/libbgtp.a(btdfx.c.obj)
                              (--whole-archive)
../../../../protocol/bt/controller/bgtp/standard-bs21-n1100/libbgtp.a(coex_if.c.obj)
                              (--whole-archive)
../../../../protocol/bt/controller/bgtp/standard-bs21-n1100/libbgtp.a(coex_wl.c.obj)
                              (--whole-archive)
../../../../protocol/bt/controller/bgtp/standard-bs21-n1100/libbgtp.a(coex_adapter.c.obj)
                              (--whole-archive)
../../../../protocol/bt/controller/bgtp/standard-bs21-n1100/libbgtp.a(bgtp_sleep_sw_ram.c.obj)
                              (--whole-archive)
../../../../protocol/bt/controller/bgtp/standard-bs21-n1100/libbgtp.a(patch_evt_task_ble_acl.c.obj)
                              (--whole-archive)
../../../../protocol/bt/controller/bgtp/standard-bs21-n1100/libbgtp.a(patch_evt_task_ble_adv.c.obj)
                              (--whole-archive)
../../../../protocol/bt/controller/bgtp/standard-bs21-n1100/libbgtp.a(patch_evt_task_ble_ext_adv.c.obj)
                              (--whole-archive)
../../../../protocol/bt/controller/bgtp/standard-bs21-n1100/libbgtp.a(patch_lm_ble_adv.c.obj)
                              (--whole-archive)
../../../../protocol/bt/controller/bgtp/standard-bs21-n1100/libbgtp.a(patch_lm_ble_adv_ext_act.c.obj)
                              (--whole-archive)
../../../../protocol/bt/controller/bgtp/standard-bs21-n1100/libbgtp.a(patch_lm_ble_acl_srv_conn_update.c.obj)
                              (--whole-archive)
../../../../protocol/bt/controller/bgtp/standard-bs21-n1100/libbgtp.a(patch_lm_ble_ext_scan_act.c.obj)
                              (--whole-archive)
../../../../protocol/bt/controller/bgtp/standard-bs21-n1100/libbgtp.a(patch_lm_gle_acb_srv_enc.c.obj)
                              (--whole-archive)
../../../../protocol/bt/controller/bgtp/standard-bs21-n1100/libbgtp.a(patch_dm_ble.c.obj)
                              (--whole-archive)
../../../../protocol/bt/controller/bgtp/standard-bs21-n1100/libbgtp.a(patch_em_tx_desc.c.obj)
                              (--whole-archive)
../../../../protocol/bt/controller/bgtp/standard-bs21-n1100/libbgtp.a(patch_dts_mem.c.obj)
                              (--whole-archive)
../../../../protocol/bt/host/bg_common/standard-bs21-n1100/libbg_common.a(bt_dfx.c.obj)
                              (--whole-archive)
../../../../protocol/bt/host/bg_common/standard-bs21-n1100/libbg_common.a(common_conf.c.obj)
                              (--whole-archive)
../../../../protocol/bt/host/bg_common/standard-bs21-n1100/libbg_common.a(bg_debug.c.obj)
                              (--whole-archive)
../../../../protocol/bt/host/bg_common/standard-bs21-n1100/libbg_common.a(fsm.c.obj)
                              (--whole-archive)
../../../../protocol/bt/host/bg_common/standard-bs21-n1100/libbg_common.a(sdk_mem.c.obj)
                              (--whole-archive)
../../../../protocol/bt/host/bg_common/standard-bs21-n1100/libbg_common.a(sdk_util.c.obj)
                              (--whole-archive)
../../../../protocol/bt/host/bg_common/standard-bs21-n1100/libbg_common.a(sdk_list.c.obj)
                              (--whole-archive)
../../../../protocol/bt/host/bg_common/standard-bs21-n1100/libbg_common.a(sdk_mutex.c.obj)
                              (--whole-archive)
../../../../protocol/bt/host/bg_common/standard-bs21-n1100/libbg_common.a(hci_comm_data.c.obj)
                              (--whole-archive)
../../../../protocol/bt/host/bg_common/standard-bs21-n1100/libbg_common.a(hci_comm_link.c.obj)
                              (--whole-archive)
../../../../protocol/bt/host/bg_common/standard-bs21-n1100/libbg_common.a(smp_ecc.c.obj)
                              (--whole-archive)
../../../../protocol/bt/host/bg_common/standard-bs21-n1100/libbg_common.a(smp_ecc_reserv.c.obj)
                              (--whole-archive)
../../../../protocol/bt/host/bg_common/standard-bs21-n1100/libbg_common.a(btsrv_task.c.obj)
                              (--whole-archive)
../../../../protocol/bt/host/bg_common/standard-bs21-n1100/libbg_common.a(btsrv_uuid.c.obj)
                              (--whole-archive)
../../../../protocol/bt/host/bg_common/standard-bs21-n1100/libbg_common.a(bth_at_ble_common.c.obj)
                              (--whole-archive)
../../../../protocol/bt/host/bg_common/standard-bs21-n1100/libbg_common.a(bth_at_sle_common.c.obj)
                              (--whole-archive)
../../../../protocol/bt/host/bg_common/standard-bs21-n1100/libbg_common.a(bth_power_on.c.obj)
                              (--whole-archive)
../../../../protocol/bt/host/bg_common/standard-bs21-n1100/libbg_common.a(bt_data_config.c.obj)
                              (--whole-archive)
../../../../protocol/bt/host/bg_common/standard-bs21-n1100/libbg_common.a(bt_database.c.obj)
                              (--whole-archive)
../../../../protocol/bt/host/bg_common/standard-bs21-n1100/libbg_common.a(gle_data_config.c.obj)
                              (--whole-archive)
../../../../protocol/bt/host/bg_common/standard-bs21-n1100/libbg_common.a(gle_service_database.c.obj)
                              (--whole-archive)
../../../../protocol/bt/host/bg_common/standard-bs21-n1100/libbg_common.a(nv_common.c.obj)
                              (--whole-archive)
../../../../protocol/bt/host/bt/standard-bs21-n1100/libbt_app.a(ble_at_gap.c.obj)
                              (--whole-archive)
../../../../protocol/bt/host/bt/standard-bs21-n1100/libbt_app.a(ble_at_gattc.c.obj)
                              (--whole-archive)
../../../../protocol/bt/host/bt/standard-bs21-n1100/libbt_app.a(ble_at_gatts.c.obj)
                              (--whole-archive)
../../../../protocol/bt/host/bt/standard-bs21-n1100/libbt_app.a(ble_at.c.obj)
                              (--whole-archive)
../../../../protocol/bt/host/bt/standard-bs21-n1100/libbt_app.a(ble_at_cmd_factory.c.obj)
                              (--whole-archive)
../../../../protocol/bt/host/bt/standard-bs21-n1100/libbt_app.a(ble_at_cmd_gap_test.c.obj)
                              (--whole-archive)
../../../../protocol/bt/host/bt/standard-bs21-n1100/libbt_app.a(ble_at_cmd_gatt_test.c.obj)
                              (--whole-archive)
../../../../protocol/bt/host/bt/standard-bs21-n1100/libbt_app.a(ble_at_common.c.obj)
                              (--whole-archive)
../../../../protocol/bt/host/bt/standard-bs21-n1100/libbt_app.a(btsrv_gatt_server.c.obj)
                              (--whole-archive)
../../../../protocol/bt/host/bt/standard-bs21-n1100/libbt_app.a(btsrv_gatt_server_default_service.c.obj)
                              (--whole-archive)
../../../../protocol/bt/host/bt/standard-bs21-n1100/libbt_app.a(btsrv_gatt_client.c.obj)
                              (--whole-archive)
../../../../protocol/bt/host/bt/standard-bs21-n1100/libbt_app.a(local_device_manager_ble.c.obj)
                              (--whole-archive)
../../../../protocol/bt/host/bt/standard-bs21-n1100/libbt_app.a(connection_manager_ble.c.obj)
                              (--whole-archive)
../../../../protocol/bt/host/bt/standard-bs21-n1100/libbt_app.a(remote_device_manager_ble.c.obj)
                              (--whole-archive)
../../../../protocol/bt/host/bt/standard-bs21-n1100/libbt_app.a(local_device_manager.c.obj)
                              (--whole-archive)
../../../../protocol/bt/host/bt/standard-bs21-n1100/libbt_app.a(btsv_l2cap_chan.c.obj)
                              (--whole-archive)
../../../../protocol/bt/host/bt/standard-bs21-n1100/libbt_app.a(btsv_l2cap_chan_ota.c.obj)
                              (--whole-archive)
../../../../protocol/bt/host/bt/standard-bs21-n1100/libbt_app.a(btsrv_low_latency.c.obj)
                              (--whole-archive)
../../../../protocol/bt/host/bt/standard-bs21-n1100/libbt_app.a(btsrv_hci_factory.c.obj)
                              (--whole-archive)
../../../../protocol/bt/host/bt/standard-bs21-n1100/libbt_app.a(ble_ahia_dev_manager.c.obj)
                              (--whole-archive)
../../../../protocol/bt/host/bt/standard-bs21-n1100/libbt_app.a(ble_ahia_gap.c.obj)
                              (--whole-archive)
../../../../protocol/bt/host/bt/standard-bs21-n1100/libbt_app.a(ble_ahia_gatt.c.obj)
                              (--whole-archive)
../../../../protocol/bt/host/bt/standard-bs21-n1100/libbt_app.a(ble_ahia_l2cap.c.obj)
                              (--whole-archive)
../../../../protocol/bt/host/bt/standard-bs21-n1100/libbt_app.a(ble_ahia_hci.c.obj)
                              (--whole-archive)
../../../../protocol/bt/host/bt/standard-bs21-n1100/libbt_app.a(ble_ahia_hid.c.obj)
                              (--whole-archive)
../../../../protocol/bt/host/bt/sdk/standard-bs21-n1100/libbth_sdk.a(ble_connect.c.obj)
                              (--whole-archive)
../../../../protocol/bt/host/bt/sdk/standard-bs21-n1100/libbth_sdk.a(bt_manager.c.obj)
                              (--whole-archive)
../../../../protocol/bt/host/bt/sdk/standard-bs21-n1100/libbth_sdk.a(device_manager.c.obj)
                              (--whole-archive)
../../../../protocol/bt/host/bt/sdk/standard-bs21-n1100/libbth_sdk.a(bt_desktop.c.obj)
                              (--whole-archive)
../../../../protocol/bt/host/bt/sdk/standard-bs21-n1100/libbth_sdk.a(uapi_ble_gap.c.obj)
                              (--whole-archive)
../../../../protocol/bt/host/bt/sdk/standard-bs21-n1100/libbth_sdk.a(uapi_ble_gatt.c.obj)
                              (--whole-archive)
../../../../protocol/bt/host/bt/sdk/standard-bs21-n1100/libbth_sdk.a(uapi_ble_l2cap.c.obj)
                              (--whole-archive)
../../../../protocol/bt/host/bt/sdk/standard-bs21-n1100/libbth_sdk.a(uapi_ble_hci.c.obj)
                              (--whole-archive)
../../../../protocol/bt/host/bt/sdk/standard-bs21-n1100/libbth_sdk.a(uapi_ble_hid.c.obj)
                              (--whole-archive)
../../../../protocol/bt/host/bt/standard-bs21-n1100/libbt_host.a(stream2stru.c.obj)
                              (--whole-archive)
../../../../protocol/bt/host/bt/standard-bs21-n1100/libbt_host.a(hci_init.c.obj)
                              (--whole-archive)
../../../../protocol/bt/host/bt/standard-bs21-n1100/libbt_host.a(hci_recv_data.c.obj)
                              (--whole-archive)
../../../../protocol/bt/host/bt/standard-bs21-n1100/libbt_host.a(hci_core_ram.c.obj)
                              (--whole-archive)
../../../../protocol/bt/host/bt/standard-bs21-n1100/libbt_host.a(hci_ev_ram.c.obj)
                              (--whole-archive)
../../../../protocol/bt/host/bt/standard-bs21-n1100/libbt_host.a(hci_ev_le.c.obj)
                              (--whole-archive)
../../../../protocol/bt/host/bt/standard-bs21-n1100/libbt_host.a(hci_hlp_ram.c.obj)
                              (--whole-archive)
../../../../protocol/bt/host/bt/standard-bs21-n1100/libbt_host.a(hci_link.c.obj)
                              (--whole-archive)
../../../../protocol/bt/host/bt/standard-bs21-n1100/libbt_host.a(hci_link_le.c.obj)
                              (--whole-archive)
../../../../protocol/bt/host/bt/standard-bs21-n1100/libbt_host.a(hci_data_proc.c.obj)
                              (--whole-archive)
../../../../protocol/bt/host/bt/standard-bs21-n1100/libbt_host.a(hci_secu_ram.c.obj)
                              (--whole-archive)
../../../../protocol/bt/host/bt/standard-bs21-n1100/libbt_host.a(hci_core_reserv.c.obj)
                              (--whole-archive)
../../../../protocol/bt/host/bt/standard-bs21-n1100/libbt_host.a(hci_ui.c.obj)
                              (--whole-archive)
../../../../protocol/bt/host/bt/standard-bs21-n1100/libbt_host.a(hci_send_data.c.obj)
                              (--whole-archive)
../../../../protocol/bt/host/bt/standard-bs21-n1100/libbt_host.a(tladapter.c.obj)
                              (--whole-archive)
../../../../protocol/bt/host/bt/standard-bs21-n1100/libbt_host.a(ble_conf.c.obj)
                              (--whole-archive)
../../../../protocol/bt/host/bt/standard-bs21-n1100/libbt_host.a(btinit_reserv.c.obj)
                              (--whole-archive)
../../../../protocol/bt/host/bt/standard-bs21-n1100/libbt_host.a(rom_data.c.obj)
                              (--whole-archive)
../../../../protocol/bt/host/bt/standard-bs21-n1100/libbt_host.a(gap_reserv.c.obj)
                              (--whole-archive)
../../../../protocol/bt/host/bt/standard-bs21-n1100/libbt_host.a(gap_period_adv.c.obj)
                              (--whole-archive)
../../../../protocol/bt/host/bt/standard-bs21-n1100/libbt_host.a(att_common.c.obj)
                              (--whole-archive)
../../../../protocol/bt/host/bt/standard-bs21-n1100/libbt_host.a(l2cap_reserv.c.obj)
                              (--whole-archive)
../../../../protocol/bt/host/bt/standard-bs21-n1100/libbt_host.a(l2cap_core_ble_ram.c.obj)
                              (--whole-archive)
../../../../protocol/bt/host/bt/standard-bs21-n1100/libbt_host.a(l2cap_signal_gle.c.obj)
                              (--whole-archive)
../../../../protocol/bt/host/bt/standard-bs21-n1100/libbt_host.a(l2cap_core_ram.c.obj)
                              (--whole-archive)
../../../../protocol/bt/host/bt/standard-bs21-n1100/libbt_host.a(l2cap_gle.c.obj)
                              (--whole-archive)
../../../../protocol/bt/host/bt/standard-bs21-n1100/libbt_host.a(smp_reserv.c.obj)
                              (--whole-archive)
../../../../protocol/bt/host/bt/standard-bs21-n1100/libbt_host.a(g_sdk.c.obj)
                              (--whole-archive)
../../../../protocol/bt/host/bt/standard-bs21-n1100/libbt_host.a(sdk_hlp_conn.c.obj)
                              (--whole-archive)
../../../../protocol/bt/host/bt/standard-bs21-n1100/libbt_host.a(sdk_hlp_svc.c.obj)
                              (--whole-archive)
../../../../protocol/bt/host/bt/standard-bs21-n1100/libbt_host.a(sdk_hlp.c.obj)
                              (--whole-archive)
../../../../protocol/bt/host/bt/standard-bs21-n1100/libbt_host.a(sdk_init.c.obj)
                              (--whole-archive)
../../../../protocol/bt/host/bt/standard-bs21-n1100/libbt_host.a(sdk_att.c.obj)
                              (--whole-archive)
../../../../protocol/bt/host/bt/standard-bs21-n1100/libbt_host.a(sdk_gap_conn_management.c.obj)
                              (--whole-archive)
../../../../protocol/bt/host/bt/standard-bs21-n1100/libbt_host.a(sdk_gap_device_discovery.c.obj)
                              (--whole-archive)
../../../../protocol/bt/host/bt/standard-bs21-n1100/libbt_host.a(sdk_gap_io_security.c.obj)
                              (--whole-archive)
../../../../protocol/bt/host/bt/standard-bs21-n1100/libbt_host.a(sdk_gap_local_settings.c.obj)
                              (--whole-archive)
../../../../protocol/bt/host/bt/standard-bs21-n1100/libbt_host.a(sdk_gatt.c.obj)
                              (--whole-archive)
../../../../protocol/bt/host/bt/standard-bs21-n1100/libbt_host.a(sdk_gatt_hlp.c.obj)
                              (--whole-archive)
../../../../protocol/bt/host/bt/standard-bs21-n1100/libbt_host.a(patch_bth.c.obj)
                              (--whole-archive)
../../../../protocol/bt/host/bt/standard-bs21-n1100/libbt_host.a(sapi_ble_gap.c.obj)
                              (--whole-archive)
../../../../protocol/bt/host/bt/standard-bs21-n1100/libbt_host.a(sapi_ble_adv.c.obj)
                              (--whole-archive)
../../../../protocol/bt/host/bt/standard-bs21-n1100/libbt_host.a(sapi_ble_gatt.c.obj)
                              (--whole-archive)
../../../../protocol/bt/host/bt/standard-bs21-n1100/libbt_host.a(sapi_ble_l2cap.c.obj)
                              (--whole-archive)
../../../../protocol/bt/host/bt/standard-bs21-n1100/libbt_host.a(sapi_ble_hci.c.obj)
                              (--whole-archive)
../../../../protocol/bt/host/bt/standard-bs21-n1100/libbt_host.a(sapi_ble_hid.c.obj)
                              (--whole-archive)
../../../../protocol/bt/host/bt/standard-bs21-n1100/libbt_host.a(sapi_ble_dev_manager.c.obj)
                              (--whole-archive)
../../../../protocol/bt/host/bt/standard-bs21-n1100/libbt_host.a(osdep.c.obj)
                              (--whole-archive)
../../../../protocol/bt/host/bt/standard-bs21-n1100/libbt_host.a(strtol.c.obj)
                              (--whole-archive)
../../../../protocol/bt/host/bt/standard-bs21-n1100/libbt_host.a(ble_core.c.obj)
                              (--whole-archive)
../../../../protocol/bt/host/bt/standard-bs21-n1100/libbt_host.a(ble_general.c.obj)
                              (--whole-archive)
../../../../protocol/bt/host/bt/standard-bs21-n1100/libbt_host.a(ble_ahib_hci.c.obj)
                              (--whole-archive)
../../../../protocol/bt/host/bt/standard-bs21-n1100/libbt_host.a(ble_ahib_gap.c.obj)
                              (--whole-archive)
../../../../protocol/bt/host/bt/standard-bs21-n1100/libbt_host.a(ble_ahib_gatt.c.obj)
                              (--whole-archive)
../../../../protocol/bt/host/bt/standard-bs21-n1100/libbt_host.a(ble_ahib_l2cap.c.obj)
                              (--whole-archive)
../../../../protocol/bt/host/bt/standard-bs21-n1100/libbt_host.a(ble_ahib_hid.c.obj)
                              (--whole-archive)
../../../../protocol/bt/host/bt/standard-bs21-n1100/libbt_host.a(ble_ahib_manager.c.obj)
                              (--whole-archive)
../../../../protocol/bt/host/bt/standard-bs21-n1100/libbt_host.a(ble_hid.c.obj)
                              (--whole-archive)
../../../../protocol/bt/host/bt/standard-bs21-n1100/libbt_host.a(ble_general_hid.c.obj)
                              (--whole-archive)
../../../../protocol/bt/host/bt/standard-bs21-n1100/libbt_host.a(bt_mpc_app_spec.c.obj)
                              (--whole-archive)
../../../../protocol/bt/host/bt/standard-bs21-n1100/libbt_host.a(bt_vendor.c.obj)
                              (--whole-archive)
../../../../protocol/bt/host/bt/standard-bs21-n1100/libbt_host.a(bt_dev_init.c.obj)
                              (--whole-archive)
../../../../protocol/bt/host/bt/standard-bs21-n1100/libbt_host.a(sdk_bta_if.c.obj)
                              (--whole-archive)
../../../../protocol/bt/host/gle/standard-bs21-n1100/libbth_gle.a(gle_cm_core.c.obj)
                              (--whole-archive)
../../../../protocol/bt/host/gle/standard-bs21-n1100/libbth_gle.a(gle_cm_ui.c.obj)
                              (--whole-archive)
../../../../protocol/bt/host/gle/standard-bs21-n1100/libbth_gle.a(gle_manager_ui.c.obj)
                              (--whole-archive)
../../../../protocol/bt/host/gle/standard-bs21-n1100/libbth_gle.a(gle_manager.c.obj)
                              (--whole-archive)
../../../../protocol/bt/host/gle/standard-bs21-n1100/libbth_gle.a(gle_dm_link_ui.c.obj)
                              (--whole-archive)
../../../../protocol/bt/host/gle/standard-bs21-n1100/libbth_gle.a(gle_dm_trans_ui.c.obj)
                              (--whole-archive)
../../../../protocol/bt/host/gle/standard-bs21-n1100/libbth_gle.a(gle_dm_secu_ui.c.obj)
                              (--whole-archive)
../../../../protocol/bt/host/gle/standard-bs21-n1100/libbth_gle.a(gle_cm_config.c.obj)
                              (--whole-archive)
../../../../protocol/bt/host/gle/standard-bs21-n1100/libbth_gle.a(gle_dev_discovery_ui.c.obj)
                              (--whole-archive)
../../../../protocol/bt/host/gle/standard-bs21-n1100/libbth_gle.a(gle_dev_discovery.c.obj)
                              (--whole-archive)
../../../../protocol/bt/host/gle/standard-bs21-n1100/libbth_gle.a(gle_dev_discovery_cfm.c.obj)
                              (--whole-archive)
../../../../protocol/bt/host/gle/standard-bs21-n1100/libbth_gle.a(gle_aa_manager_ui.c.obj)
                              (--whole-archive)
../../../../protocol/bt/host/gle/standard-bs21-n1100/libbth_gle.a(gle_aa_dev_discovery_ui.c.obj)
                              (--whole-archive)
../../../../protocol/bt/host/gle/standard-bs21-n1100/libbth_gle.a(gle_aa_connect_ui.c.obj)
                              (--whole-archive)
../../../../protocol/bt/host/gle/standard-bs21-n1100/libbth_gle.a(gle_aa_trans_ui.c.obj)
                              (--whole-archive)
../../../../protocol/bt/host/gle/standard-bs21-n1100/libbth_gle.a(gle_aa_secu_ui.c.obj)
                              (--whole-archive)
../../../../protocol/bt/host/gle/standard-bs21-n1100/libbth_gle.a(gle_aa_hadm_ui.c.obj)
                              (--whole-archive)
../../../../protocol/bt/host/gle/standard-bs21-n1100/libbth_gle.a(gle_aa_glp_ui.c.obj)
                              (--whole-archive)
../../../../protocol/bt/host/gle/standard-bs21-n1100/libbth_gle.a(gle_aa_factory_ui.c.obj)
                              (--whole-archive)
../../../../protocol/bt/host/gle/standard-bs21-n1100/libbth_gle.a(gle_hci_cmd.c.obj)
                              (--whole-archive)
../../../../protocol/bt/host/gle/standard-bs21-n1100/libbth_gle.a(gle_hci_ui.c.obj)
                              (--whole-archive)
../../../../protocol/bt/host/gle/standard-bs21-n1100/libbth_gle.a(gle_hci_ev.c.obj)
                              (--whole-archive)
../../../../protocol/bt/host/gle/standard-bs21-n1100/libbth_gle.a(gle_hci_data.c.obj)
                              (--whole-archive)
../../../../protocol/bt/host/gle/standard-bs21-n1100/libbth_gle.a(gle_hci_send_data.c.obj)
                              (--whole-archive)
../../../../protocol/bt/host/gle/standard-bs21-n1100/libbth_gle.a(gle_hci_qos.c.obj)
                              (--whole-archive)
../../../../protocol/bt/host/gle/standard-bs21-n1100/libbth_gle.a(gle_tm_conn.c.obj)
                              (--whole-archive)
../../../../protocol/bt/host/gle/standard-bs21-n1100/libbth_gle.a(gle_tm_data.c.obj)
                              (--whole-archive)
../../../../protocol/bt/host/gle/standard-bs21-n1100/libbth_gle.a(gle_tm_hlp.c.obj)
                              (--whole-archive)
../../../../protocol/bt/host/gle/standard-bs21-n1100/libbth_gle.a(gle_tm_signal.c.obj)
                              (--whole-archive)
../../../../protocol/bt/host/gle/standard-bs21-n1100/libbth_gle.a(gle_tm_ui.c.obj)
                              (--whole-archive)
../../../../protocol/bt/host/gle/standard-bs21-n1100/libbth_gle.a(gle_tm_manager.c.obj)
                              (--whole-archive)
../../../../protocol/bt/host/gle/standard-bs21-n1100/libbth_gle.a(gle_sm_ui.c.obj)
                              (--whole-archive)
../../../../protocol/bt/host/gle/standard-bs21-n1100/libbth_gle.a(gle_sm_proc.c.obj)
                              (--whole-archive)
../../../../protocol/bt/host/gle/standard-bs21-n1100/libbth_gle.a(gle_sm_key.c.obj)
                              (--whole-archive)
../../../../protocol/bt/host/gle/standard-bs21-n1100/libbth_gle.a(gle_sm_cmd.c.obj)
                              (--whole-archive)
../../../../protocol/bt/host/gle/standard-bs21-n1100/libbth_gle.a(gle_sm_timer.c.obj)
                              (--whole-archive)
../../../../protocol/bt/host/gle/standard-bs21-n1100/libbth_gle.a(gle_ssap_manager_ui.c.obj)
                              (--whole-archive)
../../../../protocol/bt/host/gle/standard-bs21-n1100/libbth_gle.a(gle_ssap_manager.c.obj)
                              (--whole-archive)
../../../../protocol/bt/host/gle/standard-bs21-n1100/libbth_gle.a(gle_ssap_client_ui.c.obj)
                              (--whole-archive)
../../../../protocol/bt/host/gle/standard-bs21-n1100/libbth_gle.a(gle_ssap_client.c.obj)
                              (--whole-archive)
../../../../protocol/bt/host/gle/standard-bs21-n1100/libbth_gle.a(gle_ssap_server_ui.c.obj)
                              (--whole-archive)
../../../../protocol/bt/host/gle/standard-bs21-n1100/libbth_gle.a(gle_ssap_server.c.obj)
                              (--whole-archive)
../../../../protocol/bt/host/gle/standard-bs21-n1100/libbth_gle.a(cs_ui.c.obj)
                              (--whole-archive)
../../../../protocol/bt/host/gle/standard-bs21-n1100/libbth_gle.a(cs_pdu.c.obj)
                              (--whole-archive)
../../../../protocol/bt/host/gle/standard-bs21-n1100/libbth_gle.a(uuid.c.obj)
                              (--whole-archive)
../../../../protocol/bt/host/gle/standard-bs21-n1100/libbth_gle.a(gle_glp_core.c.obj)
                              (--whole-archive)
../../../../protocol/bt/host/gle/standard-bs21-n1100/libbth_gle.a(gle_glp_ui.c.obj)
                              (--whole-archive)
../../../../protocol/bt/host/gle/standard-bs21-n1100/libbth_gle.a(gle_factory_core.c.obj)
                              (--whole-archive)
../../../../protocol/bt/host/gle/standard-bs21-n1100/libbth_gle.a(gle_factory_ui.c.obj)
                              (--whole-archive)
../../../../protocol/bt/host/gle/standard-bs21-n1100/libbth_gle.a(sapi_gle_manager.c.obj)
                              (--whole-archive)
../../../../protocol/bt/host/gle/standard-bs21-n1100/libbth_gle.a(sapi_gle_dev_discovery.c.obj)
                              (--whole-archive)
../../../../protocol/bt/host/gle/standard-bs21-n1100/libbth_gle.a(sapi_gle_con_manager.c.obj)
                              (--whole-archive)
../../../../protocol/bt/host/gle/standard-bs21-n1100/libbth_gle.a(sapi_gle_trans_manager.c.obj)
                              (--whole-archive)
../../../../protocol/bt/host/gle/standard-bs21-n1100/libbth_gle.a(sapi_gle_secu_manager.c.obj)
                              (--whole-archive)
../../../../protocol/bt/host/gle/standard-bs21-n1100/libbth_gle.a(sapi_gle_ssap_client.c.obj)
                              (--whole-archive)
../../../../protocol/bt/host/gle/standard-bs21-n1100/libbth_gle.a(sapi_gle_ssap_server.c.obj)
                              (--whole-archive)
../../../../protocol/bt/host/gle/standard-bs21-n1100/libbth_gle.a(sapi_gle_dfx.c.obj)
                              (--whole-archive)
../../../../protocol/bt/host/gle/standard-bs21-n1100/libbth_gle.a(sle_at_common.c.obj)
                              (--whole-archive)
../../../../protocol/bt/host/gle/standard-bs21-n1100/libbth_gle.a(sle_at_dd.c.obj)
                              (--whole-archive)
../../../../protocol/bt/host/gle/standard-bs21-n1100/libbth_gle.a(sle_at_cm.c.obj)
                              (--whole-archive)
../../../../protocol/bt/host/gle/standard-bs21-n1100/libbth_gle.a(sle_at_sm.c.obj)
                              (--whole-archive)
../../../../protocol/bt/host/gle/standard-bs21-n1100/libbth_gle.a(sle_at_ssapc.c.obj)
                              (--whole-archive)
../../../../protocol/bt/host/gle/standard-bs21-n1100/libbth_gle.a(sle_at_ssaps.c.obj)
                              (--whole-archive)
../../../../protocol/bt/host/gle/standard-bs21-n1100/libbth_gle.a(sle_at_service_low_latency.c.obj)
                              (--whole-archive)
../../../../protocol/bt/host/gle/standard-bs21-n1100/libbth_gle.a(sle_at.c.obj)
                              (--whole-archive)
../../../../protocol/bt/host/gle/standard-bs21-n1100/libbth_gle.a(sle_at_cmd_factory_test.c.obj)
                              (--whole-archive)
../../../../protocol/bt/host/gle/standard-bs21-n1100/libbth_gle.a(sle_at_cmd_ssap_server_test.c.obj)
                              (--whole-archive)
../../../../protocol/bt/host/gle/standard-bs21-n1100/libbth_gle.a(sle_at_cmd_dd_test.c.obj)
                              (--whole-archive)
../../../../protocol/bt/host/gle/standard-bs21-n1100/libbth_gle.a(sle_at_cmd_connection_test.c.obj)
                              (--whole-archive)
../../../../protocol/bt/host/gle/standard-bs21-n1100/libbth_gle.a(gle_sample_dev_discovery.c.obj)
                              (--whole-archive)
../../../../protocol/bt/host/gle/standard-bs21-n1100/libbth_gle.a(gle_sample_con_manager.c.obj)
                              (--whole-archive)
../../../../protocol/bt/host/gle/standard-bs21-n1100/libbth_gle.a(gle_sample_secu_manager.c.obj)
                              (--whole-archive)
../../../../protocol/bt/host/gle/standard-bs21-n1100/libbth_gle.a(gle_sample_ssap_client.c.obj)
                              (--whole-archive)
../../../../protocol/bt/host/gle/standard-bs21-n1100/libbth_gle.a(gle_sample_ssap_server.c.obj)
                              (--whole-archive)
../../../../protocol/bt/host/gle/standard-bs21-n1100/libbth_gle.a(gle_sample_low_latency_dongle.c.obj)
                              (--whole-archive)
../../../../protocol/bt/host/gle/standard-bs21-n1100/libbth_gle.a(gle_sample_low_latency_mouse.c.obj)
                              (--whole-archive)
../../../../protocol/bt/host/gle/standard-bs21-n1100/libbth_gle.a(uapi_gle_manager.c.obj)
                              (--whole-archive)
../../../../protocol/bt/host/gle/standard-bs21-n1100/libbth_gle.a(uapi_gle_dev_discovery.c.obj)
                              (--whole-archive)
../../../../protocol/bt/host/gle/standard-bs21-n1100/libbth_gle.a(uapi_gle_con_manager.c.obj)
                              (--whole-archive)
../../../../protocol/bt/host/gle/standard-bs21-n1100/libbth_gle.a(uapi_gle_trans_manager.c.obj)
                              (--whole-archive)
../../../../protocol/bt/host/gle/standard-bs21-n1100/libbth_gle.a(uapi_gle_secu_manager.c.obj)
                              (--whole-archive)
../../../../protocol/bt/host/gle/standard-bs21-n1100/libbth_gle.a(uapi_gle_ssap_server.c.obj)
                              (--whole-archive)
../../../../protocol/bt/host/gle/standard-bs21-n1100/libbth_gle.a(uapi_gle_ssap_client.c.obj)
                              (--whole-archive)
../../../../protocol/bt/host/gle/standard-bs21-n1100/libbth_gle.a(uapi_gle_dfx.c.obj)
                              (--whole-archive)
../../../../protocol/bt/host/gle/standard-bs21-n1100/libbth_gle.a(oh_sle_srv_cm.c.obj)
                              (--whole-archive)
../../../../protocol/bt/host/gle/standard-bs21-n1100/libbth_gle.a(oh_sle_srv_dd.c.obj)
                              (--whole-archive)
../../../../protocol/bt/host/gle/standard-bs21-n1100/libbth_gle.a(oh_sle_srv_ssap_client.c.obj)
                              (--whole-archive)
../../../../protocol/bt/host/gle/standard-bs21-n1100/libbth_gle.a(oh_sle_srv_ssap_server.c.obj)
                              (--whole-archive)
../../../../protocol/bt/host/gle/standard-bs21-n1100/libbth_gle.a(sle_srv_cm.c.obj)
                              (--whole-archive)
../../../../protocol/bt/host/gle/standard-bs21-n1100/libbth_gle.a(sle_srv_dd.c.obj)
                              (--whole-archive)
../../../../protocol/bt/host/gle/standard-bs21-n1100/libbth_gle.a(sle_srv_sm.c.obj)
                              (--whole-archive)
../../../../protocol/bt/host/gle/standard-bs21-n1100/libbth_gle.a(sle_srv_ssap_server.c.obj)
                              (--whole-archive)
../../../../protocol/bt/host/gle/standard-bs21-n1100/libbth_gle.a(sle_srv_ssap_server_cb.c.obj)
                              (--whole-archive)
../../../../protocol/bt/host/gle/standard-bs21-n1100/libbth_gle.a(sle_srv_ssap_client.c.obj)
                              (--whole-archive)
../../../../protocol/bt/host/gle/standard-bs21-n1100/libbth_gle.a(sle_srv_glp.c.obj)
                              (--whole-archive)
../../../../protocol/bt/host/gle/standard-bs21-n1100/libbth_gle.a(sle_srv_rf.c.obj)
                              (--whole-archive)
../../../../protocol/bt/host/gle/standard-bs21-n1100/libbth_gle.a(sle_srv_tm.c.obj)
                              (--whole-archive)
../../../../protocol/bt/host/gle/standard-bs21-n1100/libbth_gle.a(gle_ssap_low_latency.c.obj)
                              (--whole-archive)
../../../../protocol/bt/host/gle/standard-bs21-n1100/libbth_gle.a(sle_srv_dfx.c.obj)
                              (--whole-archive)
../../../../protocol/bt/host/gle/standard-bs21-n1100/libbth_gle.a(sle_srv_ota.c.obj)
                              (--whole-archive)
../../../../protocol/bt/host/gle/standard-bs21-n1100/libbth_gle.a(gle_low_latency_mouse.c.obj)
                              (--whole-archive)
../../../../protocol/bt/host/gle/standard-bs21-n1100/libbth_gle.a(gle_low_latency_dongle.c.obj)
                              (--whole-archive)
../../../../protocol/bt/host/gle/standard-bs21-n1100/libbth_gle.a(gle_low_latency_tx.c.obj)
                              (--whole-archive)
../../../../protocol/bt/host/gle/standard-bs21-n1100/libbth_gle.a(gle_low_latency_rx.c.obj)
                              (--whole-archive)
../../../../protocol/bt/host/gle/standard-bs21-n1100/libbth_gle.a(gle_low_latency.c.obj)
                              (--whole-archive)
../../../../protocol/nfc/controller/standard-bs21-n1100/libnfc_controller.a(nfc_mac_reg.c.obj)
                              (--whole-archive)
../../../../protocol/nfc/controller/standard-bs21-n1100/libnfc_controller.a(nfc_phy_reg.c.obj)
                              (--whole-archive)
../../../../protocol/nfc/controller/standard-bs21-n1100/libnfc_controller.a(nfc_rf.c.obj)
                              (--whole-archive)
../../../../protocol/nfc/controller/standard-bs21-n1100/libnfc_controller.a(nfc_rf_ioctl.c.obj)
                              (--whole-archive)
../../../../protocol/nfc/controller/standard-bs21-n1100/libnfc_controller.a(nfc_rf_isr.c.obj)
                              (--whole-archive)
../../../../protocol/nfc/controller/standard-bs21-n1100/libnfc_controller.a(nfc_t2t_controller.c.obj)
                              (--whole-archive)
../../../../protocol/nfc/controller/standard-bs21-n1100/libnfc_controller.a(nfc_t2t_feature.c.obj)
                              (--whole-archive)
../../../../protocol/nfc/controller/standard-bs21-n1100/libnfc_controller.a(nfc_tag_test.c.obj)
                              (--whole-archive)
../../../../protocol/nfc/controller/standard-bs21-n1100/libnfc_controller.a(nfc_rf_driver.c.obj)
                              (--whole-archive)
../../../../protocol/nfc/controller/standard-bs21-n1100/libnfc_controller.a(nfc_test_cmd.c.obj)
                              (--whole-archive)
../../../../protocol/nfc/controller/standard-bs21-n1100/libnfc_controller.a(nfc_plat.c.obj)
                              (--whole-archive)
../../../../test/common/testsuite/libtestsuite.a(test_suite.c.obj)
                              (--whole-archive)
../../../../test/common/testsuite/libtestsuite.a(test_suite_channel.c.obj)
                              (--whole-archive)
../../../../test/common/testsuite/libtestsuite.a(test_suite_commands_processor.c.obj)
                              (--whole-archive)
../../../../test/common/testsuite/libtestsuite.a(test_suite_console.c.obj)
                              (--whole-archive)
../../../../test/common/testsuite/libtestsuite.a(test_suite_functions_processor.c.obj)
                              (--whole-archive)
../../../../test/common/testsuite/libtestsuite.a(test_suite_ipc.c.obj)
                              (--whole-archive)
../../../../test/common/testsuite/libtestsuite.a(test_suite_log.c.obj)
                              (--whole-archive)
../../../../test/common/testsuite/libtestsuite.a(test_suite_task.c.obj)
                              (--whole-archive)
../../../../test/common/testsuite/libtestsuite.a(test_suite_uart.c.obj)
                              (--whole-archive)
../../../../test/common/testsuite/libtestsuite.a(test_auxiliary.c.obj)
                              (--whole-archive)
../../../../test/common/testsuite/libtestsuite.a(audio_lieyin.c.obj)
                              (--whole-archive)
../../../../test/common/testsuite/libtestsuite.a(audio_crc16.c.obj)
                              (--whole-archive)
../../../../test/platform/testsuite/test_pdm/libtest_pdm.a(test_pdm.c.obj)
                              (--whole-archive)
../../../../vendor/segger/riscv31/b090/fp/libsegger.a(intasmops_rv.o)
                              (--whole-archive)
../../../../vendor/segger/riscv31/b090/fp/libsegger.a(floatasmops_rv.o)
                              (--whole-archive)
../../../../vendor/segger/riscv31/b090/fp/libsegger.a(floatsidf.o)
                              (--whole-archive)
../../../../vendor/segger/riscv31/b090/fp/libsegger.a(floatops.o)
                              (--whole-archive)
../../../../vendor/segger/riscv31/b090/fp/libsegger.a(segger_version.o)
                              (--whole-archive)
../../../../vendor/segger/riscv31/b090/fp/libsegger.a(intops_rv.o)
                              (--whole-archive)
../../../../build/cmake/open_source/libgmssl_hmac_sm3.a(sm3.c.obj)
                              (--whole-archive)
../../../../build/cmake/open_source/libgmssl_hmac_sm3.a(sm3_hmac.c.obj)
                              (--whole-archive)
c:/users/lmj-m/downloads/bearpi/bearpi-h2821_pico/tools/bin/compiler/riscv/cc_riscv32_musl_b010/cc_riscv32_musl_fp_win/bin/../lib/gcc/riscv32-linux-musl/7.3.0\libgcc.a(_ctzsi2.o)
                              ../../../../kernel/liteos/liteos_v208.6.0_b017/standard-bs21-n1100/libbase.a(los_bitmap.c.obj) (__ctzsi2)
c:/users/lmj-m/downloads/bearpi/bearpi-h2821_pico/tools/bin/compiler/riscv/cc_riscv32_musl_b010/cc_riscv32_musl_fp_win/bin/../lib/gcc/riscv32-linux-musl/7.3.0\libgcc.a(_clz.o)
                              c:/users/lmj-m/downloads/bearpi/bearpi-h2821_pico/tools/bin/compiler/riscv/cc_riscv32_musl_b010/cc_riscv32_musl_fp_win/bin/../lib/gcc/riscv32-linux-musl/7.3.0\libgcc.a(_ctzsi2.o) (__clz_tab)
../../../../kernel/liteos/liteos_v208.6.0_b017/standard-bs21-n1100/libm.a(fabsf.c.obj)
                              ../../../../vendor/segger/riscv31/b090/fp/libsegger.a(floatops.o) (fabsf)
../../../../kernel/liteos/liteos_v208.6.0_b017/standard-bs21-n1100/libm.a(sqrtf.c.obj)
                              ../../../../vendor/segger/riscv31/b090/fp/libsegger.a(floatops.o) (sqrtf)
../../../../kernel/liteos/liteos_v208.6.0_b017/standard-bs21-n1100/libm.a(__math_invalidf.c.obj)
                              ../../../../kernel/liteos/liteos_v208.6.0_b017/standard-bs21-n1100/libm.a(sqrtf.c.obj) (__math_invalidf)
../../../../kernel/liteos/liteos_v208.6.0_b017/standard-bs21-n1100/libm.a(sqrt_data.c.obj)
                              ../../../../kernel/liteos/liteos_v208.6.0_b017/standard-bs21-n1100/libm.a(sqrtf.c.obj) (__rsqrt_tab)
../../../../kernel/liteos/liteos_v208.6.0_b017/standard-bs21-n1100/libc.a(tolower.c.obj)
                              ../../../../drivers/chips/bs2x/rom/rom_info/standard-bs21-n1100/librom_callback.a(rom_callback.S.obj) (tolower)
../../../../kernel/liteos/liteos_v208.6.0_b017/standard-bs21-n1100/libc.a(rand.c.obj)
                              ../../../../kernel/liteos/liteos_v208.6.0_b017/standard-bs21-n1100/libriscv.a(canary.c.obj) (srand)
../../../../kernel/liteos/liteos_v208.6.0_b017/standard-bs21-n1100/libc.a(abs.c.obj)
                              ../../../../protocol/bt/controller/bgtp/standard-bs21-n1100/libbgtp.a(bt_customize.c.obj) (abs)
../../../../kernel/liteos/liteos_v208.6.0_b017/standard-bs21-n1100/libc.a(atoi.c.obj)
                              ../../../../drivers/chips/bs2x/rom/rom_info/standard-bs21-n1100/librom_callback.a(rom_callback.S.obj) (atoi)
../../../../kernel/liteos/liteos_v208.6.0_b017/standard-bs21-n1100/libc.a(strtol.c.obj)
                              ../../../../middleware/utils/at/at/libat.a(at_parse.c.obj) (strtoull)
../../../../kernel/liteos/liteos_v208.6.0_b017/standard-bs21-n1100/libc.a(memchr.c.obj)
                              ../../../../kernel/osal/libosal.a(osal_string.c.obj) (memchr)
../../../../kernel/liteos/liteos_v208.6.0_b017/standard-bs21-n1100/libc.a(memcmp.c.obj)
                              ../../../../drivers/chips/bs2x/rom/rom_info/standard-bs21-n1100/librom_callback.a(rom_callback.S.obj) (memcmp)
../../../../kernel/liteos/liteos_v208.6.0_b017/standard-bs21-n1100/libc.a(memmove.c.obj)
                              ../../../../drivers/chips/bs2x/rom/rom_info/standard-bs21-n1100/librom_callback.a(rom_callback.S.obj) (memmove)
../../../../kernel/liteos/liteos_v208.6.0_b017/standard-bs21-n1100/libc.a(strcasecmp.c.obj)
                              ../../../../kernel/osal/libosal.a(osal_string.c.obj) (strcasecmp)
../../../../kernel/liteos/liteos_v208.6.0_b017/standard-bs21-n1100/libc.a(strchr.c.obj)
                              ../../../../kernel/osal/libosal.a(osal_string.c.obj) (strchr)
../../../../kernel/liteos/liteos_v208.6.0_b017/standard-bs21-n1100/libc.a(strchrnul.c.obj)
                              ../../../../kernel/liteos/liteos_v208.6.0_b017/standard-bs21-n1100/libc.a(strchr.c.obj) (__strchrnul)
../../../../kernel/liteos/liteos_v208.6.0_b017/standard-bs21-n1100/libc.a(strcspn.c.obj)
                              ../../../../kernel/osal/libosal.a(osal_string.c.obj) (strcspn)
../../../../kernel/liteos/liteos_v208.6.0_b017/standard-bs21-n1100/libc.a(strlen.c.obj)
                              ../../../../drivers/chips/bs2x/rom/rom_info/standard-bs21-n1100/librom_callback.a(rom_callback.S.obj) (strlen)
../../../../kernel/liteos/liteos_v208.6.0_b017/standard-bs21-n1100/libc.a(strncasecmp.c.obj)
                              ../../../../kernel/osal/libosal.a(osal_string.c.obj) (strncasecmp)
../../../../kernel/liteos/liteos_v208.6.0_b017/standard-bs21-n1100/libc.a(strncmp.c.obj)
                              ../../../../kernel/liteos/liteos_v208.6.0_b017/standard-bs21-n1100/libtargets.a(msg_chl.c.obj) (strncmp)
../../../../kernel/liteos/liteos_v208.6.0_b017/standard-bs21-n1100/libc.a(strnlen.c.obj)
                              ../../../../kernel/osal/libosal.a(osal_string.c.obj) (strnlen)
../../../../kernel/liteos/liteos_v208.6.0_b017/standard-bs21-n1100/libc.a(strpbrk.c.obj)
                              ../../../../kernel/osal/libosal.a(osal_string.c.obj) (strpbrk)
../../../../kernel/liteos/liteos_v208.6.0_b017/standard-bs21-n1100/libc.a(strrchr.c.obj)
                              ../../../../kernel/osal/libosal.a(osal_string.c.obj) (strrchr)
../../../../kernel/liteos/liteos_v208.6.0_b017/standard-bs21-n1100/libc.a(strsep.c.obj)
                              ../../../../kernel/osal/libosal.a(osal_string.c.obj) (strsep)
../../../../kernel/liteos/liteos_v208.6.0_b017/standard-bs21-n1100/libc.a(strspn.c.obj)
                              ../../../../kernel/osal/libosal.a(osal_string.c.obj) (strspn)
../../../../kernel/liteos/liteos_v208.6.0_b017/standard-bs21-n1100/libc.a(strstr.c.obj)
                              application/samples/libsamples.a(sle_uart_client.c.obj) (strstr)
../../../../kernel/liteos/liteos_v208.6.0_b017/standard-bs21-n1100/libc.a(cstdlib.c.obj)
                              ../../../../drivers/drivers/driver/usb_unified/standard-bs21-n1100/libusb_unified.a(dwc_otg_pcd.c.obj) (free)
../../../../kernel/liteos/liteos_v208.6.0_b017/standard-bs21-n1100/libc.a(memalign.c.obj)
                              ../../../../drivers/drivers/driver/usb_unified/standard-bs21-n1100/libusb_unified.a(dwc_otg_pcd.c.obj) (memalign)
../../../../kernel/liteos/liteos_v208.6.0_b017/standard-bs21-n1100/libc.a(zalloc.c.obj)
                              ../../../../drivers/drivers/driver/usb_unified/standard-bs21-n1100/libusb_unified.a(udc.c.obj) (zalloc)
../../../../kernel/liteos/liteos_v208.6.0_b017/standard-bs21-n1100/libc.a(localtime_r.c.obj)
                              ../../../../middleware/chips/bs2x/dfx/libdfx_porting.a(dfx_channel.c.obj) (localtime_r)
../../../../kernel/liteos/liteos_v208.6.0_b017/standard-bs21-n1100/libc.a(mktime.c.obj)
                              ../../../../kernel/liteos/liteos_v208.6.0_b017/standard-bs21-n1100/libc.a(localtime_r.c.obj) (g_tzdstLock)
../../../../kernel/liteos/liteos_v208.6.0_b017/standard-bs21-n1100/libc.a(time.c.obj)
                              ../../../../middleware/utils/dfx/libdfx_diag.a(diag_cmd_trace_info.c.obj) (clock_settime)
../../../../kernel/liteos/liteos_v208.6.0_b017/standard-bs21-n1100/libc.a(tzdst.c.obj)
                              ../../../../kernel/liteos/liteos_v208.6.0_b017/standard-bs21-n1100/libc.a(localtime_r.c.obj) (DstForwardSecondGet)
../../../../kernel/liteos/liteos_v208.6.0_b017/standard-bs21-n1100/libc.a(intscan.c.obj)
                              ../../../../kernel/liteos/liteos_v208.6.0_b017/standard-bs21-n1100/libc.a(strtol.c.obj) (__intscan)
../../../../kernel/liteos/liteos_v208.6.0_b017/standard-bs21-n1100/libc.a(shgetc.c.obj)
                              ../../../../kernel/liteos/liteos_v208.6.0_b017/standard-bs21-n1100/libc.a(strtol.c.obj) (__shlim)
../../../../kernel/liteos/liteos_v208.6.0_b017/standard-bs21-n1100/libc.a(__uflow.c.obj)
                              ../../../../kernel/liteos/liteos_v208.6.0_b017/standard-bs21-n1100/libc.a(shgetc.c.obj) (__uflow)
../../../../kernel/liteos/liteos_v208.6.0_b017/standard-bs21-n1100/libc.a(memrchr.c.obj)
                              ../../../../kernel/liteos/liteos_v208.6.0_b017/standard-bs21-n1100/libc.a(strrchr.c.obj) (__memrchr)
../../../../kernel/liteos/liteos_v208.6.0_b017/standard-bs21-n1100/libc.a(__secs_to_tm.c.obj)
                              ../../../../kernel/liteos/liteos_v208.6.0_b017/standard-bs21-n1100/libc.a(localtime_r.c.obj) (__secs_to_tm)
../../../../kernel/liteos/liteos_v208.6.0_b017/standard-bs21-n1100/libc.a(__tm_to_secs.c.obj)
                              ../../../../kernel/liteos/liteos_v208.6.0_b017/standard-bs21-n1100/libc.a(mktime.c.obj) (__tm_to_secs)
../../../../kernel/liteos/liteos_v208.6.0_b017/standard-bs21-n1100/libc.a(__year_to_secs.c.obj)
                              ../../../../kernel/liteos/liteos_v208.6.0_b017/standard-bs21-n1100/libc.a(__tm_to_secs.c.obj) (__year_to_secs)
../../../../kernel/liteos/liteos_v208.6.0_b017/standard-bs21-n1100/libc.a(errno.c.obj)
                              ../../../../kernel/liteos/liteos_v208.6.0_b017/standard-bs21-n1100/libc.a(localtime_r.c.obj) (__errno_location)
../../../../kernel/liteos/liteos_v208.6.0_b017/standard-bs21-n1100/libc.a(lock.c.obj)
                              ../../../../kernel/liteos/liteos_v208.6.0_b017/standard-bs21-n1100/libc.a(localtime_r.c.obj) (LibcLock)
../../../../kernel/liteos/liteos_v208.6.0_b017/standard-bs21-n1100/libc.a(time64.c.obj)
                              ../../../../kernel/liteos/liteos_v208.6.0_b017/standard-bs21-n1100/libc.a(tzdst.c.obj) (mktime64)
../../../../kernel/liteos/liteos_v208.6.0_b017/standard-bs21-n1100/libc.a(__toread.c.obj)
                              ../../../../kernel/liteos/liteos_v208.6.0_b017/standard-bs21-n1100/libc.a(__uflow.c.obj) (__toread)
../../../../kernel/liteos/liteos_v208.6.0_b017/standard-bs21-n1100/libc.a(__month_to_secs.c.obj)
                              ../../../../kernel/liteos/liteos_v208.6.0_b017/standard-bs21-n1100/libc.a(__tm_to_secs.c.obj) (__month_to_secs)
../../../../kernel/liteos/liteos_v208.6.0_b017/standard-bs21-n1100/libc.a(asctime_r.c.obj)
                              ../../../../kernel/liteos/liteos_v208.6.0_b017/standard-bs21-n1100/libc.a(time64.c.obj) (asctime_r)
../../../../kernel/liteos/liteos_v208.6.0_b017/standard-bs21-n1100/libc.a(c_locale.c.obj)
                              ../../../../kernel/liteos/liteos_v208.6.0_b017/standard-bs21-n1100/libc.a(asctime_r.c.obj) (__c_locale)
../../../../kernel/liteos/liteos_v208.6.0_b017/standard-bs21-n1100/libc.a(langinfo.c.obj)
                              ../../../../kernel/liteos/liteos_v208.6.0_b017/standard-bs21-n1100/libc.a(asctime_r.c.obj) (__nl_langinfo_l)
../../../../kernel/liteos/liteos_v208.6.0_b017/standard-bs21-n1100/libc.a(snprintf.c.obj)
                              ../../../../kernel/liteos/liteos_v208.6.0_b017/standard-bs21-n1100/libc.a(asctime_r.c.obj) (snprintf)
../../../../kernel/liteos/liteos_v208.6.0_b017/standard-bs21-n1100/libc.a(vsnprintf.c.obj)
                              ../../../../kernel/liteos/liteos_v208.6.0_b017/standard-bs21-n1100/libc.a(snprintf.c.obj) (vsnprintf)
../../../../kernel/liteos/liteos_v208.6.0_b017/standard-bs21-n1100/libc.a(libc_init.c.obj)
                              ../../../../kernel/liteos/liteos_v208.6.0_b017/standard-bs21-n1100/libc.a(langinfo.c.obj) (g_locale)
../../../../kernel/liteos/liteos_v208.6.0_b017/standard-bs21-n1100/libc.a(__lctrans.c.obj)
                              ../../../../kernel/liteos/liteos_v208.6.0_b017/standard-bs21-n1100/libc.a(langinfo.c.obj) (__lctrans)
../../../../kernel/liteos/liteos_v208.6.0_b017/standard-bs21-n1100/libc.a(vfprintf.c.obj)
                              ../../../../kernel/liteos/liteos_v208.6.0_b017/standard-bs21-n1100/libc.a(vsnprintf.c.obj) (vfprintf_unlocked)
../../../../kernel/liteos/liteos_v208.6.0_b017/standard-bs21-n1100/libc.a(strerror.c.obj)
                              ../../../../kernel/liteos/liteos_v208.6.0_b017/standard-bs21-n1100/libc.a(vfprintf.c.obj) (strerror)
../../../../kernel/liteos/liteos_v208.6.0_b017/standard-bs21-n1100/libc.a(wctomb.c.obj)
                              ../../../../kernel/liteos/liteos_v208.6.0_b017/standard-bs21-n1100/libc.a(vfprintf.c.obj) (wctomb)
../../../../kernel/liteos/liteos_v208.6.0_b017/standard-bs21-n1100/libc.a(__towrite.c.obj)
                              ../../../../kernel/liteos/liteos_v208.6.0_b017/standard-bs21-n1100/libc.a(vfprintf.c.obj) (__towrite)
../../../../kernel/liteos/liteos_v208.6.0_b017/standard-bs21-n1100/libc.a(fwrite.c.obj)
                              ../../../../kernel/liteos/liteos_v208.6.0_b017/standard-bs21-n1100/libc.a(vfprintf.c.obj) (__fwritex)
../../../../kernel/liteos/liteos_v208.6.0_b017/standard-bs21-n1100/libc.a(wcrtomb.c.obj)
                              ../../../../kernel/liteos/liteos_v208.6.0_b017/standard-bs21-n1100/libc.a(wctomb.c.obj) (wcrtomb)
c:/users/lmj-m/downloads/bearpi/bearpi-h2821_pico/tools/bin/compiler/riscv/cc_riscv32_musl_b010/cc_riscv32_musl_fp_win/bin/../lib/gcc/riscv32-linux-musl/7.3.0\libgcc.a(addtf3.o)
                              ../../../../kernel/liteos/liteos_v208.6.0_b017/standard-bs21-n1100/libc.a(vfprintf.c.obj) (__addtf3)
c:/users/lmj-m/downloads/bearpi/bearpi-h2821_pico/tools/bin/compiler/riscv/cc_riscv32_musl_b010/cc_riscv32_musl_fp_win/bin/../lib/gcc/riscv32-linux-musl/7.3.0\libgcc.a(extenddftf2.o)
                              ../../../../kernel/liteos/liteos_v208.6.0_b017/standard-bs21-n1100/libc.a(vfprintf.c.obj) (__extenddftf2)
c:/users/lmj-m/downloads/bearpi/bearpi-h2821_pico/tools/bin/compiler/riscv/cc_riscv32_musl_b010/cc_riscv32_musl_fp_win/bin/../lib/gcc/riscv32-linux-musl/7.3.0\libgcc.a(trunctfdf2.o)
                              ../../../../kernel/liteos/liteos_v208.6.0_b017/standard-bs21-n1100/libc.a(vfprintf.c.obj) (__trunctfdf2)
../../../../kernel/liteos/liteos_v208.6.0_b017/standard-bs21-n1100/libm.a(frexpl.c.obj)
                              ../../../../kernel/liteos/liteos_v208.6.0_b017/standard-bs21-n1100/libc.a(vfprintf.c.obj) (frexpl)

Discarded input sections

 .text          0x0000000000000000        0x0 CMakeFiles/application.dir/temp/__null___.c.obj
 .data          0x0000000000000000        0x0 CMakeFiles/application.dir/temp/__null___.c.obj
 .bss           0x0000000000000000        0x0 CMakeFiles/application.dir/temp/__null___.c.obj
 .text.__null___
                0x0000000000000000        0x4 CMakeFiles/application.dir/temp/__null___.c.obj
 .debug_info    0x0000000000000000       0x42 CMakeFiles/application.dir/temp/__null___.c.obj
 .debug_abbrev  0x0000000000000000       0x39 CMakeFiles/application.dir/temp/__null___.c.obj
 .debug_aranges
                0x0000000000000000       0x20 CMakeFiles/application.dir/temp/__null___.c.obj
 .debug_ranges  0x0000000000000000       0x10 CMakeFiles/application.dir/temp/__null___.c.obj
 .debug_line    0x0000000000000000       0x45 CMakeFiles/application.dir/temp/__null___.c.obj
 .debug_str     0x0000000000000000      0x32e CMakeFiles/application.dir/temp/__null___.c.obj
 .comment       0x0000000000000000       0x29 CMakeFiles/application.dir/temp/__null___.c.obj
 .debug_frame   0x0000000000000000       0x20 CMakeFiles/application.dir/temp/__null___.c.obj
 .riscv.attributes
                0x0000000000000000       0x32 CMakeFiles/application.dir/temp/__null___.c.obj
 .text          0x0000000000000000        0x0 application/samples/libsamples.a(sle_uart_client.c.obj)
 .data          0x0000000000000000        0x0 application/samples/libsamples.a(sle_uart_client.c.obj)
Memory Configuration

Name             Origin             Length             Attributes
ROM              0x0000000000015400 0x000000000002ac00
ITCM             0x0000000000040000 0x0000000000014000
DTCM             0x0000000020000000 0x000000000000ff00
PRESERVE         0x000000002000ff00 0x0000000000000100
FLASH_STARTUP    0x0000000090115300 0x0000000000000300
FLASH_PROGRAM    0x0000000090115600 0x0000000000068a00
CPUTRACE_RAM     0x0000000052006000 0x00000000000003fc
*default*        0x0000000000000000 0xffffffffffffffff

Linker script and memory map

LOAD C:\Users\lmj-m\Downloads\bearpi\bearpi-h2821_pico/drivers/chips/bs2x/rom/rom_info/acore/acore.sym
                0x0000000000015400                bg_pmu_get_state = 0x15400
                0x000000000001540a                bg_pmu_change_state = 0x1540a
                0x0000000000015454                bg_pmu_set_state = 0x15454
                0x000000000001545e                bgtp_prevent_sleep_clear = 0x1545e
                0x000000000001547e                bgtp_sleep_boundary_check = 0x1547e
                0x0000000000015498                bgtp_sleep_type_check = 0x15498
                0x00000000000154bc                bgtp_sleep_hardware_status_clear_rom_used = 0x154bc
                0x00000000000154d0                bgtp_sleep_time_lpcycles_2_us = 0x154d0
                0x0000000000015526                bgtp_sleep_time_slot_2_us = 0x15526
                0x0000000000015530                bgtp_sleep_time_us_2_lpcycles = 0x15530
                0x0000000000015550                bgtp_sleep_irq_handler = 0x15550
                0x000000000001559c                bgtp_soc_wakeup_irq_handler_rom_used = 0x1559c
                0x00000000000155c6                bgtp_bsub_wakeup_irq_handler_rom_used = 0x155c6
                0x00000000000156b0                bgtp_sleep_defer = 0x156b0
                0x00000000000156c4                bgtp_sleep_defer_clear = 0x156c4
                0x00000000000156d4                bgtp_sleep = 0x156d4
                0x0000000000015746                bgtp_sleep_wait_to_idle = 0x15746
                0x0000000000015766                bgtp_bsub_extern_wakeup = 0x15766
                0x00000000000157a8                bgtp_prevent_sleep_set_rom_used = 0x157a8
                0x00000000000157e4                bgtp_lowpower_init = 0x157e4
                0x00000000000157f6                ble_acl_conn_record_match = 0x157f6
                0x0000000000015814                ble_acl_conn_record_add = 0x15814
                0x0000000000015840                ble_acl_conn_record_remove = 0x15840
                0x0000000000015870                ble_acl_is_addr_connected = 0x15870
                0x000000000001589e                ble_acl_conn_record_reset = 0x1589e
                0x00000000000158bc                ble_acl_conn_record_init = 0x158bc
                0x00000000000158c6                evt_task_node_cmp_instant_prog_opcode = 0x158c6
                0x00000000000158d4                evt_task_ble_acl_del_all_instant_prog = 0x158d4
                0x00000000000158f2                evt_task_ble_acl_add_instant_prog = 0x158f2
                0x000000000001592a                evt_task_ble_acl_instant_prog = 0x1592a
                0x0000000000015984                evt_task_ble_acl_refresh_prog_instant = 0x15984
                0x00000000000159a6                evt_task_ble_acl_get_first_instant = 0x159a6
                0x00000000000159ba                evt_task_ble_acl_refresh_conn_instant = 0x159ba
                0x00000000000159e8                evt_task_ble_acl_refresh_map_instant = 0x159e8
                0x0000000000015a16                evt_task_ble_acl_refresh_phy_instant = 0x15a16
                0x0000000000015a44                evt_task_ble_acl_refresh_llcp_instant = 0x15a44
                0x0000000000015a5a                evt_task_ble_acl_tx_refresh_llcp_instant = 0x15a5a
                0x0000000000015aaa                ble_errorint_isr = 0x15aaa
                0x0000000000015b02                ble_isr_cb_register = 0x15b02
                0x0000000000015b10                ble_isr_queue_init = 0x15b10
                0x0000000000015bf4                ble_isr_queue_deinit = 0x15bf4
                0x0000000000015c0a                ble_isr_get_cur_isr_queue_head = 0x15c0a
                0x0000000000015c64                ble_isr = 0x15c64
                0x0000000000015ce2                ble_isr_init = 0x15ce2
                0x0000000000015d8e                ble_isr_deinit = 0x15d8e
                0x0000000000015d90                btc_timer_cmp_info = 0x15d90
                0x0000000000015da8                btc_timer_uppertrend_cmp = 0x15da8
                0x0000000000015dbe                btc_timer_active_scheduler = 0x15dbe
                0x0000000000015dd0                btc_timer_clear_all = 0x15dd0
                0x0000000000015de6                btc_timer_set_hardware = 0x15de6
                0x0000000000015e30                btc_timer_past_due = 0x15e30
                0x0000000000015e52                btc_timer_scheduler = 0x15e52
                0x0000000000015e92                btc_timer_set = 0x15e92
                0x0000000000015f30                btc_timer_cancel = 0x15f30
                0x0000000000015f6c                btc_timer_check = 0x15f6c
                0x0000000000015f8c                btc_timer_defer_all = 0x15f8c
                0x0000000000015fae                btc_timer_clear = 0x15fae
                0x0000000000015ffc                btc_timer_next_due_in_slot_rom_used = 0x15ffc
                0x0000000000016036                btc_timer_init = 0x16036
                0x0000000000016064                btc_timer_deinit = 0x16064
                0x0000000000016074                btc_timer_reset = 0x16074
                0x0000000000016076                btc_timer_debug_hw_timer_past = 0x16076
                0x00000000000160ae                list_head = 0x160ae
                0x00000000000160b2                list_tail = 0x160b2
                0x00000000000160b6                list_size = 0x160b6
                0x00000000000160ba                list_init = 0x160ba
                0x00000000000160c4                list_insert_front = 0x160c4
                0x00000000000160da                list_insert_back = 0x160da
                0x00000000000160f4                list_insert_before = 0x160f4
                0x0000000000016120                list_pop = 0x16120
                0x0000000000016140                list_contain = 0x16140
                0x0000000000016154                list_insert_after = 0x16154
                0x0000000000016184                list_extract = 0x16184
                0x00000000000161b2                list_concat = 0x161b2
                0x00000000000161d6                list_shift_concat = 0x161d6
                0x00000000000161fa                list_insert_inorder = 0x161fa
                0x000000000001624a                list_match = 0x1624a
                0x0000000000016268                list_move_matched = 0x16268
                0x00000000000162ba                list_locate = 0x162ba
                0x00000000000162d4                list_fetch = 0x162d4
                0x0000000000016316                list_merge = 0x16316
                0x0000000000016376                list_sort = 0x16376
                0x00000000000163f2                dm_ble_hci_le_encrypt_done = 0x163f2
                0x000000000001643a                dm_ble_hci_le_rand_done = 0x1643a
                0x0000000000016482                dm_ble_match_connected_bd_addr = 0x16482
                0x0000000000016488                dm_ble_check_le_evt_mask = 0x16488
                0x00000000000164b2                dm_ble_hci_le_rd_local_p256_public_key_done = 0x164b2
                0x0000000000016514                dm_ble_hci_le_generate_dhkey_done_rom_used = 0x16514
                0x0000000000016564                dm_ble_hci_le_basic_cmp_send = 0x16564
                0x0000000000016592                dm_ble_send_status_evt = 0x16592
                0x00000000000165d0                dm_ble_hci_le_set_evt_mask_act = 0x165d0
                0x00000000000165f4                dm_ble_hci_le_rd_buff_size_act = 0x165f4
                0x0000000000016638                dm_ble_hci_le_rd_local_supp_feats_act = 0x16638
                0x0000000000016680                dm_ble_hci_le_set_chnl_cls_act = 0x16680
                0x0000000000016702                dm_ble_get_host_chnl_cls_map = 0x16702
                0x000000000001670e                dm_ble_host_set_chnl_to_act = 0x1670e
                0x000000000001671c                dm_ble_hci_le_encrypt_act = 0x1671c
                0x000000000001673c                dm_ble_hci_le_rand_act = 0x1673c
                0x0000000000016752                dm_ble_hci_le_rd_local_p256_public_key_act = 0x16752
                0x0000000000016784                dm_ble_hci_le_generate_dhkey_v1_act_rom_used = 0x16784
                0x00000000000167c4                dm_ble_hci_le_generate_dhkey_v2_act_rom_used = 0x167c4
                0x0000000000016814                dm_ble_encrypt_done_act = 0x16814
                0x0000000000016818                dm_ble_hci_le_rd_supp_states_act = 0x16818
                0x0000000000016860                dm_ble_hci_le_set_dft_phy_act = 0x16860
                0x00000000000168b8                dm_ble_hci_le_read_suggested_default_data_length_act = 0x168b8
                0x00000000000168fa                dm_ble_hci_le_write_suggested_default_data_length_act = 0x168fa
                0x000000000001694e                dm_ble_hci_le_read_maximum_data_length_act = 0x1694e
                0x000000000001699c                dm_ble_hci_le_read_transmit_pwr_act = 0x1699c
                0x00000000000169d0                dm_ble_hci_le_read_rf_path_compensation_act = 0x169d0
                0x0000000000016a0e                dm_ble_hci_le_write_rf_path_compensation_act = 0x16a0e
                0x0000000000016a54                dm_ble_hci_le_get_max_tx_octets = 0x16a54
                0x0000000000016a60                dm_ble_get_desc = 0x16a60
                0x0000000000016a68                dm_ble_init_dft_val = 0x16a68
                0x0000000000016aa4                dm_ble_init = 0x16aa4
                0x0000000000016abc                dm_ble_deinit = 0x16abc
                0x0000000000016ad6                dm_ble_reset = 0x16ad6
                0x0000000000016b0e                dm_ble_get_rand_addr = 0x16b0e
                0x0000000000016b16                dm_ble_is_rand_addr_null = 0x16b16
                0x0000000000016b20                dm_ble_is_same_addr = 0x16b20
                0x0000000000016b3c                dm_ble_is_addr_already_connected = 0x16b3c
                0x0000000000016b70                dm_ble_update_noncon_state = 0x16b70
                0x0000000000016b94                dm_ble_is_noncon_state_busy = 0x16b94
                0x0000000000016ba4                dm_ble_hci_le_set_rand_addr_act = 0x16ba4
                0x0000000000016bd6                dm_ble_generate_access_address = 0x16bd6
                0x0000000000016c84                lm_ble_adv_comm_hci_rd_ant_info = 0x16c84
                0x0000000000016cc4                dm_ble_compare_fal_bd_addr = 0x16cc4
                0x0000000000016ce6                dm_ble_fal_mac_ble_fal_disbit0_get = 0x16ce6
                0x0000000000016cee                dm_ble_fal_mac_ble_fal_disbit0_set = 0x16cee
                0x0000000000016cf6                dm_ble_fal_mac_ble_fal_disbit1_get = 0x16cf6
                0x0000000000016cfe                dm_ble_fal_mac_ble_fal_disbit1_set = 0x16cfe
                0x0000000000016d06                dm_ble_fal_mac_ble_fal_disbit2_get = 0x16d06
                0x0000000000016d0e                dm_ble_fal_mac_ble_fal_disbit2_set = 0x16d0e
                0x0000000000016d16                dm_ble_fal_mac_ble_fal_disbit3_get = 0x16d16
                0x0000000000016d1e                dm_ble_fal_mac_ble_fal_disbit3_set = 0x16d1e
                0x0000000000016d26                dm_ble_match_fal_bd_addr = 0x16d26
                0x0000000000016d2c                dm_ble_update_fal_usage = 0x16d2c
                0x0000000000016d4a                dm_ble_find_fal_addr = 0x16d4a
                0x0000000000016d70                dm_ble_set_hw_disable_bit = 0x16d70
                0x0000000000016db6                dm_ble_check_addr_in_fal = 0x16db6
                0x0000000000016dc0                dm_ble_fal_update_ral = 0x16dc0
                0x0000000000016e20                dm_ble_update_hw_fal = 0x16e20
                0x0000000000016ee8                dm_ble_init_fal = 0x16ee8
                0x0000000000016f5a                dm_ble_clear_fal = 0x16f5a
                0x0000000000016f74                dm_ble_hci_le_rd_fal_size_act = 0x16f74
                0x0000000000016fa4                dm_ble_hci_le_clear_fal_act = 0x16fa4
                0x000000000001700e                dm_ble_hci_le_add_dev_to_fal_act = 0x1700e
                0x00000000000170b0                dm_ble_hci_le_remove_dev_from_fal_act = 0x170b0
                0x0000000000017120                dm_ble_fsm_exception_handler = 0x17120
                0x0000000000017124                dm_ble_fsm_create = 0x17124
                0x000000000001715c                dm_ble_fsm_delete = 0x1715c
                0x0000000000017160                dm_ble_fsm_init = 0x17160
                0x0000000000017162                dm_ble_init_all = 0x17162
                0x000000000001716e                dm_ble_deinit_all = 0x1716e
                0x0000000000017180                dm_ble_reset_all = 0x17180
                0x000000000001718a                dm_ble_get_valid_ral_num = 0x1718a
                0x0000000000017196                dm_ble_set_valid_ral_num = 0x17196
                0x00000000000171aa                dm_ble_rpa_reset = 0x171aa
                0x0000000000017226                dm_ble_is_addr_resolution_enabled = 0x17226
                0x0000000000017230                dm_ble_ensure_rpa_timer_set = 0x17230
                0x0000000000017268                dm_ble_find_ral_addr_em_base = 0x17268
                0x00000000000172b0                dm_ble_is_same_resolving_addr = 0x172b0
                0x00000000000172e0                dm_ble_generate_ral_info = 0x172e0
                0x0000000000017338                dm_ble_hci_le_add_dev_to_ral = 0x17338
                0x0000000000017410                dm_ble_hci_le_remove_dev_from_ral_act = 0x17410
                0x000000000001748c                dm_ble_hci_le_clear_ral_act = 0x1748c
                0x00000000000174d0                dm_ble_hci_le_read_ral_size_act = 0x174d0
                0x0000000000017506                dm_ble_hci_le_read_peer_rpa_act = 0x17506
                0x0000000000017576                dm_ble_hci_le_read_local_rpa_act = 0x17576
                0x00000000000175ec                dm_ble_hci_le_set_addr_resolution_enable_act = 0x175ec
                0x000000000001764a                dm_ble_addr_resolution_timeout = 0x1764a
                0x00000000000176c8                dm_ble_hci_le_set_rpa_timeout_act = 0x176c8
                0x00000000000176f6                dm_ble_hci_le_set_privacy_mode_act = 0x176f6
                0x0000000000017740                dm_co_check_evt_mask = 0x17740
                0x0000000000017782                dm_co_bdaddr_compare = 0x17782
                0x000000000001779e                dm_co_hci_basic_cmp_send = 0x1779e
                0x00000000000177cc                dm_co_hci_set_evt_mask_act = 0x177cc
                0x00000000000177f4                dm_co_hci_reset_act = 0x177f4
                0x0000000000017812                dm_co_hci_ctrller_to_host_flow_ctrl_act = 0x17812
                0x000000000001784c                dm_co_hci_host_buffer_size_act = 0x1784c
                0x0000000000017882                dm_co_hci_rd_afh_chnl_assess_act = 0x17882
                0x00000000000178bc                dm_co_hci_wr_afh_chnl_assess_act = 0x178bc
                0x0000000000017908                dm_co_get_afh_chnl_assess_mode = 0x17908
                0x0000000000017914                dm_co_get_air_used_chnl_map = 0x17914
                0x000000000001791e                dm_co_coex_air_map_update_act = 0x1791e
                0x0000000000017938                dm_co_hci_set_evt_mask_page2_act = 0x17938
                0x0000000000017960                dm_co_hci_rd_le_host_supp_act = 0x17960
                0x000000000001799e                dm_co_hci_wr_le_host_supp_act = 0x1799e
                0x00000000000179bc                dm_co_hci_rd_local_ver_info_act = 0x179bc
                0x0000000000017a0c                dm_co_get_version = 0x17a0c
                0x0000000000017a16                dm_co_get_subversion = 0x17a16
                0x0000000000017a20                dm_co_get_company_identifier = 0x17a20
                0x0000000000017a2a                dm_co_hci_rd_local_support_cmds_act = 0x17a2a
                0x0000000000017a8e                dm_co_hci_rd_local_support_feats_act = 0x17a8e
                0x0000000000017ad6                dm_co_hci_rd_bd_addr_act = 0x17ad6
                0x0000000000017b16                dm_co_get_desc = 0x17b16
                0x0000000000017b1e                dm_co_init_dft_val = 0x17b1e
                0x0000000000017b44                dm_co_get_local_addr = 0x17b44
                0x0000000000017b4c                dm_co_bd_addr_is_null = 0x17b4c
                0x0000000000017b62                dm_co_hci_vendor_set_bd_addr_act = 0x17b62
                0x0000000000017b92                dm_co_is_local_addr_null = 0x17b92
                0x0000000000017b9a                dm_co_hci_reset = 0x17b9a
                0x0000000000017ba4                dm_co_fsm_exception_handler = 0x17ba4
                0x0000000000017ba8                dm_co_fsm_create = 0x17ba8
                0x0000000000017be0                dm_co_fsm_delete = 0x17be0
                0x0000000000017be4                dm_co_fsm_init = 0x17be4
                0x0000000000017be6                dm_co_init_all = 0x17be6
                0x0000000000017bf6                dm_co_deinit_all = 0x17bf6
                0x0000000000017bfe                dm_co_reset_all = 0x17bfe
                0x0000000000017c02                dpc_fsm_msg_process = 0x17c02
                0x0000000000017c0e                dpc_init = 0x17c0e
                0x0000000000017c48                dpc_deinit = 0x17c48
                0x0000000000017c64                dpc_call_func = 0x17c64
                0x0000000000017c96                dts_read_config = 0x17c96
                0x0000000000017ca2                str1.1 = 0x17ca2
                0x0000000000017cb8                dts_ble_read_halfslot_rounded_clock = 0x17cb8
                0x0000000000017cee                dts_read_clock_in_10ms = 0x17cee
                0x0000000000017cf6                dts_ble_read_cur_clock = 0x17cf6
                0x0000000000017d22                dts_ble_read_finecntclock = 0x17d22
                0x0000000000017d48                dts_gle_read_cur_clock = 0x17d48
                0x0000000000017d7a                dts_gle_read_finecntclock = 0x17d7a
                0x0000000000017da8                dts_init = 0x17da8
                0x0000000000017daa                btc_mem_is_in_heap = 0x17daa
                0x0000000000017dc8                btc_mem_deinit = 0x17dc8
                0x0000000000017dd4                btc_mem_init = 0x17dd4
                0x0000000000017e42                btc_mem_is_empty = 0x17e42
                0x0000000000017e68                btc_malloc_find = 0x17e68
                0x0000000000017ee2                btc_malloc_alloc = 0x17ee2
                0x0000000000017f42                btc_malloc = 0x17f42
                0x0000000000017f84                btc_free_end = 0x17f84
                0x0000000000017fb2                btc_mem_free_node_merge = 0x17fb2
                0x0000000000017fbe                btc_mem_free_node_enqueue = 0x17fbe
                0x0000000000017ff2                btc_free_node_process = 0x17ff2
                0x0000000000018048                btc_free_invalid_check = 0x18048
                0x000000000001808a                btc_free = 0x1808a
                0x0000000000018130                btc_is_free = 0x18130
                0x0000000000018142                btc_get_mem_heap_size = 0x18142
                0x000000000001814c                btc_get_mem_heap_usage = 0x1814c
                0x0000000000018156                btc_get_max_mem_heap_usage = 0x18156
                0x0000000000018160                dts_malloc = 0x18160
                0x0000000000018190                dts_hci_malloc = 0x18190
                0x00000000000181ae                dts_free = 0x181ae
                0x00000000000181c8                dts_hci_free = 0x181c8
                0x00000000000181cc                dts_sw_init = 0x181cc
                0x00000000000181d0                dts_thread_set_sem = 0x181d0
                0x00000000000181da                check_private_key_valid = 0x181da
                0x000000000001822a                is_valid_private_key = 0x1822a
                0x0000000000018238                multiply_big_hex_256 = 0x18238
                0x00000000000182c4                shift_left_one_array_element_192 = 0x182c4
                0x00000000000182e4                multiply_by_u32_mod_p_256 = 0x182e4
                0x0000000000018310                multiply_by_u32_mod_p_192 = 0x18310
                0x000000000001833e                init_big_number_256 = 0x1833e
                0x0000000000018356                set_big_number_length_256 = 0x18356
                0x000000000001836e                add_big_hex_256 = 0x1836e
                0x00000000000183b2                add_2_self_big_hex_256 = 0x183b2
                0x00000000000183b6                subtract_big_hex_256 = 0x183b6
                0x00000000000183fe                subtract_from_self_big_hex_256 = 0x183fe
                0x0000000000018402                add_p_div2_256 = 0x18402
                0x0000000000018480                copy_big_hex_256 = 0x18480
                0x00000000000184ae                add_p_256 = 0x184ae
                0x00000000000184dc                add_big_hex_mod_p256 = 0x184dc
                0x0000000000018558                subtract_self = 0x18558
                0x00000000000185ca                subtract_big_hex_mod_256 = 0x185ca
                0x000000000001867c                subtract_from_self_big_hex_sign_256 = 0x1867c
                0x0000000000018728                special_mod_p_256 = 0x18728
                0x00000000000187fc                very_big_hex_mod_p_192 = 0x187fc
                0x000000000001889c                very_big_hex_mod_p_256 = 0x1889c
                0x0000000000018952                multiply_big_hex_by_uint32_256 = 0x18952
                0x0000000000018996                subtract_big_hex_uint32_256 = 0x18996
                0x00000000000189d0                multiply_big_hex_mod_p256 = 0x189d0
                0x0000000000018a02                not_equal_256 = 0x18a02
                0x0000000000018a1e                gf_jacobian_point_copy_256 = 0x18a1e
                0x0000000000018a3c                gf_jacobian_point_double_256 = 0x18a3c
                0x0000000000018b54                gf_jacobian_inf_point_add_256 = 0x18b54
                0x0000000000018c74                gf_jacobian_point_addition_256 = 0x18c74
                0x0000000000018dfa                gf_affine_to_jacobian_point_copy_256 = 0x18dfa
                0x0000000000018e34                gf_setup_jacobian_infinity_point256 = 0x18e34
                0x0000000000018e68                big_hex_inversion_256 = 0x18e68
                0x0000000000019002                gf_point_jacobian_to_affine_256 = 0x19002
                0x000000000001902c                ecc_point_multiplication_uint8_256 = 0x1902c
                0x00000000000190a4                change_lsb_key_to_msb = 0x190a4
                0x00000000000190ce                change_msb_key_to_lsb = 0x190ce
                0x00000000000190fa                ecc_execute_multiplication = 0x190fa
                0x0000000000019156                copy_key_to_ecc = 0x19156
                0x00000000000191a8                ecc_generate_key = 0x191a8
                0x00000000000191ee                ecc_gen_new_public_key = 0x191ee
                0x000000000001920e                ecc_key_p256_point_check = 0x1920e
                0x00000000000192a8                ecc_p256_public_key_check_valid = 0x192a8
                0x0000000000019340                g_base_point_x_192 = 0x19340
                0x0000000000019360                g_base_point_x_256 = 0x19360
                0x0000000000019380                g_base_point_y_192 = 0x19380
                0x00000000000193a0                g_base_point_y_256 = 0x193a0
                0x00000000000193c0                g_big_hex_p256 = 0x193c0
                0x00000000000193ec                g_big_hex_p_192 = 0x193ec
                0x0000000000019418                g_ecc_jacobian_infinity_point_256 = 0x19418
                0x000000000001949c                g_max_secret_key_192 = 0x1949c
                0x00000000000194b4                g_max_secret_key_256 = 0x194b4
                0x00000000000194d4                g_sp_p256_b = 0x194d4
                0x0000000000019500                g_very_big_hex_p_192 = 0x19500
                0x0000000000019550                g_very_big_hex_p_256 = 0x19550
                0x00000000000195a0                em_get_gle_rx_desc = 0x195a0
                0x00000000000195aa                em_free_gle_rx_desc = 0x195aa
                0x00000000000195d0                em_get_gle_next_rx_desc = 0x195d0
                0x00000000000195e0                em_set_gle_rx_desc = 0x195e0
                0x00000000000195ea                em_gle_rx_desc_init = 0x195ea
                0x000000000001963a                em_wr = 0x1963a
                0x0000000000019662                em_set = 0x19662
                0x000000000001968a                em_rd = 0x1968a
                0x00000000000196aa                em_offset_init = 0x196aa
                0x000000000001978c                em_rf_init = 0x1978c
                0x00000000000197a2                em_desc_init = 0x197a2
                0x00000000000197ac                em_buff_init = 0x197ac
                0x00000000000197bc                em_init = 0x197bc
                0x0000000000019812                em_eeq_deinit = 0x19812
                0x0000000000019858                em_deinit = 0x19858
                0x0000000000019894                g_em_freqtable = 0x19894
                0x00000000000198e4                rx_buff_free_map = 0x198e4
                0x00000000000198f4                em_rx_buff_init = 0x198f4
                0x000000000001995c                em_get_rx_buff_offset = 0x1995c
                0x0000000000019976                em_free_rx_buff = 0x19976
                0x00000000000199c0                em_get_rx_desc = 0x199c0
                0x00000000000199ca                em_free_rx_desc = 0x199ca
                0x0000000000019a12                em_get_next_rx_desc = 0x19a12
                0x0000000000019a22                em_set_rx_desc = 0x19a22
                0x0000000000019a2c                em_rx_desc_init = 0x19a2c
                0x0000000000019a7c                em_alloc_head_sed_id = 0x19a7c
                0x0000000000019acc                em_alloc_tail_sed_id = 0x19acc
                0x0000000000019b0c                em_free_sed_id = 0x19b0c
                0x0000000000019b36                em_get_sed_type = 0x19b36
                0x0000000000019b42                em_sed_init = 0x19b42
                0x0000000000019b52                em_tx_buff_init = 0x19b52
                0x0000000000019c34                em_alloc_comm_tx_buff = 0x19c34
                0x0000000000019c6c                em_free_comm_tx_buff = 0x19c6c
                0x0000000000019c96                em_alloc_ble_pri_tx_buff = 0x19c96
                0x0000000000019cae                em_free_ble_pri_tx_buff = 0x19cae
                0x0000000000019cd6                em_alloc_gle_pri_tx_buff = 0x19cd6
                0x0000000000019cee                em_free_gle_pri_tx_buff = 0x19cee
                0x0000000000019d18                em_tx_desc_init = 0x19d18
                0x0000000000019e10                hw_em_txpd_dump_info = 0x19e10
                0x0000000000019e52                em_free_txcntl = 0x19e52
                0x0000000000019e82                em_alloc_txcntl = 0x19e82
                0x0000000000019ed0                em_free_txpd = 0x19ed0
                0x0000000000019f10                em_alloc_txpd = 0x19f10
                0x0000000000019f56                encrypt_clear_aes_ccm_counter = 0x19f56
                0x0000000000019f5a                encrypt_set_aes_ccm_iv = 0x19f5a
                0x0000000000019f5e                encrypt_set_aes_ccm_sk = 0x19f5e
                0x0000000000019f90                encrypt_enable_aes_ccm_enc = 0x19f90
                0x000000000001a008                encrypt_is_aes_ccm_tx_mic_en = 0x1a008
                0x000000000001a022                encrypt_is_aes_ccm_rx_mic_en = 0x1a022
                0x000000000001a03c                encrypt_clear_sm4_ccm_counter = 0x1a03c
                0x000000000001a040                encrypt_set_sm4_ccm_iv = 0x1a040
                0x000000000001a044                encrypt_set_sm4_ccm_sk = 0x1a044
                0x000000000001a07e                encrypt_enable_sm4_ccm_enc = 0x1a07e
                0x000000000001a0f6                encrypt_is_sm4_ccm_tx_mic_en = 0x1a0f6
                0x000000000001a110                encrypt_is_sm4_ccm_rx_mic_en = 0x1a110
                0x000000000001a12a                encrypt_done_aes = 0x1a12a
                0x000000000001a1a2                encrypt_set_aes_task = 0x1a1a2
                0x000000000001a21a                encrypt_start_aes = 0x1a21a
                0x000000000001a2c0                encrypt_init_aes = 0x1a2c0
                0x000000000001a2f4                encrypt_clear_aes_tasks = 0x1a2f4
                0x000000000001a314                encrypt_set_ecc_task = 0x1a314
                0x000000000001a3c0                encrypt_start_ecc = 0x1a3c0
                0x000000000001a424                encrypt_execute_ecc = 0x1a424
                0x000000000001a4b8                encrypt_done_ecc = 0x1a4b8
                0x000000000001a514                encrypt_generate_ecc_private_key = 0x1a514
                0x000000000001a54a                encrypt_get_ecc_debug_private_key = 0x1a54a
                0x000000000001a552                encrypt_check_ecc_public_key_valid = 0x1a552
                0x000000000001a556                encrypt_init_ecc = 0x1a556
                0x000000000001a56a                encrypt_clear_ecc_tasks = 0x1a56a
                0x000000000001a58c                g_ecc_debug_private_key = 0x1a58c
                0x000000000001a5ac                encrypt_process = 0x1a5ac
                0x000000000001a614                encrypt_init = 0x1a614
                0x000000000001a634                encrypt_deinit = 0x1a634
                0x000000000001a64a                encrypt_reset = 0x1a64a
                0x000000000001a656                encrypt_get_supported_algorithm = 0x1a656
                0x000000000001a680                encrypt_check_algorithm_support = 0x1a680
                0x000000000001a6be                encrypt_set_key_deriv_algo_task = 0x1a6be
                0x000000000001a6e8                encrypt_set_key_exchange_algo_task = 0x1a6e8
                0x000000000001a70c                encrypt_cancel_key_deriv_algo_tasks = 0x1a70c
                0x000000000001a770                encrypt_execute_task = 0x1a770
                0x000000000001a796                encrypt_generate_random = 0x1a796
                0x000000000001a7e4                encrypt_generate_key_exchange_private_key = 0x1a7e4
                0x000000000001a7ea                encrypt_get_key_exchange_debug_private_key = 0x1a7ea
                0x000000000001a7ec                encrypt_check_key_exchange_public_key_valid = 0x1a7ec
                0x000000000001a7f2                encrypt_clear_ccmctr_counter = 0x1a7f2
                0x000000000001a80a                encrypt_set_ccmctr_initial_vector = 0x1a80a
                0x000000000001a826                encrypt_set_ccmctr_session_key = 0x1a826
                0x000000000001a842                encrypt_enable_ccmctr_enc = 0x1a842
                0x000000000001a862                encrypt_clear_sed_counter = 0x1a862
                0x000000000001a89e                encrypt_set_sed_iv = 0x1a89e
                0x000000000001a8da                encrypt_set_sed_sk = 0x1a8da
                0x000000000001a93e                encrypt_set_ccmctr_mask = 0x1a93e
                0x000000000001a968                encrypt_reset_ccmctr_enc = 0x1a968
                0x000000000001a992                encrypt_is_tx_mic_en = 0x1a992
                0x000000000001a9b4                encrypt_is_rx_mic_en = 0x1a9b4
                0x000000000001a9d6                evt_prog_slot_isr = 0x1a9d6
                0x000000000001a9d8                evt_prog_sw_isr = 0x1a9d8
                0x000000000001a9da                evt_prog_urgent_eeq_fullint_isr = 0x1a9da
                0x000000000001a9f4                evt_prog_normal_eeq_fullint_isr = 0x1a9f4
                0x000000000001aa0e                evt_prog_rx_isr = 0x1aa0e
                0x000000000001aa3e                evt_prog_finish_eeq_isr = 0x1aa3e
                0x000000000001aa74                evt_prog_init = 0x1aa74
                0x000000000001ab10                evt_prog_reset = 0x1ab10
                0x000000000001ab12                evt_prog_eeq_cancel_process = 0x1ab12
                0x000000000001ab60                evt_prog_eeq_stop_process = 0x1ab60
                0x000000000001abbc                evt_prog_push_eeq = 0x1abbc
                0x000000000001acb2                evt_prog_get_eeq_allow_prog_cnt = 0x1acb2
                0x000000000001acf6                evt_prog_eeq_process = 0x1acf6
                0x000000000001ad20                evt_prog_start_isr = 0x1ad20
                0x000000000001ad4e                evt_prog_start = 0x1ad4e
                0x000000000001ad5c                evt_prog_start_urgent = 0x1ad5c
                0x000000000001ad8e                evt_prog_match_elt_by_linklable = 0x1ad8e
                0x000000000001ad9e                evt_prog_match_elt_by_ee_gclkn = 0x1ad9e
                0x000000000001adac                evt_prog_check_sleep = 0x1adac
                0x000000000001add0                es_slot_ratio_convert = 0x1add0
                0x000000000001ade6                es_get_scale_scan_interval = 0x1ade6
                0x000000000001ae0a                es_offset_cleanup = 0x1ae0a
                0x000000000001ae32                es_offset_overlap = 0x1ae32
                0x000000000001ae80                es_offset_check_offset = 0x1ae80
                0x000000000001aec4                es_offset_find_next_newoffset = 0x1aec4
                0x000000000001aef2                es_offset_get_offset = 0x1aef2
                0x000000000001af90                es_offset_compute_ts = 0x1af90
                0x000000000001b05a                es_calc_intv_param_init = 0x1b05a
                0x000000000001b080                es_calc_intv = 0x1b080
                0x000000000001b11c                es_debug_input_param_print = 0x1b11c
                0x000000000001b168                es_view_intv_list_print = 0x1b168
                0x000000000001b1ae                es_calc_create_newstart_arr = 0x1b1ae
                0x000000000001b1d4                es_calc_find_newoffset = 0x1b1d4
                0x000000000001b24e                es_calc_offset_and_check = 0x1b24e
                0x000000000001b25e                es_calc_offset = 0x1b25e
                0x000000000001b2da                es_check_offset = 0x1b2da
                0x000000000001b33c                es_conflict_check_a_be_b_rom_used = 0x1b33c
                0x000000000001b394                es_conflict_check_a_af_b_rom_used = 0x1b394
                0x000000000001b3f0                es_conflict_check_rom_used = 0x1b3f0
                0x000000000001b422                es_elt_insert_check_end_during_scan = 0x1b422
                0x000000000001b440                es_dur_set_default = 0x1b440
                0x000000000001b45c                es_dur_check_and_compute = 0x1b45c
                0x000000000001b4b4                es_dur_compute = 0x1b4b4
                0x000000000001b54e                es_elt_cmp_clkn = 0x1b54e
                0x000000000001b56e                es_elt_cmp_task_id_and_clkn = 0x1b56e
                0x000000000001b592                es_get_gcd = 0x1b592
                0x000000000001b5b0                es_dump_intv_list = 0x1b5b0
                0x000000000001b5da                es_elt_cmp_task_id = 0x1b5da
                0x000000000001b5ea                es_elt_cmp_priority = 0x1b5ea
                0x000000000001b5f8                es_elt_cmp_sn = 0x1b5f8
                0x000000000001b606                es_elt_cmp_task_id_and_instant = 0x1b606
                0x000000000001b626                es_create_task_node = 0x1b626
                0x000000000001b642                es_create_sched_elt = 0x1b642
                0x000000000001b65e                es_cpy_elt_without_hdr = 0x1b65e
                0x000000000001b66c                es_create_elt_and_cpy_without_hdr = 0x1b66c
                0x000000000001b690                es_check_param = 0x1b690
                0x000000000001b6a0                es_init_elt_by_param = 0x1b6a0
                0x000000000001b772                es_update_elt_by_param = 0x1b772
                0x000000000001b7bc                es_finetimer_refresh = 0x1b7bc
                0x000000000001b838                es_dec_elt_count = 0x1b838
                0x000000000001b862                es_set_processed_sn = 0x1b862
                0x000000000001b87a                es_set_cbk_param = 0x1b87a
                0x000000000001b88c                es_move_to_cancel_list = 0x1b88c
                0x000000000001b8d0                es_process_cancel_cbk = 0x1b8d0
                0x000000000001b920                es_process_cancel_list = 0x1b920
                0x000000000001b958                es_check_cancel_list = 0x1b958
                0x000000000001b98e                es_check_ready_list = 0x1b98e
                0x000000000001b9ae                evt_task_ble_acl_llcp_find_desc = 0x1b9ae
                0x000000000001b9da                evt_task_ble_acl_send_mic_failure_terminate = 0x1b9da
                0x000000000001ba08                evt_task_ble_acl_init_txpd = 0x1ba08
                0x000000000001ba4e                evt_task_ble_acl_tx_node_alloc = 0x1ba4e
                0x000000000001ba90                evt_task_ble_acl_tx_node_free = 0x1ba90
                0x000000000001bac4                evt_task_ble_acl_llcp_ack = 0x1bac4
                0x000000000001bb06                evt_task_ble_acl_event_send_tx_complete_event = 0x1bb06
                0x000000000001bb30                evt_task_ble_acl_disc_without_terminate = 0x1bb30
                0x000000000001bb6a                evt_task_ble_acl_event_int_tx_ack = 0x1bb6a
                0x000000000001bbee                evt_task_ble_acl_end_process = 0x1bbee
                0x000000000001bc22                ble_acl_add_max_win_size = 0x1bc22
                0x000000000001bc54                evt_task_ble_acl_refresh_next_peripheral_time = 0x1bc54
                0x000000000001bd18                evt_task_ble_acl_check_time_out = 0x1bd18
                0x000000000001bd4c                evt_task_ble_send_private_conn_update_req = 0x1bd4c
                0x000000000001bdaa                evt_task_ble_acl_offset_mgr = 0x1bdaa
                0x000000000001be24                evt_task_ble_acl_hop_alg1_sw_compensation = 0x1be24
                0x000000000001be5c                evt_task_ble_acl_set_param = 0x1be5c
                0x000000000001be60                evt_task_ble_acl_send_unknown_rsp = 0x1be60
                0x000000000001be8a                evt_task_ble_acl_check_opcode_by_role = 0x1be8a
                0x000000000001beb6                evt_task_ble_acl_llcp_allowed_rx = 0x1beb6
                0x000000000001beca                evt_task_get_rx_length = 0x1beca
                0x000000000001bf10                evt_task_ble_acl_recv_llcp_isr = 0x1bf10
                0x000000000001bfa4                evt_task_can_prog_tx = 0x1bfa4
                0x000000000001bfae                evt_task_ble_acl_fill_txpd = 0x1bfae
                0x000000000001c046                evt_task_prog_tx_node = 0x1c046
                0x000000000001c086                evt_task_ble_acl_copy_pb_to_next_packet = 0x1c086
                0x000000000001c09a                evt_task_ble_acl_tx_acl_data_process = 0x1c09a
                0x000000000001c162                evt_task_ble_acl_llcp_wr_em = 0x1c162
                0x000000000001c18a                evt_task_ble_acl_tx_llcp_process = 0x1c18a
                0x000000000001c1f2                evt_task_ble_acl_tx_prog_update_sed = 0x1c1f2
                0x000000000001c252                evt_task_ble_acl_tx_process = 0x1c252
                0x000000000001c268                evt_task_ble_acl_event_start_config_sed = 0x1c268
                0x000000000001c2f2                evt_task_ble_acl_predict_first_syncp_time = 0x1c2f2
                0x000000000001c31e                evt_task_ble_phy_value_to_ll_pwr_ctl = 0x1c31e
                0x000000000001c334                evt_task_ble_acl_get_pwr_ctrl_req_phy = 0x1c334
                0x000000000001c346                evt_task_ble_acl_pwr_ctrl_process = 0x1c346
                0x000000000001c404                evt_task_ble_acl_process_rx_content_isr = 0x1c404
                0x000000000001c496                evt_task_ble_acl_process_rx_desc_isr = 0x1c496
                0x000000000001c568                evt_task_ble_acl_recv_data_isr = 0x1c568
                0x000000000001c5ba                evt_task_ble_acl_save_sync_time_info = 0x1c5ba
                0x000000000001c664                evt_task_ble_acl_stop_cbk = 0x1c664
                0x000000000001c668                evt_task_ble_acl_init_sed = 0x1c668
                0x000000000001c774                evt_task_ble_acl_init = 0x1c774
                0x000000000001c828                evt_task_ble_acl_init_ee_static = 0x1c828
                0x000000000001c848                evt_task_ble_acl_fsm_init = 0x1c848
                0x000000000001c876                evt_task_ble_acl_create_es_task = 0x1c876
                0x000000000001c914                evt_task_ble_acl_set_env = 0x1c914
                0x000000000001c918                evt_task_ble_acl_env_init = 0x1c918
                0x000000000001c91c                evt_task_ble_acl_free_tx_prog_queue = 0x1c91c
                0x000000000001c958                evt_task_ble_acl_env_deinit = 0x1c958
                0x000000000001c9d6                evt_task_ble_acl_handle_return_tx_data = 0x1c9d6
                0x000000000001c9ea                evt_task_ble_acl_free_acl_tx_queue = 0x1c9ea
                0x000000000001ca16                evt_task_ble_acl_free_list = 0x1ca16
                0x000000000001ca52                evt_task_ble_acl_set_interval = 0x1ca52
                0x000000000001ca5e                evt_task_ble_acl_get_interval = 0x1ca5e
                0x000000000001ca68                evt_task_ble_acl_get_env = 0x1ca68
                0x000000000001ca6c                evt_task_ble_acl_idle_event_int = 0x1ca6c
                0x000000000001ca9e                evt_task_ble_acl_ending_event_int = 0x1ca9e
                0x000000000001cab8                evt_task_ble_acl_task_end = 0x1cab8
                0x000000000001cade                evt_task_ble_acl_idle_event_abnormal = 0x1cade
                0x000000000001caec                evt_task_ble_acl_ending_event_abnormal = 0x1caec
                0x000000000001cafa                evt_task_ble_acl_llcp_tx = 0x1cafa
                0x000000000001cb4a                evt_task_ble_acl_send_acl_data = 0x1cb4a
                0x000000000001cb6a                evt_task_ble_acl_recv_acl_data = 0x1cb6a
                0x000000000001cb9a                evt_task_ble_acl_set_mic_trx_filter = 0x1cb9a
                0x000000000001cbde                evt_task_ble_acl_update_param_with_instant = 0x1cbde
                0x000000000001cd08                evt_task_ble_acl_evt_cbk = 0x1cd08
                0x000000000001cd86                evt_task_ble_acl_evt_abnormal_cbk = 0x1cd86
                0x000000000001cdde                evt_task_ble_acl_rx_cbk = 0x1cdde
                0x000000000001ce14                evt_task_ble_acl_cancel_cbk = 0x1ce14
                0x000000000001ce98                evt_task_ble_acl_sw_cbk = 0x1ce98
                0x000000000001ceae                evt_task_ble_acl_start_cbk = 0x1ceae
                0x000000000001cef4                evt_task_ble_acl_isr_cbk = 0x1cef4
                0x000000000001cf34                evt_task_ble_acl_create = 0x1cf34
                0x000000000001cfa8                evt_task_ble_acl_start = 0x1cfa8
                0x000000000001cfd4                evt_task_ble_acl_destory = 0x1cfd4
                0x000000000001d012                evt_task_ble_acl_get_processed_counter = 0x1d012
                0x000000000001d020                evt_task_ble_acl_get_next_counter = 0x1d020
                0x000000000001d02a                evt_task_ble_acl_get_timeout = 0x1d02a
                0x000000000001d032                evt_task_ble_acl_set_timeout = 0x1d032
                0x000000000001d05c                evt_task_ble_acl_get_latency = 0x1d05c
                0x000000000001d064                evt_task_ble_acl_set_latency = 0x1d064
                0x000000000001d06e                evt_task_ble_acl_get_pwr_ctrl_info = 0x1d06e
                0x000000000001d088                evt_task_ble_acl_get_last_timestamp = 0x1d088
                0x000000000001d090                evt_task_ble_acl_get_duration_slot = 0x1d090
                0x000000000001d098                evt_task_ble_acl_update_effective_data_length = 0x1d098
                0x000000000001d10a                evt_task_ble_acl_get_effective_data_length = 0x1d10a
                0x000000000001d114                evt_task_ble_acl_update_tx_phy = 0x1d114
                0x000000000001d132                evt_task_ble_acl_update_rx_phy = 0x1d132
                0x000000000001d146                evt_task_ble_acl_is_4m_phy = 0x1d146
                0x000000000001d16e                evt_task_ble_acl_get_tx_phy = 0x1d16e
                0x000000000001d178                evt_task_ble_acl_get_rx_phy = 0x1d178
                0x000000000001d182                evt_task_ble_acl_update_data_length_tx_phy = 0x1d182
                0x000000000001d190                evt_task_ble_acl_update_active_tx_octets_before_len_req = 0x1d190
                0x000000000001d1b4                evt_task_ble_acl_update_param_equal_to_instant = 0x1d1b4
                0x000000000001d1be                ble_acl_conn_upd_processing_flag = 0x1d1be
                0x000000000001d1da                evt_task_ble_acl_get_pwr_level = 0x1d1da
                0x000000000001d1e4                evt_task_ble_acl_set_pwr_level = 0x1d1e4
                0x000000000001d1f0                CSWTCH.93 = 0x1d1f0
                0x000000000001d1f4                evt_task_ble_adv_get_env = 0x1d1f4
                0x000000000001d1f8                evt_task_ble_adv_set_env = 0x1d1f8
                0x000000000001d1fc                evt_task_ble_adv_get_txpd_txtype = 0x1d1fc
                0x000000000001d210                evt_task_ble_adv_config_txdata = 0x1d210
                0x000000000001d2a4                evt_task_ble_adv_set_sed_addr = 0x1d2a4
                0x000000000001d2d6                evt_task_ble_adv_free_txnode = 0x1d2d6
                0x000000000001d324                evt_task_ble_adv_disable_handler = 0x1d324
                0x000000000001d396                evt_task_ble_adv_set_adv_disable = 0x1d396
                0x000000000001d3c8                evt_task_ble_adv_ending_event_int = 0x1d3c8
                0x000000000001d3de                evt_task_ble_adv_idle_event_int = 0x1d3de
                0x000000000001d46e                evt_task_ble_adv_evt_int_handler = 0x1d46e
                0x000000000001d47a                evt_task_ble_adv_scan_req_report = 0x1d47a
                0x000000000001d4b2                evt_task_ble_adv_conn_req_check = 0x1d4b2
                0x000000000001d568                evt_task_ble_adv_process_conn_req = 0x1d568
                0x000000000001d5b8                evt_task_ble_adv_recv_check = 0x1d5b8
                0x000000000001d62a                evt_task_ble_adv_get_pwr_level = 0x1d62a
                0x000000000001d634                evt_task_ble_adv_init_txnode = 0x1d634
                0x000000000001d708                evt_task_ble_adv_config_regs = 0x1d708
                0x000000000001d736                evt_task_ble_adv_config_sed = 0x1d736
                0x000000000001d8be                evt_task_ble_adv_config_txpd = 0x1d8be
                0x000000000001d96a                evt_task_ble_adv_get_own_addr_type = 0x1d96a
                0x000000000001d980                evt_task_ble_adv_get_filter_policy = 0x1d980
                0x000000000001d996                evt_task_ble_adv_get_peer_addr = 0x1d996
                0x000000000001d9b4                evt_task_ble_adv_set_intv = 0x1d9b4
                0x000000000001d9f2                evt_task_ble_adv_set_own_addr = 0x1d9f2
                0x000000000001da1c                evt_task_ble_adv_set_param_act = 0x1da1c
                0x000000000001da76                evt_task_ble_adv_set_param = 0x1da76
                0x000000000001da84                evt_task_ble_adv_set_adv_data = 0x1da84
                0x000000000001dab0                evt_task_ble_adv_set_scan_rsp_data = 0x1dab0
                0x000000000001dade                evt_task_ble_adv_set_adv_update = 0x1dade
                0x000000000001db2c                evt_task_ble_adv_config_mac = 0x1db2c
                0x000000000001db42                evt_task_ble_adv_config_es = 0x1db42
                0x000000000001dba0                evt_task_ble_adv_get_intv_offset = 0x1dba0
                0x000000000001dc02                evt_task_ble_adv_get_ts = 0x1dc02
                0x000000000001dc32                evt_task_ble_adv_insert_intv = 0x1dc32
                0x000000000001dc7c                evt_task_ble_adv_check_adv_stop = 0x1dc7c
                0x000000000001dd04                evt_task_ble_adv_get_stop_status = 0x1dd04
                0x000000000001dd1c                evt_task_ble_adv_free_env = 0x1dd1c
                0x000000000001dd54                evt_task_ble_adv_env_deinit = 0x1dd54
                0x000000000001dd9e                evt_task_ble_adv_destory = 0x1dd9e
                0x000000000001ddc8                evt_task_ble_adv_create_get_buff = 0x1ddc8
                0x000000000001de3e                evt_task_ble_adv_advertising_updata_data = 0x1de3e
                0x000000000001de7c                CSWTCH.29 = 0x1de7c
                0x000000000001de82                evt_task_ble_adv_start_cbk_rom_used = 0x1de82
                0x000000000001deaa                evt_task_ble_adv_end_isr_rx_handle = 0x1deaa
                0x000000000001df54                evt_task_ble_adv_clear_mac_flag = 0x1df54
                0x000000000001dfb8                evt_task_ble_adv_common_cbk = 0x1dfb8
                0x000000000001dff4                evt_task_ble_adv_evt_cbk_rom_used = 0x1dff4
                0x000000000001e004                evt_task_ble_adv_abort_cbk = 0x1e004
                0x000000000001e006                evt_task_ble_adv_late_cbk = 0x1e006
                0x000000000001e008                evt_task_ble_adv_sket_cbk = 0x1e008
                0x000000000001e00a                evt_task_ble_adv_cancel_cbk_rom_used = 0x1e00a
                0x000000000001e034                evt_task_ble_adv_stop_cbk = 0x1e034
                0x000000000001e038                evt_task_ble_adv_sw_cbk_rom_used = 0x1e038
                0x000000000001e04c                evt_task_ble_adv_recv_isr = 0x1e04c
                0x000000000001e0fa                evt_task_ble_adv_rx_cbk = 0x1e0fa
                0x000000000001e118                evt_task_ble_adv_isr_cbk_rom_used = 0x1e118
                0x000000000001e158                evt_task_ble_adv_init_ee_static = 0x1e158
                0x000000000001e18e                ble_ext_adv_unchange_data_handle = 0x1e18e
                0x000000000001e1a6                ble_ext_adv_mid_data_handle = 0x1e1a6
                0x000000000001e1f2                ble_ext_adv_end_data_handle = 0x1e1f2
                0x000000000001e266                ble_ext_adv_mid_rspdata_handle = 0x1e266
                0x000000000001e2b2                ble_ext_adv_end_rspdata_handle = 0x1e2b2
                0x000000000001e322                ble_ext_adv_comp_data_handle = 0x1e322
                0x000000000001e368                ble_ext_adv_first_data_handle = 0x1e368
                0x000000000001e3b0                ble_ext_adv_comp_rspdata_handle = 0x1e3b0
                0x000000000001e3f4                ble_ext_adv_first_rspdata_handle = 0x1e3f4
                0x000000000001e43e                evt_task_ble_ext_adv_hci_phy_to_air_phy = 0x1e43e
                0x000000000001e452                evt_task_ble_adv_get_max_pkt_time = 0x1e452
                0x000000000001e48c                evt_task_ble_ext_adv_get_aux_phy = 0x1e48c
                0x000000000001e49e                evt_task_ble_ext_adv_is_rsp_needed = 0x1e49e
                0x000000000001e4a6                evt_task_ble_ext_adv_idle_set_rand_addr = 0x1e4a6
                0x000000000001e4c2                evt_task_ble_ext_adv_advertising_set_rand_addr = 0x1e4c2
                0x000000000001e504                evt_task_ble_adv_send_stop_msg = 0x1e504
                0x000000000001e552                ble_ext_adv_get_prim_extheader_flag = 0x1e552
                0x000000000001e590                ble_ext_adv_get_aux_extheader_flag = 0x1e590
                0x000000000001e5bc                evt_task_ble_ext_adv_init_prim_txnode = 0x1e5bc
                0x000000000001e63c                evt_task_ble_ext_adv_init_aux_txnode = 0x1e63c
                0x000000000001e6d4                evt_task_ble_ext_adv_init_rsp_txnode = 0x1e6d4
                0x000000000001e75e                evt_task_ble_ext_adv_init_txnode = 0x1e75e
                0x000000000001e78c                evt_task_ble_ext_adv_config_regs = 0x1e78c
                0x000000000001e7ba                evt_task_ble_ext_adv_config_sed_comm = 0x1e7ba
                0x000000000001e88e                evt_task_ble_ext_adv_config_sed_prim = 0x1e88e
                0x000000000001e966                evt_task_ble_ext_adv_config_sed_aux = 0x1e966
                0x000000000001ea0c                evt_task_ble_ext_adv_config_sed = 0x1ea0c
                0x000000000001ea1c                ble_ext_adv_get_rsp_extheader_flag = 0x1ea1c
                0x000000000001ea46                ble_ext_adv_get_extheader_len = 0x1ea46
                0x000000000001ea9c                evt_task_ble_ext_adv_config_extheader = 0x1ea9c
                0x000000000001eb66                evt_task_ble_ext_adv_config_comm_txpd = 0x1eb66
                0x000000000001ebb6                evt_task_ble_ext_adv_config_prim_txpd = 0x1ebb6
                0x000000000001ec72                evt_task_ble_ext_adv_config_aux_txpd = 0x1ec72
                0x000000000001ed1a                evt_task_ble_ext_adv_config_rsp_txpd = 0x1ed1a
                0x000000000001edc4                evt_task_ble_ext_adv_config_prim_txpld = 0x1edc4
                0x000000000001ee0e                evt_task_ble_ext_adv_config_aux_txdata = 0x1ee0e
                0x000000000001ee5a                evt_task_ble_ext_adv_config_aux_txpld = 0x1ee5a
                0x000000000001eeae                evt_task_ble_ext_adv_config_rsp_txdata = 0x1eeae
                0x000000000001eed4                evt_task_ble_ext_adv_config_rsp_txpld = 0x1eed4
                0x000000000001ef1e                evt_task_ble_ext_adv_config_txpld = 0x1ef1e
                0x000000000001ef98                evt_task_ble_ext_adv_config_mac = 0x1ef98
                0x000000000001efb0                evt_task_ble_ext_adv_set_param_ext_act = 0x1efb0
                0x000000000001efd0                evt_task_ble_ext_adv_get_sid = 0x1efd0
                0x000000000001efe6                evt_task_ble_ext_adv_get_properties = 0x1efe6
                0x000000000001eff8                evt_task_ble_adv_config_aux_es = 0x1eff8
                0x000000000001f0bc                evt_task_ble_ext_adv_prim_start_cbk = 0x1f0bc
                0x000000000001f0e8                evt_task_ble_ext_adv_prim_clear_mac = 0x1f0e8
                0x000000000001f12c                evt_task_ble_ext_adv_prim_evt_cbk = 0x1f12c
                0x000000000001f16c                evt_task_ble_ext_adv_prim_sket_cbk = 0x1f16c
                0x000000000001f1a2                evt_task_ble_ext_adv_prim_late_cbk = 0x1f1a2
                0x000000000001f1ca                evt_task_ble_ext_adv_prim_abort_cbk = 0x1f1ca
                0x000000000001f1f2                evt_task_ble_ext_adv_prim_isr_cbk = 0x1f1f2
                0x000000000001f254                evt_task_ble_ext_adv_aux_start_cbk = 0x1f254
                0x000000000001f288                evt_task_ble_ext_adv_aux_clear_mac = 0x1f288
                0x000000000001f2f8                evt_task_ble_ext_adv_aux_evt_cbk = 0x1f2f8
                0x000000000001f336                evt_task_ble_ext_adv_aux_late_cbk = 0x1f336
                0x000000000001f362                evt_task_ble_ext_adv_aux_sket_cbk = 0x1f362
                0x000000000001f3a6                evt_task_ble_ext_adv_aux_abort_cbk = 0x1f3a6
                0x000000000001f3d2                evt_task_ble_ext_adv_aux_rx_cbk = 0x1f3d2
                0x000000000001f3e8                evt_task_ble_ext_adv_aux_isr_cbk = 0x1f3e8
                0x000000000001f430                evt_task_ble_ext_adv_prim_sw_cbk = 0x1f430
                0x000000000001f440                evt_task_ble_ext_adv_set_adv_disable = 0x1f440
                0x000000000001f44a                evt_task_ble_ext_adv_remove_adv = 0x1f44a
                0x000000000001f460                evt_task_ble_ext_adv_set_scanrsp_data = 0x1f460
                0x000000000001f4f2                evt_task_ble_ext_adv_properties_to_advtype = 0x1f4f2
                0x000000000001f568                evt_task_ble_ext_adv_param_to_legacy = 0x1f568
                0x000000000001f5b8                evt_task_ble_ext_adv_set_param_legacy_act = 0x1f5b8
                0x000000000001f62a                evt_task_ble_ext_adv_set_param = 0x1f62a
                0x000000000001f646                evt_task_ble_ext_adv_set_adv_data = 0x1f646
                0x000000000001f6b4                g_ext_adv_data_handle_table = 0x1f6b4
                0x000000000001f6dc                g_ext_scanrsp_data_handle_table = 0x1f6dc
                0x000000000001f6fc                evt_task_ble_initiate_cal_intv_window = 0x1f6fc
                0x000000000001f792                evt_task_ble_initiate_set_env = 0x1f792
                0x000000000001f7e8                evt_task_ble_initiate_intv_offset_req = 0x1f7e8
                0x000000000001f83c                evt_task_env_ble_initiate_create_env = 0x1f83c
                0x000000000001f864                evt_task_ble_initiate_get_env = 0x1f864
                0x000000000001f86e                evt_task_ble_initiate_delete_env = 0x1f86e
